{
  "transactions": [
    {
      "hash": "0x0c980df4fa71b976c7aad7398a3e06f5031a6d68cc2c45e1b53d586bccc5303e",
      "transactionType": "CALL",
      "contractName": null,
      "contractAddress": "0x1cdf6aabdcd19d2ed3ac927bb7b9835ac6942590",
      "function": "addTokenPair(address,address)",
      "arguments": [
        "0x2791Bca1f2de4661ED88A30C99A7a9449Aa84174",
        "0x1BFD67037B42Cf73acF2047067bd4F2C47D9BfD6"
      ],
      "transaction": {
        "from": "0x71f74debb7fd42e61de32256537284e06de8812d",
        "to": "0x1cdf6aabdcd19d2ed3ac927bb7b9835ac6942590",
        "gas": "0x10881d",
        "value": "0x0",
        "input": "0xa7c87ec20000000000000000000000002791bca1f2de4661ed88a30c99a7a9449aa841740000000000000000000000001bfd67037b42cf73acf2047067bd4f2c47d9bfd6",
        "nonce": "0x2ae",
        "chainId": "0x89"
      },
      "additionalContracts": [],
      "isFixedGasLimit": false
    }
  ],
  "receipts": [
    {
      "status": "0x1",
      "cumulativeGasUsed": "0x14a508d",
      "logs": [
        {
          "address": "0x0000000000000000000000000000000000001010",
          "topics": [
            "0x4dfe1bbbcf077ddc3e01291eea2d5c70c2b422b415d95645b9adcfd678cb1d63",
            "0x0000000000000000000000000000000000000000000000000000000000001010",
            "0x00000000000000000000000071f74debb7fd42e61de32256537284e06de8812d",
            "0x000000000000000000000000a8b52f02108aa5f4b675bdcc973760022d7c6020"
          ],
          "data": "0x000000000000000000000000000000000000000000000000004a455ab86b470000000000000000000000000000000000000000000000000007c6d170c81082980000000000000000000000000000000000000000000000833839f2fcc0733271000000000000000000000000000000000000000000000000077c8c160fa53b980000000000000000000000000000000000000000000000833884385778de7971",
          "blockHash": "0x8ded7d9bbeffc9996a363531af56d6594c817849002151b8b06d9843076246e9",
          "blockNumber": "0x41938f1",
          "transactionHash": "0x0c980df4fa71b976c7aad7398a3e06f5031a6d68cc2c45e1b53d586bccc5303e",
          "transactionIndex": "0x9a",
          "logIndex": "0x24b",
          "removed": false
        }
      ],
      "logsBloom": "0x00000000000000000000000000000000000000000000000000000000000000000000000000000000000000000002000000008000000000000000000000000000000000000000000000000000000000800000000000000000000100000000000000000000000000000000000000000000000000000000000080000000000000000000000000000000000000000000000000000000000000040000000000080000200000000000004000000000000000000000000000000000000000000000004000000000000000000001000000000000000000000000000000100008000000000000000000000000000000000400000000000000000000000000000000100000",
      "type": "0x2",
      "transactionHash": "0x0c980df4fa71b976c7aad7398a3e06f5031a6d68cc2c45e1b53d586bccc5303e",
      "transactionIndex": "0x9a",
      "blockHash": "0x8ded7d9bbeffc9996a363531af56d6594c817849002151b8b06d9843076246e9",
      "blockNumber": "0x41938f1",
      "gasUsed": "0xb4dc1",
      "effectiveGasPrice": "0x24a4b05b52",
      "from": "0x71f74debb7fd42e61de32256537284e06de8812d",
      "to": "0x1cdf6aabdcd19d2ed3ac927bb7b9835ac6942590",
      "contractAddress": null
    }
  ],
  "libraries": [],
  "pending": [],
  "returns": {},
  "timestamp": 1741361886,
  "chain": 137,
  "commit": "f5ee1b3"
}