{
  "transactions": [
    {
      "hash": "0x13b7358a7c3fb3f286c6caa790ff9cdaad40b47d9fb7ee534d948acdae22a9f9",
      "transactionType": "CALL",
      "contractName": null,
      "contractAddress": "0x1cdf6aabdcd19d2ed3ac927bb7b9835ac6942590",
      "function": "addTokenPair(address,address)",
      "arguments": [
        "0x3c499c542cEF5E3811e1192ce70d8cC03d5c3359",
        "0x7ceB23fD6bC0adD59E62ac25578270cFf1b9f619"
      ],
      "transaction": {
        "from": "0x71f74debb7fd42e61de32256537284e06de8812d",
        "to": "0x1cdf6aabdcd19d2ed3ac927bb7b9835ac6942590",
        "gas": "0x10876d",
        "value": "0x0",
        "input": "0xa7c87ec20000000000000000000000003c499c542cef5e3811e1192ce70d8cc03d5c33590000000000000000000000007ceb23fd6bc0add59e62ac25578270cff1b9f619",
        "nonce": "0x2af",
        "chainId": "0x89"
      },
      "additionalContracts": [],
      "isFixedGasLimit": false
    }
  ],
  "receipts": [
    {
      "status": "0x1",
      "cumulativeGasUsed": "0xa1b2b4",
      "logs": [
        {
          "address": "0x0000000000000000000000000000000000001010",
          "topics": [
            "0x4dfe1bbbcf077ddc3e01291eea2d5c70c2b422b415d95645b9adcfd678cb1d63",
            "0x0000000000000000000000000000000000000000000000000000000000001010",
            "0x00000000000000000000000071f74debb7fd42e61de32256537284e06de8812d",
            "0x000000000000000000000000ce7fcb674ba27a952c71061b649fb5a5746f3b2b"
          ],
          "data": "0x00000000000000000000000000000000000000000000000000499303b149dd4000000000000000000000000000000000000000000000000006289cb3a71dffc600000000000000000000000000000000000000000000055364afcbb59bafeb7100000000000000000000000000000000000000000000000005df09aff5d4228600000000000000000000000000000000000000000000055364f95eb94cf9c8b1",
          "blockHash": "0x53c7fd84196537658ba2462e25473cfc77386babf832764ca5dd4b401115420a",
          "blockNumber": "0x419393b",
          "transactionHash": "0x13b7358a7c3fb3f286c6caa790ff9cdaad40b47d9fb7ee534d948acdae22a9f9",
          "transactionIndex": "0x48",
          "logIndex": "0x127",
          "removed": false
        }
      ],
      "logsBloom": "0x00000000000000000000000000000000000000000000000000000000000000000000000000000000000000000000000000008000000000000000000000000000000000000000000000000000000000800000000000000000000120000000000000000000000000000000000000000000000000000000000080000000000000000000000000000000000000000080000000000000000000000000000000080000200000000000000000000000000000000000000000000000000000000000004000000000004000000001000000000000000000000000000000100008000000000000000000000000000000000400000000000000000000000000000000100000",
      "type": "0x2",
      "transactionHash": "0x13b7358a7c3fb3f286c6caa790ff9cdaad40b47d9fb7ee534d948acdae22a9f9",
      "transactionIndex": "0x48",
      "blockHash": "0x53c7fd84196537658ba2462e25473cfc77386babf832764ca5dd4b401115420a",
      "blockNumber": "0x419393b",
      "gasUsed": "0xb4d49",
      "effectiveGasPrice": "0x17a79fe161",
      "from": "0x71f74debb7fd42e61de32256537284e06de8812d",
      "to": "0x1cdf6aabdcd19d2ed3ac927bb7b9835ac6942590",
      "contractAddress": null
    }
  ],
  "libraries": [],
  "pending": [],
  "returns": {},
  "timestamp": 1741362042,
  "chain": 137,
  "commit": "f5ee1b3"
}