{
  "transactions": [
    {
      "hash": "0x646e90fa16409b75d38a9c28475c6008e4aa269238d68d02a1ea9f6e2d42b007",
      "transactionType": "CALL",
      "contractName": null,
      "contractAddress": "0x3d51e2be3aa2cc82ae4afe7e325c7eeae31ad7ee",
      "function": "addTokenPair(address,address)",
      "arguments": [
        "0x7ceB23fD6bC0adD59E62ac25578270cFf1b9f619",
        "0xD6DF932A45C0f255f85145f286eA0b292B21C90B"
      ],
      "transaction": {
        "from": "0x71f74debb7fd42e61de32256537284e06de8812d",
        "to": "0x3d51e2be3aa2cc82ae4afe7e325c7eeae31ad7ee",
        "gas": "0xf9b22",
        "value": "0x0",
        "input": "0xa7c87ec20000000000000000000000007ceb23fd6bc0add59e62ac25578270cff1b9f619000000000000000000000000d6df932a45c0f255f85145f286ea0b292b21c90b",
        "nonce": "0x271",
        "chainId": "0x89"
      },
      "additionalContracts": [],
      "isFixedGasLimit": false
    }
  ],
  "receipts": [
    {
      "status": "0x1",
      "cumulativeGasUsed": "0x10ea6bc",
      "logs": [
        {
          "address": "0x0000000000000000000000000000000000001010",
          "topics": [
            "0x4dfe1bbbcf077ddc3e01291eea2d5c70c2b422b415d95645b9adcfd678cb1d63",
            "0x0000000000000000000000000000000000000000000000000000000000001010",
            "0x00000000000000000000000071f74debb7fd42e61de32256537284e06de8812d",
            "0x0000000000000000000000009ead03f7136fc6b4bdb0780b00a1c14ae5a8b6d0"
          ],
          "data": "0x000000000000000000000000000000000000000000000000004e63c67bb453080000000000000000000000000000000000000000000000002ab3dd9efb5fa47500000000000000000000000000000000000000000000083a22fad419e13d25f50000000000000000000000000000000000000000000000002a6579d87fab516d00000000000000000000000000000000000000000000083a234937e05cf178fd",
          "blockHash": "0x471fe3170b1c63140abdf3635f5d89c8eba2fc2171857db4781cb3dad7ae7636",
          "blockNumber": "0x418de9b",
          "transactionHash": "0x646e90fa16409b75d38a9c28475c6008e4aa269238d68d02a1ea9f6e2d42b007",
          "transactionIndex": "0x3f",
          "logIndex": "0x16c",
          "removed": false
        }
      ],
      "logsBloom": "0x00000000000000000000000000000000000000000000000000000000000000000000000000000000000000000000000000008000000000000000000000000000000000000000000000000000000000800000000000000000000100000000000000000000000000000000000000000000000000000000000080000000000000000040000000040000000000000000000000000000000000000000000000080000200000000000000000000000000000000000000000000000000000000000004000000000000000000001000000000000000000000000000000120008000000000000000000000000000000000400000000000000000000000000000000100000",
      "type": "0x2",
      "transactionHash": "0x646e90fa16409b75d38a9c28475c6008e4aa269238d68d02a1ea9f6e2d42b007",
      "transactionIndex": "0x3f",
      "blockHash": "0x471fe3170b1c63140abdf3635f5d89c8eba2fc2171857db4781cb3dad7ae7636",
      "blockNumber": "0x418de9b",
      "gasUsed": "0xb4c68",
      "effectiveGasPrice": "0xc5c976097",
      "from": "0x71f74debb7fd42e61de32256537284e06de8812d",
      "to": "0x3d51e2be3aa2cc82ae4afe7e325c7eeae31ad7ee",
      "contractAddress": null
    }
  ],
  "libraries": [],
  "pending": [],
  "returns": {},
  "timestamp": 1741312733,
  "chain": 137,
  "commit": "e6fbfc1"
}