{
  "transactions": [
    {
      "hash": "0x4cee85823e46a633a7b164dbdd7c8e9bb5138fa3b5418d0321fafcd4959bce71",
      "transactionType": "CALL",
      "contractName": null,
      "contractAddress": "0x3d51e2be3aa2cc82ae4afe7e325c7eeae31ad7ee",
      "function": "addTokenPair(address,address)",
      "arguments": [
        "0xc2132D05D31c914a87C6611C10748AEb04B58e8F",
        "0x7ceB23fD6bC0adD59E62ac25578270cFf1b9f619"
      ],
      "transaction": {
        "from": "0x71f74debb7fd42e61de32256537284e06de8812d",
        "to": "0x3d51e2be3aa2cc82ae4afe7e325c7eeae31ad7ee",
        "gas": "0xff80b",
        "value": "0x0",
        "input": "0xa7c87ec2000000000000000000000000c2132d05d31c914a87c6611c10748aeb04b58e8f0000000000000000000000007ceb23fd6bc0add59e62ac25578270cff1b9f619",
        "nonce": "0x270",
        "chainId": "0x89"
      },
      "additionalContracts": [],
      "isFixedGasLimit": false
    }
  ],
  "receipts": [
    {
      "status": "0x1",
      "cumulativeGasUsed": "0xa1ea4c",
      "logs": [
        {
          "address": "0x0000000000000000000000000000000000001010",
          "topics": [
            "0x4dfe1bbbcf077ddc3e01291eea2d5c70c2b422b415d95645b9adcfd678cb1d63",
            "0x0000000000000000000000000000000000000000000000000000000000001010",
            "0x00000000000000000000000071f74debb7fd42e61de32256537284e06de8812d",
            "0x000000000000000000000000a8b52f02108aa5f4b675bdcc973760022d7c6020"
          ],
          "data": "0x0000000000000000000000000000000000000000000000000050c111b90b90000000000000000000000000000000000000000000000000002b54602dbb2caa6100000000000000000000000000000000000000000000007d932136f0498cf1d10000000000000000000000000000000000000000000000002b039f1c02211a6100000000000000000000000000000000000000000000007d9371f802029881d1",
          "blockHash": "0xd16c8416d085f6192dc043650ac16bd76e678f7dfe9bb6170bf4b93f034f8a50",
          "blockNumber": "0x418de76",
          "transactionHash": "0x4cee85823e46a633a7b164dbdd7c8e9bb5138fa3b5418d0321fafcd4959bce71",
          "transactionIndex": "0x44",
          "logIndex": "0x11b",
          "removed": false
        }
      ],
      "logsBloom": "0x00000000000000000000000000000000000000000000000000000000000000000000000000000000000000000002000000008000000000000000000000000000000000000000000000000000000000800000000000000000000100000000000000000000000000000000000000000000000000000000000080000000000000000000000000000000000000000000000000000000000000040000000000080000200000000000004000000000000000000000000000000000000000000000004000000000000000000001000000000000000000000000000000100008000000000000000000000000000000000400000000000000000000000000000000100000",
      "type": "0x2",
      "transactionHash": "0x4cee85823e46a633a7b164dbdd7c8e9bb5138fa3b5418d0321fafcd4959bce71",
      "transactionIndex": "0x44",
      "blockHash": "0xd16c8416d085f6192dc043650ac16bd76e678f7dfe9bb6170bf4b93f034f8a50",
      "blockNumber": "0x418de76",
      "gasUsed": "0xb8fac",
      "effectiveGasPrice": "0xde22c04b1",
      "from": "0x71f74debb7fd42e61de32256537284e06de8812d",
      "to": "0x3d51e2be3aa2cc82ae4afe7e325c7eeae31ad7ee",
      "contractAddress": null
    }
  ],
  "libraries": [],
  "pending": [],
  "returns": {},
  "timestamp": 1741312656,
  "chain": 137,
  "commit": "e6fbfc1"
}