{
  "transactions": [
    {
      "hash": "0x4489c37a7629977227dc3c6d8cbd1f8f1d8e4296dc746a6de06ec79771d7d994",
      "transactionType": "CALL",
      "contractName": null,
      "contractAddress": "0x1cdf6aabdcd19d2ed3ac927bb7b9835ac6942590",
      "function": "addTokenPair(address,address)",
      "arguments": [
        "0xc2132D05D31c914a87C6611C10748AEb04B58e8F",
        "0x7ceB23fD6bC0adD59E62ac25578270cFf1b9f619"
      ],
      "transaction": {
        "from": "0x71f74debb7fd42e61de32256537284e06de8812d",
        "to": "0x1cdf6aabdcd19d2ed3ac927bb7b9835ac6942590",
        "gas": "0xff80b",
        "value": "0x0",
        "input": "0xa7c87ec2000000000000000000000000c2132d05d31c914a87c6611c10748aeb04b58e8f0000000000000000000000007ceb23fd6bc0add59e62ac25578270cff1b9f619",
        "nonce": "0x275",
        "chainId": "0x89"
      },
      "additionalContracts": [],
      "isFixedGasLimit": false
    }
  ],
  "receipts": [
    {
      "status": "0x1",
      "cumulativeGasUsed": "0x7f9548",
      "logs": [
        {
          "address": "0x0000000000000000000000000000000000001010",
          "topics": [
            "0x4dfe1bbbcf077ddc3e01291eea2d5c70c2b422b415d95645b9adcfd678cb1d63",
            "0x0000000000000000000000000000000000000000000000000000000000001010",
            "0x00000000000000000000000071f74debb7fd42e61de32256537284e06de8812d",
            "0x00000000000000000000000083d69448f88bf9c701c1b93f43e1f753d39b2632"
          ],
          "data": "0x000000000000000000000000000000000000000000000000004fd935ac1fbe04000000000000000000000000000000000000000000000000282935ca1fe1602d000000000000000000000000000000000000000000000b31896d237998b3858b00000000000000000000000000000000000000000000000027d95c9473c1a229000000000000000000000000000000000000000000000b3189bcfcaf44d3438f",
          "blockHash": "0xa9406e6181cee340063a43211656839e5d7e66a6351fb610a49340d8ea81e66c",
          "blockNumber": "0x418e80b",
          "transactionHash": "0x4489c37a7629977227dc3c6d8cbd1f8f1d8e4296dc746a6de06ec79771d7d994",
          "transactionIndex": "0x2e",
          "logIndex": "0xe0",
          "removed": false
        }
      ],
      "logsBloom": "0x00000000000000000000000000000000000000000000000000000000000000000000000000000000000000000000000000008000000000000000000000000000000000000000008000000000000000800000000000000000000100000000000000000000000000000000000000000000000000000800100080000000000000000000000000000000000000000000000000000000000000000000000000080000200000000000000000000000000000000000000000000000000000000000004000000000000000000001000000000000000000000000000000100008000000000000000000000000000000000400000000000000000000000000000000100000",
      "type": "0x2",
      "transactionHash": "0x4489c37a7629977227dc3c6d8cbd1f8f1d8e4296dc746a6de06ec79771d7d994",
      "transactionIndex": "0x2e",
      "blockHash": "0xa9406e6181cee340063a43211656839e5d7e66a6351fb610a49340d8ea81e66c",
      "blockNumber": "0x418e80b",
      "gasUsed": "0xb8fac",
      "effectiveGasPrice": "0xc56a8e507",
      "from": "0x71f74debb7fd42e61de32256537284e06de8812d",
      "to": "0x1cdf6aabdcd19d2ed3ac927bb7b9835ac6942590",
      "contractAddress": null
    }
  ],
  "libraries": [],
  "pending": [],
  "returns": {},
  "timestamp": 1741317867,
  "chain": 137,
  "commit": "5016532"
}