{
  "transactions": [
    {
      "hash": "0x3dc49434178c09f76cc853f8ba23d62af53ab5b10e352842adc5832d13a2a809",
      "transactionType": "CALL",
      "contractName": null,
      "contractAddress": "0x1cdf6aabdcd19d2ed3ac927bb7b9835ac6942590",
      "function": "addTokenPair(address,address)",
      "arguments": [
        "0xc2132D05D31c914a87C6611C10748AEb04B58e8F",
        "0x3c499c542cEF5E3811e1192ce70d8cC03d5c3359"
      ],
      "transaction": {
        "from": "0x71f74debb7fd42e61de32256537284e06de8812d",
        "to": "0x1cdf6aabdcd19d2ed3ac927bb7b9835ac6942590",
        "gas": "0x1087fc",
        "value": "0x0",
        "input": "0xa7c87ec2000000000000000000000000c2132d05d31c914a87c6611c10748aeb04b58e8f0000000000000000000000003c499c542cef5e3811e1192ce70d8cc03d5c3359",
        "nonce": "0x290",
        "chainId": "0x89"
      },
      "additionalContracts": [],
      "isFixedGasLimit": false
    }
  ],
  "receipts": [
    {
      "status": "0x1",
      "cumulativeGasUsed": "0x98df6b",
      "logs": [
        {
          "address": "0x0000000000000000000000000000000000001010",
          "topics": [
            "0x4dfe1bbbcf077ddc3e01291eea2d5c70c2b422b415d95645b9adcfd678cb1d63",
            "0x0000000000000000000000000000000000000000000000000000000000001010",
            "0x00000000000000000000000071f74debb7fd42e61de32256537284e06de8812d",
            "0x00000000000000000000000069f5c4d08f6bc8cd29fe5f004d46fb566270868d"
          ],
          "data": "0x000000000000000000000000000000000000000000000000004ba14a9e860dda0000000000000000000000000000000000000000000000002017220fe438b19a000000000000000000000000000000000000000000000038fdf1c222c14734d00000000000000000000000000000000000000000000000001fcb80c545b2a3c0000000000000000000000000000000000000000000000038fe3d636d5fcd42aa",
          "blockHash": "0x5a99079418f2a767340fb743b62cae1febbbf57ad8b50b1073d4965472b2488b",
          "blockNumber": "0x41928f5",
          "transactionHash": "0x3dc49434178c09f76cc853f8ba23d62af53ab5b10e352842adc5832d13a2a809",
          "transactionIndex": "0x3a",
          "logIndex": "0x117",
          "removed": false
        }
      ],
      "logsBloom": "0x00000000000000000000000002000000000000000000000000000000000000000000000000000000200000000000000000008000000000000000000000000000000000000000000000000000000040800000000000000000000100000000000000000000000000000000000000000000000000000000000080000000000000000000000000000000000000000000000000000000000000000000000000080000200000000000000000000000000000000000000000000000000000000000004000000000000000000001000000000000000000000000000000100008000000000000000000000000000000000400000000000000000000000000000000100000",
      "type": "0x2",
      "transactionHash": "0x3dc49434178c09f76cc853f8ba23d62af53ab5b10e352842adc5832d13a2a809",
      "transactionIndex": "0x3a",
      "blockHash": "0x5a99079418f2a767340fb743b62cae1febbbf57ad8b50b1073d4965472b2488b",
      "blockNumber": "0x41928f5",
      "gasUsed": "0xb4dab",
      "effectiveGasPrice": "0x16924e4265",
      "from": "0x71f74debb7fd42e61de32256537284e06de8812d",
      "to": "0x1cdf6aabdcd19d2ed3ac927bb7b9835ac6942590",
      "contractAddress": null
    }
  ],
  "libraries": [],
  "pending": [],
  "returns": {},
  "timestamp": 1741353182,
  "chain": 137,
  "commit": "c00d083"
}