{
  "transactions": [
    {
      "hash": "0x0166929a788425591f22f0c3cb5956b40e8737f6ebe368e6d4b7d7a920233194",
      "transactionType": "CALL",
      "contractName": null,
      "contractAddress": "0x1cdf6aabdcd19d2ed3ac927bb7b9835ac6942590",
      "function": "addTokenPair(address,address)",
      "arguments": [
        "0xc2132D05D31c914a87C6611C10748AEb04B58e8F",
        "0x1BFD67037B42Cf73acF2047067bd4F2C47D9BfD6"
      ],
      "transaction": {
        "from": "0x71f74debb7fd42e61de32256537284e06de8812d",
        "to": "0x1cdf6aabdcd19d2ed3ac927bb7b9835ac6942590",
        "gas": "0xf9bc8",
        "value": "0x0",
        "input": "0xa7c87ec2000000000000000000000000c2132d05d31c914a87c6611c10748aeb04b58e8f0000000000000000000000001bfd67037b42cf73acf2047067bd4f2c47d9bfd6",
        "nonce": "0x279",
        "chainId": "0x89"
      },
      "additionalContracts": [],
      "isFixedGasLimit": false
    }
  ],
  "receipts": [
    {
      "status": "0x1",
      "cumulativeGasUsed": "0xb4932d",
      "logs": [
        {
          "address": "0x0000000000000000000000000000000000001010",
          "topics": [
            "0x4dfe1bbbcf077ddc3e01291eea2d5c70c2b422b415d95645b9adcfd678cb1d63",
            "0x0000000000000000000000000000000000000000000000000000000000001010",
            "0x00000000000000000000000071f74debb7fd42e61de32256537284e06de8812d",
            "0x000000000000000000000000b9ede6f94d192073d8eaf85f8db677133d483249"
          ],
          "data": "0x000000000000000000000000000000000000000000000000004621fe5c89e4c00000000000000000000000000000000000000000000000002728e7b45d857bb20000000000000000000000000000000000000000000000ee908b00308682071100000000000000000000000000000000000000000000000026e2c5b600fb96f20000000000000000000000000000000000000000000000ee90d1222ee30bebd1",
          "blockHash": "0x23e6b3fb96be3c935ec6681a852def4b4687e6b7d0680462a1b8033651cd0baa",
          "blockNumber": "0x418eaca",
          "transactionHash": "0x0166929a788425591f22f0c3cb5956b40e8737f6ebe368e6d4b7d7a920233194",
          "transactionIndex": "0x4a",
          "logIndex": "0x122",
          "removed": false
        }
      ],
      "logsBloom": "0x00000000000000000000000000000000000000000000000000000000000000000000000000000000000000000000000000008000000000000000000000000000000000000000000000000000000000800000000000000000000100000000000000000000000000000000000000000000000000000000000080000000000100000000000000000000000000000000000000000000000000000000000000080000200000000000000000000000000000000000000000000000000000000000004000000000000000000001000000000000000000000000000000100008000000000000000000000000100000000400000000000000000000200000000000100000",
      "type": "0x2",
      "transactionHash": "0x0166929a788425591f22f0c3cb5956b40e8737f6ebe368e6d4b7d7a920233194",
      "transactionIndex": "0x4a",
      "blockHash": "0x23e6b3fb96be3c935ec6681a852def4b4687e6b7d0680462a1b8033651cd0baa",
      "blockNumber": "0x418eaca",
      "gasUsed": "0xb4ce0",
      "effectiveGasPrice": "0xde2272e14",
      "from": "0x71f74debb7fd42e61de32256537284e06de8812d",
      "to": "0x1cdf6aabdcd19d2ed3ac927bb7b9835ac6942590",
      "contractAddress": null
    }
  ],
  "libraries": [],
  "pending": [],
  "returns": {},
  "timestamp": 1741319362,
  "chain": 137,
  "commit": "5016532"
}