{
  "transactions": [
    {
      "hash": "0xe403af85d253f26ccbf465188614619df1ba548a856f837b4144d78b0361455b",
      "transactionType": "CALL",
      "contractName": null,
      "contractAddress": "0x8dc20ce305ff565f7c6ff8e8d277b86174515c47",
      "function": "iteratePairList(uint256,uint256,uint256,uint256,uint256,bool)",
      "arguments": [
        "0",
        "4",
        "100000000000000000",
        "0",
        "100",
        "false"
      ],
      "transaction": {
        "from": "0x71f74debb7fd42e61de32256537284e06de8812d",
        "to": "0x8dc20ce305ff565f7c6ff8e8d277b86174515c47",
        "gas": "0x11d6fb",
        "value": "0x0",
        "input": "0x8101424d00000000000000000000000000000000000000000000000000000000000000000000000000000000000000000000000000000000000000000000000000000004000000000000000000000000000000000000000000000000016345785d8a0000000000000000000000000000000000000000000000000000000000000000000000000000000000000000000000000000000000000000000000000000000000640000000000000000000000000000000000000000000000000000000000000000",
        "nonce": "0x2b8",
        "chainId": "0x38"
      },
      "additionalContracts": [],
      "isFixedGasLimit": false
    }
  ],
  "receipts": [
    {
      "status": "0x1",
      "cumulativeGasUsed": "0x6163c6",
      "logs": [
        {
          "address": "0x8dc20ce305ff565f7c6ff8e8d277b86174515c47",
          "topics": [
            "0x05ae39bd3637f496d15f3461b4f129f5220ecb5dd2c8b18471081ae0b514d6f4",
            "0x00000000000000000000000055d398326f99059ff775485246999027b3197955",
            "0x0000000000000000000000002170ed0880ac9a755fd29b2688956bd959f933f8"
          ],
          "data": "0x00000000000000000000000010ed43c718714eb63d5aa57b78b54704e256024e0000000000000000000000001b02da8cb0d097eb8d57a175b88c7d8b47997506000000000000000000000000000000000000000000000000016345785d8a0000000000000000000000000000000000000000000000000000000029dae1bcd56a0000000000000000000000000000000000000000000000000163da43821d165c000000000000000000000000000000000000000000000000000094cb2493165c",
          "blockHash": "0x57db659c8ca4f7ad7ea2b2821a5cc36f6eef52ba534bb40f6f94be443903c5fa",
          "blockNumber": "0x2d1355b",
          "transactionHash": "0xe403af85d253f26ccbf465188614619df1ba548a856f837b4144d78b0361455b",
          "transactionIndex": "0x4a",
          "logIndex": "0x92",
          "removed": false
        },
        {
          "address": "0x55d398326f99059ff775485246999027b3197955",
          "topics": [
            "0x8c5be1e5ebec7d5bd14f71427d1e84f3dd0314c0f7b2291e5b200ac8c7c3b925",
            "0x0000000000000000000000008dc20ce305ff565f7c6ff8e8d277b86174515c47",
            "0x00000000000000000000000010ed43c718714eb63d5aa57b78b54704e256024e"
          ],
          "data": "0x000000000000000000000000000000000000000000000000016345785d8a0000",
          "blockHash": "0x57db659c8ca4f7ad7ea2b2821a5cc36f6eef52ba534bb40f6f94be443903c5fa",
          "blockNumber": "0x2d1355b",
          "transactionHash": "0xe403af85d253f26ccbf465188614619df1ba548a856f837b4144d78b0361455b",
          "transactionIndex": "0x4a",
          "logIndex": "0x93",
          "removed": false
        },
        {
          "address": "0x55d398326f99059ff775485246999027b3197955",
          "topics": [
            "0xddf252ad1be2c89b69c2b068fc378daa952ba7f163c4a11628f55a4df523b3ef",
            "0x0000000000000000000000008dc20ce305ff565f7c6ff8e8d277b86174515c47",
            "0x000000000000000000000000531febfeb9a61d948c384acfbe6dcc51057aea7e"
          ],
          "data": "0x000000000000000000000000000000000000000000000000016345785d8a0000",
          "blockHash": "0x57db659c8ca4f7ad7ea2b2821a5cc36f6eef52ba534bb40f6f94be443903c5fa",
          "blockNumber": "0x2d1355b",
          "transactionHash": "0xe403af85d253f26ccbf465188614619df1ba548a856f837b4144d78b0361455b",
          "transactionIndex": "0x4a",
          "logIndex": "0x94",
          "removed": false
        },
        {
          "address": "0x55d398326f99059ff775485246999027b3197955",
          "topics": [
            "0x8c5be1e5ebec7d5bd14f71427d1e84f3dd0314c0f7b2291e5b200ac8c7c3b925",
            "0x0000000000000000000000008dc20ce305ff565f7c6ff8e8d277b86174515c47",
            "0x00000000000000000000000010ed43c718714eb63d5aa57b78b54704e256024e"
          ],
          "data": "0x0000000000000000000000000000000000000000000000000000000000000000",
          "blockHash": "0x57db659c8ca4f7ad7ea2b2821a5cc36f6eef52ba534bb40f6f94be443903c5fa",
          "blockNumber": "0x2d1355b",
          "transactionHash": "0xe403af85d253f26ccbf465188614619df1ba548a856f837b4144d78b0361455b",
          "transactionIndex": "0x4a",
          "logIndex": "0x95",
          "removed": false
        },
        {
          "address": "0x2170ed0880ac9a755fd29b2688956bd959f933f8",
          "topics": [
            "0xddf252ad1be2c89b69c2b068fc378daa952ba7f163c4a11628f55a4df523b3ef",
            "0x000000000000000000000000531febfeb9a61d948c384acfbe6dcc51057aea7e",
            "0x0000000000000000000000008dc20ce305ff565f7c6ff8e8d277b86174515c47"
          ],
          "data": "0x000000000000000000000000000000000000000000000000000029dae1bcd56a",
          "blockHash": "0x57db659c8ca4f7ad7ea2b2821a5cc36f6eef52ba534bb40f6f94be443903c5fa",
          "blockNumber": "0x2d1355b",
          "transactionHash": "0xe403af85d253f26ccbf465188614619df1ba548a856f837b4144d78b0361455b",
          "transactionIndex": "0x4a",
          "logIndex": "0x96",
          "removed": false
        },
        {
          "address": "0x531febfeb9a61d948c384acfbe6dcc51057aea7e",
          "topics": [
            "0x1c411e9a96e071241c2f21f7726b17ae89e3cab4c78be50e062b03a9fffbbad1"
          ],
          "data": "0x000000000000000000000000000000000000000000000006792406942375e76f0000000000000000000000000000000000000000000036cee41b5540f4042bd7",
          "blockHash": "0x57db659c8ca4f7ad7ea2b2821a5cc36f6eef52ba534bb40f6f94be443903c5fa",
          "blockNumber": "0x2d1355b",
          "transactionHash": "0xe403af85d253f26ccbf465188614619df1ba548a856f837b4144d78b0361455b",
          "transactionIndex": "0x4a",
          "logIndex": "0x97",
          "removed": false
        },
        {
          "address": "0x531febfeb9a61d948c384acfbe6dcc51057aea7e",
          "topics": [
            "0xd78ad95fa46c994b6551d0da85fc275fe613ce37657fb8d5e3d130840159d822",
            "0x00000000000000000000000010ed43c718714eb63d5aa57b78b54704e256024e",
            "0x0000000000000000000000008dc20ce305ff565f7c6ff8e8d277b86174515c47"
          ],
          "data": "0x0000000000000000000000000000000000000000000000000000000000000000000000000000000000000000000000000000000000000000016345785d8a0000000000000000000000000000000000000000000000000000000029dae1bcd56a0000000000000000000000000000000000000000000000000000000000000000",
          "blockHash": "0x57db659c8ca4f7ad7ea2b2821a5cc36f6eef52ba534bb40f6f94be443903c5fa",
          "blockNumber": "0x2d1355b",
          "transactionHash": "0xe403af85d253f26ccbf465188614619df1ba548a856f837b4144d78b0361455b",
          "transactionIndex": "0x4a",
          "logIndex": "0x98",
          "removed": false
        },
        {
          "address": "0x2170ed0880ac9a755fd29b2688956bd959f933f8",
          "topics": [
            "0x8c5be1e5ebec7d5bd14f71427d1e84f3dd0314c0f7b2291e5b200ac8c7c3b925",
            "0x0000000000000000000000008dc20ce305ff565f7c6ff8e8d277b86174515c47",
            "0x0000000000000000000000001b02da8cb0d097eb8d57a175b88c7d8b47997506"
          ],
          "data": "0x000000000000000000000000000000000000000000000000000029dae1bcd56a",
          "blockHash": "0x57db659c8ca4f7ad7ea2b2821a5cc36f6eef52ba534bb40f6f94be443903c5fa",
          "blockNumber": "0x2d1355b",
          "transactionHash": "0xe403af85d253f26ccbf465188614619df1ba548a856f837b4144d78b0361455b",
          "transactionIndex": "0x4a",
          "logIndex": "0x99",
          "removed": false
        },
        {
          "address": "0x2170ed0880ac9a755fd29b2688956bd959f933f8",
          "topics": [
            "0xddf252ad1be2c89b69c2b068fc378daa952ba7f163c4a11628f55a4df523b3ef",
            "0x0000000000000000000000008dc20ce305ff565f7c6ff8e8d277b86174515c47",
            "0x0000000000000000000000005af4859f62edb197887da2919ed185a89771826c"
          ],
          "data": "0x000000000000000000000000000000000000000000000000000029dae1bcd56a",
          "blockHash": "0x57db659c8ca4f7ad7ea2b2821a5cc36f6eef52ba534bb40f6f94be443903c5fa",
          "blockNumber": "0x2d1355b",
          "transactionHash": "0xe403af85d253f26ccbf465188614619df1ba548a856f837b4144d78b0361455b",
          "transactionIndex": "0x4a",
          "logIndex": "0x9a",
          "removed": false
        },
        {
          "address": "0x2170ed0880ac9a755fd29b2688956bd959f933f8",
          "topics": [
            "0x8c5be1e5ebec7d5bd14f71427d1e84f3dd0314c0f7b2291e5b200ac8c7c3b925",
            "0x0000000000000000000000008dc20ce305ff565f7c6ff8e8d277b86174515c47",
            "0x0000000000000000000000001b02da8cb0d097eb8d57a175b88c7d8b47997506"
          ],
          "data": "0x0000000000000000000000000000000000000000000000000000000000000000",
          "blockHash": "0x57db659c8ca4f7ad7ea2b2821a5cc36f6eef52ba534bb40f6f94be443903c5fa",
          "blockNumber": "0x2d1355b",
          "transactionHash": "0xe403af85d253f26ccbf465188614619df1ba548a856f837b4144d78b0361455b",
          "transactionIndex": "0x4a",
          "logIndex": "0x9b",
          "removed": false
        },
        {
          "address": "0x55d398326f99059ff775485246999027b3197955",
          "topics": [
            "0xddf252ad1be2c89b69c2b068fc378daa952ba7f163c4a11628f55a4df523b3ef",
            "0x0000000000000000000000005af4859f62edb197887da2919ed185a89771826c",
            "0x0000000000000000000000008dc20ce305ff565f7c6ff8e8d277b86174515c47"
          ],
          "data": "0x0000000000000000000000000000000000000000000000000163da43821d165c",
          "blockHash": "0x57db659c8ca4f7ad7ea2b2821a5cc36f6eef52ba534bb40f6f94be443903c5fa",
          "blockNumber": "0x2d1355b",
          "transactionHash": "0xe403af85d253f26ccbf465188614619df1ba548a856f837b4144d78b0361455b",
          "transactionIndex": "0x4a",
          "logIndex": "0x9c",
          "removed": false
        },
        {
          "address": "0x5af4859f62edb197887da2919ed185a89771826c",
          "topics": [
            "0x1c411e9a96e071241c2f21f7726b17ae89e3cab4c78be50e062b03a9fffbbad1"
          ],
          "data": "0x000000000000000000000000000000000000000000000000008e914edac9d56e000000000000000000000000000000000000000000000004be5e0c59041cb757",
          "blockHash": "0x57db659c8ca4f7ad7ea2b2821a5cc36f6eef52ba534bb40f6f94be443903c5fa",
          "blockNumber": "0x2d1355b",
          "transactionHash": "0xe403af85d253f26ccbf465188614619df1ba548a856f837b4144d78b0361455b",
          "transactionIndex": "0x4a",
          "logIndex": "0x9d",
          "removed": false
        },
        {
          "address": "0x5af4859f62edb197887da2919ed185a89771826c",
          "topics": [
            "0xd78ad95fa46c994b6551d0da85fc275fe613ce37657fb8d5e3d130840159d822",
            "0x0000000000000000000000001b02da8cb0d097eb8d57a175b88c7d8b47997506",
            "0x0000000000000000000000008dc20ce305ff565f7c6ff8e8d277b86174515c47"
          ],
          "data": "0x000000000000000000000000000000000000000000000000000029dae1bcd56a000000000000000000000000000000000000000000000000000000000000000000000000000000000000000000000000000000000000000000000000000000000000000000000000000000000000000000000000000000000163da43821d165c",
          "blockHash": "0x57db659c8ca4f7ad7ea2b2821a5cc36f6eef52ba534bb40f6f94be443903c5fa",
          "blockNumber": "0x2d1355b",
          "transactionHash": "0xe403af85d253f26ccbf465188614619df1ba548a856f837b4144d78b0361455b",
          "transactionIndex": "0x4a",
          "logIndex": "0x9e",
          "removed": false
        }
      ],
      "logsBloom": "0x0020020001000000000000008040000000000000000000000000000000000000000000000000000000000020000000000000000000000000000000000020000000000000000000000100000800000020080000200000000040000000400200000000000000000000000000000000000000000001000000000800001008000000000002002000000000880020000000000060000000000008000000400000800002000000002000000000000002000000000000000200001000080000000001000000000200000000000000000110c000200000000080001000000000000000200050000100000000000006000000000000000800000000000000000000000000",
      "type": "0x0",
      "transactionHash": "0xe403af85d253f26ccbf465188614619df1ba548a856f837b4144d78b0361455b",
      "transactionIndex": "0x4a",
      "blockHash": "0x57db659c8ca4f7ad7ea2b2821a5cc36f6eef52ba534bb40f6f94be443903c5fa",
      "blockNumber": "0x2d1355b",
      "gasUsed": "0xc32b9",
      "effectiveGasPrice": "0x3b9aca00",
      "from": "0x71f74debb7fd42e61de32256537284e06de8812d",
      "to": "0x8dc20ce305ff565f7c6ff8e8d277b86174515c47",
      "contractAddress": null
    }
  ],
  "libraries": [],
  "pending": [],
  "returns": {},
  "timestamp": 1741376953,
  "chain": 56,
  "commit": "0899a7e"
}