{
  "transactions": [
    {
      "hash": "0x33e48a8dcadaca3315508ee3b76b3468afcfa29aaefbe96ad9db8b817b89bd5a",
      "transactionType": "CALL",
      "contractName": null,
      "contractAddress": "0x8dc20ce305ff565f7c6ff8e8d277b86174515c47",
      "function": "iteratePairList(uint256,uint256,uint256,uint256,uint256,bool)",
      "arguments": [
        "0",
        "4",
        "1000000000",
        "5",
        "10",
        "false"
      ],
      "transaction": {
        "from": "0x71f74debb7fd42e61de32256537284e06de8812d",
        "to": "0x8dc20ce305ff565f7c6ff8e8d277b86174515c47",
        "gas": "0x17fc8b",
        "value": "0x0",
        "input": "0x8101424d00000000000000000000000000000000000000000000000000000000000000000000000000000000000000000000000000000000000000000000000000000004000000000000000000000000000000000000000000000000000000003b9aca000000000000000000000000000000000000000000000000000000000000000005000000000000000000000000000000000000000000000000000000000000000a0000000000000000000000000000000000000000000000000000000000000000",
        "nonce": "0x2b2",
        "chainId": "0x38"
      },
      "additionalContracts": [],
      "isFixedGasLimit": false
    }
  ],
  "receipts": [
    {
      "status": "0x1",
      "cumulativeGasUsed": "0x846c8b",
      "logs": [
        {
          "address": "0x8dc20ce305ff565f7c6ff8e8d277b86174515c47",
          "topics": [
            "0x05ae39bd3637f496d15f3461b4f129f5220ecb5dd2c8b18471081ae0b514d6f4",
            "0x00000000000000000000000055d398326f99059ff775485246999027b3197955",
            "0x0000000000000000000000007130d2a12b9bcbfae4f2634d864a1ee1ce3ead9c"
          ],
          "data": "0x0000000000000000000000001b02da8cb0d097eb8d57a175b88c7d8b47997506000000000000000000000000cf0febd3f17cef5b47b0cd257acf6025c5bff3b7000000000000000000000000000000000000000000000000000000003b9aca000000000000000000000000000000000000000000000000000000000000002c9a000000000000000000000000000000000000000000000000000000003ce143420000000000000000000000000000000000000000000000000000000001467942",
          "blockHash": "0xe54423ee732bfb57b6164bac0992aedb555072f9068a54a90c39a7b7ea0beec8",
          "blockNumber": "0x2d1319f",
          "transactionHash": "0x33e48a8dcadaca3315508ee3b76b3468afcfa29aaefbe96ad9db8b817b89bd5a",
          "transactionIndex": "0x75",
          "logIndex": "0xbd",
          "removed": false
        },
        {
          "address": "0x55d398326f99059ff775485246999027b3197955",
          "topics": [
            "0x8c5be1e5ebec7d5bd14f71427d1e84f3dd0314c0f7b2291e5b200ac8c7c3b925",
            "0x0000000000000000000000008dc20ce305ff565f7c6ff8e8d277b86174515c47",
            "0x0000000000000000000000001b02da8cb0d097eb8d57a175b88c7d8b47997506"
          ],
          "data": "0x000000000000000000000000000000000000000000000000000000003b9aca00",
          "blockHash": "0xe54423ee732bfb57b6164bac0992aedb555072f9068a54a90c39a7b7ea0beec8",
          "blockNumber": "0x2d1319f",
          "transactionHash": "0x33e48a8dcadaca3315508ee3b76b3468afcfa29aaefbe96ad9db8b817b89bd5a",
          "transactionIndex": "0x75",
          "logIndex": "0xbe",
          "removed": false
        },
        {
          "address": "0x55d398326f99059ff775485246999027b3197955",
          "topics": [
            "0xddf252ad1be2c89b69c2b068fc378daa952ba7f163c4a11628f55a4df523b3ef",
            "0x0000000000000000000000008dc20ce305ff565f7c6ff8e8d277b86174515c47",
            "0x0000000000000000000000005f8bbce851b869eb0abe7a336d049a7bdae5ad18"
          ],
          "data": "0x000000000000000000000000000000000000000000000000000000003b9aca00",
          "blockHash": "0xe54423ee732bfb57b6164bac0992aedb555072f9068a54a90c39a7b7ea0beec8",
          "blockNumber": "0x2d1319f",
          "transactionHash": "0x33e48a8dcadaca3315508ee3b76b3468afcfa29aaefbe96ad9db8b817b89bd5a",
          "transactionIndex": "0x75",
          "logIndex": "0xbf",
          "removed": false
        },
        {
          "address": "0x55d398326f99059ff775485246999027b3197955",
          "topics": [
            "0x8c5be1e5ebec7d5bd14f71427d1e84f3dd0314c0f7b2291e5b200ac8c7c3b925",
            "0x0000000000000000000000008dc20ce305ff565f7c6ff8e8d277b86174515c47",
            "0x0000000000000000000000001b02da8cb0d097eb8d57a175b88c7d8b47997506"
          ],
          "data": "0x0000000000000000000000000000000000000000000000000000000000000000",
          "blockHash": "0xe54423ee732bfb57b6164bac0992aedb555072f9068a54a90c39a7b7ea0beec8",
          "blockNumber": "0x2d1319f",
          "transactionHash": "0x33e48a8dcadaca3315508ee3b76b3468afcfa29aaefbe96ad9db8b817b89bd5a",
          "transactionIndex": "0x75",
          "logIndex": "0xc0",
          "removed": false
        },
        {
          "address": "0x7130d2a12b9bcbfae4f2634d864a1ee1ce3ead9c",
          "topics": [
            "0xddf252ad1be2c89b69c2b068fc378daa952ba7f163c4a11628f55a4df523b3ef",
            "0x0000000000000000000000005f8bbce851b869eb0abe7a336d049a7bdae5ad18",
            "0x0000000000000000000000008dc20ce305ff565f7c6ff8e8d277b86174515c47"
          ],
          "data": "0x0000000000000000000000000000000000000000000000000000000000002c9f",
          "blockHash": "0xe54423ee732bfb57b6164bac0992aedb555072f9068a54a90c39a7b7ea0beec8",
          "blockNumber": "0x2d1319f",
          "transactionHash": "0x33e48a8dcadaca3315508ee3b76b3468afcfa29aaefbe96ad9db8b817b89bd5a",
          "transactionIndex": "0x75",
          "logIndex": "0xc1",
          "removed": false
        },
        {
          "address": "0x5f8bbce851b869eb0abe7a336d049a7bdae5ad18",
          "topics": [
            "0x1c411e9a96e071241c2f21f7726b17ae89e3cab4c78be50e062b03a9fffbbad1"
          ],
          "data": "0x0000000000000000000000000000000000000000000000000a7630c3466e1021000000000000000000000000000000000000000000000000000007db21596657",
          "blockHash": "0xe54423ee732bfb57b6164bac0992aedb555072f9068a54a90c39a7b7ea0beec8",
          "blockNumber": "0x2d1319f",
          "transactionHash": "0x33e48a8dcadaca3315508ee3b76b3468afcfa29aaefbe96ad9db8b817b89bd5a",
          "transactionIndex": "0x75",
          "logIndex": "0xc2",
          "removed": false
        },
        {
          "address": "0x5f8bbce851b869eb0abe7a336d049a7bdae5ad18",
          "topics": [
            "0xd78ad95fa46c994b6551d0da85fc275fe613ce37657fb8d5e3d130840159d822",
            "0x0000000000000000000000001b02da8cb0d097eb8d57a175b88c7d8b47997506",
            "0x0000000000000000000000008dc20ce305ff565f7c6ff8e8d277b86174515c47"
          ],
          "data": "0x000000000000000000000000000000000000000000000000000000003b9aca00000000000000000000000000000000000000000000000000000000000000000000000000000000000000000000000000000000000000000000000000000000000000000000000000000000000000000000000000000000000000000000002c9f",
          "blockHash": "0xe54423ee732bfb57b6164bac0992aedb555072f9068a54a90c39a7b7ea0beec8",
          "blockNumber": "0x2d1319f",
          "transactionHash": "0x33e48a8dcadaca3315508ee3b76b3468afcfa29aaefbe96ad9db8b817b89bd5a",
          "transactionIndex": "0x75",
          "logIndex": "0xc3",
          "removed": false
        },
        {
          "address": "0x7130d2a12b9bcbfae4f2634d864a1ee1ce3ead9c",
          "topics": [
            "0x8c5be1e5ebec7d5bd14f71427d1e84f3dd0314c0f7b2291e5b200ac8c7c3b925",
            "0x0000000000000000000000008dc20ce305ff565f7c6ff8e8d277b86174515c47",
            "0x000000000000000000000000cf0febd3f17cef5b47b0cd257acf6025c5bff3b7"
          ],
          "data": "0x0000000000000000000000000000000000000000000000000000000000002c9f",
          "blockHash": "0xe54423ee732bfb57b6164bac0992aedb555072f9068a54a90c39a7b7ea0beec8",
          "blockNumber": "0x2d1319f",
          "transactionHash": "0x33e48a8dcadaca3315508ee3b76b3468afcfa29aaefbe96ad9db8b817b89bd5a",
          "transactionIndex": "0x75",
          "logIndex": "0xc4",
          "removed": false
        },
        {
          "address": "0x7130d2a12b9bcbfae4f2634d864a1ee1ce3ead9c",
          "topics": [
            "0xddf252ad1be2c89b69c2b068fc378daa952ba7f163c4a11628f55a4df523b3ef",
            "0x0000000000000000000000008dc20ce305ff565f7c6ff8e8d277b86174515c47",
            "0x00000000000000000000000084ad6f8100cf7d2476107cefb1e12fcc0db2cb70"
          ],
          "data": "0x0000000000000000000000000000000000000000000000000000000000002c9f",
          "blockHash": "0xe54423ee732bfb57b6164bac0992aedb555072f9068a54a90c39a7b7ea0beec8",
          "blockNumber": "0x2d1319f",
          "transactionHash": "0x33e48a8dcadaca3315508ee3b76b3468afcfa29aaefbe96ad9db8b817b89bd5a",
          "transactionIndex": "0x75",
          "logIndex": "0xc5",
          "removed": false
        },
        {
          "address": "0x7130d2a12b9bcbfae4f2634d864a1ee1ce3ead9c",
          "topics": [
            "0x8c5be1e5ebec7d5bd14f71427d1e84f3dd0314c0f7b2291e5b200ac8c7c3b925",
            "0x0000000000000000000000008dc20ce305ff565f7c6ff8e8d277b86174515c47",
            "0x000000000000000000000000cf0febd3f17cef5b47b0cd257acf6025c5bff3b7"
          ],
          "data": "0x0000000000000000000000000000000000000000000000000000000000000000",
          "blockHash": "0xe54423ee732bfb57b6164bac0992aedb555072f9068a54a90c39a7b7ea0beec8",
          "blockNumber": "0x2d1319f",
          "transactionHash": "0x33e48a8dcadaca3315508ee3b76b3468afcfa29aaefbe96ad9db8b817b89bd5a",
          "transactionIndex": "0x75",
          "logIndex": "0xc6",
          "removed": false
        },
        {
          "address": "0x55d398326f99059ff775485246999027b3197955",
          "topics": [
            "0xddf252ad1be2c89b69c2b068fc378daa952ba7f163c4a11628f55a4df523b3ef",
            "0x00000000000000000000000084ad6f8100cf7d2476107cefb1e12fcc0db2cb70",
            "0x0000000000000000000000008dc20ce305ff565f7c6ff8e8d277b86174515c47"
          ],
          "data": "0x000000000000000000000000000000000000000000000000000000003ce90f2b",
          "blockHash": "0xe54423ee732bfb57b6164bac0992aedb555072f9068a54a90c39a7b7ea0beec8",
          "blockNumber": "0x2d1319f",
          "transactionHash": "0x33e48a8dcadaca3315508ee3b76b3468afcfa29aaefbe96ad9db8b817b89bd5a",
          "transactionIndex": "0x75",
          "logIndex": "0xc7",
          "removed": false
        },
        {
          "address": "0x84ad6f8100cf7d2476107cefb1e12fcc0db2cb70",
          "topics": [
            "0x1c411e9a96e071241c2f21f7726b17ae89e3cab4c78be50e062b03a9fffbbad1"
          ],
          "data": "0x00000000000000000000000000000000000000000000000000040041d79f3e3100000000000000000000000000000000000000000000000000000002ecd6f09c",
          "blockHash": "0xe54423ee732bfb57b6164bac0992aedb555072f9068a54a90c39a7b7ea0beec8",
          "blockNumber": "0x2d1319f",
          "transactionHash": "0x33e48a8dcadaca3315508ee3b76b3468afcfa29aaefbe96ad9db8b817b89bd5a",
          "transactionIndex": "0x75",
          "logIndex": "0xc8",
          "removed": false
        },
        {
          "address": "0x84ad6f8100cf7d2476107cefb1e12fcc0db2cb70",
          "topics": [
            "0xd78ad95fa46c994b6551d0da85fc275fe613ce37657fb8d5e3d130840159d822",
            "0x000000000000000000000000cf0febd3f17cef5b47b0cd257acf6025c5bff3b7",
            "0x0000000000000000000000008dc20ce305ff565f7c6ff8e8d277b86174515c47"
          ],
          "data": "0x00000000000000000000000000000000000000000000000000000000000000000000000000000000000000000000000000000000000000000000000000002c9f000000000000000000000000000000000000000000000000000000003ce90f2b0000000000000000000000000000000000000000000000000000000000000000",
          "blockHash": "0xe54423ee732bfb57b6164bac0992aedb555072f9068a54a90c39a7b7ea0beec8",
          "blockNumber": "0x2d1319f",
          "transactionHash": "0x33e48a8dcadaca3315508ee3b76b3468afcfa29aaefbe96ad9db8b817b89bd5a",
          "transactionIndex": "0x75",
          "logIndex": "0xc9",
          "removed": false
        },
        {
          "address": "0x8dc20ce305ff565f7c6ff8e8d277b86174515c47",
          "topics": [
            "0x05ae39bd3637f496d15f3461b4f129f5220ecb5dd2c8b18471081ae0b514d6f4",
            "0x00000000000000000000000055d398326f99059ff775485246999027b3197955",
            "0x0000000000000000000000002170ed0880ac9a755fd29b2688956bd959f933f8"
          ],
          "data": "0x0000000000000000000000004752ba5dbc23f44d87826276bf6fd6b1c372ad2400000000000000000000000010ed43c718714eb63d5aa57b78b54704e256024e000000000000000000000000000000000000000000000000000000003b9aca00000000000000000000000000000000000000000000000000000000000006f8ba000000000000000000000000000000000000000000000000000000003ba328ca0000000000000000000000000000000000000000000000000000000000085eca",
          "blockHash": "0xe54423ee732bfb57b6164bac0992aedb555072f9068a54a90c39a7b7ea0beec8",
          "blockNumber": "0x2d1319f",
          "transactionHash": "0x33e48a8dcadaca3315508ee3b76b3468afcfa29aaefbe96ad9db8b817b89bd5a",
          "transactionIndex": "0x75",
          "logIndex": "0xca",
          "removed": false
        },
        {
          "address": "0x55d398326f99059ff775485246999027b3197955",
          "topics": [
            "0x8c5be1e5ebec7d5bd14f71427d1e84f3dd0314c0f7b2291e5b200ac8c7c3b925",
            "0x0000000000000000000000008dc20ce305ff565f7c6ff8e8d277b86174515c47",
            "0x0000000000000000000000004752ba5dbc23f44d87826276bf6fd6b1c372ad24"
          ],
          "data": "0x000000000000000000000000000000000000000000000000000000003b9aca00",
          "blockHash": "0xe54423ee732bfb57b6164bac0992aedb555072f9068a54a90c39a7b7ea0beec8",
          "blockNumber": "0x2d1319f",
          "transactionHash": "0x33e48a8dcadaca3315508ee3b76b3468afcfa29aaefbe96ad9db8b817b89bd5a",
          "transactionIndex": "0x75",
          "logIndex": "0xcb",
          "removed": false
        },
        {
          "address": "0x55d398326f99059ff775485246999027b3197955",
          "topics": [
            "0xddf252ad1be2c89b69c2b068fc378daa952ba7f163c4a11628f55a4df523b3ef",
            "0x0000000000000000000000008dc20ce305ff565f7c6ff8e8d277b86174515c47",
            "0x00000000000000000000000016d984fd54da82c74d84752f965a3a6f913985b9"
          ],
          "data": "0x000000000000000000000000000000000000000000000000000000003b9aca00",
          "blockHash": "0xe54423ee732bfb57b6164bac0992aedb555072f9068a54a90c39a7b7ea0beec8",
          "blockNumber": "0x2d1319f",
          "transactionHash": "0x33e48a8dcadaca3315508ee3b76b3468afcfa29aaefbe96ad9db8b817b89bd5a",
          "transactionIndex": "0x75",
          "logIndex": "0xcc",
          "removed": false
        },
        {
          "address": "0x55d398326f99059ff775485246999027b3197955",
          "topics": [
            "0x8c5be1e5ebec7d5bd14f71427d1e84f3dd0314c0f7b2291e5b200ac8c7c3b925",
            "0x0000000000000000000000008dc20ce305ff565f7c6ff8e8d277b86174515c47",
            "0x0000000000000000000000004752ba5dbc23f44d87826276bf6fd6b1c372ad24"
          ],
          "data": "0x0000000000000000000000000000000000000000000000000000000000000000",
          "blockHash": "0xe54423ee732bfb57b6164bac0992aedb555072f9068a54a90c39a7b7ea0beec8",
          "blockNumber": "0x2d1319f",
          "transactionHash": "0x33e48a8dcadaca3315508ee3b76b3468afcfa29aaefbe96ad9db8b817b89bd5a",
          "transactionIndex": "0x75",
          "logIndex": "0xcd",
          "removed": false
        },
        {
          "address": "0x2170ed0880ac9a755fd29b2688956bd959f933f8",
          "topics": [
            "0xddf252ad1be2c89b69c2b068fc378daa952ba7f163c4a11628f55a4df523b3ef",
            "0x00000000000000000000000016d984fd54da82c74d84752f965a3a6f913985b9",
            "0x0000000000000000000000008dc20ce305ff565f7c6ff8e8d277b86174515c47"
          ],
          "data": "0x000000000000000000000000000000000000000000000000000000000006f99e",
          "blockHash": "0xe54423ee732bfb57b6164bac0992aedb555072f9068a54a90c39a7b7ea0beec8",
          "blockNumber": "0x2d1319f",
          "transactionHash": "0x33e48a8dcadaca3315508ee3b76b3468afcfa29aaefbe96ad9db8b817b89bd5a",
          "transactionIndex": "0x75",
          "logIndex": "0xce",
          "removed": false
        },
        {
          "address": "0x16d984fd54da82c74d84752f965a3a6f913985b9",
          "topics": [
            "0x1c411e9a96e071241c2f21f7726b17ae89e3cab4c78be50e062b03a9fffbbad1"
          ],
          "data": "0x000000000000000000000000000000000000000000000000000c20b33add4493000000000000000000000000000000000000000000000000675338eff97ee40e",
          "blockHash": "0xe54423ee732bfb57b6164bac0992aedb555072f9068a54a90c39a7b7ea0beec8",
          "blockNumber": "0x2d1319f",
          "transactionHash": "0x33e48a8dcadaca3315508ee3b76b3468afcfa29aaefbe96ad9db8b817b89bd5a",
          "transactionIndex": "0x75",
          "logIndex": "0xcf",
          "removed": false
        },
        {
          "address": "0x16d984fd54da82c74d84752f965a3a6f913985b9",
          "topics": [
            "0xd78ad95fa46c994b6551d0da85fc275fe613ce37657fb8d5e3d130840159d822",
            "0x0000000000000000000000004752ba5dbc23f44d87826276bf6fd6b1c372ad24",
            "0x0000000000000000000000008dc20ce305ff565f7c6ff8e8d277b86174515c47"
          ],
          "data": "0x0000000000000000000000000000000000000000000000000000000000000000000000000000000000000000000000000000000000000000000000003b9aca00000000000000000000000000000000000000000000000000000000000006f99e0000000000000000000000000000000000000000000000000000000000000000",
          "blockHash": "0xe54423ee732bfb57b6164bac0992aedb555072f9068a54a90c39a7b7ea0beec8",
          "blockNumber": "0x2d1319f",
          "transactionHash": "0x33e48a8dcadaca3315508ee3b76b3468afcfa29aaefbe96ad9db8b817b89bd5a",
          "transactionIndex": "0x75",
          "logIndex": "0xd0",
          "removed": false
        },
        {
          "address": "0x2170ed0880ac9a755fd29b2688956bd959f933f8",
          "topics": [
            "0x8c5be1e5ebec7d5bd14f71427d1e84f3dd0314c0f7b2291e5b200ac8c7c3b925",
            "0x0000000000000000000000008dc20ce305ff565f7c6ff8e8d277b86174515c47",
            "0x00000000000000000000000010ed43c718714eb63d5aa57b78b54704e256024e"
          ],
          "data": "0x000000000000000000000000000000000000000000000000000000000006f99e",
          "blockHash": "0xe54423ee732bfb57b6164bac0992aedb555072f9068a54a90c39a7b7ea0beec8",
          "blockNumber": "0x2d1319f",
          "transactionHash": "0x33e48a8dcadaca3315508ee3b76b3468afcfa29aaefbe96ad9db8b817b89bd5a",
          "transactionIndex": "0x75",
          "logIndex": "0xd1",
          "removed": false
        },
        {
          "address": "0x2170ed0880ac9a755fd29b2688956bd959f933f8",
          "topics": [
            "0xddf252ad1be2c89b69c2b068fc378daa952ba7f163c4a11628f55a4df523b3ef",
            "0x0000000000000000000000008dc20ce305ff565f7c6ff8e8d277b86174515c47",
            "0x000000000000000000000000531febfeb9a61d948c384acfbe6dcc51057aea7e"
          ],
          "data": "0x000000000000000000000000000000000000000000000000000000000006f99e",
          "blockHash": "0xe54423ee732bfb57b6164bac0992aedb555072f9068a54a90c39a7b7ea0beec8",
          "blockNumber": "0x2d1319f",
          "transactionHash": "0x33e48a8dcadaca3315508ee3b76b3468afcfa29aaefbe96ad9db8b817b89bd5a",
          "transactionIndex": "0x75",
          "logIndex": "0xd2",
          "removed": false
        },
        {
          "address": "0x2170ed0880ac9a755fd29b2688956bd959f933f8",
          "topics": [
            "0x8c5be1e5ebec7d5bd14f71427d1e84f3dd0314c0f7b2291e5b200ac8c7c3b925",
            "0x0000000000000000000000008dc20ce305ff565f7c6ff8e8d277b86174515c47",
            "0x00000000000000000000000010ed43c718714eb63d5aa57b78b54704e256024e"
          ],
          "data": "0x0000000000000000000000000000000000000000000000000000000000000000",
          "blockHash": "0xe54423ee732bfb57b6164bac0992aedb555072f9068a54a90c39a7b7ea0beec8",
          "blockNumber": "0x2d1319f",
          "transactionHash": "0x33e48a8dcadaca3315508ee3b76b3468afcfa29aaefbe96ad9db8b817b89bd5a",
          "transactionIndex": "0x75",
          "logIndex": "0xd3",
          "removed": false
        },
        {
          "address": "0x55d398326f99059ff775485246999027b3197955",
          "topics": [
            "0xddf252ad1be2c89b69c2b068fc378daa952ba7f163c4a11628f55a4df523b3ef",
            "0x000000000000000000000000531febfeb9a61d948c384acfbe6dcc51057aea7e",
            "0x0000000000000000000000008dc20ce305ff565f7c6ff8e8d277b86174515c47"
          ],
          "data": "0x000000000000000000000000000000000000000000000000000000003baacbf6",
          "blockHash": "0xe54423ee732bfb57b6164bac0992aedb555072f9068a54a90c39a7b7ea0beec8",
          "blockNumber": "0x2d1319f",
          "transactionHash": "0x33e48a8dcadaca3315508ee3b76b3468afcfa29aaefbe96ad9db8b817b89bd5a",
          "transactionIndex": "0x75",
          "logIndex": "0xd4",
          "removed": false
        },
        {
          "address": "0x531febfeb9a61d948c384acfbe6dcc51057aea7e",
          "topics": [
            "0x1c411e9a96e071241c2f21f7726b17ae89e3cab4c78be50e062b03a9fffbbad1"
          ],
          "data": "0x0000000000000000000000000000000000000000000000066e9096e7c5acdf6500000000000000000000000000000000000000000000372898633a6298e653d3",
          "blockHash": "0xe54423ee732bfb57b6164bac0992aedb555072f9068a54a90c39a7b7ea0beec8",
          "blockNumber": "0x2d1319f",
          "transactionHash": "0x33e48a8dcadaca3315508ee3b76b3468afcfa29aaefbe96ad9db8b817b89bd5a",
          "transactionIndex": "0x75",
          "logIndex": "0xd5",
          "removed": false
        },
        {
          "address": "0x531febfeb9a61d948c384acfbe6dcc51057aea7e",
          "topics": [
            "0xd78ad95fa46c994b6551d0da85fc275fe613ce37657fb8d5e3d130840159d822",
            "0x00000000000000000000000010ed43c718714eb63d5aa57b78b54704e256024e",
            "0x0000000000000000000000008dc20ce305ff565f7c6ff8e8d277b86174515c47"
          ],
          "data": "0x000000000000000000000000000000000000000000000000000000000006f99e00000000000000000000000000000000000000000000000000000000000000000000000000000000000000000000000000000000000000000000000000000000000000000000000000000000000000000000000000000000000000003baacbf6",
          "blockHash": "0xe54423ee732bfb57b6164bac0992aedb555072f9068a54a90c39a7b7ea0beec8",
          "blockNumber": "0x2d1319f",
          "transactionHash": "0x33e48a8dcadaca3315508ee3b76b3468afcfa29aaefbe96ad9db8b817b89bd5a",
          "transactionIndex": "0x75",
          "logIndex": "0xd6",
          "removed": false
        },
        {
          "address": "0x8dc20ce305ff565f7c6ff8e8d277b86174515c47",
          "topics": [
            "0x05ae39bd3637f496d15f3461b4f129f5220ecb5dd2c8b18471081ae0b514d6f4",
            "0x00000000000000000000000055d398326f99059ff775485246999027b3197955",
            "0x0000000000000000000000003ee2200efb3400fabb9aacf31297cbdd1d435d47"
          ],
          "data": "0x0000000000000000000000001b02da8cb0d097eb8d57a175b88c7d8b47997506000000000000000000000000cf0febd3f17cef5b47b0cd257acf6025c5bff3b7000000000000000000000000000000000000000000000000000000003b9aca00000000000000000000000000000000000000000000000000000000004596854d000000000000000000000000000000000000000000000000000000003c67de800000000000000000000000000000000000000000000000000000000000cd1480",
          "blockHash": "0xe54423ee732bfb57b6164bac0992aedb555072f9068a54a90c39a7b7ea0beec8",
          "blockNumber": "0x2d1319f",
          "transactionHash": "0x33e48a8dcadaca3315508ee3b76b3468afcfa29aaefbe96ad9db8b817b89bd5a",
          "transactionIndex": "0x75",
          "logIndex": "0xd7",
          "removed": false
        },
        {
          "address": "0x55d398326f99059ff775485246999027b3197955",
          "topics": [
            "0x8c5be1e5ebec7d5bd14f71427d1e84f3dd0314c0f7b2291e5b200ac8c7c3b925",
            "0x0000000000000000000000008dc20ce305ff565f7c6ff8e8d277b86174515c47",
            "0x0000000000000000000000001b02da8cb0d097eb8d57a175b88c7d8b47997506"
          ],
          "data": "0x000000000000000000000000000000000000000000000000000000003b9aca00",
          "blockHash": "0xe54423ee732bfb57b6164bac0992aedb555072f9068a54a90c39a7b7ea0beec8",
          "blockNumber": "0x2d1319f",
          "transactionHash": "0x33e48a8dcadaca3315508ee3b76b3468afcfa29aaefbe96ad9db8b817b89bd5a",
          "transactionIndex": "0x75",
          "logIndex": "0xd8",
          "removed": false
        },
        {
          "address": "0x55d398326f99059ff775485246999027b3197955",
          "topics": [
            "0xddf252ad1be2c89b69c2b068fc378daa952ba7f163c4a11628f55a4df523b3ef",
            "0x0000000000000000000000008dc20ce305ff565f7c6ff8e8d277b86174515c47",
            "0x0000000000000000000000004f8104f539fd942eaa0bffb0d775e46531848ffb"
          ],
          "data": "0x000000000000000000000000000000000000000000000000000000003b9aca00",
          "blockHash": "0xe54423ee732bfb57b6164bac0992aedb555072f9068a54a90c39a7b7ea0beec8",
          "blockNumber": "0x2d1319f",
          "transactionHash": "0x33e48a8dcadaca3315508ee3b76b3468afcfa29aaefbe96ad9db8b817b89bd5a",
          "transactionIndex": "0x75",
          "logIndex": "0xd9",
          "removed": false
        },
        {
          "address": "0x55d398326f99059ff775485246999027b3197955",
          "topics": [
            "0x8c5be1e5ebec7d5bd14f71427d1e84f3dd0314c0f7b2291e5b200ac8c7c3b925",
            "0x0000000000000000000000008dc20ce305ff565f7c6ff8e8d277b86174515c47",
            "0x0000000000000000000000001b02da8cb0d097eb8d57a175b88c7d8b47997506"
          ],
          "data": "0x0000000000000000000000000000000000000000000000000000000000000000",
          "blockHash": "0xe54423ee732bfb57b6164bac0992aedb555072f9068a54a90c39a7b7ea0beec8",
          "blockNumber": "0x2d1319f",
          "transactionHash": "0x33e48a8dcadaca3315508ee3b76b3468afcfa29aaefbe96ad9db8b817b89bd5a",
          "transactionIndex": "0x75",
          "logIndex": "0xda",
          "removed": false
        },
        {
          "address": "0x3ee2200efb3400fabb9aacf31297cbdd1d435d47",
          "topics": [
            "0xddf252ad1be2c89b69c2b068fc378daa952ba7f163c4a11628f55a4df523b3ef",
            "0x0000000000000000000000004f8104f539fd942eaa0bffb0d775e46531848ffb",
            "0x0000000000000000000000008dc20ce305ff565f7c6ff8e8d277b86174515c47"
          ],
          "data": "0x00000000000000000000000000000000000000000000000000000000459f6eb3",
          "blockHash": "0xe54423ee732bfb57b6164bac0992aedb555072f9068a54a90c39a7b7ea0beec8",
          "blockNumber": "0x2d1319f",
          "transactionHash": "0x33e48a8dcadaca3315508ee3b76b3468afcfa29aaefbe96ad9db8b817b89bd5a",
          "transactionIndex": "0x75",
          "logIndex": "0xdb",
          "removed": false
        },
        {
          "address": "0x4f8104f539fd942eaa0bffb0d775e46531848ffb",
          "topics": [
            "0x1c411e9a96e071241c2f21f7726b17ae89e3cab4c78be50e062b03a9fffbbad1"
          ],
          "data": "0x000000000000000000000000000000000000000000000000aa3a34cf033a3aab000000000000000000000000000000000000000000000000914bbe1d02947cf8",
          "blockHash": "0xe54423ee732bfb57b6164bac0992aedb555072f9068a54a90c39a7b7ea0beec8",
          "blockNumber": "0x2d1319f",
          "transactionHash": "0x33e48a8dcadaca3315508ee3b76b3468afcfa29aaefbe96ad9db8b817b89bd5a",
          "transactionIndex": "0x75",
          "logIndex": "0xdc",
          "removed": false
        },
        {
          "address": "0x4f8104f539fd942eaa0bffb0d775e46531848ffb",
          "topics": [
            "0xd78ad95fa46c994b6551d0da85fc275fe613ce37657fb8d5e3d130840159d822",
            "0x0000000000000000000000001b02da8cb0d097eb8d57a175b88c7d8b47997506",
            "0x0000000000000000000000008dc20ce305ff565f7c6ff8e8d277b86174515c47"
          ],
          "data": "0x0000000000000000000000000000000000000000000000000000000000000000000000000000000000000000000000000000000000000000000000003b9aca0000000000000000000000000000000000000000000000000000000000459f6eb30000000000000000000000000000000000000000000000000000000000000000",
          "blockHash": "0xe54423ee732bfb57b6164bac0992aedb555072f9068a54a90c39a7b7ea0beec8",
          "blockNumber": "0x2d1319f",
          "transactionHash": "0x33e48a8dcadaca3315508ee3b76b3468afcfa29aaefbe96ad9db8b817b89bd5a",
          "transactionIndex": "0x75",
          "logIndex": "0xdd",
          "removed": false
        },
        {
          "address": "0x3ee2200efb3400fabb9aacf31297cbdd1d435d47",
          "topics": [
            "0x8c5be1e5ebec7d5bd14f71427d1e84f3dd0314c0f7b2291e5b200ac8c7c3b925",
            "0x0000000000000000000000008dc20ce305ff565f7c6ff8e8d277b86174515c47",
            "0x000000000000000000000000cf0febd3f17cef5b47b0cd257acf6025c5bff3b7"
          ],
          "data": "0x00000000000000000000000000000000000000000000000000000000459f6eb3",
          "blockHash": "0xe54423ee732bfb57b6164bac0992aedb555072f9068a54a90c39a7b7ea0beec8",
          "blockNumber": "0x2d1319f",
          "transactionHash": "0x33e48a8dcadaca3315508ee3b76b3468afcfa29aaefbe96ad9db8b817b89bd5a",
          "transactionIndex": "0x75",
          "logIndex": "0xde",
          "removed": false
        },
        {
          "address": "0x3ee2200efb3400fabb9aacf31297cbdd1d435d47",
          "topics": [
            "0xddf252ad1be2c89b69c2b068fc378daa952ba7f163c4a11628f55a4df523b3ef",
            "0x0000000000000000000000008dc20ce305ff565f7c6ff8e8d277b86174515c47",
            "0x0000000000000000000000008511a5edfd77bb0d2379498d5a1bca589302d6de"
          ],
          "data": "0x00000000000000000000000000000000000000000000000000000000459f6eb3",
          "blockHash": "0xe54423ee732bfb57b6164bac0992aedb555072f9068a54a90c39a7b7ea0beec8",
          "blockNumber": "0x2d1319f",
          "transactionHash": "0x33e48a8dcadaca3315508ee3b76b3468afcfa29aaefbe96ad9db8b817b89bd5a",
          "transactionIndex": "0x75",
          "logIndex": "0xdf",
          "removed": false
        },
        {
          "address": "0x3ee2200efb3400fabb9aacf31297cbdd1d435d47",
          "topics": [
            "0x8c5be1e5ebec7d5bd14f71427d1e84f3dd0314c0f7b2291e5b200ac8c7c3b925",
            "0x0000000000000000000000008dc20ce305ff565f7c6ff8e8d277b86174515c47",
            "0x000000000000000000000000cf0febd3f17cef5b47b0cd257acf6025c5bff3b7"
          ],
          "data": "0x0000000000000000000000000000000000000000000000000000000000000000",
          "blockHash": "0xe54423ee732bfb57b6164bac0992aedb555072f9068a54a90c39a7b7ea0beec8",
          "blockNumber": "0x2d1319f",
          "transactionHash": "0x33e48a8dcadaca3315508ee3b76b3468afcfa29aaefbe96ad9db8b817b89bd5a",
          "transactionIndex": "0x75",
          "logIndex": "0xe0",
          "removed": false
        },
        {
          "address": "0x55d398326f99059ff775485246999027b3197955",
          "topics": [
            "0xddf252ad1be2c89b69c2b068fc378daa952ba7f163c4a11628f55a4df523b3ef",
            "0x0000000000000000000000008511a5edfd77bb0d2379498d5a1bca589302d6de",
            "0x0000000000000000000000008dc20ce305ff565f7c6ff8e8d277b86174515c47"
          ],
          "data": "0x000000000000000000000000000000000000000000000000000000003c6f9add",
          "blockHash": "0xe54423ee732bfb57b6164bac0992aedb555072f9068a54a90c39a7b7ea0beec8",
          "blockNumber": "0x2d1319f",
          "transactionHash": "0x33e48a8dcadaca3315508ee3b76b3468afcfa29aaefbe96ad9db8b817b89bd5a",
          "transactionIndex": "0x75",
          "logIndex": "0xe1",
          "removed": false
        },
        {
          "address": "0x8511a5edfd77bb0d2379498d5a1bca589302d6de",
          "topics": [
            "0x1c411e9a96e071241c2f21f7726b17ae89e3cab4c78be50e062b03a9fffbbad1"
          ],
          "data": "0x00000000000000000000000000000000000000000000000000b726c068199fb7000000000000000000000000000000000000000000000000009f4d8a2444f0d3",
          "blockHash": "0xe54423ee732bfb57b6164bac0992aedb555072f9068a54a90c39a7b7ea0beec8",
          "blockNumber": "0x2d1319f",
          "transactionHash": "0x33e48a8dcadaca3315508ee3b76b3468afcfa29aaefbe96ad9db8b817b89bd5a",
          "transactionIndex": "0x75",
          "logIndex": "0xe2",
          "removed": false
        },
        {
          "address": "0x8511a5edfd77bb0d2379498d5a1bca589302d6de",
          "topics": [
            "0xd78ad95fa46c994b6551d0da85fc275fe613ce37657fb8d5e3d130840159d822",
            "0x000000000000000000000000cf0febd3f17cef5b47b0cd257acf6025c5bff3b7",
            "0x0000000000000000000000008dc20ce305ff565f7c6ff8e8d277b86174515c47"
          ],
          "data": "0x00000000000000000000000000000000000000000000000000000000459f6eb300000000000000000000000000000000000000000000000000000000000000000000000000000000000000000000000000000000000000000000000000000000000000000000000000000000000000000000000000000000000000003c6f9add",
          "blockHash": "0xe54423ee732bfb57b6164bac0992aedb555072f9068a54a90c39a7b7ea0beec8",
          "blockNumber": "0x2d1319f",
          "transactionHash": "0x33e48a8dcadaca3315508ee3b76b3468afcfa29aaefbe96ad9db8b817b89bd5a",
          "transactionIndex": "0x75",
          "logIndex": "0xe3",
          "removed": false
        }
      ],
      "logsBloom": "0x002002000100000008000000804000000010020040000000000000000000000000000040000000004000102000000000005000000000000000022000002000000020000900000000810000080000002008400020000004820000000000020400000000200000040000000000000000000000000700000000080000100800040000004200000000000088002000000002002000000000100800000848000080000200000000200000000000000a00040000100000020000100008000800800100000000020001000000000000011040002004000000a0001000000000400500001050000940000000040016000000000000000804400000000000000000000000",
      "type": "0x0",
      "transactionHash": "0x33e48a8dcadaca3315508ee3b76b3468afcfa29aaefbe96ad9db8b817b89bd5a",
      "transactionIndex": "0x75",
      "blockHash": "0xe54423ee732bfb57b6164bac0992aedb555072f9068a54a90c39a7b7ea0beec8",
      "blockNumber": "0x2d1319f",
      "gasUsed": "0x1066aa",
      "effectiveGasPrice": "0x3b9aca00",
      "from": "0x71f74debb7fd42e61de32256537284e06de8812d",
      "to": "0x8dc20ce305ff565f7c6ff8e8d277b86174515c47",
      "contractAddress": null
    }
  ],
  "libraries": [],
  "pending": [],
  "returns": {},
  "timestamp": 1741374084,
  "chain": 56,
  "commit": "0899a7e"
}