{
  "transactions": [
    {
      "hash": "0x546ca1692a7e2ff9ac21871c2386959a1000e3f69d2c0695824c043b7c1aa647",
      "transactionType": "CALL",
      "contractName": null,
      "contractAddress": "0x8dc20ce305ff565f7c6ff8e8d277b86174515c47",
      "function": "iteratePairList(uint256,uint256,uint256,uint256,uint256,bool)",
      "arguments": [
        "5",
        "9",
        "10000000000000000",
        "0",
        "100",
        "false"
      ],
      "transaction": {
        "from": "0x71f74debb7fd42e61de32256537284e06de8812d",
        "to": "0x8dc20ce305ff565f7c6ff8e8d277b86174515c47",
        "gas": "0x1c19c2",
        "value": "0x0",
        "input": "0x8101424d00000000000000000000000000000000000000000000000000000000000000050000000000000000000000000000000000000000000000000000000000000009000000000000000000000000000000000000000000000000002386f26fc10000000000000000000000000000000000000000000000000000000000000000000000000000000000000000000000000000000000000000000000000000000000640000000000000000000000000000000000000000000000000000000000000000",
        "nonce": "0x2c6",
        "chainId": "0x38"
      },
      "additionalContracts": [],
      "isFixedGasLimit": false
    }
  ],
  "receipts": [
    {
      "status": "0x1",
      "cumulativeGasUsed": "0x5db8bc",
      "logs": [
        {
          "address": "0x8dc20ce305ff565f7c6ff8e8d277b86174515c47",
          "topics": [
            "0x05ae39bd3637f496d15f3461b4f129f5220ecb5dd2c8b18471081ae0b514d6f4",
            "0x00000000000000000000000055d398326f99059ff775485246999027b3197955",
            "0x0000000000000000000000003ee2200efb3400fabb9aacf31297cbdd1d435d47"
          ],
          "data": "0x00000000000000000000000010ed43c718714eb63d5aa57b78b54704e256024e0000000000000000000000001b02da8cb0d097eb8d57a175b88c7d8b47997506000000000000000000000000000000000000000000000000002386f26fc10000000000000000000000000000000000000000000000000000002b7e8880fdcd7f0000000000000000000000000000000000000000000000000023a15a41ea2ea900000000000000000000000000000000000000000000000000001a67d2292ea9",
          "blockHash": "0xfc457beb0be446e7a9be3d6d545b3390fa26f38e6d8f521d79786e1255c59556",
          "blockNumber": "0x2d1424a",
          "transactionHash": "0x546ca1692a7e2ff9ac21871c2386959a1000e3f69d2c0695824c043b7c1aa647",
          "transactionIndex": "0x37",
          "logIndex": "0x5b",
          "removed": false
        },
        {
          "address": "0x55d398326f99059ff775485246999027b3197955",
          "topics": [
            "0x8c5be1e5ebec7d5bd14f71427d1e84f3dd0314c0f7b2291e5b200ac8c7c3b925",
            "0x0000000000000000000000008dc20ce305ff565f7c6ff8e8d277b86174515c47",
            "0x00000000000000000000000010ed43c718714eb63d5aa57b78b54704e256024e"
          ],
          "data": "0x000000000000000000000000000000000000000000000000002386f26fc10000",
          "blockHash": "0xfc457beb0be446e7a9be3d6d545b3390fa26f38e6d8f521d79786e1255c59556",
          "blockNumber": "0x2d1424a",
          "transactionHash": "0x546ca1692a7e2ff9ac21871c2386959a1000e3f69d2c0695824c043b7c1aa647",
          "transactionIndex": "0x37",
          "logIndex": "0x5c",
          "removed": false
        },
        {
          "address": "0x55d398326f99059ff775485246999027b3197955",
          "topics": [
            "0xddf252ad1be2c89b69c2b068fc378daa952ba7f163c4a11628f55a4df523b3ef",
            "0x0000000000000000000000008dc20ce305ff565f7c6ff8e8d277b86174515c47",
            "0x000000000000000000000000f53bed8082d225d7b53420ab560658c5e6ff42d8"
          ],
          "data": "0x000000000000000000000000000000000000000000000000002386f26fc10000",
          "blockHash": "0xfc457beb0be446e7a9be3d6d545b3390fa26f38e6d8f521d79786e1255c59556",
          "blockNumber": "0x2d1424a",
          "transactionHash": "0x546ca1692a7e2ff9ac21871c2386959a1000e3f69d2c0695824c043b7c1aa647",
          "transactionIndex": "0x37",
          "logIndex": "0x5d",
          "removed": false
        },
        {
          "address": "0x55d398326f99059ff775485246999027b3197955",
          "topics": [
            "0x8c5be1e5ebec7d5bd14f71427d1e84f3dd0314c0f7b2291e5b200ac8c7c3b925",
            "0x0000000000000000000000008dc20ce305ff565f7c6ff8e8d277b86174515c47",
            "0x00000000000000000000000010ed43c718714eb63d5aa57b78b54704e256024e"
          ],
          "data": "0x0000000000000000000000000000000000000000000000000000000000000000",
          "blockHash": "0xfc457beb0be446e7a9be3d6d545b3390fa26f38e6d8f521d79786e1255c59556",
          "blockNumber": "0x2d1424a",
          "transactionHash": "0x546ca1692a7e2ff9ac21871c2386959a1000e3f69d2c0695824c043b7c1aa647",
          "transactionIndex": "0x37",
          "logIndex": "0x5e",
          "removed": false
        },
        {
          "address": "0x3ee2200efb3400fabb9aacf31297cbdd1d435d47",
          "topics": [
            "0xddf252ad1be2c89b69c2b068fc378daa952ba7f163c4a11628f55a4df523b3ef",
            "0x000000000000000000000000f53bed8082d225d7b53420ab560658c5e6ff42d8",
            "0x0000000000000000000000008dc20ce305ff565f7c6ff8e8d277b86174515c47"
          ],
          "data": "0x000000000000000000000000000000000000000000000000002b7e8880fdcd7f",
          "blockHash": "0xfc457beb0be446e7a9be3d6d545b3390fa26f38e6d8f521d79786e1255c59556",
          "blockNumber": "0x2d1424a",
          "transactionHash": "0x546ca1692a7e2ff9ac21871c2386959a1000e3f69d2c0695824c043b7c1aa647",
          "transactionIndex": "0x37",
          "logIndex": "0x5f",
          "removed": false
        },
        {
          "address": "0xf53bed8082d225d7b53420ab560658c5e6ff42d8",
          "topics": [
            "0x1c411e9a96e071241c2f21f7726b17ae89e3cab4c78be50e062b03a9fffbbad1"
          ],
          "data": "0x000000000000000000000000000000000000000000000052703a568cefea9dc40000000000000000000000000000000000000000000000432b7829b7cd95b75f",
          "blockHash": "0xfc457beb0be446e7a9be3d6d545b3390fa26f38e6d8f521d79786e1255c59556",
          "blockNumber": "0x2d1424a",
          "transactionHash": "0x546ca1692a7e2ff9ac21871c2386959a1000e3f69d2c0695824c043b7c1aa647",
          "transactionIndex": "0x37",
          "logIndex": "0x60",
          "removed": false
        },
        {
          "address": "0xf53bed8082d225d7b53420ab560658c5e6ff42d8",
          "topics": [
            "0xd78ad95fa46c994b6551d0da85fc275fe613ce37657fb8d5e3d130840159d822",
            "0x00000000000000000000000010ed43c718714eb63d5aa57b78b54704e256024e",
            "0x0000000000000000000000008dc20ce305ff565f7c6ff8e8d277b86174515c47"
          ],
          "data": "0x0000000000000000000000000000000000000000000000000000000000000000000000000000000000000000000000000000000000000000002386f26fc10000000000000000000000000000000000000000000000000000002b7e8880fdcd7f0000000000000000000000000000000000000000000000000000000000000000",
          "blockHash": "0xfc457beb0be446e7a9be3d6d545b3390fa26f38e6d8f521d79786e1255c59556",
          "blockNumber": "0x2d1424a",
          "transactionHash": "0x546ca1692a7e2ff9ac21871c2386959a1000e3f69d2c0695824c043b7c1aa647",
          "transactionIndex": "0x37",
          "logIndex": "0x61",
          "removed": false
        },
        {
          "address": "0x3ee2200efb3400fabb9aacf31297cbdd1d435d47",
          "topics": [
            "0x8c5be1e5ebec7d5bd14f71427d1e84f3dd0314c0f7b2291e5b200ac8c7c3b925",
            "0x0000000000000000000000008dc20ce305ff565f7c6ff8e8d277b86174515c47",
            "0x0000000000000000000000001b02da8cb0d097eb8d57a175b88c7d8b47997506"
          ],
          "data": "0x000000000000000000000000000000000000000000000000002b7e8880fdcd7f",
          "blockHash": "0xfc457beb0be446e7a9be3d6d545b3390fa26f38e6d8f521d79786e1255c59556",
          "blockNumber": "0x2d1424a",
          "transactionHash": "0x546ca1692a7e2ff9ac21871c2386959a1000e3f69d2c0695824c043b7c1aa647",
          "transactionIndex": "0x37",
          "logIndex": "0x62",
          "removed": false
        },
        {
          "address": "0x3ee2200efb3400fabb9aacf31297cbdd1d435d47",
          "topics": [
            "0xddf252ad1be2c89b69c2b068fc378daa952ba7f163c4a11628f55a4df523b3ef",
            "0x0000000000000000000000008dc20ce305ff565f7c6ff8e8d277b86174515c47",
            "0x0000000000000000000000004f8104f539fd942eaa0bffb0d775e46531848ffb"
          ],
          "data": "0x000000000000000000000000000000000000000000000000002b7e8880fdcd7f",
          "blockHash": "0xfc457beb0be446e7a9be3d6d545b3390fa26f38e6d8f521d79786e1255c59556",
          "blockNumber": "0x2d1424a",
          "transactionHash": "0x546ca1692a7e2ff9ac21871c2386959a1000e3f69d2c0695824c043b7c1aa647",
          "transactionIndex": "0x37",
          "logIndex": "0x63",
          "removed": false
        },
        {
          "address": "0x3ee2200efb3400fabb9aacf31297cbdd1d435d47",
          "topics": [
            "0x8c5be1e5ebec7d5bd14f71427d1e84f3dd0314c0f7b2291e5b200ac8c7c3b925",
            "0x0000000000000000000000008dc20ce305ff565f7c6ff8e8d277b86174515c47",
            "0x0000000000000000000000001b02da8cb0d097eb8d57a175b88c7d8b47997506"
          ],
          "data": "0x0000000000000000000000000000000000000000000000000000000000000000",
          "blockHash": "0xfc457beb0be446e7a9be3d6d545b3390fa26f38e6d8f521d79786e1255c59556",
          "blockNumber": "0x2d1424a",
          "transactionHash": "0x546ca1692a7e2ff9ac21871c2386959a1000e3f69d2c0695824c043b7c1aa647",
          "transactionIndex": "0x37",
          "logIndex": "0x64",
          "removed": false
        },
        {
          "address": "0x55d398326f99059ff775485246999027b3197955",
          "topics": [
            "0xddf252ad1be2c89b69c2b068fc378daa952ba7f163c4a11628f55a4df523b3ef",
            "0x0000000000000000000000004f8104f539fd942eaa0bffb0d775e46531848ffb",
            "0x0000000000000000000000008dc20ce305ff565f7c6ff8e8d277b86174515c47"
          ],
          "data": "0x0000000000000000000000000000000000000000000000000023a15a41ea2ea9",
          "blockHash": "0xfc457beb0be446e7a9be3d6d545b3390fa26f38e6d8f521d79786e1255c59556",
          "blockNumber": "0x2d1424a",
          "transactionHash": "0x546ca1692a7e2ff9ac21871c2386959a1000e3f69d2c0695824c043b7c1aa647",
          "transactionIndex": "0x37",
          "logIndex": "0x65",
          "removed": false
        },
        {
          "address": "0x4f8104f539fd942eaa0bffb0d775e46531848ffb",
          "topics": [
            "0x1c411e9a96e071241c2f21f7726b17ae89e3cab4c78be50e062b03a9fffbbad1"
          ],
          "data": "0x000000000000000000000000000000000000000000000000ad96bfe83a7886570000000000000000000000000000000000000000000000008e7dcc95106dac54",
          "blockHash": "0xfc457beb0be446e7a9be3d6d545b3390fa26f38e6d8f521d79786e1255c59556",
          "blockNumber": "0x2d1424a",
          "transactionHash": "0x546ca1692a7e2ff9ac21871c2386959a1000e3f69d2c0695824c043b7c1aa647",
          "transactionIndex": "0x37",
          "logIndex": "0x66",
          "removed": false
        },
        {
          "address": "0x4f8104f539fd942eaa0bffb0d775e46531848ffb",
          "topics": [
            "0xd78ad95fa46c994b6551d0da85fc275fe613ce37657fb8d5e3d130840159d822",
            "0x0000000000000000000000001b02da8cb0d097eb8d57a175b88c7d8b47997506",
            "0x0000000000000000000000008dc20ce305ff565f7c6ff8e8d277b86174515c47"
          ],
          "data": "0x000000000000000000000000000000000000000000000000002b7e8880fdcd7f000000000000000000000000000000000000000000000000000000000000000000000000000000000000000000000000000000000000000000000000000000000000000000000000000000000000000000000000000000000023a15a41ea2ea9",
          "blockHash": "0xfc457beb0be446e7a9be3d6d545b3390fa26f38e6d8f521d79786e1255c59556",
          "blockNumber": "0x2d1424a",
          "transactionHash": "0x546ca1692a7e2ff9ac21871c2386959a1000e3f69d2c0695824c043b7c1aa647",
          "transactionIndex": "0x37",
          "logIndex": "0x67",
          "removed": false
        }
      ],
      "logsBloom": "0x00200200000000000000000080000000000000004000000000000000000800000000000000000000000000000000000000100000040000000000200000200000000000080000000001000008000000200840000000000002000000000000000000000000000000000000000000000000000000000000000008008010080000000000020000000000008800000000000000200000000010080020004800008000020000000020000000000000020000000010000000000010000800000000010000000002000000000000000001100000200000000000001000000000000000003050000900000000000012000000000400000000000000000000000000000000",
      "type": "0x0",
      "transactionHash": "0x546ca1692a7e2ff9ac21871c2386959a1000e3f69d2c0695824c043b7c1aa647",
      "transactionIndex": "0x37",
      "blockHash": "0xfc457beb0be446e7a9be3d6d545b3390fa26f38e6d8f521d79786e1255c59556",
      "blockNumber": "0x2d1424a",
      "gasUsed": "0x145827",
      "effectiveGasPrice": "0x3b9aca00",
      "from": "0x71f74debb7fd42e61de32256537284e06de8812d",
      "to": "0x8dc20ce305ff565f7c6ff8e8d277b86174515c47",
      "contractAddress": null
    }
  ],
  "libraries": [],
  "pending": [],
  "returns": {},
  "timestamp": 1741386884,
  "chain": 56,
  "commit": "9e83b4a"
}