{
  "transactions": [
    {
      "hash": "0xe66f4f24a7d12c0b3c9251b0eceee68760084aa6ed94bd9d17a9e906c340054f",
      "transactionType": "CALL",
      "contractName": null,
      "contractAddress": "0x8dc20ce305ff565f7c6ff8e8d277b86174515c47",
      "function": "iteratePairList(uint256,uint256,uint256,uint256,uint256,bool)",
      "arguments": [
        "0",
        "4",
        "10000000000000",
        "5",
        "10",
        "false"
      ],
      "transaction": {
        "from": "0x71f74debb7fd42e61de32256537284e06de8812d",
        "to": "0x8dc20ce305ff565f7c6ff8e8d277b86174515c47",
        "gas": "0x13b45b",
        "value": "0x0",
        "input": "0x8101424d00000000000000000000000000000000000000000000000000000000000000000000000000000000000000000000000000000000000000000000000000000004000000000000000000000000000000000000000000000000000009184e72a0000000000000000000000000000000000000000000000000000000000000000005000000000000000000000000000000000000000000000000000000000000000a0000000000000000000000000000000000000000000000000000000000000000",
        "nonce": "0x2b4",
        "chainId": "0x38"
      },
      "additionalContracts": [],
      "isFixedGasLimit": false
    }
  ],
  "receipts": [
    {
      "status": "0x1",
      "cumulativeGasUsed": "0x42e90a",
      "logs": [
        {
          "address": "0x8dc20ce305ff565f7c6ff8e8d277b86174515c47",
          "topics": [
            "0x05ae39bd3637f496d15f3461b4f129f5220ecb5dd2c8b18471081ae0b514d6f4",
            "0x00000000000000000000000055d398326f99059ff775485246999027b3197955",
            "0x0000000000000000000000007130d2a12b9bcbfae4f2634d864a1ee1ce3ead9c"
          ],
          "data": "0x0000000000000000000000001b02da8cb0d097eb8d57a175b88c7d8b47997506000000000000000000000000cf0febd3f17cef5b47b0cd257acf6025c5bff3b7000000000000000000000000000000000000000000000000000009184e72a0000000000000000000000000000000000000000000000000000000000006ce40a300000000000000000000000000000000000000000000000000000934e1b03e720000000000000000000000000000000000000000000000000000001c933d9e72",
          "blockHash": "0x1092cf2c09c1878daa5e764b621224d8266bddbaf04be7261d078ad0ad317394",
          "blockNumber": "0x2d1321a",
          "transactionHash": "0xe66f4f24a7d12c0b3c9251b0eceee68760084aa6ed94bd9d17a9e906c340054f",
          "transactionIndex": "0x3e",
          "logIndex": "0x5c",
          "removed": false
        },
        {
          "address": "0x55d398326f99059ff775485246999027b3197955",
          "topics": [
            "0x8c5be1e5ebec7d5bd14f71427d1e84f3dd0314c0f7b2291e5b200ac8c7c3b925",
            "0x0000000000000000000000008dc20ce305ff565f7c6ff8e8d277b86174515c47",
            "0x0000000000000000000000001b02da8cb0d097eb8d57a175b88c7d8b47997506"
          ],
          "data": "0x000000000000000000000000000000000000000000000000000009184e72a000",
          "blockHash": "0x1092cf2c09c1878daa5e764b621224d8266bddbaf04be7261d078ad0ad317394",
          "blockNumber": "0x2d1321a",
          "transactionHash": "0xe66f4f24a7d12c0b3c9251b0eceee68760084aa6ed94bd9d17a9e906c340054f",
          "transactionIndex": "0x3e",
          "logIndex": "0x5d",
          "removed": false
        },
        {
          "address": "0x55d398326f99059ff775485246999027b3197955",
          "topics": [
            "0xddf252ad1be2c89b69c2b068fc378daa952ba7f163c4a11628f55a4df523b3ef",
            "0x0000000000000000000000008dc20ce305ff565f7c6ff8e8d277b86174515c47",
            "0x0000000000000000000000005f8bbce851b869eb0abe7a336d049a7bdae5ad18"
          ],
          "data": "0x000000000000000000000000000000000000000000000000000009184e72a000",
          "blockHash": "0x1092cf2c09c1878daa5e764b621224d8266bddbaf04be7261d078ad0ad317394",
          "blockNumber": "0x2d1321a",
          "transactionHash": "0xe66f4f24a7d12c0b3c9251b0eceee68760084aa6ed94bd9d17a9e906c340054f",
          "transactionIndex": "0x3e",
          "logIndex": "0x5e",
          "removed": false
        },
        {
          "address": "0x55d398326f99059ff775485246999027b3197955",
          "topics": [
            "0x8c5be1e5ebec7d5bd14f71427d1e84f3dd0314c0f7b2291e5b200ac8c7c3b925",
            "0x0000000000000000000000008dc20ce305ff565f7c6ff8e8d277b86174515c47",
            "0x0000000000000000000000001b02da8cb0d097eb8d57a175b88c7d8b47997506"
          ],
          "data": "0x0000000000000000000000000000000000000000000000000000000000000000",
          "blockHash": "0x1092cf2c09c1878daa5e764b621224d8266bddbaf04be7261d078ad0ad317394",
          "blockNumber": "0x2d1321a",
          "transactionHash": "0xe66f4f24a7d12c0b3c9251b0eceee68760084aa6ed94bd9d17a9e906c340054f",
          "transactionIndex": "0x3e",
          "logIndex": "0x5f",
          "removed": false
        },
        {
          "address": "0x7130d2a12b9bcbfae4f2634d864a1ee1ce3ead9c",
          "topics": [
            "0xddf252ad1be2c89b69c2b068fc378daa952ba7f163c4a11628f55a4df523b3ef",
            "0x0000000000000000000000005f8bbce851b869eb0abe7a336d049a7bdae5ad18",
            "0x0000000000000000000000008dc20ce305ff565f7c6ff8e8d277b86174515c47"
          ],
          "data": "0x0000000000000000000000000000000000000000000000000000000006cf1fc1",
          "blockHash": "0x1092cf2c09c1878daa5e764b621224d8266bddbaf04be7261d078ad0ad317394",
          "blockNumber": "0x2d1321a",
          "transactionHash": "0xe66f4f24a7d12c0b3c9251b0eceee68760084aa6ed94bd9d17a9e906c340054f",
          "transactionIndex": "0x3e",
          "logIndex": "0x60",
          "removed": false
        },
        {
          "address": "0x5f8bbce851b869eb0abe7a336d049a7bdae5ad18",
          "topics": [
            "0x1c411e9a96e071241c2f21f7726b17ae89e3cab4c78be50e062b03a9fffbbad1"
          ],
          "data": "0x0000000000000000000000000000000000000000000000000a7639dbd07b7a21000000000000000000000000000000000000000000000000000007db1a8a19f7",
          "blockHash": "0x1092cf2c09c1878daa5e764b621224d8266bddbaf04be7261d078ad0ad317394",
          "blockNumber": "0x2d1321a",
          "transactionHash": "0xe66f4f24a7d12c0b3c9251b0eceee68760084aa6ed94bd9d17a9e906c340054f",
          "transactionIndex": "0x3e",
          "logIndex": "0x61",
          "removed": false
        },
        {
          "address": "0x5f8bbce851b869eb0abe7a336d049a7bdae5ad18",
          "topics": [
            "0xd78ad95fa46c994b6551d0da85fc275fe613ce37657fb8d5e3d130840159d822",
            "0x0000000000000000000000001b02da8cb0d097eb8d57a175b88c7d8b47997506",
            "0x0000000000000000000000008dc20ce305ff565f7c6ff8e8d277b86174515c47"
          ],
          "data": "0x000000000000000000000000000000000000000000000000000009184e72a000000000000000000000000000000000000000000000000000000000000000000000000000000000000000000000000000000000000000000000000000000000000000000000000000000000000000000000000000000000000000000006cf1fc1",
          "blockHash": "0x1092cf2c09c1878daa5e764b621224d8266bddbaf04be7261d078ad0ad317394",
          "blockNumber": "0x2d1321a",
          "transactionHash": "0xe66f4f24a7d12c0b3c9251b0eceee68760084aa6ed94bd9d17a9e906c340054f",
          "transactionIndex": "0x3e",
          "logIndex": "0x62",
          "removed": false
        },
        {
          "address": "0x7130d2a12b9bcbfae4f2634d864a1ee1ce3ead9c",
          "topics": [
            "0x8c5be1e5ebec7d5bd14f71427d1e84f3dd0314c0f7b2291e5b200ac8c7c3b925",
            "0x0000000000000000000000008dc20ce305ff565f7c6ff8e8d277b86174515c47",
            "0x000000000000000000000000cf0febd3f17cef5b47b0cd257acf6025c5bff3b7"
          ],
          "data": "0x0000000000000000000000000000000000000000000000000000000006cf1fc1",
          "blockHash": "0x1092cf2c09c1878daa5e764b621224d8266bddbaf04be7261d078ad0ad317394",
          "blockNumber": "0x2d1321a",
          "transactionHash": "0xe66f4f24a7d12c0b3c9251b0eceee68760084aa6ed94bd9d17a9e906c340054f",
          "transactionIndex": "0x3e",
          "logIndex": "0x63",
          "removed": false
        },
        {
          "address": "0x7130d2a12b9bcbfae4f2634d864a1ee1ce3ead9c",
          "topics": [
            "0xddf252ad1be2c89b69c2b068fc378daa952ba7f163c4a11628f55a4df523b3ef",
            "0x0000000000000000000000008dc20ce305ff565f7c6ff8e8d277b86174515c47",
            "0x00000000000000000000000084ad6f8100cf7d2476107cefb1e12fcc0db2cb70"
          ],
          "data": "0x0000000000000000000000000000000000000000000000000000000006cf1fc1",
          "blockHash": "0x1092cf2c09c1878daa5e764b621224d8266bddbaf04be7261d078ad0ad317394",
          "blockNumber": "0x2d1321a",
          "transactionHash": "0xe66f4f24a7d12c0b3c9251b0eceee68760084aa6ed94bd9d17a9e906c340054f",
          "transactionIndex": "0x3e",
          "logIndex": "0x64",
          "removed": false
        },
        {
          "address": "0x7130d2a12b9bcbfae4f2634d864a1ee1ce3ead9c",
          "topics": [
            "0x8c5be1e5ebec7d5bd14f71427d1e84f3dd0314c0f7b2291e5b200ac8c7c3b925",
            "0x0000000000000000000000008dc20ce305ff565f7c6ff8e8d277b86174515c47",
            "0x000000000000000000000000cf0febd3f17cef5b47b0cd257acf6025c5bff3b7"
          ],
          "data": "0x0000000000000000000000000000000000000000000000000000000000000000",
          "blockHash": "0x1092cf2c09c1878daa5e764b621224d8266bddbaf04be7261d078ad0ad317394",
          "blockNumber": "0x2d1321a",
          "transactionHash": "0xe66f4f24a7d12c0b3c9251b0eceee68760084aa6ed94bd9d17a9e906c340054f",
          "transactionIndex": "0x3e",
          "logIndex": "0x65",
          "removed": false
        },
        {
          "address": "0x55d398326f99059ff775485246999027b3197955",
          "topics": [
            "0xddf252ad1be2c89b69c2b068fc378daa952ba7f163c4a11628f55a4df523b3ef",
            "0x00000000000000000000000084ad6f8100cf7d2476107cefb1e12fcc0db2cb70",
            "0x0000000000000000000000008dc20ce305ff565f7c6ff8e8d277b86174515c47"
          ],
          "data": "0x000000000000000000000000000000000000000000000000000009360f852cac",
          "blockHash": "0x1092cf2c09c1878daa5e764b621224d8266bddbaf04be7261d078ad0ad317394",
          "blockNumber": "0x2d1321a",
          "transactionHash": "0xe66f4f24a7d12c0b3c9251b0eceee68760084aa6ed94bd9d17a9e906c340054f",
          "transactionIndex": "0x3e",
          "logIndex": "0x66",
          "removed": false
        },
        {
          "address": "0x84ad6f8100cf7d2476107cefb1e12fcc0db2cb70",
          "topics": [
            "0x1c411e9a96e071241c2f21f7726b17ae89e3cab4c78be50e062b03a9fffbbad1"
          ],
          "data": "0x0000000000000000000000000000000000000000000000000003f70b8b31099b00000000000000000000000000000000000000000000000000000002f3a63cfc",
          "blockHash": "0x1092cf2c09c1878daa5e764b621224d8266bddbaf04be7261d078ad0ad317394",
          "blockNumber": "0x2d1321a",
          "transactionHash": "0xe66f4f24a7d12c0b3c9251b0eceee68760084aa6ed94bd9d17a9e906c340054f",
          "transactionIndex": "0x3e",
          "logIndex": "0x67",
          "removed": false
        },
        {
          "address": "0x84ad6f8100cf7d2476107cefb1e12fcc0db2cb70",
          "topics": [
            "0xd78ad95fa46c994b6551d0da85fc275fe613ce37657fb8d5e3d130840159d822",
            "0x000000000000000000000000cf0febd3f17cef5b47b0cd257acf6025c5bff3b7",
            "0x0000000000000000000000008dc20ce305ff565f7c6ff8e8d277b86174515c47"
          ],
          "data": "0x00000000000000000000000000000000000000000000000000000000000000000000000000000000000000000000000000000000000000000000000006cf1fc1000000000000000000000000000000000000000000000000000009360f852cac0000000000000000000000000000000000000000000000000000000000000000",
          "blockHash": "0x1092cf2c09c1878daa5e764b621224d8266bddbaf04be7261d078ad0ad317394",
          "blockNumber": "0x2d1321a",
          "transactionHash": "0xe66f4f24a7d12c0b3c9251b0eceee68760084aa6ed94bd9d17a9e906c340054f",
          "transactionIndex": "0x3e",
          "logIndex": "0x68",
          "removed": false
        },
        {
          "address": "0x8dc20ce305ff565f7c6ff8e8d277b86174515c47",
          "topics": [
            "0x05ae39bd3637f496d15f3461b4f129f5220ecb5dd2c8b18471081ae0b514d6f4",
            "0x00000000000000000000000055d398326f99059ff775485246999027b3197955",
            "0x0000000000000000000000003ee2200efb3400fabb9aacf31297cbdd1d435d47"
          ],
          "data": "0x0000000000000000000000001b02da8cb0d097eb8d57a175b88c7d8b47997506000000000000000000000000cf0febd3f17cef5b47b0cd257acf6025c5bff3b7000000000000000000000000000000000000000000000000000009184e72a00000000000000000000000000000000000000000000000000000000a9e470d74b8000000000000000000000000000000000000000000000000000009371035c11c0000000000000000000000000000000000000000000000000000001ec1c3211c",
          "blockHash": "0x1092cf2c09c1878daa5e764b621224d8266bddbaf04be7261d078ad0ad317394",
          "blockNumber": "0x2d1321a",
          "transactionHash": "0xe66f4f24a7d12c0b3c9251b0eceee68760084aa6ed94bd9d17a9e906c340054f",
          "transactionIndex": "0x3e",
          "logIndex": "0x69",
          "removed": false
        },
        {
          "address": "0x55d398326f99059ff775485246999027b3197955",
          "topics": [
            "0x8c5be1e5ebec7d5bd14f71427d1e84f3dd0314c0f7b2291e5b200ac8c7c3b925",
            "0x0000000000000000000000008dc20ce305ff565f7c6ff8e8d277b86174515c47",
            "0x0000000000000000000000001b02da8cb0d097eb8d57a175b88c7d8b47997506"
          ],
          "data": "0x000000000000000000000000000000000000000000000000000009184e72a000",
          "blockHash": "0x1092cf2c09c1878daa5e764b621224d8266bddbaf04be7261d078ad0ad317394",
          "blockNumber": "0x2d1321a",
          "transactionHash": "0xe66f4f24a7d12c0b3c9251b0eceee68760084aa6ed94bd9d17a9e906c340054f",
          "transactionIndex": "0x3e",
          "logIndex": "0x6a",
          "removed": false
        },
        {
          "address": "0x55d398326f99059ff775485246999027b3197955",
          "topics": [
            "0xddf252ad1be2c89b69c2b068fc378daa952ba7f163c4a11628f55a4df523b3ef",
            "0x0000000000000000000000008dc20ce305ff565f7c6ff8e8d277b86174515c47",
            "0x0000000000000000000000004f8104f539fd942eaa0bffb0d775e46531848ffb"
          ],
          "data": "0x000000000000000000000000000000000000000000000000000009184e72a000",
          "blockHash": "0x1092cf2c09c1878daa5e764b621224d8266bddbaf04be7261d078ad0ad317394",
          "blockNumber": "0x2d1321a",
          "transactionHash": "0xe66f4f24a7d12c0b3c9251b0eceee68760084aa6ed94bd9d17a9e906c340054f",
          "transactionIndex": "0x3e",
          "logIndex": "0x6b",
          "removed": false
        },
        {
          "address": "0x55d398326f99059ff775485246999027b3197955",
          "topics": [
            "0x8c5be1e5ebec7d5bd14f71427d1e84f3dd0314c0f7b2291e5b200ac8c7c3b925",
            "0x0000000000000000000000008dc20ce305ff565f7c6ff8e8d277b86174515c47",
            "0x0000000000000000000000001b02da8cb0d097eb8d57a175b88c7d8b47997506"
          ],
          "data": "0x0000000000000000000000000000000000000000000000000000000000000000",
          "blockHash": "0x1092cf2c09c1878daa5e764b621224d8266bddbaf04be7261d078ad0ad317394",
          "blockNumber": "0x2d1321a",
          "transactionHash": "0xe66f4f24a7d12c0b3c9251b0eceee68760084aa6ed94bd9d17a9e906c340054f",
          "transactionIndex": "0x3e",
          "logIndex": "0x6c",
          "removed": false
        },
        {
          "address": "0x3ee2200efb3400fabb9aacf31297cbdd1d435d47",
          "topics": [
            "0xddf252ad1be2c89b69c2b068fc378daa952ba7f163c4a11628f55a4df523b3ef",
            "0x0000000000000000000000004f8104f539fd942eaa0bffb0d775e46531848ffb",
            "0x0000000000000000000000008dc20ce305ff565f7c6ff8e8d277b86174515c47"
          ],
          "data": "0x00000000000000000000000000000000000000000000000000000a9fa32a887f",
          "blockHash": "0x1092cf2c09c1878daa5e764b621224d8266bddbaf04be7261d078ad0ad317394",
          "blockNumber": "0x2d1321a",
          "transactionHash": "0xe66f4f24a7d12c0b3c9251b0eceee68760084aa6ed94bd9d17a9e906c340054f",
          "transactionIndex": "0x3e",
          "logIndex": "0x6d",
          "removed": false
        },
        {
          "address": "0x4f8104f539fd942eaa0bffb0d775e46531848ffb",
          "topics": [
            "0x1c411e9a96e071241c2f21f7726b17ae89e3cab4c78be50e062b03a9fffbbad1"
          ],
          "data": "0x000000000000000000000000000000000000000000000000aa3a2a2f1a704379000000000000000000000000000000000000000000000000914bc7358ca1e6f8",
          "blockHash": "0x1092cf2c09c1878daa5e764b621224d8266bddbaf04be7261d078ad0ad317394",
          "blockNumber": "0x2d1321a",
          "transactionHash": "0xe66f4f24a7d12c0b3c9251b0eceee68760084aa6ed94bd9d17a9e906c340054f",
          "transactionIndex": "0x3e",
          "logIndex": "0x6e",
          "removed": false
        },
        {
          "address": "0x4f8104f539fd942eaa0bffb0d775e46531848ffb",
          "topics": [
            "0xd78ad95fa46c994b6551d0da85fc275fe613ce37657fb8d5e3d130840159d822",
            "0x0000000000000000000000001b02da8cb0d097eb8d57a175b88c7d8b47997506",
            "0x0000000000000000000000008dc20ce305ff565f7c6ff8e8d277b86174515c47"
          ],
          "data": "0x0000000000000000000000000000000000000000000000000000000000000000000000000000000000000000000000000000000000000000000009184e72a00000000000000000000000000000000000000000000000000000000a9fa32a887f0000000000000000000000000000000000000000000000000000000000000000",
          "blockHash": "0x1092cf2c09c1878daa5e764b621224d8266bddbaf04be7261d078ad0ad317394",
          "blockNumber": "0x2d1321a",
          "transactionHash": "0xe66f4f24a7d12c0b3c9251b0eceee68760084aa6ed94bd9d17a9e906c340054f",
          "transactionIndex": "0x3e",
          "logIndex": "0x6f",
          "removed": false
        },
        {
          "address": "0x3ee2200efb3400fabb9aacf31297cbdd1d435d47",
          "topics": [
            "0x8c5be1e5ebec7d5bd14f71427d1e84f3dd0314c0f7b2291e5b200ac8c7c3b925",
            "0x0000000000000000000000008dc20ce305ff565f7c6ff8e8d277b86174515c47",
            "0x000000000000000000000000cf0febd3f17cef5b47b0cd257acf6025c5bff3b7"
          ],
          "data": "0x00000000000000000000000000000000000000000000000000000a9fa32a887f",
          "blockHash": "0x1092cf2c09c1878daa5e764b621224d8266bddbaf04be7261d078ad0ad317394",
          "blockNumber": "0x2d1321a",
          "transactionHash": "0xe66f4f24a7d12c0b3c9251b0eceee68760084aa6ed94bd9d17a9e906c340054f",
          "transactionIndex": "0x3e",
          "logIndex": "0x70",
          "removed": false
        },
        {
          "address": "0x3ee2200efb3400fabb9aacf31297cbdd1d435d47",
          "topics": [
            "0xddf252ad1be2c89b69c2b068fc378daa952ba7f163c4a11628f55a4df523b3ef",
            "0x0000000000000000000000008dc20ce305ff565f7c6ff8e8d277b86174515c47",
            "0x0000000000000000000000008511a5edfd77bb0d2379498d5a1bca589302d6de"
          ],
          "data": "0x00000000000000000000000000000000000000000000000000000a9fa32a887f",
          "blockHash": "0x1092cf2c09c1878daa5e764b621224d8266bddbaf04be7261d078ad0ad317394",
          "blockNumber": "0x2d1321a",
          "transactionHash": "0xe66f4f24a7d12c0b3c9251b0eceee68760084aa6ed94bd9d17a9e906c340054f",
          "transactionIndex": "0x3e",
          "logIndex": "0x71",
          "removed": false
        },
        {
          "address": "0x3ee2200efb3400fabb9aacf31297cbdd1d435d47",
          "topics": [
            "0x8c5be1e5ebec7d5bd14f71427d1e84f3dd0314c0f7b2291e5b200ac8c7c3b925",
            "0x0000000000000000000000008dc20ce305ff565f7c6ff8e8d277b86174515c47",
            "0x000000000000000000000000cf0febd3f17cef5b47b0cd257acf6025c5bff3b7"
          ],
          "data": "0x0000000000000000000000000000000000000000000000000000000000000000",
          "blockHash": "0x1092cf2c09c1878daa5e764b621224d8266bddbaf04be7261d078ad0ad317394",
          "blockNumber": "0x2d1321a",
          "transactionHash": "0xe66f4f24a7d12c0b3c9251b0eceee68760084aa6ed94bd9d17a9e906c340054f",
          "transactionIndex": "0x3e",
          "logIndex": "0x72",
          "removed": false
        },
        {
          "address": "0x55d398326f99059ff775485246999027b3197955",
          "topics": [
            "0xddf252ad1be2c89b69c2b068fc378daa952ba7f163c4a11628f55a4df523b3ef",
            "0x0000000000000000000000008511a5edfd77bb0d2379498d5a1bca589302d6de",
            "0x0000000000000000000000008dc20ce305ff565f7c6ff8e8d277b86174515c47"
          ],
          "data": "0x000000000000000000000000000000000000000000000000000009383e523620",
          "blockHash": "0x1092cf2c09c1878daa5e764b621224d8266bddbaf04be7261d078ad0ad317394",
          "blockNumber": "0x2d1321a",
          "transactionHash": "0xe66f4f24a7d12c0b3c9251b0eceee68760084aa6ed94bd9d17a9e906c340054f",
          "transactionIndex": "0x3e",
          "logIndex": "0x73",
          "removed": false
        },
        {
          "address": "0x8511a5edfd77bb0d2379498d5a1bca589302d6de",
          "topics": [
            "0x1c411e9a96e071241c2f21f7726b17ae89e3cab4c78be50e062b03a9fffbbad1"
          ],
          "data": "0x00000000000000000000000000000000000000000000000000b7316050e396e9000000000000000000000000000000000000000000000000009f4451a9832004",
          "blockHash": "0x1092cf2c09c1878daa5e764b621224d8266bddbaf04be7261d078ad0ad317394",
          "blockNumber": "0x2d1321a",
          "transactionHash": "0xe66f4f24a7d12c0b3c9251b0eceee68760084aa6ed94bd9d17a9e906c340054f",
          "transactionIndex": "0x3e",
          "logIndex": "0x74",
          "removed": false
        },
        {
          "address": "0x8511a5edfd77bb0d2379498d5a1bca589302d6de",
          "topics": [
            "0xd78ad95fa46c994b6551d0da85fc275fe613ce37657fb8d5e3d130840159d822",
            "0x000000000000000000000000cf0febd3f17cef5b47b0cd257acf6025c5bff3b7",
            "0x0000000000000000000000008dc20ce305ff565f7c6ff8e8d277b86174515c47"
          ],
          "data": "0x00000000000000000000000000000000000000000000000000000a9fa32a887f00000000000000000000000000000000000000000000000000000000000000000000000000000000000000000000000000000000000000000000000000000000000000000000000000000000000000000000000000000000000009383e523620",
          "blockHash": "0x1092cf2c09c1878daa5e764b621224d8266bddbaf04be7261d078ad0ad317394",
          "blockNumber": "0x2d1321a",
          "transactionHash": "0xe66f4f24a7d12c0b3c9251b0eceee68760084aa6ed94bd9d17a9e906c340054f",
          "transactionIndex": "0x3e",
          "logIndex": "0x75",
          "removed": false
        }
      ],
      "logsBloom": "0x00200000000000000000000080000000001002004000000000000000000000000000004000000000400010000000000000500000000000000000200000200000002000090000000081000008000000200840000000000402000000000000040000000000000004000000000000000000000000060000000008000010080004000000420000000000008800000000000000000000000010080000084800008000020000000020000000000000080004000010000000000010000800000080010000000002000000000000000001100000200400000020001000000000400100001050000900000000040012000000000000000004400000000000000000000000",
      "type": "0x0",
      "transactionHash": "0xe66f4f24a7d12c0b3c9251b0eceee68760084aa6ed94bd9d17a9e906c340054f",
      "transactionIndex": "0x3e",
      "blockHash": "0x1092cf2c09c1878daa5e764b621224d8266bddbaf04be7261d078ad0ad317394",
      "blockNumber": "0x2d1321a",
      "gasUsed": "0xe4406",
      "effectiveGasPrice": "0x3b9aca00",
      "from": "0x71f74debb7fd42e61de32256537284e06de8812d",
      "to": "0x8dc20ce305ff565f7c6ff8e8d277b86174515c47",
      "contractAddress": null
    }
  ],
  "libraries": [],
  "pending": [],
  "returns": {},
  "timestamp": 1741374454,
  "chain": 56,
  "commit": "0899a7e"
}