{
  "transactions": [
    {
      "hash": "0x1b746f4394690410305900d6ed4a2168a6b37141a802d6ab1eb395756f7d4409",
      "transactionType": "CALL",
      "contractName": null,
      "contractAddress": "0x8dc20ce305ff565f7c6ff8e8d277b86174515c47",
      "function": "iteratePairList(uint256,uint256,uint256,uint256,uint256,bool)",
      "arguments": [
        "0",
        "3",
        "60",
        "5",
        "1000",
        "false"
      ],
      "transaction": {
        "from": "0x71f74debb7fd42e61de32256537284e06de8812d",
        "to": "0x8dc20ce305ff565f7c6ff8e8d277b86174515c47",
        "gas": "0x8e737",
        "value": "0x0",
        "input": "0x8101424d00000000000000000000000000000000000000000000000000000000000000000000000000000000000000000000000000000000000000000000000000000003000000000000000000000000000000000000000000000000000000000000003c000000000000000000000000000000000000000000000000000000000000000500000000000000000000000000000000000000000000000000000000000003e80000000000000000000000000000000000000000000000000000000000000000",
        "nonce": "0x2a7",
        "chainId": "0x38"
      },
      "additionalContracts": [],
      "isFixedGasLimit": false
    }
  ],
  "receipts": [
    {
      "status": "0x1",
      "cumulativeGasUsed": "0x873789",
      "logs": [
        {
          "address": "0x8dc20ce305ff565f7c6ff8e8d277b86174515c47",
          "topics": [
            "0x05ae39bd3637f496d15f3461b4f129f5220ecb5dd2c8b18471081ae0b514d6f4",
            "0x00000000000000000000000055d398326f99059ff775485246999027b3197955",
            "0x0000000000000000000000003ee2200efb3400fabb9aacf31297cbdd1d435d47"
          ],
          "data": "0x00000000000000000000000010ed43c718714eb63d5aa57b78b54704e256024e000000000000000000000000cf0febd3f17cef5b47b0cd257acf6025c5bff3b7000000000000000000000000000000000000000000000000000000000000003c0000000000000000000000000000000000000000000000000000000000000047000000000000000000000000000000000000000000000000000000000000003d0000000000000000000000000000000000000000000000000000000000000001",
          "blockHash": "0x399054f096b560789786d9392e4f3ed379bd274c961e466cf2ed1bf1b64b8045",
          "blockNumber": "0x2d12b60",
          "transactionHash": "0x1b746f4394690410305900d6ed4a2168a6b37141a802d6ab1eb395756f7d4409",
          "transactionIndex": "0x64",
          "logIndex": "0xf2",
          "removed": false
        },
        {
          "address": "0x8dc20ce305ff565f7c6ff8e8d277b86174515c47",
          "topics": [
            "0xb8fa0c47a2d9fe036b3017b803135a15a97b361ae449d961e326fcc7ed30bf91",
            "0x00000000000000000000000010ed43c718714eb63d5aa57b78b54704e256024e"
          ],
          "data": "0x000000000000000000000000000000000000000000000000000000000000002000000000000000000000000000000000000000000000000000000000000000124e6f7420656e6f7567682062616c616e63650000000000000000000000000000",
          "blockHash": "0x399054f096b560789786d9392e4f3ed379bd274c961e466cf2ed1bf1b64b8045",
          "blockNumber": "0x2d12b60",
          "transactionHash": "0x1b746f4394690410305900d6ed4a2168a6b37141a802d6ab1eb395756f7d4409",
          "transactionIndex": "0x64",
          "logIndex": "0xf3",
          "removed": false
        }
      ],
      "logsBloom": "0x00000200000000000000000000000000000000000000000000000000000000000000000000000000000000000000000000000000000000000000200000000000000000080000000000000000000000000000400000000000000400000000000000000000000000000000000000000000000000000000000008000000080000000000000000000000000800000000000000200000000010000000000000000000000000000020000000000000020000000000000000000000000800000000010000000000000000000000000001000000000000000000001000000000000000000000000100000000000002000000000000000000000000000000000000000000",
      "type": "0x0",
      "transactionHash": "0x1b746f4394690410305900d6ed4a2168a6b37141a802d6ab1eb395756f7d4409",
      "transactionIndex": "0x64",
      "blockHash": "0x399054f096b560789786d9392e4f3ed379bd274c961e466cf2ed1bf1b64b8045",
      "blockNumber": "0x2d12b60",
      "gasUsed": "0x6721d",
      "effectiveGasPrice": "0x3b9aca00",
      "from": "0x71f74debb7fd42e61de32256537284e06de8812d",
      "to": "0x8dc20ce305ff565f7c6ff8e8d277b86174515c47",
      "contractAddress": null
    }
  ],
  "libraries": [],
  "pending": [],
  "returns": {},
  "timestamp": 1741369288,
  "chain": 56,
  "commit": "b9bfebf"
}