{
  "transactions": [
    {
      "hash": "0xab27be0d09d4e02822c976e78215aafc5651ba8dde633dce668c489774388ab3",
      "transactionType": "CALL",
      "contractName": null,
      "contractAddress": "0x8dc20ce305ff565f7c6ff8e8d277b86174515c47",
      "function": "iteratePairList(uint256,uint256,uint256,uint256,uint256,bool)",
      "arguments": [
        "0",
        "4",
        "1000000000",
        "5",
        "10",
        "false"
      ],
      "transaction": {
        "from": "0x71f74debb7fd42e61de32256537284e06de8812d",
        "to": "0x8dc20ce305ff565f7c6ff8e8d277b86174515c47",
        "gas": "0x17fc8b",
        "value": "0x0",
        "input": "0x8101424d00000000000000000000000000000000000000000000000000000000000000000000000000000000000000000000000000000000000000000000000000000004000000000000000000000000000000000000000000000000000000003b9aca000000000000000000000000000000000000000000000000000000000000000005000000000000000000000000000000000000000000000000000000000000000a0000000000000000000000000000000000000000000000000000000000000000",
        "nonce": "0x2b3",
        "chainId": "0x38"
      },
      "additionalContracts": [],
      "isFixedGasLimit": false
    }
  ],
  "receipts": [
    {
      "status": "0x1",
      "cumulativeGasUsed": "0x605d73",
      "logs": [
        {
          "address": "0x8dc20ce305ff565f7c6ff8e8d277b86174515c47",
          "topics": [
            "0x05ae39bd3637f496d15f3461b4f129f5220ecb5dd2c8b18471081ae0b514d6f4",
            "0x00000000000000000000000055d398326f99059ff775485246999027b3197955",
            "0x0000000000000000000000007130d2a12b9bcbfae4f2634d864a1ee1ce3ead9c"
          ],
          "data": "0x0000000000000000000000001b02da8cb0d097eb8d57a175b88c7d8b47997506000000000000000000000000cf0febd3f17cef5b47b0cd257acf6025c5bff3b7000000000000000000000000000000000000000000000000000000003b9aca000000000000000000000000000000000000000000000000000000000000002c9a000000000000000000000000000000000000000000000000000000003ce13c020000000000000000000000000000000000000000000000000000000001467202",
          "blockHash": "0x8c74c23922043fe5922ffcefdb4d126db277b38c61a92386590bfd7e5a30ba2f",
          "blockNumber": "0x2d131ea",
          "transactionHash": "0xab27be0d09d4e02822c976e78215aafc5651ba8dde633dce668c489774388ab3",
          "transactionIndex": "0x52",
          "logIndex": "0x68",
          "removed": false
        },
        {
          "address": "0x55d398326f99059ff775485246999027b3197955",
          "topics": [
            "0x8c5be1e5ebec7d5bd14f71427d1e84f3dd0314c0f7b2291e5b200ac8c7c3b925",
            "0x0000000000000000000000008dc20ce305ff565f7c6ff8e8d277b86174515c47",
            "0x0000000000000000000000001b02da8cb0d097eb8d57a175b88c7d8b47997506"
          ],
          "data": "0x000000000000000000000000000000000000000000000000000000003b9aca00",
          "blockHash": "0x8c74c23922043fe5922ffcefdb4d126db277b38c61a92386590bfd7e5a30ba2f",
          "blockNumber": "0x2d131ea",
          "transactionHash": "0xab27be0d09d4e02822c976e78215aafc5651ba8dde633dce668c489774388ab3",
          "transactionIndex": "0x52",
          "logIndex": "0x69",
          "removed": false
        },
        {
          "address": "0x55d398326f99059ff775485246999027b3197955",
          "topics": [
            "0xddf252ad1be2c89b69c2b068fc378daa952ba7f163c4a11628f55a4df523b3ef",
            "0x0000000000000000000000008dc20ce305ff565f7c6ff8e8d277b86174515c47",
            "0x0000000000000000000000005f8bbce851b869eb0abe7a336d049a7bdae5ad18"
          ],
          "data": "0x000000000000000000000000000000000000000000000000000000003b9aca00",
          "blockHash": "0x8c74c23922043fe5922ffcefdb4d126db277b38c61a92386590bfd7e5a30ba2f",
          "blockNumber": "0x2d131ea",
          "transactionHash": "0xab27be0d09d4e02822c976e78215aafc5651ba8dde633dce668c489774388ab3",
          "transactionIndex": "0x52",
          "logIndex": "0x6a",
          "removed": false
        },
        {
          "address": "0x55d398326f99059ff775485246999027b3197955",
          "topics": [
            "0x8c5be1e5ebec7d5bd14f71427d1e84f3dd0314c0f7b2291e5b200ac8c7c3b925",
            "0x0000000000000000000000008dc20ce305ff565f7c6ff8e8d277b86174515c47",
            "0x0000000000000000000000001b02da8cb0d097eb8d57a175b88c7d8b47997506"
          ],
          "data": "0x0000000000000000000000000000000000000000000000000000000000000000",
          "blockHash": "0x8c74c23922043fe5922ffcefdb4d126db277b38c61a92386590bfd7e5a30ba2f",
          "blockNumber": "0x2d131ea",
          "transactionHash": "0xab27be0d09d4e02822c976e78215aafc5651ba8dde633dce668c489774388ab3",
          "transactionIndex": "0x52",
          "logIndex": "0x6b",
          "removed": false
        },
        {
          "address": "0x7130d2a12b9bcbfae4f2634d864a1ee1ce3ead9c",
          "topics": [
            "0xddf252ad1be2c89b69c2b068fc378daa952ba7f163c4a11628f55a4df523b3ef",
            "0x0000000000000000000000005f8bbce851b869eb0abe7a336d049a7bdae5ad18",
            "0x0000000000000000000000008dc20ce305ff565f7c6ff8e8d277b86174515c47"
          ],
          "data": "0x0000000000000000000000000000000000000000000000000000000000002c9f",
          "blockHash": "0x8c74c23922043fe5922ffcefdb4d126db277b38c61a92386590bfd7e5a30ba2f",
          "blockNumber": "0x2d131ea",
          "transactionHash": "0xab27be0d09d4e02822c976e78215aafc5651ba8dde633dce668c489774388ab3",
          "transactionIndex": "0x52",
          "logIndex": "0x6c",
          "removed": false
        },
        {
          "address": "0x5f8bbce851b869eb0abe7a336d049a7bdae5ad18",
          "topics": [
            "0x1c411e9a96e071241c2f21f7726b17ae89e3cab4c78be50e062b03a9fffbbad1"
          ],
          "data": "0x0000000000000000000000000000000000000000000000000a7630c38208da21000000000000000000000000000000000000000000000000000007db215939b8",
          "blockHash": "0x8c74c23922043fe5922ffcefdb4d126db277b38c61a92386590bfd7e5a30ba2f",
          "blockNumber": "0x2d131ea",
          "transactionHash": "0xab27be0d09d4e02822c976e78215aafc5651ba8dde633dce668c489774388ab3",
          "transactionIndex": "0x52",
          "logIndex": "0x6d",
          "removed": false
        },
        {
          "address": "0x5f8bbce851b869eb0abe7a336d049a7bdae5ad18",
          "topics": [
            "0xd78ad95fa46c994b6551d0da85fc275fe613ce37657fb8d5e3d130840159d822",
            "0x0000000000000000000000001b02da8cb0d097eb8d57a175b88c7d8b47997506",
            "0x0000000000000000000000008dc20ce305ff565f7c6ff8e8d277b86174515c47"
          ],
          "data": "0x000000000000000000000000000000000000000000000000000000003b9aca00000000000000000000000000000000000000000000000000000000000000000000000000000000000000000000000000000000000000000000000000000000000000000000000000000000000000000000000000000000000000000000002c9f",
          "blockHash": "0x8c74c23922043fe5922ffcefdb4d126db277b38c61a92386590bfd7e5a30ba2f",
          "blockNumber": "0x2d131ea",
          "transactionHash": "0xab27be0d09d4e02822c976e78215aafc5651ba8dde633dce668c489774388ab3",
          "transactionIndex": "0x52",
          "logIndex": "0x6e",
          "removed": false
        },
        {
          "address": "0x7130d2a12b9bcbfae4f2634d864a1ee1ce3ead9c",
          "topics": [
            "0x8c5be1e5ebec7d5bd14f71427d1e84f3dd0314c0f7b2291e5b200ac8c7c3b925",
            "0x0000000000000000000000008dc20ce305ff565f7c6ff8e8d277b86174515c47",
            "0x000000000000000000000000cf0febd3f17cef5b47b0cd257acf6025c5bff3b7"
          ],
          "data": "0x0000000000000000000000000000000000000000000000000000000000002c9f",
          "blockHash": "0x8c74c23922043fe5922ffcefdb4d126db277b38c61a92386590bfd7e5a30ba2f",
          "blockNumber": "0x2d131ea",
          "transactionHash": "0xab27be0d09d4e02822c976e78215aafc5651ba8dde633dce668c489774388ab3",
          "transactionIndex": "0x52",
          "logIndex": "0x6f",
          "removed": false
        },
        {
          "address": "0x7130d2a12b9bcbfae4f2634d864a1ee1ce3ead9c",
          "topics": [
            "0xddf252ad1be2c89b69c2b068fc378daa952ba7f163c4a11628f55a4df523b3ef",
            "0x0000000000000000000000008dc20ce305ff565f7c6ff8e8d277b86174515c47",
            "0x00000000000000000000000084ad6f8100cf7d2476107cefb1e12fcc0db2cb70"
          ],
          "data": "0x0000000000000000000000000000000000000000000000000000000000002c9f",
          "blockHash": "0x8c74c23922043fe5922ffcefdb4d126db277b38c61a92386590bfd7e5a30ba2f",
          "blockNumber": "0x2d131ea",
          "transactionHash": "0xab27be0d09d4e02822c976e78215aafc5651ba8dde633dce668c489774388ab3",
          "transactionIndex": "0x52",
          "logIndex": "0x70",
          "removed": false
        },
        {
          "address": "0x7130d2a12b9bcbfae4f2634d864a1ee1ce3ead9c",
          "topics": [
            "0x8c5be1e5ebec7d5bd14f71427d1e84f3dd0314c0f7b2291e5b200ac8c7c3b925",
            "0x0000000000000000000000008dc20ce305ff565f7c6ff8e8d277b86174515c47",
            "0x000000000000000000000000cf0febd3f17cef5b47b0cd257acf6025c5bff3b7"
          ],
          "data": "0x0000000000000000000000000000000000000000000000000000000000000000",
          "blockHash": "0x8c74c23922043fe5922ffcefdb4d126db277b38c61a92386590bfd7e5a30ba2f",
          "blockNumber": "0x2d131ea",
          "transactionHash": "0xab27be0d09d4e02822c976e78215aafc5651ba8dde633dce668c489774388ab3",
          "transactionIndex": "0x52",
          "logIndex": "0x71",
          "removed": false
        },
        {
          "address": "0x55d398326f99059ff775485246999027b3197955",
          "topics": [
            "0xddf252ad1be2c89b69c2b068fc378daa952ba7f163c4a11628f55a4df523b3ef",
            "0x00000000000000000000000084ad6f8100cf7d2476107cefb1e12fcc0db2cb70",
            "0x0000000000000000000000008dc20ce305ff565f7c6ff8e8d277b86174515c47"
          ],
          "data": "0x000000000000000000000000000000000000000000000000000000003ce907ea",
          "blockHash": "0x8c74c23922043fe5922ffcefdb4d126db277b38c61a92386590bfd7e5a30ba2f",
          "blockNumber": "0x2d131ea",
          "transactionHash": "0xab27be0d09d4e02822c976e78215aafc5651ba8dde633dce668c489774388ab3",
          "transactionIndex": "0x52",
          "logIndex": "0x72",
          "removed": false
        },
        {
          "address": "0x84ad6f8100cf7d2476107cefb1e12fcc0db2cb70",
          "topics": [
            "0x1c411e9a96e071241c2f21f7726b17ae89e3cab4c78be50e062b03a9fffbbad1"
          ],
          "data": "0x000000000000000000000000000000000000000000000000000400419ab6364700000000000000000000000000000000000000000000000000000002ecd71d3b",
          "blockHash": "0x8c74c23922043fe5922ffcefdb4d126db277b38c61a92386590bfd7e5a30ba2f",
          "blockNumber": "0x2d131ea",
          "transactionHash": "0xab27be0d09d4e02822c976e78215aafc5651ba8dde633dce668c489774388ab3",
          "transactionIndex": "0x52",
          "logIndex": "0x73",
          "removed": false
        },
        {
          "address": "0x84ad6f8100cf7d2476107cefb1e12fcc0db2cb70",
          "topics": [
            "0xd78ad95fa46c994b6551d0da85fc275fe613ce37657fb8d5e3d130840159d822",
            "0x000000000000000000000000cf0febd3f17cef5b47b0cd257acf6025c5bff3b7",
            "0x0000000000000000000000008dc20ce305ff565f7c6ff8e8d277b86174515c47"
          ],
          "data": "0x00000000000000000000000000000000000000000000000000000000000000000000000000000000000000000000000000000000000000000000000000002c9f000000000000000000000000000000000000000000000000000000003ce907ea0000000000000000000000000000000000000000000000000000000000000000",
          "blockHash": "0x8c74c23922043fe5922ffcefdb4d126db277b38c61a92386590bfd7e5a30ba2f",
          "blockNumber": "0x2d131ea",
          "transactionHash": "0xab27be0d09d4e02822c976e78215aafc5651ba8dde633dce668c489774388ab3",
          "transactionIndex": "0x52",
          "logIndex": "0x74",
          "removed": false
        },
        {
          "address": "0x8dc20ce305ff565f7c6ff8e8d277b86174515c47",
          "topics": [
            "0x05ae39bd3637f496d15f3461b4f129f5220ecb5dd2c8b18471081ae0b514d6f4",
            "0x00000000000000000000000055d398326f99059ff775485246999027b3197955",
            "0x0000000000000000000000002170ed0880ac9a755fd29b2688956bd959f933f8"
          ],
          "data": "0x0000000000000000000000004752ba5dbc23f44d87826276bf6fd6b1c372ad2400000000000000000000000010ed43c718714eb63d5aa57b78b54704e256024e000000000000000000000000000000000000000000000000000000003b9aca00000000000000000000000000000000000000000000000000000000000006f8ba000000000000000000000000000000000000000000000000000000003ba45ea300000000000000000000000000000000000000000000000000000000000994a3",
          "blockHash": "0x8c74c23922043fe5922ffcefdb4d126db277b38c61a92386590bfd7e5a30ba2f",
          "blockNumber": "0x2d131ea",
          "transactionHash": "0xab27be0d09d4e02822c976e78215aafc5651ba8dde633dce668c489774388ab3",
          "transactionIndex": "0x52",
          "logIndex": "0x75",
          "removed": false
        },
        {
          "address": "0x55d398326f99059ff775485246999027b3197955",
          "topics": [
            "0x8c5be1e5ebec7d5bd14f71427d1e84f3dd0314c0f7b2291e5b200ac8c7c3b925",
            "0x0000000000000000000000008dc20ce305ff565f7c6ff8e8d277b86174515c47",
            "0x0000000000000000000000004752ba5dbc23f44d87826276bf6fd6b1c372ad24"
          ],
          "data": "0x000000000000000000000000000000000000000000000000000000003b9aca00",
          "blockHash": "0x8c74c23922043fe5922ffcefdb4d126db277b38c61a92386590bfd7e5a30ba2f",
          "blockNumber": "0x2d131ea",
          "transactionHash": "0xab27be0d09d4e02822c976e78215aafc5651ba8dde633dce668c489774388ab3",
          "transactionIndex": "0x52",
          "logIndex": "0x76",
          "removed": false
        },
        {
          "address": "0x55d398326f99059ff775485246999027b3197955",
          "topics": [
            "0xddf252ad1be2c89b69c2b068fc378daa952ba7f163c4a11628f55a4df523b3ef",
            "0x0000000000000000000000008dc20ce305ff565f7c6ff8e8d277b86174515c47",
            "0x00000000000000000000000016d984fd54da82c74d84752f965a3a6f913985b9"
          ],
          "data": "0x000000000000000000000000000000000000000000000000000000003b9aca00",
          "blockHash": "0x8c74c23922043fe5922ffcefdb4d126db277b38c61a92386590bfd7e5a30ba2f",
          "blockNumber": "0x2d131ea",
          "transactionHash": "0xab27be0d09d4e02822c976e78215aafc5651ba8dde633dce668c489774388ab3",
          "transactionIndex": "0x52",
          "logIndex": "0x77",
          "removed": false
        },
        {
          "address": "0x55d398326f99059ff775485246999027b3197955",
          "topics": [
            "0x8c5be1e5ebec7d5bd14f71427d1e84f3dd0314c0f7b2291e5b200ac8c7c3b925",
            "0x0000000000000000000000008dc20ce305ff565f7c6ff8e8d277b86174515c47",
            "0x0000000000000000000000004752ba5dbc23f44d87826276bf6fd6b1c372ad24"
          ],
          "data": "0x0000000000000000000000000000000000000000000000000000000000000000",
          "blockHash": "0x8c74c23922043fe5922ffcefdb4d126db277b38c61a92386590bfd7e5a30ba2f",
          "blockNumber": "0x2d131ea",
          "transactionHash": "0xab27be0d09d4e02822c976e78215aafc5651ba8dde633dce668c489774388ab3",
          "transactionIndex": "0x52",
          "logIndex": "0x78",
          "removed": false
        },
        {
          "address": "0x2170ed0880ac9a755fd29b2688956bd959f933f8",
          "topics": [
            "0xddf252ad1be2c89b69c2b068fc378daa952ba7f163c4a11628f55a4df523b3ef",
            "0x00000000000000000000000016d984fd54da82c74d84752f965a3a6f913985b9",
            "0x0000000000000000000000008dc20ce305ff565f7c6ff8e8d277b86174515c47"
          ],
          "data": "0x000000000000000000000000000000000000000000000000000000000006f99e",
          "blockHash": "0x8c74c23922043fe5922ffcefdb4d126db277b38c61a92386590bfd7e5a30ba2f",
          "blockNumber": "0x2d131ea",
          "transactionHash": "0xab27be0d09d4e02822c976e78215aafc5651ba8dde633dce668c489774388ab3",
          "transactionIndex": "0x52",
          "logIndex": "0x79",
          "removed": false
        },
        {
          "address": "0x16d984fd54da82c74d84752f965a3a6f913985b9",
          "topics": [
            "0x1c411e9a96e071241c2f21f7726b17ae89e3cab4c78be50e062b03a9fffbbad1"
          ],
          "data": "0x000000000000000000000000000000000000000000000000000c20b33ad64af5000000000000000000000000000000000000000000000000675338f03519ae0e",
          "blockHash": "0x8c74c23922043fe5922ffcefdb4d126db277b38c61a92386590bfd7e5a30ba2f",
          "blockNumber": "0x2d131ea",
          "transactionHash": "0xab27be0d09d4e02822c976e78215aafc5651ba8dde633dce668c489774388ab3",
          "transactionIndex": "0x52",
          "logIndex": "0x7a",
          "removed": false
        },
        {
          "address": "0x16d984fd54da82c74d84752f965a3a6f913985b9",
          "topics": [
            "0xd78ad95fa46c994b6551d0da85fc275fe613ce37657fb8d5e3d130840159d822",
            "0x0000000000000000000000004752ba5dbc23f44d87826276bf6fd6b1c372ad24",
            "0x0000000000000000000000008dc20ce305ff565f7c6ff8e8d277b86174515c47"
          ],
          "data": "0x0000000000000000000000000000000000000000000000000000000000000000000000000000000000000000000000000000000000000000000000003b9aca00000000000000000000000000000000000000000000000000000000000006f99e0000000000000000000000000000000000000000000000000000000000000000",
          "blockHash": "0x8c74c23922043fe5922ffcefdb4d126db277b38c61a92386590bfd7e5a30ba2f",
          "blockNumber": "0x2d131ea",
          "transactionHash": "0xab27be0d09d4e02822c976e78215aafc5651ba8dde633dce668c489774388ab3",
          "transactionIndex": "0x52",
          "logIndex": "0x7b",
          "removed": false
        },
        {
          "address": "0x2170ed0880ac9a755fd29b2688956bd959f933f8",
          "topics": [
            "0x8c5be1e5ebec7d5bd14f71427d1e84f3dd0314c0f7b2291e5b200ac8c7c3b925",
            "0x0000000000000000000000008dc20ce305ff565f7c6ff8e8d277b86174515c47",
            "0x00000000000000000000000010ed43c718714eb63d5aa57b78b54704e256024e"
          ],
          "data": "0x000000000000000000000000000000000000000000000000000000000006f99e",
          "blockHash": "0x8c74c23922043fe5922ffcefdb4d126db277b38c61a92386590bfd7e5a30ba2f",
          "blockNumber": "0x2d131ea",
          "transactionHash": "0xab27be0d09d4e02822c976e78215aafc5651ba8dde633dce668c489774388ab3",
          "transactionIndex": "0x52",
          "logIndex": "0x7c",
          "removed": false
        },
        {
          "address": "0x2170ed0880ac9a755fd29b2688956bd959f933f8",
          "topics": [
            "0xddf252ad1be2c89b69c2b068fc378daa952ba7f163c4a11628f55a4df523b3ef",
            "0x0000000000000000000000008dc20ce305ff565f7c6ff8e8d277b86174515c47",
            "0x000000000000000000000000531febfeb9a61d948c384acfbe6dcc51057aea7e"
          ],
          "data": "0x000000000000000000000000000000000000000000000000000000000006f99e",
          "blockHash": "0x8c74c23922043fe5922ffcefdb4d126db277b38c61a92386590bfd7e5a30ba2f",
          "blockNumber": "0x2d131ea",
          "transactionHash": "0xab27be0d09d4e02822c976e78215aafc5651ba8dde633dce668c489774388ab3",
          "transactionIndex": "0x52",
          "logIndex": "0x7d",
          "removed": false
        },
        {
          "address": "0x2170ed0880ac9a755fd29b2688956bd959f933f8",
          "topics": [
            "0x8c5be1e5ebec7d5bd14f71427d1e84f3dd0314c0f7b2291e5b200ac8c7c3b925",
            "0x0000000000000000000000008dc20ce305ff565f7c6ff8e8d277b86174515c47",
            "0x00000000000000000000000010ed43c718714eb63d5aa57b78b54704e256024e"
          ],
          "data": "0x0000000000000000000000000000000000000000000000000000000000000000",
          "blockHash": "0x8c74c23922043fe5922ffcefdb4d126db277b38c61a92386590bfd7e5a30ba2f",
          "blockNumber": "0x2d131ea",
          "transactionHash": "0xab27be0d09d4e02822c976e78215aafc5651ba8dde633dce668c489774388ab3",
          "transactionIndex": "0x52",
          "logIndex": "0x7e",
          "removed": false
        },
        {
          "address": "0x55d398326f99059ff775485246999027b3197955",
          "topics": [
            "0xddf252ad1be2c89b69c2b068fc378daa952ba7f163c4a11628f55a4df523b3ef",
            "0x000000000000000000000000531febfeb9a61d948c384acfbe6dcc51057aea7e",
            "0x0000000000000000000000008dc20ce305ff565f7c6ff8e8d277b86174515c47"
          ],
          "data": "0x000000000000000000000000000000000000000000000000000000003bac01f7",
          "blockHash": "0x8c74c23922043fe5922ffcefdb4d126db277b38c61a92386590bfd7e5a30ba2f",
          "blockNumber": "0x2d131ea",
          "transactionHash": "0xab27be0d09d4e02822c976e78215aafc5651ba8dde633dce668c489774388ab3",
          "transactionIndex": "0x52",
          "logIndex": "0x7f",
          "removed": false
        },
        {
          "address": "0x531febfeb9a61d948c384acfbe6dcc51057aea7e",
          "topics": [
            "0x1c411e9a96e071241c2f21f7726b17ae89e3cab4c78be50e062b03a9fffbbad1"
          ],
          "data": "0x0000000000000000000000000000000000000000000000066e7ff00b374ffbab0000000000000000000000000000000000000000000037292827c4f045f4da15",
          "blockHash": "0x8c74c23922043fe5922ffcefdb4d126db277b38c61a92386590bfd7e5a30ba2f",
          "blockNumber": "0x2d131ea",
          "transactionHash": "0xab27be0d09d4e02822c976e78215aafc5651ba8dde633dce668c489774388ab3",
          "transactionIndex": "0x52",
          "logIndex": "0x80",
          "removed": false
        },
        {
          "address": "0x531febfeb9a61d948c384acfbe6dcc51057aea7e",
          "topics": [
            "0xd78ad95fa46c994b6551d0da85fc275fe613ce37657fb8d5e3d130840159d822",
            "0x00000000000000000000000010ed43c718714eb63d5aa57b78b54704e256024e",
            "0x0000000000000000000000008dc20ce305ff565f7c6ff8e8d277b86174515c47"
          ],
          "data": "0x000000000000000000000000000000000000000000000000000000000006f99e00000000000000000000000000000000000000000000000000000000000000000000000000000000000000000000000000000000000000000000000000000000000000000000000000000000000000000000000000000000000000003bac01f7",
          "blockHash": "0x8c74c23922043fe5922ffcefdb4d126db277b38c61a92386590bfd7e5a30ba2f",
          "blockNumber": "0x2d131ea",
          "transactionHash": "0xab27be0d09d4e02822c976e78215aafc5651ba8dde633dce668c489774388ab3",
          "transactionIndex": "0x52",
          "logIndex": "0x81",
          "removed": false
        },
        {
          "address": "0x8dc20ce305ff565f7c6ff8e8d277b86174515c47",
          "topics": [
            "0x05ae39bd3637f496d15f3461b4f129f5220ecb5dd2c8b18471081ae0b514d6f4",
            "0x00000000000000000000000055d398326f99059ff775485246999027b3197955",
            "0x0000000000000000000000003ee2200efb3400fabb9aacf31297cbdd1d435d47"
          ],
          "data": "0x0000000000000000000000001b02da8cb0d097eb8d57a175b88c7d8b47997506000000000000000000000000cf0febd3f17cef5b47b0cd257acf6025c5bff3b7000000000000000000000000000000000000000000000000000000003b9aca00000000000000000000000000000000000000000000000000000000004596854d000000000000000000000000000000000000000000000000000000003c67de520000000000000000000000000000000000000000000000000000000000cd1452",
          "blockHash": "0x8c74c23922043fe5922ffcefdb4d126db277b38c61a92386590bfd7e5a30ba2f",
          "blockNumber": "0x2d131ea",
          "transactionHash": "0xab27be0d09d4e02822c976e78215aafc5651ba8dde633dce668c489774388ab3",
          "transactionIndex": "0x52",
          "logIndex": "0x82",
          "removed": false
        },
        {
          "address": "0x55d398326f99059ff775485246999027b3197955",
          "topics": [
            "0x8c5be1e5ebec7d5bd14f71427d1e84f3dd0314c0f7b2291e5b200ac8c7c3b925",
            "0x0000000000000000000000008dc20ce305ff565f7c6ff8e8d277b86174515c47",
            "0x0000000000000000000000001b02da8cb0d097eb8d57a175b88c7d8b47997506"
          ],
          "data": "0x000000000000000000000000000000000000000000000000000000003b9aca00",
          "blockHash": "0x8c74c23922043fe5922ffcefdb4d126db277b38c61a92386590bfd7e5a30ba2f",
          "blockNumber": "0x2d131ea",
          "transactionHash": "0xab27be0d09d4e02822c976e78215aafc5651ba8dde633dce668c489774388ab3",
          "transactionIndex": "0x52",
          "logIndex": "0x83",
          "removed": false
        },
        {
          "address": "0x55d398326f99059ff775485246999027b3197955",
          "topics": [
            "0xddf252ad1be2c89b69c2b068fc378daa952ba7f163c4a11628f55a4df523b3ef",
            "0x0000000000000000000000008dc20ce305ff565f7c6ff8e8d277b86174515c47",
            "0x0000000000000000000000004f8104f539fd942eaa0bffb0d775e46531848ffb"
          ],
          "data": "0x000000000000000000000000000000000000000000000000000000003b9aca00",
          "blockHash": "0x8c74c23922043fe5922ffcefdb4d126db277b38c61a92386590bfd7e5a30ba2f",
          "blockNumber": "0x2d131ea",
          "transactionHash": "0xab27be0d09d4e02822c976e78215aafc5651ba8dde633dce668c489774388ab3",
          "transactionIndex": "0x52",
          "logIndex": "0x84",
          "removed": false
        },
        {
          "address": "0x55d398326f99059ff775485246999027b3197955",
          "topics": [
            "0x8c5be1e5ebec7d5bd14f71427d1e84f3dd0314c0f7b2291e5b200ac8c7c3b925",
            "0x0000000000000000000000008dc20ce305ff565f7c6ff8e8d277b86174515c47",
            "0x0000000000000000000000001b02da8cb0d097eb8d57a175b88c7d8b47997506"
          ],
          "data": "0x0000000000000000000000000000000000000000000000000000000000000000",
          "blockHash": "0x8c74c23922043fe5922ffcefdb4d126db277b38c61a92386590bfd7e5a30ba2f",
          "blockNumber": "0x2d131ea",
          "transactionHash": "0xab27be0d09d4e02822c976e78215aafc5651ba8dde633dce668c489774388ab3",
          "transactionIndex": "0x52",
          "logIndex": "0x85",
          "removed": false
        },
        {
          "address": "0x3ee2200efb3400fabb9aacf31297cbdd1d435d47",
          "topics": [
            "0xddf252ad1be2c89b69c2b068fc378daa952ba7f163c4a11628f55a4df523b3ef",
            "0x0000000000000000000000004f8104f539fd942eaa0bffb0d775e46531848ffb",
            "0x0000000000000000000000008dc20ce305ff565f7c6ff8e8d277b86174515c47"
          ],
          "data": "0x00000000000000000000000000000000000000000000000000000000459f6eb3",
          "blockHash": "0x8c74c23922043fe5922ffcefdb4d126db277b38c61a92386590bfd7e5a30ba2f",
          "blockNumber": "0x2d131ea",
          "transactionHash": "0xab27be0d09d4e02822c976e78215aafc5651ba8dde633dce668c489774388ab3",
          "transactionIndex": "0x52",
          "logIndex": "0x86",
          "removed": false
        },
        {
          "address": "0x4f8104f539fd942eaa0bffb0d775e46531848ffb",
          "topics": [
            "0x1c411e9a96e071241c2f21f7726b17ae89e3cab4c78be50e062b03a9fffbbad1"
          ],
          "data": "0x000000000000000000000000000000000000000000000000aa3a34cebd9acbf8000000000000000000000000000000000000000000000000914bbe1d3e2f46f8",
          "blockHash": "0x8c74c23922043fe5922ffcefdb4d126db277b38c61a92386590bfd7e5a30ba2f",
          "blockNumber": "0x2d131ea",
          "transactionHash": "0xab27be0d09d4e02822c976e78215aafc5651ba8dde633dce668c489774388ab3",
          "transactionIndex": "0x52",
          "logIndex": "0x87",
          "removed": false
        },
        {
          "address": "0x4f8104f539fd942eaa0bffb0d775e46531848ffb",
          "topics": [
            "0xd78ad95fa46c994b6551d0da85fc275fe613ce37657fb8d5e3d130840159d822",
            "0x0000000000000000000000001b02da8cb0d097eb8d57a175b88c7d8b47997506",
            "0x0000000000000000000000008dc20ce305ff565f7c6ff8e8d277b86174515c47"
          ],
          "data": "0x0000000000000000000000000000000000000000000000000000000000000000000000000000000000000000000000000000000000000000000000003b9aca0000000000000000000000000000000000000000000000000000000000459f6eb30000000000000000000000000000000000000000000000000000000000000000",
          "blockHash": "0x8c74c23922043fe5922ffcefdb4d126db277b38c61a92386590bfd7e5a30ba2f",
          "blockNumber": "0x2d131ea",
          "transactionHash": "0xab27be0d09d4e02822c976e78215aafc5651ba8dde633dce668c489774388ab3",
          "transactionIndex": "0x52",
          "logIndex": "0x88",
          "removed": false
        },
        {
          "address": "0x3ee2200efb3400fabb9aacf31297cbdd1d435d47",
          "topics": [
            "0x8c5be1e5ebec7d5bd14f71427d1e84f3dd0314c0f7b2291e5b200ac8c7c3b925",
            "0x0000000000000000000000008dc20ce305ff565f7c6ff8e8d277b86174515c47",
            "0x000000000000000000000000cf0febd3f17cef5b47b0cd257acf6025c5bff3b7"
          ],
          "data": "0x00000000000000000000000000000000000000000000000000000000459f6eb3",
          "blockHash": "0x8c74c23922043fe5922ffcefdb4d126db277b38c61a92386590bfd7e5a30ba2f",
          "blockNumber": "0x2d131ea",
          "transactionHash": "0xab27be0d09d4e02822c976e78215aafc5651ba8dde633dce668c489774388ab3",
          "transactionIndex": "0x52",
          "logIndex": "0x89",
          "removed": false
        },
        {
          "address": "0x3ee2200efb3400fabb9aacf31297cbdd1d435d47",
          "topics": [
            "0xddf252ad1be2c89b69c2b068fc378daa952ba7f163c4a11628f55a4df523b3ef",
            "0x0000000000000000000000008dc20ce305ff565f7c6ff8e8d277b86174515c47",
            "0x0000000000000000000000008511a5edfd77bb0d2379498d5a1bca589302d6de"
          ],
          "data": "0x00000000000000000000000000000000000000000000000000000000459f6eb3",
          "blockHash": "0x8c74c23922043fe5922ffcefdb4d126db277b38c61a92386590bfd7e5a30ba2f",
          "blockNumber": "0x2d131ea",
          "transactionHash": "0xab27be0d09d4e02822c976e78215aafc5651ba8dde633dce668c489774388ab3",
          "transactionIndex": "0x52",
          "logIndex": "0x8a",
          "removed": false
        },
        {
          "address": "0x3ee2200efb3400fabb9aacf31297cbdd1d435d47",
          "topics": [
            "0x8c5be1e5ebec7d5bd14f71427d1e84f3dd0314c0f7b2291e5b200ac8c7c3b925",
            "0x0000000000000000000000008dc20ce305ff565f7c6ff8e8d277b86174515c47",
            "0x000000000000000000000000cf0febd3f17cef5b47b0cd257acf6025c5bff3b7"
          ],
          "data": "0x0000000000000000000000000000000000000000000000000000000000000000",
          "blockHash": "0x8c74c23922043fe5922ffcefdb4d126db277b38c61a92386590bfd7e5a30ba2f",
          "blockNumber": "0x2d131ea",
          "transactionHash": "0xab27be0d09d4e02822c976e78215aafc5651ba8dde633dce668c489774388ab3",
          "transactionIndex": "0x52",
          "logIndex": "0x8b",
          "removed": false
        },
        {
          "address": "0x55d398326f99059ff775485246999027b3197955",
          "topics": [
            "0xddf252ad1be2c89b69c2b068fc378daa952ba7f163c4a11628f55a4df523b3ef",
            "0x0000000000000000000000008511a5edfd77bb0d2379498d5a1bca589302d6de",
            "0x0000000000000000000000008dc20ce305ff565f7c6ff8e8d277b86174515c47"
          ],
          "data": "0x000000000000000000000000000000000000000000000000000000003c6f9aaf",
          "blockHash": "0x8c74c23922043fe5922ffcefdb4d126db277b38c61a92386590bfd7e5a30ba2f",
          "blockNumber": "0x2d131ea",
          "transactionHash": "0xab27be0d09d4e02822c976e78215aafc5651ba8dde633dce668c489774388ab3",
          "transactionIndex": "0x52",
          "logIndex": "0x8c",
          "removed": false
        },
        {
          "address": "0x8511a5edfd77bb0d2379498d5a1bca589302d6de",
          "topics": [
            "0x1c411e9a96e071241c2f21f7726b17ae89e3cab4c78be50e062b03a9fffbbad1"
          ],
          "data": "0x00000000000000000000000000000000000000000000000000b726c0adb90e6a000000000000000000000000000000000000000000000000009f4d89e7d55624",
          "blockHash": "0x8c74c23922043fe5922ffcefdb4d126db277b38c61a92386590bfd7e5a30ba2f",
          "blockNumber": "0x2d131ea",
          "transactionHash": "0xab27be0d09d4e02822c976e78215aafc5651ba8dde633dce668c489774388ab3",
          "transactionIndex": "0x52",
          "logIndex": "0x8d",
          "removed": false
        },
        {
          "address": "0x8511a5edfd77bb0d2379498d5a1bca589302d6de",
          "topics": [
            "0xd78ad95fa46c994b6551d0da85fc275fe613ce37657fb8d5e3d130840159d822",
            "0x000000000000000000000000cf0febd3f17cef5b47b0cd257acf6025c5bff3b7",
            "0x0000000000000000000000008dc20ce305ff565f7c6ff8e8d277b86174515c47"
          ],
          "data": "0x00000000000000000000000000000000000000000000000000000000459f6eb300000000000000000000000000000000000000000000000000000000000000000000000000000000000000000000000000000000000000000000000000000000000000000000000000000000000000000000000000000000000000003c6f9aaf",
          "blockHash": "0x8c74c23922043fe5922ffcefdb4d126db277b38c61a92386590bfd7e5a30ba2f",
          "blockNumber": "0x2d131ea",
          "transactionHash": "0xab27be0d09d4e02822c976e78215aafc5651ba8dde633dce668c489774388ab3",
          "transactionIndex": "0x52",
          "logIndex": "0x8e",
          "removed": false
        }
      ],
      "logsBloom": "0x002002000100000008000000804000000010020040000000000000000000000000000040000000004000102000000000005000000000000000022000002000000020000900000000810000080000002008400020000004820000000000020400000000200000040000000000000000000000000700000000080000100800040000004200000000000088002000000002002000000000100800000848000080000200000000200000000000000a00040000100000020000100008000800800100000000020001000000000000011040002004000000a0001000000000400500001050000940000000040016000000000000000804400000000000000000000000",
      "type": "0x0",
      "transactionHash": "0xab27be0d09d4e02822c976e78215aafc5651ba8dde633dce668c489774388ab3",
      "transactionIndex": "0x52",
      "blockHash": "0x8c74c23922043fe5922ffcefdb4d126db277b38c61a92386590bfd7e5a30ba2f",
      "blockNumber": "0x2d131ea",
      "gasUsed": "0x1066aa",
      "effectiveGasPrice": "0x3b9aca00",
      "from": "0x71f74debb7fd42e61de32256537284e06de8812d",
      "to": "0x8dc20ce305ff565f7c6ff8e8d277b86174515c47",
      "contractAddress": null
    }
  ],
  "libraries": [],
  "pending": [],
  "returns": {},
  "timestamp": 1741374309,
  "chain": 56,
  "commit": "0899a7e"
}