{
  "transactions": [
    {
      "hash": "0x97701d6f17fcaf94860583d6b5b2bd0fce62461431ec987ae15b3d1649bf6511",
      "transactionType": "CALL",
      "contractName": null,
      "contractAddress": "0x8dc20ce305ff565f7c6ff8e8d277b86174515c47",
      "function": "iteratePairList(uint256,uint256,uint256,uint256,uint256,bool)",
      "arguments": [
        "0",
        "10",
        "1000000000000000",
        "0",
        "100",
        "false"
      ],
      "transaction": {
        "from": "0x71f74debb7fd42e61de32256537284e06de8812d",
        "to": "0x8dc20ce305ff565f7c6ff8e8d277b86174515c47",
        "gas": "0x22bd07",
        "value": "0x0",
        "input": "0x8101424d0000000000000000000000000000000000000000000000000000000000000000000000000000000000000000000000000000000000000000000000000000000a00000000000000000000000000000000000000000000000000038d7ea4c68000000000000000000000000000000000000000000000000000000000000000000000000000000000000000000000000000000000000000000000000000000000640000000000000000000000000000000000000000000000000000000000000000",
        "nonce": "0x2c2",
        "chainId": "0x38"
      },
      "additionalContracts": [],
      "isFixedGasLimit": false
    }
  ],
  "receipts": [
    {
      "status": "0x1",
      "cumulativeGasUsed": "0x53ae45",
      "logs": [
        {
          "address": "0x8dc20ce305ff565f7c6ff8e8d277b86174515c47",
          "topics": [
            "0x05ae39bd3637f496d15f3461b4f129f5220ecb5dd2c8b18471081ae0b514d6f4",
            "0x00000000000000000000000055d398326f99059ff775485246999027b3197955",
            "0x0000000000000000000000007130d2a12b9bcbfae4f2634d864a1ee1ce3ead9c"
          ],
          "data": "0x00000000000000000000000010ed43c718714eb63d5aa57b78b54704e256024e0000000000000000000000001b02da8cb0d097eb8d57a175b88c7d8b4799750600000000000000000000000000000000000000000000000000038d7ea4c6800000000000000000000000000000000000000000000000000000000002b21022d20000000000000000000000000000000000000000000000000003956a24ee8214000000000000000000000000000000000000000000000000000007eb80280214",
          "blockHash": "0x1f2534949c6fc75c419d04c537eb66e189ceb6882ee3db4d1808789261fee730",
          "blockNumber": "0x2d14002",
          "transactionHash": "0x97701d6f17fcaf94860583d6b5b2bd0fce62461431ec987ae15b3d1649bf6511",
          "transactionIndex": "0x25",
          "logIndex": "0x76",
          "removed": false
        },
        {
          "address": "0x55d398326f99059ff775485246999027b3197955",
          "topics": [
            "0x8c5be1e5ebec7d5bd14f71427d1e84f3dd0314c0f7b2291e5b200ac8c7c3b925",
            "0x0000000000000000000000008dc20ce305ff565f7c6ff8e8d277b86174515c47",
            "0x00000000000000000000000010ed43c718714eb63d5aa57b78b54704e256024e"
          ],
          "data": "0x00000000000000000000000000000000000000000000000000038d7ea4c68000",
          "blockHash": "0x1f2534949c6fc75c419d04c537eb66e189ceb6882ee3db4d1808789261fee730",
          "blockNumber": "0x2d14002",
          "transactionHash": "0x97701d6f17fcaf94860583d6b5b2bd0fce62461431ec987ae15b3d1649bf6511",
          "transactionIndex": "0x25",
          "logIndex": "0x77",
          "removed": false
        },
        {
          "address": "0x55d398326f99059ff775485246999027b3197955",
          "topics": [
            "0xddf252ad1be2c89b69c2b068fc378daa952ba7f163c4a11628f55a4df523b3ef",
            "0x0000000000000000000000008dc20ce305ff565f7c6ff8e8d277b86174515c47",
            "0x0000000000000000000000003f803ec2b816ea7f06ec76aa2b6f2532f9892d62"
          ],
          "data": "0x00000000000000000000000000000000000000000000000000038d7ea4c68000",
          "blockHash": "0x1f2534949c6fc75c419d04c537eb66e189ceb6882ee3db4d1808789261fee730",
          "blockNumber": "0x2d14002",
          "transactionHash": "0x97701d6f17fcaf94860583d6b5b2bd0fce62461431ec987ae15b3d1649bf6511",
          "transactionIndex": "0x25",
          "logIndex": "0x78",
          "removed": false
        },
        {
          "address": "0x55d398326f99059ff775485246999027b3197955",
          "topics": [
            "0x8c5be1e5ebec7d5bd14f71427d1e84f3dd0314c0f7b2291e5b200ac8c7c3b925",
            "0x0000000000000000000000008dc20ce305ff565f7c6ff8e8d277b86174515c47",
            "0x00000000000000000000000010ed43c718714eb63d5aa57b78b54704e256024e"
          ],
          "data": "0x0000000000000000000000000000000000000000000000000000000000000000",
          "blockHash": "0x1f2534949c6fc75c419d04c537eb66e189ceb6882ee3db4d1808789261fee730",
          "blockNumber": "0x2d14002",
          "transactionHash": "0x97701d6f17fcaf94860583d6b5b2bd0fce62461431ec987ae15b3d1649bf6511",
          "transactionIndex": "0x25",
          "logIndex": "0x79",
          "removed": false
        },
        {
          "address": "0x7130d2a12b9bcbfae4f2634d864a1ee1ce3ead9c",
          "topics": [
            "0xddf252ad1be2c89b69c2b068fc378daa952ba7f163c4a11628f55a4df523b3ef",
            "0x0000000000000000000000003f803ec2b816ea7f06ec76aa2b6f2532f9892d62",
            "0x0000000000000000000000008dc20ce305ff565f7c6ff8e8d277b86174515c47"
          ],
          "data": "0x00000000000000000000000000000000000000000000000000000002b21022d2",
          "blockHash": "0x1f2534949c6fc75c419d04c537eb66e189ceb6882ee3db4d1808789261fee730",
          "blockNumber": "0x2d14002",
          "transactionHash": "0x97701d6f17fcaf94860583d6b5b2bd0fce62461431ec987ae15b3d1649bf6511",
          "transactionIndex": "0x25",
          "logIndex": "0x7a",
          "removed": false
        },
        {
          "address": "0x3f803ec2b816ea7f06ec76aa2b6f2532f9892d62",
          "topics": [
            "0x1c411e9a96e071241c2f21f7726b17ae89e3cab4c78be50e062b03a9fffbbad1"
          ],
          "data": "0x00000000000000000000000000000000000000000000139e0068b37f48cf2e080000000000000000000000000000000000000000000000000eebe79900b81725",
          "blockHash": "0x1f2534949c6fc75c419d04c537eb66e189ceb6882ee3db4d1808789261fee730",
          "blockNumber": "0x2d14002",
          "transactionHash": "0x97701d6f17fcaf94860583d6b5b2bd0fce62461431ec987ae15b3d1649bf6511",
          "transactionIndex": "0x25",
          "logIndex": "0x7b",
          "removed": false
        },
        {
          "address": "0x3f803ec2b816ea7f06ec76aa2b6f2532f9892d62",
          "topics": [
            "0xd78ad95fa46c994b6551d0da85fc275fe613ce37657fb8d5e3d130840159d822",
            "0x00000000000000000000000010ed43c718714eb63d5aa57b78b54704e256024e",
            "0x0000000000000000000000008dc20ce305ff565f7c6ff8e8d277b86174515c47"
          ],
          "data": "0x00000000000000000000000000000000000000000000000000038d7ea4c680000000000000000000000000000000000000000000000000000000000000000000000000000000000000000000000000000000000000000000000000000000000000000000000000000000000000000000000000000000000000000002b21022d2",
          "blockHash": "0x1f2534949c6fc75c419d04c537eb66e189ceb6882ee3db4d1808789261fee730",
          "blockNumber": "0x2d14002",
          "transactionHash": "0x97701d6f17fcaf94860583d6b5b2bd0fce62461431ec987ae15b3d1649bf6511",
          "transactionIndex": "0x25",
          "logIndex": "0x7c",
          "removed": false
        },
        {
          "address": "0x7130d2a12b9bcbfae4f2634d864a1ee1ce3ead9c",
          "topics": [
            "0x8c5be1e5ebec7d5bd14f71427d1e84f3dd0314c0f7b2291e5b200ac8c7c3b925",
            "0x0000000000000000000000008dc20ce305ff565f7c6ff8e8d277b86174515c47",
            "0x0000000000000000000000001b02da8cb0d097eb8d57a175b88c7d8b47997506"
          ],
          "data": "0x00000000000000000000000000000000000000000000000000000002b21022d2",
          "blockHash": "0x1f2534949c6fc75c419d04c537eb66e189ceb6882ee3db4d1808789261fee730",
          "blockNumber": "0x2d14002",
          "transactionHash": "0x97701d6f17fcaf94860583d6b5b2bd0fce62461431ec987ae15b3d1649bf6511",
          "transactionIndex": "0x25",
          "logIndex": "0x7d",
          "removed": false
        },
        {
          "address": "0x7130d2a12b9bcbfae4f2634d864a1ee1ce3ead9c",
          "topics": [
            "0xddf252ad1be2c89b69c2b068fc378daa952ba7f163c4a11628f55a4df523b3ef",
            "0x0000000000000000000000008dc20ce305ff565f7c6ff8e8d277b86174515c47",
            "0x0000000000000000000000005f8bbce851b869eb0abe7a336d049a7bdae5ad18"
          ],
          "data": "0x00000000000000000000000000000000000000000000000000000002b21022d2",
          "blockHash": "0x1f2534949c6fc75c419d04c537eb66e189ceb6882ee3db4d1808789261fee730",
          "blockNumber": "0x2d14002",
          "transactionHash": "0x97701d6f17fcaf94860583d6b5b2bd0fce62461431ec987ae15b3d1649bf6511",
          "transactionIndex": "0x25",
          "logIndex": "0x7e",
          "removed": false
        },
        {
          "address": "0x7130d2a12b9bcbfae4f2634d864a1ee1ce3ead9c",
          "topics": [
            "0x8c5be1e5ebec7d5bd14f71427d1e84f3dd0314c0f7b2291e5b200ac8c7c3b925",
            "0x0000000000000000000000008dc20ce305ff565f7c6ff8e8d277b86174515c47",
            "0x0000000000000000000000001b02da8cb0d097eb8d57a175b88c7d8b47997506"
          ],
          "data": "0x0000000000000000000000000000000000000000000000000000000000000000",
          "blockHash": "0x1f2534949c6fc75c419d04c537eb66e189ceb6882ee3db4d1808789261fee730",
          "blockNumber": "0x2d14002",
          "transactionHash": "0x97701d6f17fcaf94860583d6b5b2bd0fce62461431ec987ae15b3d1649bf6511",
          "transactionIndex": "0x25",
          "logIndex": "0x7f",
          "removed": false
        },
        {
          "address": "0x55d398326f99059ff775485246999027b3197955",
          "topics": [
            "0xddf252ad1be2c89b69c2b068fc378daa952ba7f163c4a11628f55a4df523b3ef",
            "0x0000000000000000000000005f8bbce851b869eb0abe7a336d049a7bdae5ad18",
            "0x0000000000000000000000008dc20ce305ff565f7c6ff8e8d277b86174515c47"
          ],
          "data": "0x0000000000000000000000000000000000000000000000000003956a24ee8214",
          "blockHash": "0x1f2534949c6fc75c419d04c537eb66e189ceb6882ee3db4d1808789261fee730",
          "blockNumber": "0x2d14002",
          "transactionHash": "0x97701d6f17fcaf94860583d6b5b2bd0fce62461431ec987ae15b3d1649bf6511",
          "transactionIndex": "0x25",
          "logIndex": "0x80",
          "removed": false
        },
        {
          "address": "0x5f8bbce851b869eb0abe7a336d049a7bdae5ad18",
          "topics": [
            "0x1c411e9a96e071241c2f21f7726b17ae89e3cab4c78be50e062b03a9fffbbad1"
          ],
          "data": "0x0000000000000000000000000000000000000000000000000a7631f05053780d000000000000000000000000000000000000000000000000000007db249a5f69",
          "blockHash": "0x1f2534949c6fc75c419d04c537eb66e189ceb6882ee3db4d1808789261fee730",
          "blockNumber": "0x2d14002",
          "transactionHash": "0x97701d6f17fcaf94860583d6b5b2bd0fce62461431ec987ae15b3d1649bf6511",
          "transactionIndex": "0x25",
          "logIndex": "0x81",
          "removed": false
        },
        {
          "address": "0x5f8bbce851b869eb0abe7a336d049a7bdae5ad18",
          "topics": [
            "0xd78ad95fa46c994b6551d0da85fc275fe613ce37657fb8d5e3d130840159d822",
            "0x0000000000000000000000001b02da8cb0d097eb8d57a175b88c7d8b47997506",
            "0x0000000000000000000000008dc20ce305ff565f7c6ff8e8d277b86174515c47"
          ],
          "data": "0x000000000000000000000000000000000000000000000000000000000000000000000000000000000000000000000000000000000000000000000002b21022d20000000000000000000000000000000000000000000000000003956a24ee82140000000000000000000000000000000000000000000000000000000000000000",
          "blockHash": "0x1f2534949c6fc75c419d04c537eb66e189ceb6882ee3db4d1808789261fee730",
          "blockNumber": "0x2d14002",
          "transactionHash": "0x97701d6f17fcaf94860583d6b5b2bd0fce62461431ec987ae15b3d1649bf6511",
          "transactionIndex": "0x25",
          "logIndex": "0x82",
          "removed": false
        },
        {
          "address": "0x8dc20ce305ff565f7c6ff8e8d277b86174515c47",
          "topics": [
            "0x05ae39bd3637f496d15f3461b4f129f5220ecb5dd2c8b18471081ae0b514d6f4",
            "0x00000000000000000000000055d398326f99059ff775485246999027b3197955",
            "0x0000000000000000000000003ee2200efb3400fabb9aacf31297cbdd1d435d47"
          ],
          "data": "0x00000000000000000000000010ed43c718714eb63d5aa57b78b54704e256024e000000000000000000000000cf0febd3f17cef5b47b0cd257acf6025c5bff3b700000000000000000000000000000000000000000000000000038d7ea4c6800000000000000000000000000000000000000000000000000000044f27f69df2c40000000000000000000000000000000000000000000000000003a7347d3cfe2e000000000000000000000000000000000000000000000000000019b5d8767e2e",
          "blockHash": "0x1f2534949c6fc75c419d04c537eb66e189ceb6882ee3db4d1808789261fee730",
          "blockNumber": "0x2d14002",
          "transactionHash": "0x97701d6f17fcaf94860583d6b5b2bd0fce62461431ec987ae15b3d1649bf6511",
          "transactionIndex": "0x25",
          "logIndex": "0x83",
          "removed": false
        },
        {
          "address": "0x55d398326f99059ff775485246999027b3197955",
          "topics": [
            "0x8c5be1e5ebec7d5bd14f71427d1e84f3dd0314c0f7b2291e5b200ac8c7c3b925",
            "0x0000000000000000000000008dc20ce305ff565f7c6ff8e8d277b86174515c47",
            "0x00000000000000000000000010ed43c718714eb63d5aa57b78b54704e256024e"
          ],
          "data": "0x00000000000000000000000000000000000000000000000000038d7ea4c68000",
          "blockHash": "0x1f2534949c6fc75c419d04c537eb66e189ceb6882ee3db4d1808789261fee730",
          "blockNumber": "0x2d14002",
          "transactionHash": "0x97701d6f17fcaf94860583d6b5b2bd0fce62461431ec987ae15b3d1649bf6511",
          "transactionIndex": "0x25",
          "logIndex": "0x84",
          "removed": false
        },
        {
          "address": "0x55d398326f99059ff775485246999027b3197955",
          "topics": [
            "0xddf252ad1be2c89b69c2b068fc378daa952ba7f163c4a11628f55a4df523b3ef",
            "0x0000000000000000000000008dc20ce305ff565f7c6ff8e8d277b86174515c47",
            "0x000000000000000000000000f53bed8082d225d7b53420ab560658c5e6ff42d8"
          ],
          "data": "0x00000000000000000000000000000000000000000000000000038d7ea4c68000",
          "blockHash": "0x1f2534949c6fc75c419d04c537eb66e189ceb6882ee3db4d1808789261fee730",
          "blockNumber": "0x2d14002",
          "transactionHash": "0x97701d6f17fcaf94860583d6b5b2bd0fce62461431ec987ae15b3d1649bf6511",
          "transactionIndex": "0x25",
          "logIndex": "0x85",
          "removed": false
        },
        {
          "address": "0x55d398326f99059ff775485246999027b3197955",
          "topics": [
            "0x8c5be1e5ebec7d5bd14f71427d1e84f3dd0314c0f7b2291e5b200ac8c7c3b925",
            "0x0000000000000000000000008dc20ce305ff565f7c6ff8e8d277b86174515c47",
            "0x00000000000000000000000010ed43c718714eb63d5aa57b78b54704e256024e"
          ],
          "data": "0x0000000000000000000000000000000000000000000000000000000000000000",
          "blockHash": "0x1f2534949c6fc75c419d04c537eb66e189ceb6882ee3db4d1808789261fee730",
          "blockNumber": "0x2d14002",
          "transactionHash": "0x97701d6f17fcaf94860583d6b5b2bd0fce62461431ec987ae15b3d1649bf6511",
          "transactionIndex": "0x25",
          "logIndex": "0x86",
          "removed": false
        },
        {
          "address": "0x3ee2200efb3400fabb9aacf31297cbdd1d435d47",
          "topics": [
            "0xddf252ad1be2c89b69c2b068fc378daa952ba7f163c4a11628f55a4df523b3ef",
            "0x000000000000000000000000f53bed8082d225d7b53420ab560658c5e6ff42d8",
            "0x0000000000000000000000008dc20ce305ff565f7c6ff8e8d277b86174515c47"
          ],
          "data": "0x00000000000000000000000000000000000000000000000000044f27f69df2c4",
          "blockHash": "0x1f2534949c6fc75c419d04c537eb66e189ceb6882ee3db4d1808789261fee730",
          "blockNumber": "0x2d14002",
          "transactionHash": "0x97701d6f17fcaf94860583d6b5b2bd0fce62461431ec987ae15b3d1649bf6511",
          "transactionIndex": "0x25",
          "logIndex": "0x87",
          "removed": false
        },
        {
          "address": "0xf53bed8082d225d7b53420ab560658c5e6ff42d8",
          "topics": [
            "0x1c411e9a96e071241c2f21f7726b17ae89e3cab4c78be50e062b03a9fffbbad1"
          ],
          "data": "0x0000000000000000000000000000000000000000000000520e5e6fa76f43c24f0000000000000000000000000000000000000000000000437b5f91590be9a036",
          "blockHash": "0x1f2534949c6fc75c419d04c537eb66e189ceb6882ee3db4d1808789261fee730",
          "blockNumber": "0x2d14002",
          "transactionHash": "0x97701d6f17fcaf94860583d6b5b2bd0fce62461431ec987ae15b3d1649bf6511",
          "transactionIndex": "0x25",
          "logIndex": "0x88",
          "removed": false
        },
        {
          "address": "0xf53bed8082d225d7b53420ab560658c5e6ff42d8",
          "topics": [
            "0xd78ad95fa46c994b6551d0da85fc275fe613ce37657fb8d5e3d130840159d822",
            "0x00000000000000000000000010ed43c718714eb63d5aa57b78b54704e256024e",
            "0x0000000000000000000000008dc20ce305ff565f7c6ff8e8d277b86174515c47"
          ],
          "data": "0x000000000000000000000000000000000000000000000000000000000000000000000000000000000000000000000000000000000000000000038d7ea4c6800000000000000000000000000000000000000000000000000000044f27f69df2c40000000000000000000000000000000000000000000000000000000000000000",
          "blockHash": "0x1f2534949c6fc75c419d04c537eb66e189ceb6882ee3db4d1808789261fee730",
          "blockNumber": "0x2d14002",
          "transactionHash": "0x97701d6f17fcaf94860583d6b5b2bd0fce62461431ec987ae15b3d1649bf6511",
          "transactionIndex": "0x25",
          "logIndex": "0x89",
          "removed": false
        },
        {
          "address": "0x3ee2200efb3400fabb9aacf31297cbdd1d435d47",
          "topics": [
            "0x8c5be1e5ebec7d5bd14f71427d1e84f3dd0314c0f7b2291e5b200ac8c7c3b925",
            "0x0000000000000000000000008dc20ce305ff565f7c6ff8e8d277b86174515c47",
            "0x000000000000000000000000cf0febd3f17cef5b47b0cd257acf6025c5bff3b7"
          ],
          "data": "0x00000000000000000000000000000000000000000000000000044f27f69df2c4",
          "blockHash": "0x1f2534949c6fc75c419d04c537eb66e189ceb6882ee3db4d1808789261fee730",
          "blockNumber": "0x2d14002",
          "transactionHash": "0x97701d6f17fcaf94860583d6b5b2bd0fce62461431ec987ae15b3d1649bf6511",
          "transactionIndex": "0x25",
          "logIndex": "0x8a",
          "removed": false
        },
        {
          "address": "0x3ee2200efb3400fabb9aacf31297cbdd1d435d47",
          "topics": [
            "0xddf252ad1be2c89b69c2b068fc378daa952ba7f163c4a11628f55a4df523b3ef",
            "0x0000000000000000000000008dc20ce305ff565f7c6ff8e8d277b86174515c47",
            "0x0000000000000000000000008511a5edfd77bb0d2379498d5a1bca589302d6de"
          ],
          "data": "0x00000000000000000000000000000000000000000000000000044f27f69df2c4",
          "blockHash": "0x1f2534949c6fc75c419d04c537eb66e189ceb6882ee3db4d1808789261fee730",
          "blockNumber": "0x2d14002",
          "transactionHash": "0x97701d6f17fcaf94860583d6b5b2bd0fce62461431ec987ae15b3d1649bf6511",
          "transactionIndex": "0x25",
          "logIndex": "0x8b",
          "removed": false
        },
        {
          "address": "0x3ee2200efb3400fabb9aacf31297cbdd1d435d47",
          "topics": [
            "0x8c5be1e5ebec7d5bd14f71427d1e84f3dd0314c0f7b2291e5b200ac8c7c3b925",
            "0x0000000000000000000000008dc20ce305ff565f7c6ff8e8d277b86174515c47",
            "0x000000000000000000000000cf0febd3f17cef5b47b0cd257acf6025c5bff3b7"
          ],
          "data": "0x0000000000000000000000000000000000000000000000000000000000000000",
          "blockHash": "0x1f2534949c6fc75c419d04c537eb66e189ceb6882ee3db4d1808789261fee730",
          "blockNumber": "0x2d14002",
          "transactionHash": "0x97701d6f17fcaf94860583d6b5b2bd0fce62461431ec987ae15b3d1649bf6511",
          "transactionIndex": "0x25",
          "logIndex": "0x8c",
          "removed": false
        },
        {
          "address": "0x55d398326f99059ff775485246999027b3197955",
          "topics": [
            "0xddf252ad1be2c89b69c2b068fc378daa952ba7f163c4a11628f55a4df523b3ef",
            "0x0000000000000000000000008511a5edfd77bb0d2379498d5a1bca589302d6de",
            "0x0000000000000000000000008dc20ce305ff565f7c6ff8e8d277b86174515c47"
          ],
          "data": "0x0000000000000000000000000000000000000000000000000003a7347d3cfe2e",
          "blockHash": "0x1f2534949c6fc75c419d04c537eb66e189ceb6882ee3db4d1808789261fee730",
          "blockNumber": "0x2d14002",
          "transactionHash": "0x97701d6f17fcaf94860583d6b5b2bd0fce62461431ec987ae15b3d1649bf6511",
          "transactionIndex": "0x25",
          "logIndex": "0x8d",
          "removed": false
        },
        {
          "address": "0x8511a5edfd77bb0d2379498d5a1bca589302d6de",
          "topics": [
            "0x1c411e9a96e071241c2f21f7726b17ae89e3cab4c78be50e062b03a9fffbbad1"
          ],
          "data": "0x00000000000000000000000000000000000000000000000000bb8088478189ad000000000000000000000000000000000000000000000000009b9d1d2c4621d6",
          "blockHash": "0x1f2534949c6fc75c419d04c537eb66e189ceb6882ee3db4d1808789261fee730",
          "blockNumber": "0x2d14002",
          "transactionHash": "0x97701d6f17fcaf94860583d6b5b2bd0fce62461431ec987ae15b3d1649bf6511",
          "transactionIndex": "0x25",
          "logIndex": "0x8e",
          "removed": false
        },
        {
          "address": "0x8511a5edfd77bb0d2379498d5a1bca589302d6de",
          "topics": [
            "0xd78ad95fa46c994b6551d0da85fc275fe613ce37657fb8d5e3d130840159d822",
            "0x000000000000000000000000cf0febd3f17cef5b47b0cd257acf6025c5bff3b7",
            "0x0000000000000000000000008dc20ce305ff565f7c6ff8e8d277b86174515c47"
          ],
          "data": "0x00000000000000000000000000000000000000000000000000044f27f69df2c4000000000000000000000000000000000000000000000000000000000000000000000000000000000000000000000000000000000000000000000000000000000000000000000000000000000000000000000000000000000003a7347d3cfe2e",
          "blockHash": "0x1f2534949c6fc75c419d04c537eb66e189ceb6882ee3db4d1808789261fee730",
          "blockNumber": "0x2d14002",
          "transactionHash": "0x97701d6f17fcaf94860583d6b5b2bd0fce62461431ec987ae15b3d1649bf6511",
          "transactionIndex": "0x25",
          "logIndex": "0x8f",
          "removed": false
        }
      ],
      "logsBloom": "0x002002000000000000000000800000000010000000000000000000000008000000000040000000004000100000000000004000000400000000002000002000000020000800000000810001080000002008800000000004000000000000000400000000000000040000000000000000000000000600002000080080100800000000000200000000000088000000000000002008000000100800200848000080000200000000200000000000000a000400000000000000001000080000008001000000000200000000000000000110000020040000002000100000000040000000305000010000000004001a000000000400000000400100000000000000000000",
      "type": "0x0",
      "transactionHash": "0x97701d6f17fcaf94860583d6b5b2bd0fce62461431ec987ae15b3d1649bf6511",
      "transactionIndex": "0x25",
      "blockHash": "0x1f2534949c6fc75c419d04c537eb66e189ceb6882ee3db4d1808789261fee730",
      "blockNumber": "0x2d14002",
      "gasUsed": "0x1925d0",
      "effectiveGasPrice": "0x3b9aca00",
      "from": "0x71f74debb7fd42e61de32256537284e06de8812d",
      "to": "0x8dc20ce305ff565f7c6ff8e8d277b86174515c47",
      "contractAddress": null
    }
  ],
  "libraries": [],
  "pending": [],
  "returns": {},
  "timestamp": 1741385133,
  "chain": 56,
  "commit": "9e83b4a"
}