{
  "transactions": [
    {
      "hash": "0xd80178b10213d3011996a04aaa3f74887a208f85220181ae1a2340bee773e015",
      "transactionType": "CALL",
      "contractName": null,
      "contractAddress": "0x8dc20ce305ff565f7c6ff8e8d277b86174515c47",
      "function": "iteratePairList(uint256,uint256,uint256,uint256,uint256,bool)",
      "arguments": [
        "0",
        "1",
        "1000000000000000",
        "0",
        "9",
        "false"
      ],
      "transaction": {
        "from": "0x71f74debb7fd42e61de32256537284e06de8812d",
        "to": "0x8dc20ce305ff565f7c6ff8e8d277b86174515c47",
        "gas": "0x7e171",
        "value": "0x0",
        "input": "0x8101424d0000000000000000000000000000000000000000000000000000000000000000000000000000000000000000000000000000000000000000000000000000000100000000000000000000000000000000000000000000000000038d7ea4c68000000000000000000000000000000000000000000000000000000000000000000000000000000000000000000000000000000000000000000000000000000000090000000000000000000000000000000000000000000000000000000000000000",
        "nonce": "0x2cb",
        "chainId": "0x38"
      },
      "additionalContracts": [],
      "isFixedGasLimit": false
    }
  ],
  "receipts": [
    {
      "status": "0x1",
      "cumulativeGasUsed": "0x4eefc1",
      "logs": [
        {
          "address": "0x8dc20ce305ff565f7c6ff8e8d277b86174515c47",
          "topics": [
            "0x05ae39bd3637f496d15f3461b4f129f5220ecb5dd2c8b18471081ae0b514d6f4",
            "0x00000000000000000000000055d398326f99059ff775485246999027b3197955",
            "0x0000000000000000000000007130d2a12b9bcbfae4f2634d864a1ee1ce3ead9c"
          ],
          "data": "0x00000000000000000000000010ed43c718714eb63d5aa57b78b54704e256024e0000000000000000000000001b02da8cb0d097eb8d57a175b88c7d8b4799750600000000000000000000000000000000000000000000000000038d7ea4c6800000000000000000000000000000000000000000000000000000000002aec4464100000000000000000000000000000000000000000000000000038e98f63005fb0000000000000000000000000000000000000000000000000000011a516985fb",
          "blockHash": "0x57a3f770e92e717b602e9fe8c780c7c4613eab1a592c80272eab35222f19fa8e",
          "blockNumber": "0x2d143db",
          "transactionHash": "0xd80178b10213d3011996a04aaa3f74887a208f85220181ae1a2340bee773e015",
          "transactionIndex": "0x43",
          "logIndex": "0xb5",
          "removed": false
        },
        {
          "address": "0x55d398326f99059ff775485246999027b3197955",
          "topics": [
            "0x8c5be1e5ebec7d5bd14f71427d1e84f3dd0314c0f7b2291e5b200ac8c7c3b925",
            "0x0000000000000000000000008dc20ce305ff565f7c6ff8e8d277b86174515c47",
            "0x00000000000000000000000010ed43c718714eb63d5aa57b78b54704e256024e"
          ],
          "data": "0x00000000000000000000000000000000000000000000000000038d7ea4c68000",
          "blockHash": "0x57a3f770e92e717b602e9fe8c780c7c4613eab1a592c80272eab35222f19fa8e",
          "blockNumber": "0x2d143db",
          "transactionHash": "0xd80178b10213d3011996a04aaa3f74887a208f85220181ae1a2340bee773e015",
          "transactionIndex": "0x43",
          "logIndex": "0xb6",
          "removed": false
        },
        {
          "address": "0x55d398326f99059ff775485246999027b3197955",
          "topics": [
            "0xddf252ad1be2c89b69c2b068fc378daa952ba7f163c4a11628f55a4df523b3ef",
            "0x0000000000000000000000008dc20ce305ff565f7c6ff8e8d277b86174515c47",
            "0x0000000000000000000000003f803ec2b816ea7f06ec76aa2b6f2532f9892d62"
          ],
          "data": "0x00000000000000000000000000000000000000000000000000038d7ea4c68000",
          "blockHash": "0x57a3f770e92e717b602e9fe8c780c7c4613eab1a592c80272eab35222f19fa8e",
          "blockNumber": "0x2d143db",
          "transactionHash": "0xd80178b10213d3011996a04aaa3f74887a208f85220181ae1a2340bee773e015",
          "transactionIndex": "0x43",
          "logIndex": "0xb7",
          "removed": false
        },
        {
          "address": "0x55d398326f99059ff775485246999027b3197955",
          "topics": [
            "0x8c5be1e5ebec7d5bd14f71427d1e84f3dd0314c0f7b2291e5b200ac8c7c3b925",
            "0x0000000000000000000000008dc20ce305ff565f7c6ff8e8d277b86174515c47",
            "0x00000000000000000000000010ed43c718714eb63d5aa57b78b54704e256024e"
          ],
          "data": "0x0000000000000000000000000000000000000000000000000000000000000000",
          "blockHash": "0x57a3f770e92e717b602e9fe8c780c7c4613eab1a592c80272eab35222f19fa8e",
          "blockNumber": "0x2d143db",
          "transactionHash": "0xd80178b10213d3011996a04aaa3f74887a208f85220181ae1a2340bee773e015",
          "transactionIndex": "0x43",
          "logIndex": "0xb8",
          "removed": false
        },
        {
          "address": "0x7130d2a12b9bcbfae4f2634d864a1ee1ce3ead9c",
          "topics": [
            "0xddf252ad1be2c89b69c2b068fc378daa952ba7f163c4a11628f55a4df523b3ef",
            "0x0000000000000000000000003f803ec2b816ea7f06ec76aa2b6f2532f9892d62",
            "0x0000000000000000000000008dc20ce305ff565f7c6ff8e8d277b86174515c47"
          ],
          "data": "0x00000000000000000000000000000000000000000000000000000002aec44641",
          "blockHash": "0x57a3f770e92e717b602e9fe8c780c7c4613eab1a592c80272eab35222f19fa8e",
          "blockNumber": "0x2d143db",
          "transactionHash": "0xd80178b10213d3011996a04aaa3f74887a208f85220181ae1a2340bee773e015",
          "transactionIndex": "0x43",
          "logIndex": "0xb9",
          "removed": false
        },
        {
          "address": "0x3f803ec2b816ea7f06ec76aa2b6f2532f9892d62",
          "topics": [
            "0x1c411e9a96e071241c2f21f7726b17ae89e3cab4c78be50e062b03a9fffbbad1"
          ],
          "data": "0x0000000000000000000000000000000000000000000013aa15165222017070520000000000000000000000000000000000000000000000000ee2cd7c7fea4f14",
          "blockHash": "0x57a3f770e92e717b602e9fe8c780c7c4613eab1a592c80272eab35222f19fa8e",
          "blockNumber": "0x2d143db",
          "transactionHash": "0xd80178b10213d3011996a04aaa3f74887a208f85220181ae1a2340bee773e015",
          "transactionIndex": "0x43",
          "logIndex": "0xba",
          "removed": false
        },
        {
          "address": "0x3f803ec2b816ea7f06ec76aa2b6f2532f9892d62",
          "topics": [
            "0xd78ad95fa46c994b6551d0da85fc275fe613ce37657fb8d5e3d130840159d822",
            "0x00000000000000000000000010ed43c718714eb63d5aa57b78b54704e256024e",
            "0x0000000000000000000000008dc20ce305ff565f7c6ff8e8d277b86174515c47"
          ],
          "data": "0x00000000000000000000000000000000000000000000000000038d7ea4c680000000000000000000000000000000000000000000000000000000000000000000000000000000000000000000000000000000000000000000000000000000000000000000000000000000000000000000000000000000000000000002aec44641",
          "blockHash": "0x57a3f770e92e717b602e9fe8c780c7c4613eab1a592c80272eab35222f19fa8e",
          "blockNumber": "0x2d143db",
          "transactionHash": "0xd80178b10213d3011996a04aaa3f74887a208f85220181ae1a2340bee773e015",
          "transactionIndex": "0x43",
          "logIndex": "0xbb",
          "removed": false
        },
        {
          "address": "0x7130d2a12b9bcbfae4f2634d864a1ee1ce3ead9c",
          "topics": [
            "0x8c5be1e5ebec7d5bd14f71427d1e84f3dd0314c0f7b2291e5b200ac8c7c3b925",
            "0x0000000000000000000000008dc20ce305ff565f7c6ff8e8d277b86174515c47",
            "0x0000000000000000000000001b02da8cb0d097eb8d57a175b88c7d8b47997506"
          ],
          "data": "0x00000000000000000000000000000000000000000000000000000002aec44641",
          "blockHash": "0x57a3f770e92e717b602e9fe8c780c7c4613eab1a592c80272eab35222f19fa8e",
          "blockNumber": "0x2d143db",
          "transactionHash": "0xd80178b10213d3011996a04aaa3f74887a208f85220181ae1a2340bee773e015",
          "transactionIndex": "0x43",
          "logIndex": "0xbc",
          "removed": false
        },
        {
          "address": "0x7130d2a12b9bcbfae4f2634d864a1ee1ce3ead9c",
          "topics": [
            "0xddf252ad1be2c89b69c2b068fc378daa952ba7f163c4a11628f55a4df523b3ef",
            "0x0000000000000000000000008dc20ce305ff565f7c6ff8e8d277b86174515c47",
            "0x0000000000000000000000005f8bbce851b869eb0abe7a336d049a7bdae5ad18"
          ],
          "data": "0x00000000000000000000000000000000000000000000000000000002aec44641",
          "blockHash": "0x57a3f770e92e717b602e9fe8c780c7c4613eab1a592c80272eab35222f19fa8e",
          "blockNumber": "0x2d143db",
          "transactionHash": "0xd80178b10213d3011996a04aaa3f74887a208f85220181ae1a2340bee773e015",
          "transactionIndex": "0x43",
          "logIndex": "0xbd",
          "removed": false
        },
        {
          "address": "0x7130d2a12b9bcbfae4f2634d864a1ee1ce3ead9c",
          "topics": [
            "0x8c5be1e5ebec7d5bd14f71427d1e84f3dd0314c0f7b2291e5b200ac8c7c3b925",
            "0x0000000000000000000000008dc20ce305ff565f7c6ff8e8d277b86174515c47",
            "0x0000000000000000000000001b02da8cb0d097eb8d57a175b88c7d8b47997506"
          ],
          "data": "0x0000000000000000000000000000000000000000000000000000000000000000",
          "blockHash": "0x57a3f770e92e717b602e9fe8c780c7c4613eab1a592c80272eab35222f19fa8e",
          "blockNumber": "0x2d143db",
          "transactionHash": "0xd80178b10213d3011996a04aaa3f74887a208f85220181ae1a2340bee773e015",
          "transactionIndex": "0x43",
          "logIndex": "0xbe",
          "removed": false
        },
        {
          "address": "0x55d398326f99059ff775485246999027b3197955",
          "topics": [
            "0xddf252ad1be2c89b69c2b068fc378daa952ba7f163c4a11628f55a4df523b3ef",
            "0x0000000000000000000000005f8bbce851b869eb0abe7a336d049a7bdae5ad18",
            "0x0000000000000000000000008dc20ce305ff565f7c6ff8e8d277b86174515c47"
          ],
          "data": "0x00000000000000000000000000000000000000000000000000038e98f63005fb",
          "blockHash": "0x57a3f770e92e717b602e9fe8c780c7c4613eab1a592c80272eab35222f19fa8e",
          "blockNumber": "0x2d143db",
          "transactionHash": "0xd80178b10213d3011996a04aaa3f74887a208f85220181ae1a2340bee773e015",
          "transactionIndex": "0x43",
          "logIndex": "0xbf",
          "removed": false
        },
        {
          "address": "0x5f8bbce851b869eb0abe7a336d049a7bdae5ad18",
          "topics": [
            "0x1c411e9a96e071241c2f21f7726b17ae89e3cab4c78be50e062b03a9fffbbad1"
          ],
          "data": "0x0000000000000000000000000000000000000000000000000a72a3575a237212000000000000000000000000000000000000000000000000000007ddd35ea5aa",
          "blockHash": "0x57a3f770e92e717b602e9fe8c780c7c4613eab1a592c80272eab35222f19fa8e",
          "blockNumber": "0x2d143db",
          "transactionHash": "0xd80178b10213d3011996a04aaa3f74887a208f85220181ae1a2340bee773e015",
          "transactionIndex": "0x43",
          "logIndex": "0xc0",
          "removed": false
        },
        {
          "address": "0x5f8bbce851b869eb0abe7a336d049a7bdae5ad18",
          "topics": [
            "0xd78ad95fa46c994b6551d0da85fc275fe613ce37657fb8d5e3d130840159d822",
            "0x0000000000000000000000001b02da8cb0d097eb8d57a175b88c7d8b47997506",
            "0x0000000000000000000000008dc20ce305ff565f7c6ff8e8d277b86174515c47"
          ],
          "data": "0x000000000000000000000000000000000000000000000000000000000000000000000000000000000000000000000000000000000000000000000002aec4464100000000000000000000000000000000000000000000000000038e98f63005fb0000000000000000000000000000000000000000000000000000000000000000",
          "blockHash": "0x57a3f770e92e717b602e9fe8c780c7c4613eab1a592c80272eab35222f19fa8e",
          "blockNumber": "0x2d143db",
          "transactionHash": "0xd80178b10213d3011996a04aaa3f74887a208f85220181ae1a2340bee773e015",
          "transactionIndex": "0x43",
          "logIndex": "0xc1",
          "removed": false
        }
      ],
      "logsBloom": "0x002002000000000000000000800000000000000000000000000000000000000000000000000000004000000000000000004000000000000000000000002000000000000000000000810001080000002008800000000004000000000000000400000000000000040000000000000000000000000200002000080000100800000000000200000000000088000000000000002008000000000800000840000080000200000000200000000000000a000400000000000000001000080000000001000000000200000000000000000110000020040000000000100000000040000000005000010000000000000a000000000000000000000100000000000000000000",
      "type": "0x0",
      "transactionHash": "0xd80178b10213d3011996a04aaa3f74887a208f85220181ae1a2340bee773e015",
      "transactionIndex": "0x43",
      "blockHash": "0x57a3f770e92e717b602e9fe8c780c7c4613eab1a592c80272eab35222f19fa8e",
      "blockNumber": "0x2d143db",
      "gasUsed": "0x56373",
      "effectiveGasPrice": "0x3b9aca00",
      "from": "0x71f74debb7fd42e61de32256537284e06de8812d",
      "to": "0x8dc20ce305ff565f7c6ff8e8d277b86174515c47",
      "contractAddress": null
    }
  ],
  "libraries": [],
  "pending": [],
  "returns": {},
  "timestamp": 1741388088,
  "chain": 56,
  "commit": "9e83b4a"
}