{
  "transactions": [
    {
      "hash": "0x4db1955635322d10318862712477cfd63d26f8f133fc17ed3327a0603c78f91a",
      "transactionType": "CALL",
      "contractName": null,
      "contractAddress": "0x8dc20ce305ff565f7c6ff8e8d277b86174515c47",
      "function": "iteratePairList(uint256,uint256,uint256,uint256,uint256,bool)",
      "arguments": [
        "0",
        "4",
        "10000000000000000",
        "5",
        "10",
        "false"
      ],
      "transaction": {
        "from": "0x71f74debb7fd42e61de32256537284e06de8812d",
        "to": "0x8dc20ce305ff565f7c6ff8e8d277b86174515c47",
        "gas": "0x11d79f",
        "value": "0x0",
        "input": "0x8101424d00000000000000000000000000000000000000000000000000000000000000000000000000000000000000000000000000000000000000000000000000000004000000000000000000000000000000000000000000000000002386f26fc100000000000000000000000000000000000000000000000000000000000000000005000000000000000000000000000000000000000000000000000000000000000a0000000000000000000000000000000000000000000000000000000000000000",
        "nonce": "0x2b5",
        "chainId": "0x38"
      },
      "additionalContracts": [],
      "isFixedGasLimit": false
    }
  ],
  "receipts": [
    {
      "status": "0x1",
      "cumulativeGasUsed": "0x7491b5",
      "logs": [
        {
          "address": "0x8dc20ce305ff565f7c6ff8e8d277b86174515c47",
          "topics": [
            "0x05ae39bd3637f496d15f3461b4f129f5220ecb5dd2c8b18471081ae0b514d6f4",
            "0x00000000000000000000000055d398326f99059ff775485246999027b3197955",
            "0x0000000000000000000000003ee2200efb3400fabb9aacf31297cbdd1d435d47"
          ],
          "data": "0x0000000000000000000000001b02da8cb0d097eb8d57a175b88c7d8b4799750600000000000000000000000010ed43c718714eb63d5aa57b78b54704e256024e000000000000000000000000000000000000000000000000002386f26fc1000000000000000000000000000000000000000000000000000000297028dfc3976a00000000000000000000000000000000000000000000000000238de6ddfc7694000000000000000000000000000000000000000000000000000006f46e3b7694",
          "blockHash": "0x257a75b5ea99a8307508a5e5b89a93e2115c5177d4f5d3f75c634830f37f001d",
          "blockNumber": "0x2d133cc",
          "transactionHash": "0x4db1955635322d10318862712477cfd63d26f8f133fc17ed3327a0603c78f91a",
          "transactionIndex": "0x55",
          "logIndex": "0xb9",
          "removed": false
        },
        {
          "address": "0x55d398326f99059ff775485246999027b3197955",
          "topics": [
            "0x8c5be1e5ebec7d5bd14f71427d1e84f3dd0314c0f7b2291e5b200ac8c7c3b925",
            "0x0000000000000000000000008dc20ce305ff565f7c6ff8e8d277b86174515c47",
            "0x0000000000000000000000001b02da8cb0d097eb8d57a175b88c7d8b47997506"
          ],
          "data": "0x000000000000000000000000000000000000000000000000002386f26fc10000",
          "blockHash": "0x257a75b5ea99a8307508a5e5b89a93e2115c5177d4f5d3f75c634830f37f001d",
          "blockNumber": "0x2d133cc",
          "transactionHash": "0x4db1955635322d10318862712477cfd63d26f8f133fc17ed3327a0603c78f91a",
          "transactionIndex": "0x55",
          "logIndex": "0xba",
          "removed": false
        },
        {
          "address": "0x55d398326f99059ff775485246999027b3197955",
          "topics": [
            "0xddf252ad1be2c89b69c2b068fc378daa952ba7f163c4a11628f55a4df523b3ef",
            "0x0000000000000000000000008dc20ce305ff565f7c6ff8e8d277b86174515c47",
            "0x0000000000000000000000004f8104f539fd942eaa0bffb0d775e46531848ffb"
          ],
          "data": "0x000000000000000000000000000000000000000000000000002386f26fc10000",
          "blockHash": "0x257a75b5ea99a8307508a5e5b89a93e2115c5177d4f5d3f75c634830f37f001d",
          "blockNumber": "0x2d133cc",
          "transactionHash": "0x4db1955635322d10318862712477cfd63d26f8f133fc17ed3327a0603c78f91a",
          "transactionIndex": "0x55",
          "logIndex": "0xbb",
          "removed": false
        },
        {
          "address": "0x55d398326f99059ff775485246999027b3197955",
          "topics": [
            "0x8c5be1e5ebec7d5bd14f71427d1e84f3dd0314c0f7b2291e5b200ac8c7c3b925",
            "0x0000000000000000000000008dc20ce305ff565f7c6ff8e8d277b86174515c47",
            "0x0000000000000000000000001b02da8cb0d097eb8d57a175b88c7d8b47997506"
          ],
          "data": "0x0000000000000000000000000000000000000000000000000000000000000000",
          "blockHash": "0x257a75b5ea99a8307508a5e5b89a93e2115c5177d4f5d3f75c634830f37f001d",
          "blockNumber": "0x2d133cc",
          "transactionHash": "0x4db1955635322d10318862712477cfd63d26f8f133fc17ed3327a0603c78f91a",
          "transactionIndex": "0x55",
          "logIndex": "0xbc",
          "removed": false
        },
        {
          "address": "0x3ee2200efb3400fabb9aacf31297cbdd1d435d47",
          "topics": [
            "0xddf252ad1be2c89b69c2b068fc378daa952ba7f163c4a11628f55a4df523b3ef",
            "0x0000000000000000000000004f8104f539fd942eaa0bffb0d775e46531848ffb",
            "0x0000000000000000000000008dc20ce305ff565f7c6ff8e8d277b86174515c47"
          ],
          "data": "0x0000000000000000000000000000000000000000000000000029757765d4b8c9",
          "blockHash": "0x257a75b5ea99a8307508a5e5b89a93e2115c5177d4f5d3f75c634830f37f001d",
          "blockNumber": "0x2d133cc",
          "transactionHash": "0x4db1955635322d10318862712477cfd63d26f8f133fc17ed3327a0603c78f91a",
          "transactionIndex": "0x55",
          "logIndex": "0xbd",
          "removed": false
        },
        {
          "address": "0x4f8104f539fd942eaa0bffb0d775e46531848ffb",
          "topics": [
            "0x1c411e9a96e071241c2f21f7726b17ae89e3cab4c78be50e062b03a9fffbbad1"
          ],
          "data": "0x000000000000000000000000000000000000000000000000aa10b4b7b49b8ab0000000000000000000000000000000000000000000000000916f4e27fc62e6f8",
          "blockHash": "0x257a75b5ea99a8307508a5e5b89a93e2115c5177d4f5d3f75c634830f37f001d",
          "blockNumber": "0x2d133cc",
          "transactionHash": "0x4db1955635322d10318862712477cfd63d26f8f133fc17ed3327a0603c78f91a",
          "transactionIndex": "0x55",
          "logIndex": "0xbe",
          "removed": false
        },
        {
          "address": "0x4f8104f539fd942eaa0bffb0d775e46531848ffb",
          "topics": [
            "0xd78ad95fa46c994b6551d0da85fc275fe613ce37657fb8d5e3d130840159d822",
            "0x0000000000000000000000001b02da8cb0d097eb8d57a175b88c7d8b47997506",
            "0x0000000000000000000000008dc20ce305ff565f7c6ff8e8d277b86174515c47"
          ],
          "data": "0x0000000000000000000000000000000000000000000000000000000000000000000000000000000000000000000000000000000000000000002386f26fc100000000000000000000000000000000000000000000000000000029757765d4b8c90000000000000000000000000000000000000000000000000000000000000000",
          "blockHash": "0x257a75b5ea99a8307508a5e5b89a93e2115c5177d4f5d3f75c634830f37f001d",
          "blockNumber": "0x2d133cc",
          "transactionHash": "0x4db1955635322d10318862712477cfd63d26f8f133fc17ed3327a0603c78f91a",
          "transactionIndex": "0x55",
          "logIndex": "0xbf",
          "removed": false
        },
        {
          "address": "0x3ee2200efb3400fabb9aacf31297cbdd1d435d47",
          "topics": [
            "0x8c5be1e5ebec7d5bd14f71427d1e84f3dd0314c0f7b2291e5b200ac8c7c3b925",
            "0x0000000000000000000000008dc20ce305ff565f7c6ff8e8d277b86174515c47",
            "0x00000000000000000000000010ed43c718714eb63d5aa57b78b54704e256024e"
          ],
          "data": "0x0000000000000000000000000000000000000000000000000029757765d4b8c9",
          "blockHash": "0x257a75b5ea99a8307508a5e5b89a93e2115c5177d4f5d3f75c634830f37f001d",
          "blockNumber": "0x2d133cc",
          "transactionHash": "0x4db1955635322d10318862712477cfd63d26f8f133fc17ed3327a0603c78f91a",
          "transactionIndex": "0x55",
          "logIndex": "0xc0",
          "removed": false
        },
        {
          "address": "0x3ee2200efb3400fabb9aacf31297cbdd1d435d47",
          "topics": [
            "0xddf252ad1be2c89b69c2b068fc378daa952ba7f163c4a11628f55a4df523b3ef",
            "0x0000000000000000000000008dc20ce305ff565f7c6ff8e8d277b86174515c47",
            "0x000000000000000000000000f53bed8082d225d7b53420ab560658c5e6ff42d8"
          ],
          "data": "0x0000000000000000000000000000000000000000000000000029757765d4b8c9",
          "blockHash": "0x257a75b5ea99a8307508a5e5b89a93e2115c5177d4f5d3f75c634830f37f001d",
          "blockNumber": "0x2d133cc",
          "transactionHash": "0x4db1955635322d10318862712477cfd63d26f8f133fc17ed3327a0603c78f91a",
          "transactionIndex": "0x55",
          "logIndex": "0xc1",
          "removed": false
        },
        {
          "address": "0x3ee2200efb3400fabb9aacf31297cbdd1d435d47",
          "topics": [
            "0x8c5be1e5ebec7d5bd14f71427d1e84f3dd0314c0f7b2291e5b200ac8c7c3b925",
            "0x0000000000000000000000008dc20ce305ff565f7c6ff8e8d277b86174515c47",
            "0x00000000000000000000000010ed43c718714eb63d5aa57b78b54704e256024e"
          ],
          "data": "0x0000000000000000000000000000000000000000000000000000000000000000",
          "blockHash": "0x257a75b5ea99a8307508a5e5b89a93e2115c5177d4f5d3f75c634830f37f001d",
          "blockNumber": "0x2d133cc",
          "transactionHash": "0x4db1955635322d10318862712477cfd63d26f8f133fc17ed3327a0603c78f91a",
          "transactionIndex": "0x55",
          "logIndex": "0xc2",
          "removed": false
        },
        {
          "address": "0x55d398326f99059ff775485246999027b3197955",
          "topics": [
            "0xddf252ad1be2c89b69c2b068fc378daa952ba7f163c4a11628f55a4df523b3ef",
            "0x000000000000000000000000f53bed8082d225d7b53420ab560658c5e6ff42d8",
            "0x0000000000000000000000008dc20ce305ff565f7c6ff8e8d277b86174515c47"
          ],
          "data": "0x000000000000000000000000000000000000000000000000002392747e4e2a91",
          "blockHash": "0x257a75b5ea99a8307508a5e5b89a93e2115c5177d4f5d3f75c634830f37f001d",
          "blockNumber": "0x2d133cc",
          "transactionHash": "0x4db1955635322d10318862712477cfd63d26f8f133fc17ed3327a0603c78f91a",
          "transactionIndex": "0x55",
          "logIndex": "0xc3",
          "removed": false
        },
        {
          "address": "0xf53bed8082d225d7b53420ab560658c5e6ff42d8",
          "topics": [
            "0x1c411e9a96e071241c2f21f7726b17ae89e3cab4c78be50e062b03a9fffbbad1"
          ],
          "data": "0x0000000000000000000000000000000000000000000000503a13f8f3edfb41d400000000000000000000000000000000000000000000004501e455c88a0c0a9b",
          "blockHash": "0x257a75b5ea99a8307508a5e5b89a93e2115c5177d4f5d3f75c634830f37f001d",
          "blockNumber": "0x2d133cc",
          "transactionHash": "0x4db1955635322d10318862712477cfd63d26f8f133fc17ed3327a0603c78f91a",
          "transactionIndex": "0x55",
          "logIndex": "0xc4",
          "removed": false
        },
        {
          "address": "0xf53bed8082d225d7b53420ab560658c5e6ff42d8",
          "topics": [
            "0xd78ad95fa46c994b6551d0da85fc275fe613ce37657fb8d5e3d130840159d822",
            "0x00000000000000000000000010ed43c718714eb63d5aa57b78b54704e256024e",
            "0x0000000000000000000000008dc20ce305ff565f7c6ff8e8d277b86174515c47"
          ],
          "data": "0x0000000000000000000000000000000000000000000000000029757765d4b8c900000000000000000000000000000000000000000000000000000000000000000000000000000000000000000000000000000000000000000000000000000000000000000000000000000000000000000000000000000000002392747e4e2a91",
          "blockHash": "0x257a75b5ea99a8307508a5e5b89a93e2115c5177d4f5d3f75c634830f37f001d",
          "blockNumber": "0x2d133cc",
          "transactionHash": "0x4db1955635322d10318862712477cfd63d26f8f133fc17ed3327a0603c78f91a",
          "transactionIndex": "0x55",
          "logIndex": "0xc5",
          "removed": false
        }
      ],
      "logsBloom": "0x00200200000000000000000080000000000000004000000000000000000800000000000000000000000000000000000000100000040000000000200000200000000000080000000001000008000000200840000000000002000000000000000000000000000000000000000000000000000000000000000008008010080000000000020000000000008800000000000000200000000010080020004800008000020000000020000000000000020000000010000000000010000800000000010000000002000000000000000001100000200000000000001000000000000000003050000900000000000012000000000400000000000000000000000000000000",
      "type": "0x0",
      "transactionHash": "0x4db1955635322d10318862712477cfd63d26f8f133fc17ed3327a0603c78f91a",
      "transactionIndex": "0x55",
      "blockHash": "0x257a75b5ea99a8307508a5e5b89a93e2115c5177d4f5d3f75c634830f37f001d",
      "blockNumber": "0x2d133cc",
      "gasUsed": "0xc3329",
      "effectiveGasPrice": "0x3b9aca00",
      "from": "0x71f74debb7fd42e61de32256537284e06de8812d",
      "to": "0x8dc20ce305ff565f7c6ff8e8d277b86174515c47",
      "contractAddress": null
    }
  ],
  "libraries": [],
  "pending": [],
  "returns": {},
  "timestamp": 1741375755,
  "chain": 56,
  "commit": "0899a7e"
}