{
  "transactions": [
    {
      "hash": "0x71532c4ee6d2a3dce01b035ab0fffd85003284e29d01744c5b5b7ac25182394b",
      "transactionType": "CALL",
      "contractName": null,
      "contractAddress": "0x8dc20ce305ff565f7c6ff8e8d277b86174515c47",
      "function": "iteratePairList(uint256,uint256,uint256,uint256,uint256,bool)",
      "arguments": [
        "0",
        "4",
        "100000000000000000",
        "0",
        "100",
        "false"
      ],
      "transaction": {
        "from": "0x71f74debb7fd42e61de32256537284e06de8812d",
        "to": "0x8dc20ce305ff565f7c6ff8e8d277b86174515c47",
        "gas": "0x10da03",
        "value": "0x0",
        "input": "0x8101424d00000000000000000000000000000000000000000000000000000000000000000000000000000000000000000000000000000000000000000000000000000004000000000000000000000000000000000000000000000000016345785d8a0000000000000000000000000000000000000000000000000000000000000000000000000000000000000000000000000000000000000000000000000000000000640000000000000000000000000000000000000000000000000000000000000000",
        "nonce": "0x2b7",
        "chainId": "0x38"
      },
      "additionalContracts": [],
      "isFixedGasLimit": false
    }
  ],
  "receipts": [
    {
      "status": "0x1",
      "cumulativeGasUsed": "0x68aa86",
      "logs": [
        {
          "address": "0x8dc20ce305ff565f7c6ff8e8d277b86174515c47",
          "topics": [
            "0x05ae39bd3637f496d15f3461b4f129f5220ecb5dd2c8b18471081ae0b514d6f4",
            "0x00000000000000000000000055d398326f99059ff775485246999027b3197955",
            "0x0000000000000000000000002170ed0880ac9a755fd29b2688956bd959f933f8"
          ],
          "data": "0x00000000000000000000000010ed43c718714eb63d5aa57b78b54704e256024e0000000000000000000000001b02da8cb0d097eb8d57a175b88c7d8b47997506000000000000000000000000000000000000000000000000016345785d8a0000000000000000000000000000000000000000000000000000000029c14882c8300000000000000000000000000000000000000000000000000163d0fba78e36ff00000000000000000000000000000000000000000000000000008b834a0436ff",
          "blockHash": "0x9262b0dfa369863a1b1d4e377856e012efce2a2cbe49f2537185da77999691cb",
          "blockNumber": "0x2d13519",
          "transactionHash": "0x71532c4ee6d2a3dce01b035ab0fffd85003284e29d01744c5b5b7ac25182394b",
          "transactionIndex": "0x37",
          "logIndex": "0x97",
          "removed": false
        },
        {
          "address": "0x55d398326f99059ff775485246999027b3197955",
          "topics": [
            "0x8c5be1e5ebec7d5bd14f71427d1e84f3dd0314c0f7b2291e5b200ac8c7c3b925",
            "0x0000000000000000000000008dc20ce305ff565f7c6ff8e8d277b86174515c47",
            "0x00000000000000000000000010ed43c718714eb63d5aa57b78b54704e256024e"
          ],
          "data": "0x000000000000000000000000000000000000000000000000016345785d8a0000",
          "blockHash": "0x9262b0dfa369863a1b1d4e377856e012efce2a2cbe49f2537185da77999691cb",
          "blockNumber": "0x2d13519",
          "transactionHash": "0x71532c4ee6d2a3dce01b035ab0fffd85003284e29d01744c5b5b7ac25182394b",
          "transactionIndex": "0x37",
          "logIndex": "0x98",
          "removed": false
        },
        {
          "address": "0x55d398326f99059ff775485246999027b3197955",
          "topics": [
            "0xddf252ad1be2c89b69c2b068fc378daa952ba7f163c4a11628f55a4df523b3ef",
            "0x0000000000000000000000008dc20ce305ff565f7c6ff8e8d277b86174515c47",
            "0x000000000000000000000000531febfeb9a61d948c384acfbe6dcc51057aea7e"
          ],
          "data": "0x000000000000000000000000000000000000000000000000016345785d8a0000",
          "blockHash": "0x9262b0dfa369863a1b1d4e377856e012efce2a2cbe49f2537185da77999691cb",
          "blockNumber": "0x2d13519",
          "transactionHash": "0x71532c4ee6d2a3dce01b035ab0fffd85003284e29d01744c5b5b7ac25182394b",
          "transactionIndex": "0x37",
          "logIndex": "0x99",
          "removed": false
        },
        {
          "address": "0x55d398326f99059ff775485246999027b3197955",
          "topics": [
            "0x8c5be1e5ebec7d5bd14f71427d1e84f3dd0314c0f7b2291e5b200ac8c7c3b925",
            "0x0000000000000000000000008dc20ce305ff565f7c6ff8e8d277b86174515c47",
            "0x00000000000000000000000010ed43c718714eb63d5aa57b78b54704e256024e"
          ],
          "data": "0x0000000000000000000000000000000000000000000000000000000000000000",
          "blockHash": "0x9262b0dfa369863a1b1d4e377856e012efce2a2cbe49f2537185da77999691cb",
          "blockNumber": "0x2d13519",
          "transactionHash": "0x71532c4ee6d2a3dce01b035ab0fffd85003284e29d01744c5b5b7ac25182394b",
          "transactionIndex": "0x37",
          "logIndex": "0x9a",
          "removed": false
        },
        {
          "address": "0x2170ed0880ac9a755fd29b2688956bd959f933f8",
          "topics": [
            "0xddf252ad1be2c89b69c2b068fc378daa952ba7f163c4a11628f55a4df523b3ef",
            "0x000000000000000000000000531febfeb9a61d948c384acfbe6dcc51057aea7e",
            "0x0000000000000000000000008dc20ce305ff565f7c6ff8e8d277b86174515c47"
          ],
          "data": "0x000000000000000000000000000000000000000000000000000029c14882c830",
          "blockHash": "0x9262b0dfa369863a1b1d4e377856e012efce2a2cbe49f2537185da77999691cb",
          "blockNumber": "0x2d13519",
          "transactionHash": "0x71532c4ee6d2a3dce01b035ab0fffd85003284e29d01744c5b5b7ac25182394b",
          "transactionIndex": "0x37",
          "logIndex": "0x9b",
          "removed": false
        },
        {
          "address": "0x531febfeb9a61d948c384acfbe6dcc51057aea7e",
          "topics": [
            "0x1c411e9a96e071241c2f21f7726b17ae89e3cab4c78be50e062b03a9fffbbad1"
          ],
          "data": "0x0000000000000000000000000000000000000000000000067727e092458b57930000000000000000000000000000000000000000000036dfa531f817b3445b99",
          "blockHash": "0x9262b0dfa369863a1b1d4e377856e012efce2a2cbe49f2537185da77999691cb",
          "blockNumber": "0x2d13519",
          "transactionHash": "0x71532c4ee6d2a3dce01b035ab0fffd85003284e29d01744c5b5b7ac25182394b",
          "transactionIndex": "0x37",
          "logIndex": "0x9c",
          "removed": false
        },
        {
          "address": "0x531febfeb9a61d948c384acfbe6dcc51057aea7e",
          "topics": [
            "0xd78ad95fa46c994b6551d0da85fc275fe613ce37657fb8d5e3d130840159d822",
            "0x00000000000000000000000010ed43c718714eb63d5aa57b78b54704e256024e",
            "0x0000000000000000000000008dc20ce305ff565f7c6ff8e8d277b86174515c47"
          ],
          "data": "0x0000000000000000000000000000000000000000000000000000000000000000000000000000000000000000000000000000000000000000016345785d8a0000000000000000000000000000000000000000000000000000000029c14882c8300000000000000000000000000000000000000000000000000000000000000000",
          "blockHash": "0x9262b0dfa369863a1b1d4e377856e012efce2a2cbe49f2537185da77999691cb",
          "blockNumber": "0x2d13519",
          "transactionHash": "0x71532c4ee6d2a3dce01b035ab0fffd85003284e29d01744c5b5b7ac25182394b",
          "transactionIndex": "0x37",
          "logIndex": "0x9d",
          "removed": false
        },
        {
          "address": "0x2170ed0880ac9a755fd29b2688956bd959f933f8",
          "topics": [
            "0x8c5be1e5ebec7d5bd14f71427d1e84f3dd0314c0f7b2291e5b200ac8c7c3b925",
            "0x0000000000000000000000008dc20ce305ff565f7c6ff8e8d277b86174515c47",
            "0x0000000000000000000000001b02da8cb0d097eb8d57a175b88c7d8b47997506"
          ],
          "data": "0x000000000000000000000000000000000000000000000000000029c14882c830",
          "blockHash": "0x9262b0dfa369863a1b1d4e377856e012efce2a2cbe49f2537185da77999691cb",
          "blockNumber": "0x2d13519",
          "transactionHash": "0x71532c4ee6d2a3dce01b035ab0fffd85003284e29d01744c5b5b7ac25182394b",
          "transactionIndex": "0x37",
          "logIndex": "0x9e",
          "removed": false
        },
        {
          "address": "0x2170ed0880ac9a755fd29b2688956bd959f933f8",
          "topics": [
            "0xddf252ad1be2c89b69c2b068fc378daa952ba7f163c4a11628f55a4df523b3ef",
            "0x0000000000000000000000008dc20ce305ff565f7c6ff8e8d277b86174515c47",
            "0x0000000000000000000000005af4859f62edb197887da2919ed185a89771826c"
          ],
          "data": "0x000000000000000000000000000000000000000000000000000029c14882c830",
          "blockHash": "0x9262b0dfa369863a1b1d4e377856e012efce2a2cbe49f2537185da77999691cb",
          "blockNumber": "0x2d13519",
          "transactionHash": "0x71532c4ee6d2a3dce01b035ab0fffd85003284e29d01744c5b5b7ac25182394b",
          "transactionIndex": "0x37",
          "logIndex": "0x9f",
          "removed": false
        },
        {
          "address": "0x2170ed0880ac9a755fd29b2688956bd959f933f8",
          "topics": [
            "0x8c5be1e5ebec7d5bd14f71427d1e84f3dd0314c0f7b2291e5b200ac8c7c3b925",
            "0x0000000000000000000000008dc20ce305ff565f7c6ff8e8d277b86174515c47",
            "0x0000000000000000000000001b02da8cb0d097eb8d57a175b88c7d8b47997506"
          ],
          "data": "0x0000000000000000000000000000000000000000000000000000000000000000",
          "blockHash": "0x9262b0dfa369863a1b1d4e377856e012efce2a2cbe49f2537185da77999691cb",
          "blockNumber": "0x2d13519",
          "transactionHash": "0x71532c4ee6d2a3dce01b035ab0fffd85003284e29d01744c5b5b7ac25182394b",
          "transactionIndex": "0x37",
          "logIndex": "0xa0",
          "removed": false
        },
        {
          "address": "0x55d398326f99059ff775485246999027b3197955",
          "topics": [
            "0xddf252ad1be2c89b69c2b068fc378daa952ba7f163c4a11628f55a4df523b3ef",
            "0x0000000000000000000000005af4859f62edb197887da2919ed185a89771826c",
            "0x0000000000000000000000008dc20ce305ff565f7c6ff8e8d277b86174515c47"
          ],
          "data": "0x0000000000000000000000000000000000000000000000000163d0fba78e36ff",
          "blockHash": "0x9262b0dfa369863a1b1d4e377856e012efce2a2cbe49f2537185da77999691cb",
          "blockNumber": "0x2d13519",
          "transactionHash": "0x71532c4ee6d2a3dce01b035ab0fffd85003284e29d01744c5b5b7ac25182394b",
          "transactionIndex": "0x37",
          "logIndex": "0xa1",
          "removed": false
        },
        {
          "address": "0x5af4859f62edb197887da2919ed185a89771826c",
          "topics": [
            "0x1c411e9a96e071241c2f21f7726b17ae89e3cab4c78be50e062b03a9fffbbad1"
          ],
          "data": "0x000000000000000000000000000000000000000000000000008e6773f90d0004000000000000000000000000000000000000000000000004bfc1e69c8639cdb3",
          "blockHash": "0x9262b0dfa369863a1b1d4e377856e012efce2a2cbe49f2537185da77999691cb",
          "blockNumber": "0x2d13519",
          "transactionHash": "0x71532c4ee6d2a3dce01b035ab0fffd85003284e29d01744c5b5b7ac25182394b",
          "transactionIndex": "0x37",
          "logIndex": "0xa2",
          "removed": false
        },
        {
          "address": "0x5af4859f62edb197887da2919ed185a89771826c",
          "topics": [
            "0xd78ad95fa46c994b6551d0da85fc275fe613ce37657fb8d5e3d130840159d822",
            "0x0000000000000000000000001b02da8cb0d097eb8d57a175b88c7d8b47997506",
            "0x0000000000000000000000008dc20ce305ff565f7c6ff8e8d277b86174515c47"
          ],
          "data": "0x000000000000000000000000000000000000000000000000000029c14882c830000000000000000000000000000000000000000000000000000000000000000000000000000000000000000000000000000000000000000000000000000000000000000000000000000000000000000000000000000000000163d0fba78e36ff",
          "blockHash": "0x9262b0dfa369863a1b1d4e377856e012efce2a2cbe49f2537185da77999691cb",
          "blockNumber": "0x2d13519",
          "transactionHash": "0x71532c4ee6d2a3dce01b035ab0fffd85003284e29d01744c5b5b7ac25182394b",
          "transactionIndex": "0x37",
          "logIndex": "0xa3",
          "removed": false
        }
      ],
      "logsBloom": "0x0020020001000000000000008040000000000000000000000000000000000000000000000000000000000020000000000000000000000000000000000020000000000000000000000100000800000020080000200000000040000000400200000000000000000000000000000000000000000001000000000800001008000000000002002000000000880020000000000060000000000008000000400000800002000000002000000000000002000000000000000200001000080000000001000000000200000000000000000110c000200000000080001000000000000000200050000100000000000006000000000000000800000000000000000000000000",
      "type": "0x0",
      "transactionHash": "0x71532c4ee6d2a3dce01b035ab0fffd85003284e29d01744c5b5b7ac25182394b",
      "transactionIndex": "0x37",
      "blockHash": "0x9262b0dfa369863a1b1d4e377856e012efce2a2cbe49f2537185da77999691cb",
      "blockNumber": "0x2d13519",
      "gasUsed": "0xc3345",
      "effectiveGasPrice": "0x3b9aca00",
      "from": "0x71f74debb7fd42e61de32256537284e06de8812d",
      "to": "0x8dc20ce305ff565f7c6ff8e8d277b86174515c47",
      "contractAddress": null
    }
  ],
  "libraries": [],
  "pending": [],
  "returns": {},
  "timestamp": 1741376754,
  "chain": 56,
  "commit": "0899a7e"
}