{
  "transactions": [
    {
      "hash": "0x92f2a45c3872474e9578976fb356e1ed002f02118f995cb969b95ba2afa4ac0b",
      "transactionType": "CALL",
      "contractName": null,
      "contractAddress": "0x8dc20ce305ff565f7c6ff8e8d277b86174515c47",
      "function": "iteratePairList(uint256,uint256,uint256,uint256,uint256,bool)",
      "arguments": [
        "0",
        "4",
        "100000",
        "5",
        "10",
        "false"
      ],
      "transaction": {
        "from": "0x71f74debb7fd42e61de32256537284e06de8812d",
        "to": "0x8dc20ce305ff565f7c6ff8e8d277b86174515c47",
        "gas": "0x10cea2",
        "value": "0x0",
        "input": "0x8101424d0000000000000000000000000000000000000000000000000000000000000000000000000000000000000000000000000000000000000000000000000000000400000000000000000000000000000000000000000000000000000000000186a00000000000000000000000000000000000000000000000000000000000000005000000000000000000000000000000000000000000000000000000000000000a0000000000000000000000000000000000000000000000000000000000000000",
        "nonce": "0x2b1",
        "chainId": "0x38"
      },
      "additionalContracts": [],
      "isFixedGasLimit": false
    }
  ],
  "receipts": [
    {
      "status": "0x1",
      "cumulativeGasUsed": "0x594a74",
      "logs": [
        {
          "address": "0x8dc20ce305ff565f7c6ff8e8d277b86174515c47",
          "topics": [
            "0x05ae39bd3637f496d15f3461b4f129f5220ecb5dd2c8b18471081ae0b514d6f4",
            "0x00000000000000000000000055d398326f99059ff775485246999027b3197955",
            "0x0000000000000000000000003ee2200efb3400fabb9aacf31297cbdd1d435d47"
          ],
          "data": "0x0000000000000000000000001b02da8cb0d097eb8d57a175b88c7d8b47997506000000000000000000000000cf0febd3f17cef5b47b0cd257acf6025c5bff3b700000000000000000000000000000000000000000000000000000000000186a0000000000000000000000000000000000000000000000000000000000001d23400000000000000000000000000000000000000000000000000000000000194b00000000000000000000000000000000000000000000000000000000000000e10",
          "blockHash": "0x066ee81861926d4ecd90eeb86ba97d3273a4a945def8137a36bac54669644ac8",
          "blockNumber": "0x2d1311e",
          "transactionHash": "0x92f2a45c3872474e9578976fb356e1ed002f02118f995cb969b95ba2afa4ac0b",
          "transactionIndex": "0x5e",
          "logIndex": "0x80",
          "removed": false
        },
        {
          "address": "0x55d398326f99059ff775485246999027b3197955",
          "topics": [
            "0x8c5be1e5ebec7d5bd14f71427d1e84f3dd0314c0f7b2291e5b200ac8c7c3b925",
            "0x0000000000000000000000008dc20ce305ff565f7c6ff8e8d277b86174515c47",
            "0x0000000000000000000000001b02da8cb0d097eb8d57a175b88c7d8b47997506"
          ],
          "data": "0x00000000000000000000000000000000000000000000000000000000000186a0",
          "blockHash": "0x066ee81861926d4ecd90eeb86ba97d3273a4a945def8137a36bac54669644ac8",
          "blockNumber": "0x2d1311e",
          "transactionHash": "0x92f2a45c3872474e9578976fb356e1ed002f02118f995cb969b95ba2afa4ac0b",
          "transactionIndex": "0x5e",
          "logIndex": "0x81",
          "removed": false
        },
        {
          "address": "0x55d398326f99059ff775485246999027b3197955",
          "topics": [
            "0xddf252ad1be2c89b69c2b068fc378daa952ba7f163c4a11628f55a4df523b3ef",
            "0x0000000000000000000000008dc20ce305ff565f7c6ff8e8d277b86174515c47",
            "0x0000000000000000000000004f8104f539fd942eaa0bffb0d775e46531848ffb"
          ],
          "data": "0x00000000000000000000000000000000000000000000000000000000000186a0",
          "blockHash": "0x066ee81861926d4ecd90eeb86ba97d3273a4a945def8137a36bac54669644ac8",
          "blockNumber": "0x2d1311e",
          "transactionHash": "0x92f2a45c3872474e9578976fb356e1ed002f02118f995cb969b95ba2afa4ac0b",
          "transactionIndex": "0x5e",
          "logIndex": "0x82",
          "removed": false
        },
        {
          "address": "0x55d398326f99059ff775485246999027b3197955",
          "topics": [
            "0x8c5be1e5ebec7d5bd14f71427d1e84f3dd0314c0f7b2291e5b200ac8c7c3b925",
            "0x0000000000000000000000008dc20ce305ff565f7c6ff8e8d277b86174515c47",
            "0x0000000000000000000000001b02da8cb0d097eb8d57a175b88c7d8b47997506"
          ],
          "data": "0x0000000000000000000000000000000000000000000000000000000000000000",
          "blockHash": "0x066ee81861926d4ecd90eeb86ba97d3273a4a945def8137a36bac54669644ac8",
          "blockNumber": "0x2d1311e",
          "transactionHash": "0x92f2a45c3872474e9578976fb356e1ed002f02118f995cb969b95ba2afa4ac0b",
          "transactionIndex": "0x5e",
          "logIndex": "0x83",
          "removed": false
        },
        {
          "address": "0x3ee2200efb3400fabb9aacf31297cbdd1d435d47",
          "topics": [
            "0xddf252ad1be2c89b69c2b068fc378daa952ba7f163c4a11628f55a4df523b3ef",
            "0x0000000000000000000000004f8104f539fd942eaa0bffb0d775e46531848ffb",
            "0x0000000000000000000000008dc20ce305ff565f7c6ff8e8d277b86174515c47"
          ],
          "data": "0x000000000000000000000000000000000000000000000000000000000001d26f",
          "blockHash": "0x066ee81861926d4ecd90eeb86ba97d3273a4a945def8137a36bac54669644ac8",
          "blockNumber": "0x2d1311e",
          "transactionHash": "0x92f2a45c3872474e9578976fb356e1ed002f02118f995cb969b95ba2afa4ac0b",
          "transactionIndex": "0x5e",
          "logIndex": "0x84",
          "removed": false
        },
        {
          "address": "0x4f8104f539fd942eaa0bffb0d775e46531848ffb",
          "topics": [
            "0x1c411e9a96e071241c2f21f7726b17ae89e3cab4c78be50e062b03a9fffbbad1"
          ],
          "data": "0x000000000000000000000000000000000000000000000000ac1bc20d4a89744e0000000000000000000000000000000000000000000000008fb4005b68228d99",
          "blockHash": "0x066ee81861926d4ecd90eeb86ba97d3273a4a945def8137a36bac54669644ac8",
          "blockNumber": "0x2d1311e",
          "transactionHash": "0x92f2a45c3872474e9578976fb356e1ed002f02118f995cb969b95ba2afa4ac0b",
          "transactionIndex": "0x5e",
          "logIndex": "0x85",
          "removed": false
        },
        {
          "address": "0x4f8104f539fd942eaa0bffb0d775e46531848ffb",
          "topics": [
            "0xd78ad95fa46c994b6551d0da85fc275fe613ce37657fb8d5e3d130840159d822",
            "0x0000000000000000000000001b02da8cb0d097eb8d57a175b88c7d8b47997506",
            "0x0000000000000000000000008dc20ce305ff565f7c6ff8e8d277b86174515c47"
          ],
          "data": "0x000000000000000000000000000000000000000000000000000000000000000000000000000000000000000000000000000000000000000000000000000186a0000000000000000000000000000000000000000000000000000000000001d26f0000000000000000000000000000000000000000000000000000000000000000",
          "blockHash": "0x066ee81861926d4ecd90eeb86ba97d3273a4a945def8137a36bac54669644ac8",
          "blockNumber": "0x2d1311e",
          "transactionHash": "0x92f2a45c3872474e9578976fb356e1ed002f02118f995cb969b95ba2afa4ac0b",
          "transactionIndex": "0x5e",
          "logIndex": "0x86",
          "removed": false
        },
        {
          "address": "0x3ee2200efb3400fabb9aacf31297cbdd1d435d47",
          "topics": [
            "0x8c5be1e5ebec7d5bd14f71427d1e84f3dd0314c0f7b2291e5b200ac8c7c3b925",
            "0x0000000000000000000000008dc20ce305ff565f7c6ff8e8d277b86174515c47",
            "0x000000000000000000000000cf0febd3f17cef5b47b0cd257acf6025c5bff3b7"
          ],
          "data": "0x000000000000000000000000000000000000000000000000000000000001d26f",
          "blockHash": "0x066ee81861926d4ecd90eeb86ba97d3273a4a945def8137a36bac54669644ac8",
          "blockNumber": "0x2d1311e",
          "transactionHash": "0x92f2a45c3872474e9578976fb356e1ed002f02118f995cb969b95ba2afa4ac0b",
          "transactionIndex": "0x5e",
          "logIndex": "0x87",
          "removed": false
        },
        {
          "address": "0x3ee2200efb3400fabb9aacf31297cbdd1d435d47",
          "topics": [
            "0xddf252ad1be2c89b69c2b068fc378daa952ba7f163c4a11628f55a4df523b3ef",
            "0x0000000000000000000000008dc20ce305ff565f7c6ff8e8d277b86174515c47",
            "0x0000000000000000000000008511a5edfd77bb0d2379498d5a1bca589302d6de"
          ],
          "data": "0x000000000000000000000000000000000000000000000000000000000001d26f",
          "blockHash": "0x066ee81861926d4ecd90eeb86ba97d3273a4a945def8137a36bac54669644ac8",
          "blockNumber": "0x2d1311e",
          "transactionHash": "0x92f2a45c3872474e9578976fb356e1ed002f02118f995cb969b95ba2afa4ac0b",
          "transactionIndex": "0x5e",
          "logIndex": "0x88",
          "removed": false
        },
        {
          "address": "0x3ee2200efb3400fabb9aacf31297cbdd1d435d47",
          "topics": [
            "0x8c5be1e5ebec7d5bd14f71427d1e84f3dd0314c0f7b2291e5b200ac8c7c3b925",
            "0x0000000000000000000000008dc20ce305ff565f7c6ff8e8d277b86174515c47",
            "0x000000000000000000000000cf0febd3f17cef5b47b0cd257acf6025c5bff3b7"
          ],
          "data": "0x0000000000000000000000000000000000000000000000000000000000000000",
          "blockHash": "0x066ee81861926d4ecd90eeb86ba97d3273a4a945def8137a36bac54669644ac8",
          "blockNumber": "0x2d1311e",
          "transactionHash": "0x92f2a45c3872474e9578976fb356e1ed002f02118f995cb969b95ba2afa4ac0b",
          "transactionIndex": "0x5e",
          "logIndex": "0x89",
          "removed": false
        },
        {
          "address": "0x55d398326f99059ff775485246999027b3197955",
          "topics": [
            "0xddf252ad1be2c89b69c2b068fc378daa952ba7f163c4a11628f55a4df523b3ef",
            "0x0000000000000000000000008511a5edfd77bb0d2379498d5a1bca589302d6de",
            "0x0000000000000000000000008dc20ce305ff565f7c6ff8e8d277b86174515c47"
          ],
          "data": "0x00000000000000000000000000000000000000000000000000000000000194e3",
          "blockHash": "0x066ee81861926d4ecd90eeb86ba97d3273a4a945def8137a36bac54669644ac8",
          "blockNumber": "0x2d1311e",
          "transactionHash": "0x92f2a45c3872474e9578976fb356e1ed002f02118f995cb969b95ba2afa4ac0b",
          "transactionIndex": "0x5e",
          "logIndex": "0x8a",
          "removed": false
        },
        {
          "address": "0x8511a5edfd77bb0d2379498d5a1bca589302d6de",
          "topics": [
            "0x1c411e9a96e071241c2f21f7726b17ae89e3cab4c78be50e062b03a9fffbbad1"
          ],
          "data": "0x00000000000000000000000000000000000000000000000000b726c0227a3104000000000000000000000000000000000000000000000000009f4d8a60b48bb0",
          "blockHash": "0x066ee81861926d4ecd90eeb86ba97d3273a4a945def8137a36bac54669644ac8",
          "blockNumber": "0x2d1311e",
          "transactionHash": "0x92f2a45c3872474e9578976fb356e1ed002f02118f995cb969b95ba2afa4ac0b",
          "transactionIndex": "0x5e",
          "logIndex": "0x8b",
          "removed": false
        },
        {
          "address": "0x8511a5edfd77bb0d2379498d5a1bca589302d6de",
          "topics": [
            "0xd78ad95fa46c994b6551d0da85fc275fe613ce37657fb8d5e3d130840159d822",
            "0x000000000000000000000000cf0febd3f17cef5b47b0cd257acf6025c5bff3b7",
            "0x0000000000000000000000008dc20ce305ff565f7c6ff8e8d277b86174515c47"
          ],
          "data": "0x000000000000000000000000000000000000000000000000000000000001d26f0000000000000000000000000000000000000000000000000000000000000000000000000000000000000000000000000000000000000000000000000000000000000000000000000000000000000000000000000000000000000000000194e3",
          "blockHash": "0x066ee81861926d4ecd90eeb86ba97d3273a4a945def8137a36bac54669644ac8",
          "blockNumber": "0x2d1311e",
          "transactionHash": "0x92f2a45c3872474e9578976fb356e1ed002f02118f995cb969b95ba2afa4ac0b",
          "transactionIndex": "0x5e",
          "logIndex": "0x8c",
          "removed": false
        }
      ],
      "logsBloom": "0x00200000000000000000000080000000001000004000000000000000000000000000004000000000000010000000000000100000000000000000200000200000002000080000000001000008000000200840000000000002000000000000000000000000000000000000000000000000000000040000000008000010080000000000020000000000008800000000000000000000000010080000004800008000020000000020000000000000000000000010000000000010000800000080010000000002000000000000000001100000200000000020001000000000000000001050000900000000040012000000000000000000400000000000000000000000",
      "type": "0x0",
      "transactionHash": "0x92f2a45c3872474e9578976fb356e1ed002f02118f995cb969b95ba2afa4ac0b",
      "transactionIndex": "0x5e",
      "blockHash": "0x066ee81861926d4ecd90eeb86ba97d3273a4a945def8137a36bac54669644ac8",
      "blockNumber": "0x2d1311e",
      "gasUsed": "0xc2b08",
      "effectiveGasPrice": "0x3b9aca00",
      "from": "0x71f74debb7fd42e61de32256537284e06de8812d",
      "to": "0x8dc20ce305ff565f7c6ff8e8d277b86174515c47",
      "contractAddress": null
    }
  ],
  "libraries": [],
  "pending": [],
  "returns": {},
  "timestamp": 1741373698,
  "chain": 56,
  "commit": "0899a7e"
}