{
  "transactions": [
    {
      "hash": "0x9d1b6730c52798e1d89f87e0fca88294ecac8a7a2577944479827524e0d86796",
      "transactionType": "CALL",
      "contractName": null,
      "contractAddress": "0x1cdf6aabdcd19d2ed3ac927bb7b9835ac6942590",
      "function": "iteratePairList(uint256,uint256,uint256,uint256,uint256,bool)",
      "arguments": [
        "0",
        "3",
        "50",
        "50",
        "0",
        "false"
      ],
      "transaction": {
        "from": "0x71f74debb7fd42e61de32256537284e06de8812d",
        "to": "0x1cdf6aabdcd19d2ed3ac927bb7b9835ac6942590",
        "gas": "0x49278",
        "value": "0x0",
        "input": "0x8101424d000000000000000000000000000000000000000000000000000000000000000000000000000000000000000000000000000000000000000000000000000000030000000000000000000000000000000000000000000000000000000000000032000000000000000000000000000000000000000000000000000000000000003200000000000000000000000000000000000000000000000000000000000000000000000000000000000000000000000000000000000000000000000000000000",
        "nonce": "0x27e",
        "chainId": "0x89"
      },
      "additionalContracts": [],
      "isFixedGasLimit": false
    }
  ],
  "receipts": [
    {
      "status": "0x1",
      "cumulativeGasUsed": "0x8b536b",
      "logs": [
        {
          "address": "0x0000000000000000000000000000000000001010",
          "topics": [
            "0x4dfe1bbbcf077ddc3e01291eea2d5c70c2b422b415d95645b9adcfd678cb1d63",
            "0x0000000000000000000000000000000000000000000000000000000000001010",
            "0x00000000000000000000000071f74debb7fd42e61de32256537284e06de8812d",
            "0x000000000000000000000000a8b52f02108aa5f4b675bdcc973760022d7c6020"
          ],
          "data": "0x0000000000000000000000000000000000000000000000000015efe6e208d45e00000000000000000000000000000000000000000000000025d4307b6ff6bac800000000000000000000000000000000000000000000008ba221e756b1110df700000000000000000000000000000000000000000000000025be40948dede66a00000000000000000000000000000000000000000000008ba237d73d9319e255",
          "blockHash": "0x38fa1ea8f73858102043d4327f421e56c47d718dc8d6e10a5c19001453551f84",
          "blockNumber": "0x418eb63",
          "transactionHash": "0x9d1b6730c52798e1d89f87e0fca88294ecac8a7a2577944479827524e0d86796",
          "transactionIndex": "0x44",
          "logIndex": "0x129",
          "removed": false
        }
      ],
      "logsBloom": "0x00000000000000000000000000000000000000000000000000000000000000000000000000000000000000000002000000008000000000000000000000000000000000000000000000000000000000800000000000000000000100000000000000000000000000000000000000000000000000000000000080000000000000000000000000000000000000000000000000000000000000040000000000080000200000000000004000000000000000000000000000000000000000000000004000000000000000000001000000000000000000000000000000100008000000000000000000000000000000000400000000000000000000000000000000100000",
      "type": "0x2",
      "transactionHash": "0x9d1b6730c52798e1d89f87e0fca88294ecac8a7a2577944479827524e0d86796",
      "transactionIndex": "0x44",
      "blockHash": "0x38fa1ea8f73858102043d4327f421e56c47d718dc8d6e10a5c19001453551f84",
      "blockNumber": "0x418eb63",
      "gasUsed": "0x34f67",
      "effectiveGasPrice": "0xbbd434f0d",
      "from": "0x71f74debb7fd42e61de32256537284e06de8812d",
      "to": "0x1cdf6aabdcd19d2ed3ac927bb7b9835ac6942590",
      "contractAddress": null
    }
  ],
  "libraries": [],
  "pending": [],
  "returns": {},
  "timestamp": 1741319686,
  "chain": 137,
  "commit": "5016532"
}