{
  "transactions": [
    {
      "hash": "0xb92fecb7f5b8676ef64f7d35f2d1ee9cf57977f7b9136c878ac420b055e988b6",
      "transactionType": "CALL",
      "contractName": null,
      "contractAddress": "0x1cdf6aabdcd19d2ed3ac927bb7b9835ac6942590",
      "function": "iteratePairList(uint256,uint256,uint256,uint256,uint256,bool)",
      "arguments": [
        "0",
        "3",
        "60",
        "5",
        "1000",
        "false"
      ],
      "transaction": {
        "from": "0x71f74debb7fd42e61de32256537284e06de8812d",
        "to": "0x1cdf6aabdcd19d2ed3ac927bb7b9835ac6942590",
        "gas": "0x60e7b",
        "value": "0x0",
        "input": "0x8101424d00000000000000000000000000000000000000000000000000000000000000000000000000000000000000000000000000000000000000000000000000000003000000000000000000000000000000000000000000000000000000000000003c000000000000000000000000000000000000000000000000000000000000000500000000000000000000000000000000000000000000000000000000000003e80000000000000000000000000000000000000000000000000000000000000000",
        "nonce": "0x2a7",
        "chainId": "0x89"
      },
      "additionalContracts": [],
      "isFixedGasLimit": false
    }
  ],
  "receipts": [
    {
      "status": "0x1",
      "cumulativeGasUsed": "0x1065a0b",
      "logs": [
        {
          "address": "0x0000000000000000000000000000000000001010",
          "topics": [
            "0x4dfe1bbbcf077ddc3e01291eea2d5c70c2b422b415d95645b9adcfd678cb1d63",
            "0x0000000000000000000000000000000000000000000000000000000000001010",
            "0x00000000000000000000000071f74debb7fd42e61de32256537284e06de8812d",
            "0x000000000000000000000000eedba2484aaf940f37cd3cd21a5d7c4a7dafbfc0"
          ],
          "data": "0x000000000000000000000000000000000000000000000000001de9c8feab9e0000000000000000000000000000000000000000000000000008a2d4e0b41bb18400000000000000000000000000000000000000000001e45a6000dbebd6b19d340000000000000000000000000000000000000000000000000884eb17b570138400000000000000000000000000000000000000000001e45a601ec5b4d55d3b34",
          "blockHash": "0xf29c890e5526a5f703105ac49c5467b01774b0f66cbbcec6c78fa02ab7f1779c",
          "blockNumber": "0x4193319",
          "transactionHash": "0xb92fecb7f5b8676ef64f7d35f2d1ee9cf57977f7b9136c878ac420b055e988b6",
          "transactionIndex": "0x5e",
          "logIndex": "0x194",
          "removed": false
        }
      ],
      "logsBloom": "0x00000000000000000000000000000000000000000000000000000000000000000000000000000000000000000000000000008000000000000000000000000000000000000000000000000000000000800000000000000000000100000000000000000000000000000000000000000000000000000100000080000000000000000000004000000000000000000000000000000000000000000000000000080000200000000000000000000000000000000000000000000000000020000000004000000000000000000001000000000000000000000000000000100008000000000000000000000000000000000400000000000000000000000000000000100000",
      "type": "0x2",
      "transactionHash": "0xb92fecb7f5b8676ef64f7d35f2d1ee9cf57977f7b9136c878ac420b055e988b6",
      "transactionIndex": "0x5e",
      "blockHash": "0xf29c890e5526a5f703105ac49c5467b01774b0f66cbbcec6c78fa02ab7f1779c",
      "blockNumber": "0x4193319",
      "gasUsed": "0x46286",
      "effectiveGasPrice": "0x341f5ef046",
      "from": "0x71f74debb7fd42e61de32256537284e06de8812d",
      "to": "0x1cdf6aabdcd19d2ed3ac927bb7b9835ac6942590",
      "contractAddress": null
    }
  ],
  "libraries": [],
  "pending": [],
  "returns": {},
  "timestamp": 1741358704,
  "chain": 137,
  "commit": "93981f5"
}