{
  "transactions": [
    {
      "hash": "0x96f4b63febac154fa6d245d541479b381f36b1d22e103740910843c3e0055762",
      "transactionType": "CALL",
      "contractName": null,
      "contractAddress": "0x1cdf6aabdcd19d2ed3ac927bb7b9835ac6942590",
      "function": "iteratePairList(uint256,uint256,uint256,uint256,uint256,bool)",
      "arguments": [
        "0",
        "4",
        "50",
        "50",
        "1000",
        "false"
      ],
      "transaction": {
        "from": "0x71f74debb7fd42e61de32256537284e06de8812d",
        "to": "0x1cdf6aabdcd19d2ed3ac927bb7b9835ac6942590",
        "gas": "0x4ff93",
        "value": "0x0",
        "input": "0x8101424d000000000000000000000000000000000000000000000000000000000000000000000000000000000000000000000000000000000000000000000000000000040000000000000000000000000000000000000000000000000000000000000032000000000000000000000000000000000000000000000000000000000000003200000000000000000000000000000000000000000000000000000000000003e80000000000000000000000000000000000000000000000000000000000000000",
        "nonce": "0x285",
        "chainId": "0x89"
      },
      "additionalContracts": [],
      "isFixedGasLimit": false
    }
  ],
  "receipts": [
    {
      "status": "0x1",
      "cumulativeGasUsed": "0x17c7b18",
      "logs": [
        {
          "address": "0x0000000000000000000000000000000000001010",
          "topics": [
            "0x4dfe1bbbcf077ddc3e01291eea2d5c70c2b422b415d95645b9adcfd678cb1d63",
            "0x0000000000000000000000000000000000000000000000000000000000001010",
            "0x00000000000000000000000071f74debb7fd42e61de32256537284e06de8812d",
            "0x0000000000000000000000009ead03f7136fc6b4bdb0780b00a1c14ae5a8b6d0"
          ],
          "data": "0x0000000000000000000000000000000000000000000000000018a403938fc3e000000000000000000000000000000000000000000000000024bdd3aec85f3fc600000000000000000000000000000000000000000000084e3fdf4362eedc562000000000000000000000000000000000000000000000000024a52fab34cf7be600000000000000000000000000000000000000000000084e3ff7e766826c1a00",
          "blockHash": "0x3c8ecabaa502503abbd956fdaa9a52db27c152bb3c07ffe6528dccf611609976",
          "blockNumber": "0x418ecb4",
          "transactionHash": "0x96f4b63febac154fa6d245d541479b381f36b1d22e103740910843c3e0055762",
          "transactionIndex": "0x3a",
          "logIndex": "0x392",
          "removed": false
        }
      ],
      "logsBloom": "0x00000000000000000000000000000000000000000000000000000000000000000000000000000000000000000000000000008000000000000000000000000000000000000000000000000000000000800000000000000000000100000000000000000000000000000000000000000000000000000000000080000000000000000040000000040000000000000000000000000000000000000000000000080000200000000000000000000000000000000000000000000000000000000000004000000000000000000001000000000000000000000000000000120008000000000000000000000000000000000400000000000000000000000000000000100000",
      "type": "0x2",
      "transactionHash": "0x96f4b63febac154fa6d245d541479b381f36b1d22e103740910843c3e0055762",
      "transactionIndex": "0x3a",
      "blockHash": "0x3c8ecabaa502503abbd956fdaa9a52db27c152bb3c07ffe6528dccf611609976",
      "blockNumber": "0x418ecb4",
      "gasUsed": "0x39e64",
      "effectiveGasPrice": "0xc570d1089",
      "from": "0x71f74debb7fd42e61de32256537284e06de8812d",
      "to": "0x1cdf6aabdcd19d2ed3ac927bb7b9835ac6942590",
      "contractAddress": null
    }
  ],
  "libraries": [],
  "pending": [],
  "returns": {},
  "timestamp": 1741320402,
  "chain": 137,
  "commit": "5016532"
}