{
  "transactions": [
    {
      "hash": "0x422f8b8bd89468f574e25ef00506e609062729fec5e95f31b23eedb0b1cd64f0",
      "transactionType": "CALL",
      "contractName": null,
      "contractAddress": "0x1cdf6aabdcd19d2ed3ac927bb7b9835ac6942590",
      "function": "iteratePairList(uint256,uint256,uint256,uint256,uint256,bool)",
      "arguments": [
        "0",
        "3",
        "50",
        "50",
        "0",
        "false"
      ],
      "transaction": {
        "from": "0x71f74debb7fd42e61de32256537284e06de8812d",
        "to": "0x1cdf6aabdcd19d2ed3ac927bb7b9835ac6942590",
        "gas": "0x49278",
        "value": "0x0",
        "input": "0x8101424d000000000000000000000000000000000000000000000000000000000000000000000000000000000000000000000000000000000000000000000000000000030000000000000000000000000000000000000000000000000000000000000032000000000000000000000000000000000000000000000000000000000000003200000000000000000000000000000000000000000000000000000000000000000000000000000000000000000000000000000000000000000000000000000000",
        "nonce": "0x281",
        "chainId": "0x89"
      },
      "additionalContracts": [],
      "isFixedGasLimit": false
    }
  ],
  "receipts": [
    {
      "status": "0x1",
      "cumulativeGasUsed": "0x975655",
      "logs": [
        {
          "address": "0x0000000000000000000000000000000000001010",
          "topics": [
            "0x4dfe1bbbcf077ddc3e01291eea2d5c70c2b422b415d95645b9adcfd678cb1d63",
            "0x0000000000000000000000000000000000000000000000000000000000001010",
            "0x00000000000000000000000071f74debb7fd42e61de32256537284e06de8812d",
            "0x000000000000000000000000ef46d5fe753c988606e6f703260d816af53b03eb"
          ],
          "data": "0x0000000000000000000000000000000000000000000000000016c94be9108b36000000000000000000000000000000000000000000000000255c23c1e67b2d9900000000000000000000000000000000000000000000000f28ad79adae334ee300000000000000000000000000000000000000000000000025455a75fd6aa26300000000000000000000000000000000000000000000000f28c442f99743da19",
          "blockHash": "0x62308a7e5de34266047ff5c3fe2c3d0bd1a84a26b9ae6976a699b518ff605deb",
          "blockNumber": "0x418ec56",
          "transactionHash": "0x422f8b8bd89468f574e25ef00506e609062729fec5e95f31b23eedb0b1cd64f0",
          "transactionIndex": "0x34",
          "logIndex": "0xeb",
          "removed": false
        }
      ],
      "logsBloom": "0x00000000000000000000000000000000000000000000000000000000040000000000000000000000000000000000000000008000000000000000000000000000000000000000000000000000000000800000000000000000000100000000000000000000000000000000000000000000000000000000000080000000000000000000000000000000000000000000000000000000000000000000000000080000200000000000000000000000000000000000000000000000000000200000004000000000000000000001000000000000000000000000000000100008000000000000000000000000000000000400000002000000000000000000000000100000",
      "type": "0x2",
      "transactionHash": "0x422f8b8bd89468f574e25ef00506e609062729fec5e95f31b23eedb0b1cd64f0",
      "transactionIndex": "0x34",
      "blockHash": "0x62308a7e5de34266047ff5c3fe2c3d0bd1a84a26b9ae6976a699b518ff605deb",
      "blockNumber": "0x418ec56",
      "gasUsed": "0x34f67",
      "effectiveGasPrice": "0xc187a1f75",
      "from": "0x71f74debb7fd42e61de32256537284e06de8812d",
      "to": "0x1cdf6aabdcd19d2ed3ac927bb7b9835ac6942590",
      "contractAddress": null
    }
  ],
  "libraries": [],
  "pending": [],
  "returns": {},
  "timestamp": 1741320203,
  "chain": 137,
  "commit": "5016532"
}