{
  "transactions": [
    {
      "hash": "0x7aad1a440fb4a6f3721a2f5c0f6ea7eebe5d5a10c2afbb017858c8dbba80aefe",
      "transactionType": "CALL",
      "contractName": null,
      "contractAddress": "0x1cdf6aabdcd19d2ed3ac927bb7b9835ac6942590",
      "function": "iteratePairList(uint256,uint256,uint256,uint256,uint256,bool)",
      "arguments": [
        "0",
        "3",
        "60",
        "10",
        "1000",
        "false"
      ],
      "transaction": {
        "from": "0x71f74debb7fd42e61de32256537284e06de8812d",
        "to": "0x1cdf6aabdcd19d2ed3ac927bb7b9835ac6942590",
        "gas": "0x95f27",
        "value": "0x0",
        "input": "0x8101424d00000000000000000000000000000000000000000000000000000000000000000000000000000000000000000000000000000000000000000000000000000003000000000000000000000000000000000000000000000000000000000000003c000000000000000000000000000000000000000000000000000000000000000a00000000000000000000000000000000000000000000000000000000000003e80000000000000000000000000000000000000000000000000000000000000000",
        "nonce": "0x2a1",
        "chainId": "0x89"
      },
      "additionalContracts": [],
      "isFixedGasLimit": false
    }
  ],
  "receipts": [
    {
      "status": "0x1",
      "cumulativeGasUsed": "0x8a02f9",
      "logs": [
        {
          "address": "0x1cdf6aabdcd19d2ed3ac927bb7b9835ac6942590",
          "topics": [
            "0x05ae39bd3637f496d15f3461b4f129f5220ecb5dd2c8b18471081ae0b514d6f4",
            "0x000000000000000000000000c2132d05d31c914a87c6611c10748aeb04b58e8f",
            "0x0000000000000000000000007ceb23fd6bc0add59e62ac25578270cff1b9f619"
          ],
          "data": "0x000000000000000000000000a5e0829caced8ffdd4de3c43696c57f7d7a678ff000000000000000000000000edf6066a2b290c185783862c7f4776a2c8077ad1000000000000000000000000000000000000000000000000000000000000003c000000000000000000000000000000000000000000000000000000065b1ca23c00000000000000000000000000000000000000000000000000000006526c91170000000000000000000000000000000000000000000000000000000008add7c9",
          "blockHash": "0x65645e5cd8b8f447efa0d22b683c1c9989f405c1966912e4e4a48644618ce14c",
          "blockNumber": "0x4192f64",
          "transactionHash": "0x7aad1a440fb4a6f3721a2f5c0f6ea7eebe5d5a10c2afbb017858c8dbba80aefe",
          "transactionIndex": "0x38",
          "logIndex": "0x5b9",
          "removed": false
        },
        {
          "address": "0xc2132d05d31c914a87c6611c10748aeb04b58e8f",
          "topics": [
            "0x8c5be1e5ebec7d5bd14f71427d1e84f3dd0314c0f7b2291e5b200ac8c7c3b925",
            "0x0000000000000000000000001cdf6aabdcd19d2ed3ac927bb7b9835ac6942590",
            "0x000000000000000000000000edf6066a2b290c185783862c7f4776a2c8077ad1"
          ],
          "data": "0x000000000000000000000000000000000000000000000000000000000000003c",
          "blockHash": "0x65645e5cd8b8f447efa0d22b683c1c9989f405c1966912e4e4a48644618ce14c",
          "blockNumber": "0x4192f64",
          "transactionHash": "0x7aad1a440fb4a6f3721a2f5c0f6ea7eebe5d5a10c2afbb017858c8dbba80aefe",
          "transactionIndex": "0x38",
          "logIndex": "0x5ba",
          "removed": false
        },
        {
          "address": "0xc2132d05d31c914a87c6611c10748aeb04b58e8f",
          "topics": [
            "0xddf252ad1be2c89b69c2b068fc378daa952ba7f163c4a11628f55a4df523b3ef",
            "0x0000000000000000000000001cdf6aabdcd19d2ed3ac927bb7b9835ac6942590",
            "0x00000000000000000000000092a0e9a04cf2d519c7fba179da43a08f5a1aea7e"
          ],
          "data": "0x000000000000000000000000000000000000000000000000000000000000003c",
          "blockHash": "0x65645e5cd8b8f447efa0d22b683c1c9989f405c1966912e4e4a48644618ce14c",
          "blockNumber": "0x4192f64",
          "transactionHash": "0x7aad1a440fb4a6f3721a2f5c0f6ea7eebe5d5a10c2afbb017858c8dbba80aefe",
          "transactionIndex": "0x38",
          "logIndex": "0x5bb",
          "removed": false
        },
        {
          "address": "0xc2132d05d31c914a87c6611c10748aeb04b58e8f",
          "topics": [
            "0x8c5be1e5ebec7d5bd14f71427d1e84f3dd0314c0f7b2291e5b200ac8c7c3b925",
            "0x0000000000000000000000001cdf6aabdcd19d2ed3ac927bb7b9835ac6942590",
            "0x000000000000000000000000edf6066a2b290c185783862c7f4776a2c8077ad1"
          ],
          "data": "0x0000000000000000000000000000000000000000000000000000000000000000",
          "blockHash": "0x65645e5cd8b8f447efa0d22b683c1c9989f405c1966912e4e4a48644618ce14c",
          "blockNumber": "0x4192f64",
          "transactionHash": "0x7aad1a440fb4a6f3721a2f5c0f6ea7eebe5d5a10c2afbb017858c8dbba80aefe",
          "transactionIndex": "0x38",
          "logIndex": "0x5bc",
          "removed": false
        },
        {
          "address": "0x7ceb23fd6bc0add59e62ac25578270cff1b9f619",
          "topics": [
            "0xddf252ad1be2c89b69c2b068fc378daa952ba7f163c4a11628f55a4df523b3ef",
            "0x00000000000000000000000092a0e9a04cf2d519c7fba179da43a08f5a1aea7e",
            "0x0000000000000000000000001cdf6aabdcd19d2ed3ac927bb7b9835ac6942590"
          ],
          "data": "0x00000000000000000000000000000000000000000000000000000006526c9117",
          "blockHash": "0x65645e5cd8b8f447efa0d22b683c1c9989f405c1966912e4e4a48644618ce14c",
          "blockNumber": "0x4192f64",
          "transactionHash": "0x7aad1a440fb4a6f3721a2f5c0f6ea7eebe5d5a10c2afbb017858c8dbba80aefe",
          "transactionIndex": "0x38",
          "logIndex": "0x5bd",
          "removed": false
        },
        {
          "address": "0x92a0e9a04cf2d519c7fba179da43a08f5a1aea7e",
          "topics": [
            "0x1c411e9a96e071241c2f21f7726b17ae89e3cab4c78be50e062b03a9fffbbad1"
          ],
          "data": "0x000000000000000000000000000000000000000000000000029eb8c488ab3c830000000000000000000000000000000000000000000000000000000018ca8842",
          "blockHash": "0x65645e5cd8b8f447efa0d22b683c1c9989f405c1966912e4e4a48644618ce14c",
          "blockNumber": "0x4192f64",
          "transactionHash": "0x7aad1a440fb4a6f3721a2f5c0f6ea7eebe5d5a10c2afbb017858c8dbba80aefe",
          "transactionIndex": "0x38",
          "logIndex": "0x5be",
          "removed": false
        },
        {
          "address": "0x92a0e9a04cf2d519c7fba179da43a08f5a1aea7e",
          "topics": [
            "0xd78ad95fa46c994b6551d0da85fc275fe613ce37657fb8d5e3d130840159d822",
            "0x000000000000000000000000edf6066a2b290c185783862c7f4776a2c8077ad1",
            "0x0000000000000000000000001cdf6aabdcd19d2ed3ac927bb7b9835ac6942590"
          ],
          "data": "0x0000000000000000000000000000000000000000000000000000000000000000000000000000000000000000000000000000000000000000000000000000003c00000000000000000000000000000000000000000000000000000006526c91170000000000000000000000000000000000000000000000000000000000000000",
          "blockHash": "0x65645e5cd8b8f447efa0d22b683c1c9989f405c1966912e4e4a48644618ce14c",
          "blockNumber": "0x4192f64",
          "transactionHash": "0x7aad1a440fb4a6f3721a2f5c0f6ea7eebe5d5a10c2afbb017858c8dbba80aefe",
          "transactionIndex": "0x38",
          "logIndex": "0x5bf",
          "removed": false
        },
        {
          "address": "0x7ceb23fd6bc0add59e62ac25578270cff1b9f619",
          "topics": [
            "0x8c5be1e5ebec7d5bd14f71427d1e84f3dd0314c0f7b2291e5b200ac8c7c3b925",
            "0x0000000000000000000000001cdf6aabdcd19d2ed3ac927bb7b9835ac6942590",
            "0x000000000000000000000000a5e0829caced8ffdd4de3c43696c57f7d7a678ff"
          ],
          "data": "0x00000000000000000000000000000000000000000000000000000006526c9117",
          "blockHash": "0x65645e5cd8b8f447efa0d22b683c1c9989f405c1966912e4e4a48644618ce14c",
          "blockNumber": "0x4192f64",
          "transactionHash": "0x7aad1a440fb4a6f3721a2f5c0f6ea7eebe5d5a10c2afbb017858c8dbba80aefe",
          "transactionIndex": "0x38",
          "logIndex": "0x5c0",
          "removed": false
        },
        {
          "address": "0x7ceb23fd6bc0add59e62ac25578270cff1b9f619",
          "topics": [
            "0xddf252ad1be2c89b69c2b068fc378daa952ba7f163c4a11628f55a4df523b3ef",
            "0x0000000000000000000000001cdf6aabdcd19d2ed3ac927bb7b9835ac6942590",
            "0x000000000000000000000000f6422b997c7f54d1c6a6e103bcb1499eea0a7046"
          ],
          "data": "0x00000000000000000000000000000000000000000000000000000006526c9117",
          "blockHash": "0x65645e5cd8b8f447efa0d22b683c1c9989f405c1966912e4e4a48644618ce14c",
          "blockNumber": "0x4192f64",
          "transactionHash": "0x7aad1a440fb4a6f3721a2f5c0f6ea7eebe5d5a10c2afbb017858c8dbba80aefe",
          "transactionIndex": "0x38",
          "logIndex": "0x5c1",
          "removed": false
        },
        {
          "address": "0x7ceb23fd6bc0add59e62ac25578270cff1b9f619",
          "topics": [
            "0x8c5be1e5ebec7d5bd14f71427d1e84f3dd0314c0f7b2291e5b200ac8c7c3b925",
            "0x0000000000000000000000001cdf6aabdcd19d2ed3ac927bb7b9835ac6942590",
            "0x000000000000000000000000a5e0829caced8ffdd4de3c43696c57f7d7a678ff"
          ],
          "data": "0x0000000000000000000000000000000000000000000000000000000000000000",
          "blockHash": "0x65645e5cd8b8f447efa0d22b683c1c9989f405c1966912e4e4a48644618ce14c",
          "blockNumber": "0x4192f64",
          "transactionHash": "0x7aad1a440fb4a6f3721a2f5c0f6ea7eebe5d5a10c2afbb017858c8dbba80aefe",
          "transactionIndex": "0x38",
          "logIndex": "0x5c2",
          "removed": false
        },
        {
          "address": "0xc2132d05d31c914a87c6611c10748aeb04b58e8f",
          "topics": [
            "0xddf252ad1be2c89b69c2b068fc378daa952ba7f163c4a11628f55a4df523b3ef",
            "0x000000000000000000000000f6422b997c7f54d1c6a6e103bcb1499eea0a7046",
            "0x0000000000000000000000001cdf6aabdcd19d2ed3ac927bb7b9835ac6942590"
          ],
          "data": "0x000000000000000000000000000000000000000000000000000000000000003b",
          "blockHash": "0x65645e5cd8b8f447efa0d22b683c1c9989f405c1966912e4e4a48644618ce14c",
          "blockNumber": "0x4192f64",
          "transactionHash": "0x7aad1a440fb4a6f3721a2f5c0f6ea7eebe5d5a10c2afbb017858c8dbba80aefe",
          "transactionIndex": "0x38",
          "logIndex": "0x5c3",
          "removed": false
        },
        {
          "address": "0xf6422b997c7f54d1c6a6e103bcb1499eea0a7046",
          "topics": [
            "0x1c411e9a96e071241c2f21f7726b17ae89e3cab4c78be50e062b03a9fffbbad1"
          ],
          "data": "0x000000000000000000000000000000000000000000000001b11e273513e17fd40000000000000000000000000000000000000000000000000000000fec620d02",
          "blockHash": "0x65645e5cd8b8f447efa0d22b683c1c9989f405c1966912e4e4a48644618ce14c",
          "blockNumber": "0x4192f64",
          "transactionHash": "0x7aad1a440fb4a6f3721a2f5c0f6ea7eebe5d5a10c2afbb017858c8dbba80aefe",
          "transactionIndex": "0x38",
          "logIndex": "0x5c4",
          "removed": false
        },
        {
          "address": "0xf6422b997c7f54d1c6a6e103bcb1499eea0a7046",
          "topics": [
            "0xd78ad95fa46c994b6551d0da85fc275fe613ce37657fb8d5e3d130840159d822",
            "0x000000000000000000000000a5e0829caced8ffdd4de3c43696c57f7d7a678ff",
            "0x0000000000000000000000001cdf6aabdcd19d2ed3ac927bb7b9835ac6942590"
          ],
          "data": "0x00000000000000000000000000000000000000000000000000000006526c911700000000000000000000000000000000000000000000000000000000000000000000000000000000000000000000000000000000000000000000000000000000000000000000000000000000000000000000000000000000000000000000003b",
          "blockHash": "0x65645e5cd8b8f447efa0d22b683c1c9989f405c1966912e4e4a48644618ce14c",
          "blockNumber": "0x4192f64",
          "transactionHash": "0x7aad1a440fb4a6f3721a2f5c0f6ea7eebe5d5a10c2afbb017858c8dbba80aefe",
          "transactionIndex": "0x38",
          "logIndex": "0x5c5",
          "removed": false
        },
        {
          "address": "0x0000000000000000000000000000000000001010",
          "topics": [
            "0x4dfe1bbbcf077ddc3e01291eea2d5c70c2b422b415d95645b9adcfd678cb1d63",
            "0x0000000000000000000000000000000000000000000000000000000000001010",
            "0x00000000000000000000000071f74debb7fd42e61de32256537284e06de8812d",
            "0x00000000000000000000000067b94473d81d0cd00849d563c94d0432ac988b49"
          ],
          "data": "0x000000000000000000000000000000000000000000000000002cc267c9e644000000000000000000000000000000000000000000000000000e019e7b81e03948000000000000000000000000000000000000000000000a2842ba8c496073dcbf0000000000000000000000000000000000000000000000000dd4dc13b7f9f548000000000000000000000000000000000000000000000a2842e74eb12a5a20bf",
          "blockHash": "0x65645e5cd8b8f447efa0d22b683c1c9989f405c1966912e4e4a48644618ce14c",
          "blockNumber": "0x4192f64",
          "transactionHash": "0x7aad1a440fb4a6f3721a2f5c0f6ea7eebe5d5a10c2afbb017858c8dbba80aefe",
          "transactionIndex": "0x38",
          "logIndex": "0x5c6",
          "removed": false
        }
      ],
      "logsBloom": "0x00200000000000000000000080000000000000000000000000000000000000000000000000000000000000002000040100028000000000000000000000200000000000000000000000002008000000a00000000000000000000100400000000010000000020080001800000000000000008004000000000088000010080000800000010000080000100000080000000000030000000000080000004000080801624000000020000000000000080000000000000000000010000000000000004000800002000000000001020008008010400000000000001000180008000000000010020000000000000080000400000080000000000000400000000400100000",
      "type": "0x2",
      "transactionHash": "0x7aad1a440fb4a6f3721a2f5c0f6ea7eebe5d5a10c2afbb017858c8dbba80aefe",
      "transactionIndex": "0x38",
      "blockHash": "0x65645e5cd8b8f447efa0d22b683c1c9989f405c1966912e4e4a48644618ce14c",
      "blockNumber": "0x4192f64",
      "gasUsed": "0x66873",
      "effectiveGasPrice": "0x184c20362a",
      "from": "0x71f74debb7fd42e61de32256537284e06de8812d",
      "to": "0x1cdf6aabdcd19d2ed3ac927bb7b9835ac6942590",
      "contractAddress": null
    }
  ],
  "libraries": [],
  "pending": [],
  "returns": {},
  "timestamp": 1741356687,
  "chain": 137,
  "commit": "c00d083"
}