{
  "transactions": [
    {
      "hash": "0xe9130932727fe54474fe8526d278877a9ec1f00b5b12b391bbf3ec80d25992e2",
      "transactionType": "CALL",
      "contractName": null,
      "contractAddress": "0x1cdf6aabdcd19d2ed3ac927bb7b9835ac6942590",
      "function": "iteratePairList(uint256,uint256,uint256,uint256,uint256,bool)",
      "arguments": [
        "0",
        "3",
        "50",
        "50",
        "1000",
        "false"
      ],
      "transaction": {
        "from": "0x71f74debb7fd42e61de32256537284e06de8812d",
        "to": "0x1cdf6aabdcd19d2ed3ac927bb7b9835ac6942590",
        "gas": "0x492a5",
        "value": "0x0",
        "input": "0x8101424d000000000000000000000000000000000000000000000000000000000000000000000000000000000000000000000000000000000000000000000000000000030000000000000000000000000000000000000000000000000000000000000032000000000000000000000000000000000000000000000000000000000000003200000000000000000000000000000000000000000000000000000000000003e80000000000000000000000000000000000000000000000000000000000000000",
        "nonce": "0x284",
        "chainId": "0x89"
      },
      "additionalContracts": [],
      "isFixedGasLimit": false
    }
  ],
  "receipts": [
    {
      "status": "0x1",
      "cumulativeGasUsed": "0xa1f708",
      "logs": [
        {
          "address": "0x0000000000000000000000000000000000001010",
          "topics": [
            "0x4dfe1bbbcf077ddc3e01291eea2d5c70c2b422b415d95645b9adcfd678cb1d63",
            "0x0000000000000000000000000000000000000000000000000000000000001010",
            "0x00000000000000000000000071f74debb7fd42e61de32256537284e06de8812d",
            "0x000000000000000000000000ec20607aa654d823dd01beb8780a44863c57ed07"
          ],
          "data": "0x00000000000000000000000000000000000000000000000000168d3083eb749700000000000000000000000000000000000000000000000024e615e85d004bf1000000000000000000000000000000000000000000000098b655f448a48441a100000000000000000000000000000000000000000000000024cf88b7d914d75a000000000000000000000000000000000000000000000098b66c8179286fb638",
          "blockHash": "0x3513a2ef805c89da4e1b70f637fcfe246945d21d0fc1b484a61fd0988f847abb",
          "blockNumber": "0x418ec97",
          "transactionHash": "0xe9130932727fe54474fe8526d278877a9ec1f00b5b12b391bbf3ec80d25992e2",
          "transactionIndex": "0x57",
          "logIndex": "0x15c",
          "removed": false
        }
      ],
      "logsBloom": "0x00000000000000000000000400000000000000000000000000000000000000000000000000000000000000000000000000008000000000000000000000000000000000000000000000000000000000800000000000000000000100000000000000000000000000000002000000000000000000000000000080000000000000000000000000000000000000000000000000000000000000000000000000080000200000000000000000000000000000000000000000000000000000000000004000000000000000000001000000000000000000000000000000100008000000000000000002000000000000000400000000000000000000000000000000100000",
      "type": "0x2",
      "transactionHash": "0xe9130932727fe54474fe8526d278877a9ec1f00b5b12b391bbf3ec80d25992e2",
      "transactionIndex": "0x57",
      "blockHash": "0x3513a2ef805c89da4e1b70f637fcfe246945d21d0fc1b484a61fd0988f847abb",
      "blockNumber": "0x418ec97",
      "gasUsed": "0x34f87",
      "effectiveGasPrice": "0xc290c5f3d",
      "from": "0x71f74debb7fd42e61de32256537284e06de8812d",
      "to": "0x1cdf6aabdcd19d2ed3ac927bb7b9835ac6942590",
      "contractAddress": null
    }
  ],
  "libraries": [],
  "pending": [],
  "returns": {},
  "timestamp": 1741320340,
  "chain": 137,
  "commit": "5016532"
}