{
  "transactions": [
    {
      "hash": "0xe528d7549488cdb453443e486a8ca86e222f84a39c97c5f2cae0b41d1c0f0625",
      "transactionType": "CALL",
      "contractName": null,
      "contractAddress": "0x1cdf6aabdcd19d2ed3ac927bb7b9835ac6942590",
      "function": "iteratePairList(uint256,uint256,uint256,uint256,uint256,bool)",
      "arguments": [
        "0",
        "3",
        "60",
        "5",
        "1000",
        "false"
      ],
      "transaction": {
        "from": "0x71f74debb7fd42e61de32256537284e06de8812d",
        "to": "0x1cdf6aabdcd19d2ed3ac927bb7b9835ac6942590",
        "gas": "0x60db3",
        "value": "0x0",
        "input": "0x8101424d00000000000000000000000000000000000000000000000000000000000000000000000000000000000000000000000000000000000000000000000000000003000000000000000000000000000000000000000000000000000000000000003c000000000000000000000000000000000000000000000000000000000000000500000000000000000000000000000000000000000000000000000000000003e80000000000000000000000000000000000000000000000000000000000000000",
        "nonce": "0x2a5",
        "chainId": "0x89"
      },
      "additionalContracts": [],
      "isFixedGasLimit": false
    }
  ],
  "receipts": [
    {
      "status": "0x1",
      "cumulativeGasUsed": "0x7b51a0",
      "logs": [
        {
          "address": "0x0000000000000000000000000000000000001010",
          "topics": [
            "0x4dfe1bbbcf077ddc3e01291eea2d5c70c2b422b415d95645b9adcfd678cb1d63",
            "0x0000000000000000000000000000000000000000000000000000000000001010",
            "0x00000000000000000000000071f74debb7fd42e61de32256537284e06de8812d",
            "0x000000000000000000000000a8b52f02108aa5f4b675bdcc973760022d7c6020"
          ],
          "data": "0x000000000000000000000000000000000000000000000000001e9cc7824f9c00000000000000000000000000000000000000000000000000097e3fc4b04c7aaa00000000000000000000000000000000000000000000006bd6994210b6836c33000000000000000000000000000000000000000000000000095fa2fd2dfcdeaa00000000000000000000000000000000000000000000006bd6b7ded838d30833",
          "blockHash": "0xa8fd2a4e9a362bf8253bb78c5a386a00b0fa887b924b676bae7339cbd3a60e99",
          "blockNumber": "0x4193239",
          "transactionHash": "0xe528d7549488cdb453443e486a8ca86e222f84a39c97c5f2cae0b41d1c0f0625",
          "transactionIndex": "0x39",
          "logIndex": "0x113",
          "removed": false
        }
      ],
      "logsBloom": "0x00000000000000000000000000000000000000000000000000000000000000000000000000000000000000000002000000008000000000000000000000000000000000000000000000000000000000800000000000000000000100000000000000000000000000000000000000000000000000000000000080000000000000000000000000000000000000000000000000000000000000040000000000080000200000000000004000000000000000000000000000000000000000000000004000000000000000000001000000000000000000000000000000100008000000000000000000000000000000000400000000000000000000000000000000100000",
      "type": "0x2",
      "transactionHash": "0xe528d7549488cdb453443e486a8ca86e222f84a39c97c5f2cae0b41d1c0f0625",
      "transactionIndex": "0x39",
      "blockHash": "0xa8fd2a4e9a362bf8253bb78c5a386a00b0fa887b924b676bae7339cbd3a60e99",
      "blockNumber": "0x4193239",
      "gasUsed": "0x461f5",
      "effectiveGasPrice": "0x1975757dc4",
      "from": "0x71f74debb7fd42e61de32256537284e06de8812d",
      "to": "0x1cdf6aabdcd19d2ed3ac927bb7b9835ac6942590",
      "contractAddress": null
    }
  ],
  "libraries": [],
  "pending": [],
  "returns": {},
  "timestamp": 1741358228,
  "chain": 137,
  "commit": "c00d083"
}