{
  "transactions": [
    {
      "hash": "0xecc55def9a25776c23036f04e6636924c3da2178745a02103cefbf40604881d5",
      "transactionType": "CALL",
      "contractName": null,
      "contractAddress": "0x1cdf6aabdcd19d2ed3ac927bb7b9835ac6942590",
      "function": "iteratePairList(uint256,uint256,uint256,uint256,uint256,bool)",
      "arguments": [
        "0",
        "4",
        "50",
        "50",
        "1000",
        "false"
      ],
      "transaction": {
        "from": "0x71f74debb7fd42e61de32256537284e06de8812d",
        "to": "0x1cdf6aabdcd19d2ed3ac927bb7b9835ac6942590",
        "gas": "0x4fe97",
        "value": "0x0",
        "input": "0x8101424d000000000000000000000000000000000000000000000000000000000000000000000000000000000000000000000000000000000000000000000000000000040000000000000000000000000000000000000000000000000000000000000032000000000000000000000000000000000000000000000000000000000000003200000000000000000000000000000000000000000000000000000000000003e80000000000000000000000000000000000000000000000000000000000000000",
        "nonce": "0x289",
        "chainId": "0x89"
      },
      "additionalContracts": [],
      "isFixedGasLimit": false
    }
  ],
  "receipts": [
    {
      "status": "0x1",
      "cumulativeGasUsed": "0x7b547f",
      "logs": [
        {
          "address": "0x0000000000000000000000000000000000001010",
          "topics": [
            "0x4dfe1bbbcf077ddc3e01291eea2d5c70c2b422b415d95645b9adcfd678cb1d63",
            "0x0000000000000000000000000000000000000000000000000000000000001010",
            "0x00000000000000000000000071f74debb7fd42e61de32256537284e06de8812d",
            "0x000000000000000000000000eb4f2a75cac4bbcb4d71c252e4cc80eb80bb3a34"
          ],
          "data": "0x000000000000000000000000000000000000000000000000001939d29a75374c00000000000000000000000000000000000000000000000022c9a6b83f3ccc5600000000000000000000000000000000000000000000051b41cbb42df903fdc800000000000000000000000000000000000000000000000022b06ce5a4c7950a00000000000000000000000000000000000000000000051b41e4ee0093793514",
          "blockHash": "0x6961f92eca36707aacb2980e96dbfa55b9fabdade21ecf257b5926c4bf5f61a0",
          "blockNumber": "0x41927a9",
          "transactionHash": "0xecc55def9a25776c23036f04e6636924c3da2178745a02103cefbf40604881d5",
          "transactionIndex": "0x41",
          "logIndex": "0xe9",
          "removed": false
        }
      ],
      "logsBloom": "0x00000000000000000000000000000000000000000000000000000000000000000000000000000000000000000000000000008400000000000000000000000000000000000000000000000000000000800000000800000000000100000000000000000000000000000001000000000000000000000000000080000000000000000000000000000000000000000000000000000000000000000000000000080000200000000000000000000000000000000000000000000000000000000000004000000000000000000001000000000000000000000000000000100008000000000000000000000000000000000400000000000000000000000000000000100000",
      "type": "0x2",
      "transactionHash": "0xecc55def9a25776c23036f04e6636924c3da2178745a02103cefbf40604881d5",
      "transactionIndex": "0x41",
      "blockHash": "0x6961f92eca36707aacb2980e96dbfa55b9fabdade21ecf257b5926c4bf5f61a0",
      "blockNumber": "0x41927a9",
      "gasUsed": "0x39dae",
      "effectiveGasPrice": "0xcdc6ccf72",
      "from": "0x71f74debb7fd42e61de32256537284e06de8812d",
      "to": "0x1cdf6aabdcd19d2ed3ac927bb7b9835ac6942590",
      "contractAddress": null
    }
  ],
  "libraries": [],
  "pending": [],
  "returns": {},
  "timestamp": 1741352477,
  "chain": 137,
  "commit": "5016532"
}