{
  "transactions": [
    {
      "hash": "0x263aa73d111b40d9565b6bf1a27eb7600dd060646e4e1a14acfbab2641800e5f",
      "transactionType": "CALL",
      "contractName": null,
      "contractAddress": "0x1cdf6aabdcd19d2ed3ac927bb7b9835ac6942590",
      "function": "iteratePairList(uint256,uint256,uint256,uint256,uint256,bool)",
      "arguments": [
        "0",
        "4",
        "50",
        "50",
        "1000",
        "false"
      ],
      "transaction": {
        "from": "0x71f74debb7fd42e61de32256537284e06de8812d",
        "to": "0x1cdf6aabdcd19d2ed3ac927bb7b9835ac6942590",
        "gas": "0x4fe97",
        "value": "0x0",
        "input": "0x8101424d000000000000000000000000000000000000000000000000000000000000000000000000000000000000000000000000000000000000000000000000000000040000000000000000000000000000000000000000000000000000000000000032000000000000000000000000000000000000000000000000000000000000003200000000000000000000000000000000000000000000000000000000000003e80000000000000000000000000000000000000000000000000000000000000000",
        "nonce": "0x28b",
        "chainId": "0x89"
      },
      "additionalContracts": [],
      "isFixedGasLimit": false
    }
  ],
  "receipts": [
    {
      "status": "0x1",
      "cumulativeGasUsed": "0xef10fb",
      "logs": [
        {
          "address": "0x0000000000000000000000000000000000001010",
          "topics": [
            "0x4dfe1bbbcf077ddc3e01291eea2d5c70c2b422b415d95645b9adcfd678cb1d63",
            "0x0000000000000000000000000000000000000000000000000000000000001010",
            "0x00000000000000000000000071f74debb7fd42e61de32256537284e06de8812d",
            "0x0000000000000000000000000e94b9b3fabd95338b8b23c36caae1d640e1339f"
          ],
          "data": "0x0000000000000000000000000000000000000000000000000018a7f2877a72ce000000000000000000000000000000000000000000000000226e9d7233b71ec40000000000000000000000000000000000000000000011c44fa85489f769af650000000000000000000000000000000000000000000000002255f57fac3cabf60000000000000000000000000000000000000000000011c44fc0fc7c7ee42233",
          "blockHash": "0x8b1d5e8ea72eee96d94063e2695a20a40561c3100e1b33654eb60687bd308f5f",
          "blockNumber": "0x4192806",
          "transactionHash": "0x263aa73d111b40d9565b6bf1a27eb7600dd060646e4e1a14acfbab2641800e5f",
          "transactionIndex": "0x3e",
          "logIndex": "0x5a5",
          "removed": false
        }
      ],
      "logsBloom": "0x00000000008000000000000000000000000000000000000000000000000000000000000000000000000000000000000000008000000000000000000000000000000000000000000000000000000000800000000000000000000100000000000000000000000000000000000000000000000000000000000080000000000000000000000000000000000000000000000000000000000000000000000000080000200000000000000000000000000000000000000000000000000000000000004000000000000000000001000000000000000000000000040000100008000000000000000000000000000800000400000000000000000000000000000000100000",
      "type": "0x2",
      "transactionHash": "0x263aa73d111b40d9565b6bf1a27eb7600dd060646e4e1a14acfbab2641800e5f",
      "transactionIndex": "0x3e",
      "blockHash": "0x8b1d5e8ea72eee96d94063e2695a20a40561c3100e1b33654eb60687bd308f5f",
      "blockNumber": "0x4192806",
      "gasUsed": "0x39dae",
      "effectiveGasPrice": "0xe1aeb3c29",
      "from": "0x71f74debb7fd42e61de32256537284e06de8812d",
      "to": "0x1cdf6aabdcd19d2ed3ac927bb7b9835ac6942590",
      "contractAddress": null
    }
  ],
  "libraries": [],
  "pending": [],
  "returns": {},
  "timestamp": 1741352676,
  "chain": 137,
  "commit": "c00d083"
}