{
  "transactions": [
    {
      "hash": "0x0fb662d73de8b6f5fa474f0ec90c7b465aa8112d5035f3e971887eb8c7afdeab",
      "transactionType": "CALL",
      "contractName": null,
      "contractAddress": "0x1cdf6aabdcd19d2ed3ac927bb7b9835ac6942590",
      "function": "iteratePairList(uint256,uint256,uint256,uint256,uint256,bool)",
      "arguments": [
        "0",
        "3",
        "50",
        "50",
        "0",
        "false"
      ],
      "transaction": {
        "from": "0x71f74debb7fd42e61de32256537284e06de8812d",
        "to": "0x1cdf6aabdcd19d2ed3ac927bb7b9835ac6942590",
        "gas": "0x49278",
        "value": "0x0",
        "input": "0x8101424d000000000000000000000000000000000000000000000000000000000000000000000000000000000000000000000000000000000000000000000000000000030000000000000000000000000000000000000000000000000000000000000032000000000000000000000000000000000000000000000000000000000000003200000000000000000000000000000000000000000000000000000000000000000000000000000000000000000000000000000000000000000000000000000000",
        "nonce": "0x27f",
        "chainId": "0x89"
      },
      "additionalContracts": [],
      "isFixedGasLimit": false
    }
  ],
  "receipts": [
    {
      "status": "0x1",
      "cumulativeGasUsed": "0x6e8b55",
      "logs": [
        {
          "address": "0x0000000000000000000000000000000000001010",
          "topics": [
            "0x4dfe1bbbcf077ddc3e01291eea2d5c70c2b422b415d95645b9adcfd678cb1d63",
            "0x0000000000000000000000000000000000000000000000000000000000001010",
            "0x00000000000000000000000071f74debb7fd42e61de32256537284e06de8812d",
            "0x00000000000000000000000067b94473d81d0cd00849d563c94d0432ac988b49"
          ],
          "data": "0x00000000000000000000000000000000000000000000000000171f09786e340000000000000000000000000000000000000000000000000025ad54909755e98d0000000000000000000000000000000000000000000009d7324dc47829795bdd000000000000000000000000000000000000000000000000259635871ee7b58d0000000000000000000000000000000000000000000009d73264e381a1e78fdd",
          "blockHash": "0xf4152da0d043e8f7122985b67c6747a6dac74b8782a1ed9fb10840a367e7b1d4",
          "blockNumber": "0x418eb99",
          "transactionHash": "0x0fb662d73de8b6f5fa474f0ec90c7b465aa8112d5035f3e971887eb8c7afdeab",
          "transactionIndex": "0x2f",
          "logIndex": "0xe0",
          "removed": false
        }
      ],
      "logsBloom": "0x00000000000000000000000000000000000000000000000000000000000000000000000000000000000000000000000000008000000000000000000000000000000000000000000000000000000000800000000000000000000100000000000000000000000000000000000000000000000000000000000080000000000000000000000000000000000000000000000000000000000000000000000000080000200000000000000000000000000000000000000000000000000000000000004000800000000000000001000000008000000000000000000000100008000000000000020000000000000000000400000000000000000000000000000000100000",
      "type": "0x2",
      "transactionHash": "0x0fb662d73de8b6f5fa474f0ec90c7b465aa8112d5035f3e971887eb8c7afdeab",
      "transactionIndex": "0x2f",
      "blockHash": "0xf4152da0d043e8f7122985b67c6747a6dac74b8782a1ed9fb10840a367e7b1d4",
      "blockNumber": "0x418eb99",
      "gasUsed": "0x34f67",
      "effectiveGasPrice": "0xc1d48f95c",
      "from": "0x71f74debb7fd42e61de32256537284e06de8812d",
      "to": "0x1cdf6aabdcd19d2ed3ac927bb7b9835ac6942590",
      "contractAddress": null
    }
  ],
  "libraries": [],
  "pending": [],
  "returns": {},
  "timestamp": 1741319800,
  "chain": 137,
  "commit": "5016532"
}