{
  "transactions": [
    {
      "hash": "0x06d3372f22c826d3a88fef49144544f135b7cca230e3da4683e230dbc8973d5b",
      "transactionType": "CALL",
      "contractName": null,
      "contractAddress": "0x1cdf6aabdcd19d2ed3ac927bb7b9835ac6942590",
      "function": "iteratePairList(uint256,uint256,uint256,uint256,uint256,bool)",
      "arguments": [
        "0",
        "8",
        "60",
        "50",
        "1000",
        "false"
      ],
      "transaction": {
        "from": "0x71f74debb7fd42e61de32256537284e06de8812d",
        "to": "0x1cdf6aabdcd19d2ed3ac927bb7b9835ac6942590",
        "gas": "0x89aff",
        "value": "0x0",
        "input": "0x8101424d00000000000000000000000000000000000000000000000000000000000000000000000000000000000000000000000000000000000000000000000000000008000000000000000000000000000000000000000000000000000000000000003c000000000000000000000000000000000000000000000000000000000000003200000000000000000000000000000000000000000000000000000000000003e80000000000000000000000000000000000000000000000000000000000000000",
        "nonce": "0x296",
        "chainId": "0x89"
      },
      "additionalContracts": [],
      "isFixedGasLimit": false
    }
  ],
  "receipts": [
    {
      "status": "0x1",
      "cumulativeGasUsed": "0xa884c5",
      "logs": [
        {
          "address": "0x0000000000000000000000000000000000001010",
          "topics": [
            "0x4dfe1bbbcf077ddc3e01291eea2d5c70c2b422b415d95645b9adcfd678cb1d63",
            "0x0000000000000000000000000000000000000000000000000000000000001010",
            "0x00000000000000000000000071f74debb7fd42e61de32256537284e06de8812d",
            "0x00000000000000000000000067b94473d81d0cd00849d563c94d0432ac988b49"
          ],
          "data": "0x00000000000000000000000000000000000000000000000000292c05dcaf9b830000000000000000000000000000000000000000000000001c784e0e1d53a472000000000000000000000000000000000000000000000a1d0b22ab9428e0e3180000000000000000000000000000000000000000000000001c4f220840a408ef000000000000000000000000000000000000000000000a1d0b4bd79a05907e9b",
          "blockHash": "0x36a8256460c08be119d6d80012458cba465b519eb688165af97b2980bf3b95a6",
          "blockNumber": "0x41929c5",
          "transactionHash": "0x06d3372f22c826d3a88fef49144544f135b7cca230e3da4683e230dbc8973d5b",
          "transactionIndex": "0x43",
          "logIndex": "0x12d",
          "removed": false
        }
      ],
      "logsBloom": "0x00000000000000000000000000000000000000000000000000000000000000000000000000000000000000000000000000008000000000000000000000000000000000000000000000000000000000800000000000000000000100000000000000000000000000000000000000000000000000000000000080000000000000000000000000000000000000000000000000000000000000000000000000080000200000000000000000000000000000000000000000000000000000000000004000800000000000000001000000008000000000000000000000100008000000000000020000000000000000000400000000000000000000000000000000100000",
      "type": "0x2",
      "transactionHash": "0x06d3372f22c826d3a88fef49144544f135b7cca230e3da4683e230dbc8973d5b",
      "transactionIndex": "0x43",
      "blockHash": "0x36a8256460c08be119d6d80012458cba465b519eb688165af97b2980bf3b95a6",
      "blockNumber": "0x41929c5",
      "gasUsed": "0x63aef",
      "effectiveGasPrice": "0x139ea59529",
      "from": "0x71f74debb7fd42e61de32256537284e06de8812d",
      "to": "0x1cdf6aabdcd19d2ed3ac927bb7b9835ac6942590",
      "contractAddress": null
    }
  ],
  "libraries": [],
  "pending": [],
  "returns": {},
  "timestamp": 1741353625,
  "chain": 137,
  "commit": "c00d083"
}