{
  "transactions": [
    {
      "hash": "0x14bdd87b6cceda539a84ef6062e805caa609f10004bd104359c97cfa1b52a095",
      "transactionType": "CALL",
      "contractName": null,
      "contractAddress": "0x1cdf6aabdcd19d2ed3ac927bb7b9835ac6942590",
      "function": "iteratePairList(uint256,uint256,uint256,uint256,uint256,bool)",
      "arguments": [
        "0",
        "4",
        "50",
        "50",
        "1000",
        "false"
      ],
      "transaction": {
        "from": "0x71f74debb7fd42e61de32256537284e06de8812d",
        "to": "0x1cdf6aabdcd19d2ed3ac927bb7b9835ac6942590",
        "gas": "0x4ff93",
        "value": "0x0",
        "input": "0x8101424d000000000000000000000000000000000000000000000000000000000000000000000000000000000000000000000000000000000000000000000000000000040000000000000000000000000000000000000000000000000000000000000032000000000000000000000000000000000000000000000000000000000000003200000000000000000000000000000000000000000000000000000000000003e80000000000000000000000000000000000000000000000000000000000000000",
        "nonce": "0x286",
        "chainId": "0x89"
      },
      "additionalContracts": [],
      "isFixedGasLimit": false
    }
  ],
  "receipts": [
    {
      "status": "0x1",
      "cumulativeGasUsed": "0x8fc3fa",
      "logs": [
        {
          "address": "0x0000000000000000000000000000000000001010",
          "topics": [
            "0x4dfe1bbbcf077ddc3e01291eea2d5c70c2b422b415d95645b9adcfd678cb1d63",
            "0x0000000000000000000000000000000000000000000000000000000000001010",
            "0x00000000000000000000000071f74debb7fd42e61de32256537284e06de8812d",
            "0x00000000000000000000000002f70172f7f490653665c9bfac0666147c8af1f5"
          ],
          "data": "0x0000000000000000000000000000000000000000000000000017bb31ff96b77400000000000000000000000000000000000000000000000024912bfb85753c420000000000000000000000000000000000000000000000525b50a59fae5274ba000000000000000000000000000000000000000000000000247970c985de84ce0000000000000000000000000000000000000000000000525b6860d1ade92c2e",
          "blockHash": "0x47e05c5619f9c90590374cd4ee47b336645064fb8f14146bccc1a5305d7330e1",
          "blockNumber": "0x419277d",
          "transactionHash": "0x14bdd87b6cceda539a84ef6062e805caa609f10004bd104359c97cfa1b52a095",
          "transactionIndex": "0x47",
          "logIndex": "0x11f",
          "removed": false
        }
      ],
      "logsBloom": "0x00000000000000000000000000000000000000000000000000000000000000000000000000000000000000000000000000008000000000000000000000000000000000000002000000000000000000800000000000000000000110000000000000000000000000000000000000000000000000000000000080000000000000000000000000000000000000000000000000000000000000000000000000080000200000000000000000000000000000000000000000000000000000000000004000000000000000000001000000000000000000000000000000100008000000000000000000080000000000000400000000000000000000000000000000100000",
      "type": "0x2",
      "transactionHash": "0x14bdd87b6cceda539a84ef6062e805caa609f10004bd104359c97cfa1b52a095",
      "transactionIndex": "0x47",
      "blockHash": "0x47e05c5619f9c90590374cd4ee47b336645064fb8f14146bccc1a5305d7330e1",
      "blockNumber": "0x419277d",
      "gasUsed": "0x39e64",
      "effectiveGasPrice": "0xbea20f713",
      "from": "0x71f74debb7fd42e61de32256537284e06de8812d",
      "to": "0x1cdf6aabdcd19d2ed3ac927bb7b9835ac6942590",
      "contractAddress": null
    }
  ],
  "libraries": [],
  "pending": [],
  "returns": {},
  "timestamp": 1741352383,
  "chain": 137,
  "commit": "5016532"
}