{
  "transactions": [
    {
      "hash": "0xee5c89c6363b35cab80222ebf6a0006aacd33aead4eefd3ba28c123515336229",
      "transactionType": "CALL",
      "contractName": null,
      "contractAddress": "0x1cdf6aabdcd19d2ed3ac927bb7b9835ac6942590",
      "function": "iteratePairList(uint256,uint256,uint256,uint256,uint256,bool)",
      "arguments": [
        "0",
        "3",
        "50",
        "50",
        "0",
        "false"
      ],
      "transaction": {
        "from": "0x71f74debb7fd42e61de32256537284e06de8812d",
        "to": "0x1cdf6aabdcd19d2ed3ac927bb7b9835ac6942590",
        "gas": "0x49278",
        "value": "0x0",
        "input": "0x8101424d000000000000000000000000000000000000000000000000000000000000000000000000000000000000000000000000000000000000000000000000000000030000000000000000000000000000000000000000000000000000000000000032000000000000000000000000000000000000000000000000000000000000003200000000000000000000000000000000000000000000000000000000000000000000000000000000000000000000000000000000000000000000000000000000",
        "nonce": "0x283",
        "chainId": "0x89"
      },
      "additionalContracts": [],
      "isFixedGasLimit": false
    }
  ],
  "receipts": [
    {
      "status": "0x1",
      "cumulativeGasUsed": "0x740740",
      "logs": [
        {
          "address": "0x0000000000000000000000000000000000001010",
          "topics": [
            "0x4dfe1bbbcf077ddc3e01291eea2d5c70c2b422b415d95645b9adcfd678cb1d63",
            "0x0000000000000000000000000000000000000000000000000000000000001010",
            "0x00000000000000000000000071f74debb7fd42e61de32256537284e06de8812d",
            "0x00000000000000000000000083d69448f88bf9c701c1b93f43e1f753d39b2632"
          ],
          "data": "0x00000000000000000000000000000000000000000000000000155d6bf44ed12b000000000000000000000000000000000000000000000000250c5f188918fda1000000000000000000000000000000000000000000000b33976863f8f5db3f0f00000000000000000000000000000000000000000000000024f701ac94ca2c76000000000000000000000000000000000000000000000b33977dc164ea2a103a",
          "blockHash": "0x15281f04741c70efc08bfd001a7a504bab578d2e27f07be7ffeb4930df13bdff",
          "blockNumber": "0x418ec84",
          "transactionHash": "0xee5c89c6363b35cab80222ebf6a0006aacd33aead4eefd3ba28c123515336229",
          "transactionIndex": "0x2c",
          "logIndex": "0x11a",
          "removed": false
        }
      ],
      "logsBloom": "0x00000000000000000000000000000000000000000000000000000000000000000000000000000000000000000000000000008000000000000000000000000000000000000000008000000000000000800000000000000000000100000000000000000000000000000000000000000000000000000800100080000000000000000000000000000000000000000000000000000000000000000000000000080000200000000000000000000000000000000000000000000000000000000000004000000000000000000001000000000000000000000000000000100008000000000000000000000000000000000400000000000000000000000000000000100000",
      "type": "0x2",
      "transactionHash": "0xee5c89c6363b35cab80222ebf6a0006aacd33aead4eefd3ba28c123515336229",
      "transactionIndex": "0x2c",
      "blockHash": "0x15281f04741c70efc08bfd001a7a504bab578d2e27f07be7ffeb4930df13bdff",
      "blockNumber": "0x418ec84",
      "gasUsed": "0x34f67",
      "effectiveGasPrice": "0xb90efa2d0",
      "from": "0x71f74debb7fd42e61de32256537284e06de8812d",
      "to": "0x1cdf6aabdcd19d2ed3ac927bb7b9835ac6942590",
      "contractAddress": null
    }
  ],
  "libraries": [],
  "pending": [],
  "returns": {},
  "timestamp": 1741320301,
  "chain": 137,
  "commit": "5016532"
}