{
  "transactions": [
    {
      "hash": "0x78b128019eb461888959973e45976497ab821a9f3d8736f324215f216bd09dfa",
      "transactionType": "CALL",
      "contractName": null,
      "contractAddress": "0x1cdf6aabdcd19d2ed3ac927bb7b9835ac6942590",
      "function": "iteratePairList(uint256,uint256,uint256,uint256,uint256,bool)",
      "arguments": [
        "0",
        "4",
        "50",
        "50",
        "1000",
        "false"
      ],
      "transaction": {
        "from": "0x71f74debb7fd42e61de32256537284e06de8812d",
        "to": "0x1cdf6aabdcd19d2ed3ac927bb7b9835ac6942590",
        "gas": "0x4fe94",
        "value": "0x0",
        "input": "0x8101424d000000000000000000000000000000000000000000000000000000000000000000000000000000000000000000000000000000000000000000000000000000040000000000000000000000000000000000000000000000000000000000000032000000000000000000000000000000000000000000000000000000000000003200000000000000000000000000000000000000000000000000000000000003e80000000000000000000000000000000000000000000000000000000000000000",
        "nonce": "0x28f",
        "chainId": "0x89"
      },
      "additionalContracts": [],
      "isFixedGasLimit": false
    }
  ],
  "receipts": [
    {
      "status": "0x1",
      "cumulativeGasUsed": "0x6ad538",
      "logs": [
        {
          "address": "0x0000000000000000000000000000000000001010",
          "topics": [
            "0x4dfe1bbbcf077ddc3e01291eea2d5c70c2b422b415d95645b9adcfd678cb1d63",
            "0x0000000000000000000000000000000000000000000000000000000000001010",
            "0x00000000000000000000000071f74debb7fd42e61de32256537284e06de8812d",
            "0x000000000000000000000000ce7fcb674ba27a952c71061b649fb5a5746f3b2b"
          ],
          "data": "0x000000000000000000000000000000000000000000000000001941be4c73900000000000000000000000000000000000000000000000000020524170d4665da60000000000000000000000000000000000000000000005417f481e1a9827b7210000000000000000000000000000000000000000000000002038ffb287f2cda60000000000000000000000000000000000000000000005417f615fd8e49b4721",
          "blockHash": "0xeea3c05bd92b9ff5cda1722dafbe7a2f4ca671fb2f97331b6b04ddd935c8fe27",
          "blockNumber": "0x4192877",
          "transactionHash": "0x78b128019eb461888959973e45976497ab821a9f3d8736f324215f216bd09dfa",
          "transactionIndex": "0x2f",
          "logIndex": "0xfb",
          "removed": false
        }
      ],
      "logsBloom": "0x00000000000000000000000000000000000000000000000000000000000000000000000000000000000000000000000000008000000000000000000000000000000000000000000000000000000000800000000000000000000120000000000000000000000000000000000000000000000000000000000080000000000000000000000000000000000000000080000000000000000000000000000000080000200000000000000000000000000000000000000000000000000000000000004000000000004000000001000000000000000000000000000000100008000000000000000000000000000000000400000000000000000000000000000000100000",
      "type": "0x2",
      "transactionHash": "0x78b128019eb461888959973e45976497ab821a9f3d8736f324215f216bd09dfa",
      "transactionIndex": "0x2f",
      "blockHash": "0xeea3c05bd92b9ff5cda1722dafbe7a2f4ca671fb2f97331b6b04ddd935c8fe27",
      "blockNumber": "0x4192877",
      "gasUsed": "0x39dac",
      "effectiveGasPrice": "0x1059c728c9",
      "from": "0x71f74debb7fd42e61de32256537284e06de8812d",
      "to": "0x1cdf6aabdcd19d2ed3ac927bb7b9835ac6942590",
      "contractAddress": null
    }
  ],
  "libraries": [],
  "pending": [],
  "returns": {},
  "timestamp": 1741352915,
  "chain": 137,
  "commit": "c00d083"
}