{
  "transactions": [
    {
      "hash": "0x6fffa9ad81b00a44d49cbbc14d3edef629f4372e8eb8c42804c222d4a2af9105",
      "transactionType": "CALL",
      "contractName": null,
      "contractAddress": "0x1cdf6aabdcd19d2ed3ac927bb7b9835ac6942590",
      "function": "iteratePairList(uint256,uint256,uint256,uint256,uint256,bool)",
      "arguments": [
        "0",
        "4",
        "50",
        "50",
        "1000",
        "false"
      ],
      "transaction": {
        "from": "0x71f74debb7fd42e61de32256537284e06de8812d",
        "to": "0x1cdf6aabdcd19d2ed3ac927bb7b9835ac6942590",
        "gas": "0x6348f",
        "value": "0x0",
        "input": "0x8101424d000000000000000000000000000000000000000000000000000000000000000000000000000000000000000000000000000000000000000000000000000000040000000000000000000000000000000000000000000000000000000000000032000000000000000000000000000000000000000000000000000000000000003200000000000000000000000000000000000000000000000000000000000003e80000000000000000000000000000000000000000000000000000000000000000",
        "nonce": "0x291",
        "chainId": "0x89"
      },
      "additionalContracts": [],
      "isFixedGasLimit": false
    }
  ],
  "receipts": [
    {
      "status": "0x1",
      "cumulativeGasUsed": "0x111012a",
      "logs": [
        {
          "address": "0x0000000000000000000000000000000000001010",
          "topics": [
            "0x4dfe1bbbcf077ddc3e01291eea2d5c70c2b422b415d95645b9adcfd678cb1d63",
            "0x0000000000000000000000000000000000000000000000000000000000001010",
            "0x00000000000000000000000071f74debb7fd42e61de32256537284e06de8812d",
            "0x00000000000000000000000002f70172f7f490653665c9bfac0666147c8af1f5"
          ],
          "data": "0x000000000000000000000000000000000000000000000000001ef9e37f9a1b020000000000000000000000000000000000000000000000001f17ff9dc5a2f7230000000000000000000000000000000000000000000000527be0421076adde0f0000000000000000000000000000000000000000000000001ef905ba4608dc210000000000000000000000000000000000000000000000527bff3bf3f647f911",
          "blockHash": "0xcea516621fbc83db697a3368074369fb73120d4982948fe06fd3fc0d7d6f35c9",
          "blockNumber": "0x4192901",
          "transactionHash": "0x6fffa9ad81b00a44d49cbbc14d3edef629f4372e8eb8c42804c222d4a2af9105",
          "transactionIndex": "0x7a",
          "logIndex": "0x204",
          "removed": false
        }
      ],
      "logsBloom": "0x00000000000000000000000000000000000000000000000000000000000000000000000000000000000000000000000000008000000000000000000000000000000000000002000000000000000000800000000000000000000110000000000000000000000000000000000000000000000000000000000080000000000000000000000000000000000000000000000000000000000000000000000000080000200000000000000000000000000000000000000000000000000000000000004000000000000000000001000000000000000000000000000000100008000000000000000000080000000000000400000000000000000000000000000000100000",
      "type": "0x2",
      "transactionHash": "0x6fffa9ad81b00a44d49cbbc14d3edef629f4372e8eb8c42804c222d4a2af9105",
      "transactionIndex": "0x7a",
      "blockHash": "0xcea516621fbc83db697a3368074369fb73120d4982948fe06fd3fc0d7d6f35c9",
      "blockNumber": "0x4192901",
      "gasUsed": "0x47e17",
      "effectiveGasPrice": "0x15e4e57e80",
      "from": "0x71f74debb7fd42e61de32256537284e06de8812d",
      "to": "0x1cdf6aabdcd19d2ed3ac927bb7b9835ac6942590",
      "contractAddress": null
    }
  ],
  "libraries": [],
  "pending": [],
  "returns": {},
  "timestamp": 1741353209,
  "chain": 137,
  "commit": "c00d083"
}