{
  "transactions": [
    {
      "hash": "0x974fd7791f8c8ac3b65882c9c60b7326c3c8d70ce9aa9924ca4f2383ce8f7238",
      "transactionType": "CALL",
      "contractName": null,
      "contractAddress": "0x1cdf6aabdcd19d2ed3ac927bb7b9835ac6942590",
      "function": "iteratePairList(uint256,uint256,uint256,uint256,uint256,bool)",
      "arguments": [
        "0",
        "3",
        "50",
        "50",
        "0",
        "false"
      ],
      "transaction": {
        "from": "0x71f74debb7fd42e61de32256537284e06de8812d",
        "to": "0x1cdf6aabdcd19d2ed3ac927bb7b9835ac6942590",
        "gas": "0x49278",
        "value": "0x0",
        "input": "0x8101424d000000000000000000000000000000000000000000000000000000000000000000000000000000000000000000000000000000000000000000000000000000030000000000000000000000000000000000000000000000000000000000000032000000000000000000000000000000000000000000000000000000000000003200000000000000000000000000000000000000000000000000000000000000000000000000000000000000000000000000000000000000000000000000000000",
        "nonce": "0x27a",
        "chainId": "0x89"
      },
      "additionalContracts": [],
      "isFixedGasLimit": false
    }
  ],
  "receipts": [
    {
      "status": "0x1",
      "cumulativeGasUsed": "0x6bd615",
      "logs": [
        {
          "address": "0x0000000000000000000000000000000000001010",
          "topics": [
            "0x4dfe1bbbcf077ddc3e01291eea2d5c70c2b422b415d95645b9adcfd678cb1d63",
            "0x0000000000000000000000000000000000000000000000000000000000001010",
            "0x00000000000000000000000071f74debb7fd42e61de32256537284e06de8812d",
            "0x000000000000000000000000eedba2484aaf940f37cd3cd21a5d7c4a7dafbfc0"
          ],
          "data": "0x000000000000000000000000000000000000000000000000001531d691f3aeae000000000000000000000000000000000000000000000000268c04bbdeb33a3200000000000000000000000000000000000000000001e3c93eb6dc1575646ace0000000000000000000000000000000000000000000000002676d2e54cbf8b8400000000000000000000000000000000000000000001e3c93ecc0dec0758197c",
          "blockHash": "0x4a3a5fc69249ce798e0fceb4ef38f40f690ca90d602e6f6c37a236080918c0af",
          "blockNumber": "0x418ead2",
          "transactionHash": "0x974fd7791f8c8ac3b65882c9c60b7326c3c8d70ce9aa9924ca4f2383ce8f7238",
          "transactionIndex": "0x3d",
          "logIndex": "0xd2",
          "removed": false
        }
      ],
      "logsBloom": "0x00000000000000000000000000000000000000000000000000000000000000000000000000000000000000000000000000008000000000000000000000000000000000000000000000000000000000800000000000000000000100000000000000000000000000000000000000000000000000000100000080000000000000000000004000000000000000000000000000000000000000000000000000080000200000000000000000000000000000000000000000000000000020000000004000000000000000000001000000000000000000000000000000100008000000000000000000000000000000000400000000000000000000000000000000100000",
      "type": "0x2",
      "transactionHash": "0x974fd7791f8c8ac3b65882c9c60b7326c3c8d70ce9aa9924ca4f2383ce8f7238",
      "transactionIndex": "0x3d",
      "blockHash": "0x4a3a5fc69249ce798e0fceb4ef38f40f690ca90d602e6f6c37a236080918c0af",
      "blockNumber": "0x418ead2",
      "gasUsed": "0x34f67",
      "effectiveGasPrice": "0xeac761d9c",
      "from": "0x71f74debb7fd42e61de32256537284e06de8812d",
      "to": "0x1cdf6aabdcd19d2ed3ac927bb7b9835ac6942590",
      "contractAddress": null
    }
  ],
  "libraries": [],
  "pending": [],
  "returns": {},
  "timestamp": 1741319379,
  "chain": 137,
  "commit": "5016532"
}