{
  "transactions": [
    {
      "hash": "0xd0f39c4969192fe2cfae1bca1257cd62b34a8c803baac4f0f7b34785bf6c419b",
      "transactionType": "CALL",
      "contractName": null,
      "contractAddress": "0x1cdf6aabdcd19d2ed3ac927bb7b9835ac6942590",
      "function": "iteratePairList(uint256,uint256,uint256,uint256,uint256,bool)",
      "arguments": [
        "0",
        "4",
        "50",
        "50",
        "1000",
        "false"
      ],
      "transaction": {
        "from": "0x71f74debb7fd42e61de32256537284e06de8812d",
        "to": "0x1cdf6aabdcd19d2ed3ac927bb7b9835ac6942590",
        "gas": "0x4fe97",
        "value": "0x0",
        "input": "0x8101424d000000000000000000000000000000000000000000000000000000000000000000000000000000000000000000000000000000000000000000000000000000040000000000000000000000000000000000000000000000000000000000000032000000000000000000000000000000000000000000000000000000000000003200000000000000000000000000000000000000000000000000000000000003e80000000000000000000000000000000000000000000000000000000000000000",
        "nonce": "0x28a",
        "chainId": "0x89"
      },
      "additionalContracts": [],
      "isFixedGasLimit": false
    }
  ],
  "receipts": [
    {
      "status": "0x1",
      "cumulativeGasUsed": "0xc3530b",
      "logs": [
        {
          "address": "0x0000000000000000000000000000000000001010",
          "topics": [
            "0x4dfe1bbbcf077ddc3e01291eea2d5c70c2b422b415d95645b9adcfd678cb1d63",
            "0x0000000000000000000000000000000000000000000000000000000000001010",
            "0x00000000000000000000000071f74debb7fd42e61de32256537284e06de8812d",
            "0x000000000000000000000000eedba2484aaf940f37cd3cd21a5d7c4a7dafbfc0"
          ],
          "data": "0x0000000000000000000000000000000000000000000000000017fdcd224cdf58000000000000000000000000000000000000000000000000229b258543b8e2da00000000000000000000000000000000000000000001e41da376d6a3ffd075b3000000000000000000000000000000000000000000000000228327b8216c038200000000000000000000000000000000000000000001e41da38ed471221d550b",
          "blockHash": "0xd35e8bdf93926f3e867e1392ab0782ffd46571370f1a40742a45fdf360895292",
          "blockNumber": "0x41927c0",
          "transactionHash": "0xd0f39c4969192fe2cfae1bca1257cd62b34a8c803baac4f0f7b34785bf6c419b",
          "transactionIndex": "0x47",
          "logIndex": "0x149",
          "removed": false
        }
      ],
      "logsBloom": "0x00000000000000000000000000000000000000000000000000000000000000000000000000000000000000000000000000008000000000000000000000000000000000000000000000000000000000800000000000000000000100000000000000000000000000000000000000000000000000000100000080000000000000000000004000000000000000000000000000000000000000000000000000080000200000000000000000000000000000000000000000000000000020000000004000000000000000000001000000000000000000000000000000100008000000000000000000000000000000000400000000000000000000000000000000100000",
      "type": "0x2",
      "transactionHash": "0xd0f39c4969192fe2cfae1bca1257cd62b34a8c803baac4f0f7b34785bf6c419b",
      "transactionIndex": "0x47",
      "blockHash": "0xd35e8bdf93926f3e867e1392ab0782ffd46571370f1a40742a45fdf360895292",
      "blockNumber": "0x41927c0",
      "gasUsed": "0x39dae",
      "effectiveGasPrice": "0xc50bb23ed",
      "from": "0x71f74debb7fd42e61de32256537284e06de8812d",
      "to": "0x1cdf6aabdcd19d2ed3ac927bb7b9835ac6942590",
      "contractAddress": null
    }
  ],
  "libraries": [],
  "pending": [],
  "returns": {},
  "timestamp": 1741352527,
  "chain": 137,
  "commit": "5016532"
}