{
  "transactions": [
    {
      "hash": "0x1946d49e1d76412463ef8f445f5947784e30f6dd756e91ba46e72ff6c1a29a0c",
      "transactionType": "CALL",
      "contractName": null,
      "contractAddress": "0x1cdf6aabdcd19d2ed3ac927bb7b9835ac6942590",
      "function": "iteratePairList(uint256,uint256,uint256,uint256,uint256,bool)",
      "arguments": [
        "0",
        "3",
        "50",
        "50",
        "0",
        "false"
      ],
      "transaction": {
        "from": "0x71f74debb7fd42e61de32256537284e06de8812d",
        "to": "0x1cdf6aabdcd19d2ed3ac927bb7b9835ac6942590",
        "gas": "0x40f74",
        "value": "0x0",
        "input": "0x8101424d000000000000000000000000000000000000000000000000000000000000000000000000000000000000000000000000000000000000000000000000000000030000000000000000000000000000000000000000000000000000000000000032000000000000000000000000000000000000000000000000000000000000003200000000000000000000000000000000000000000000000000000000000000000000000000000000000000000000000000000000000000000000000000000000",
        "nonce": "0x277",
        "chainId": "0x89"
      },
      "additionalContracts": [],
      "isFixedGasLimit": false
    }
  ],
  "receipts": [
    {
      "status": "0x1",
      "cumulativeGasUsed": "0x678b84",
      "logs": [
        {
          "address": "0x0000000000000000000000000000000000001010",
          "topics": [
            "0x4dfe1bbbcf077ddc3e01291eea2d5c70c2b422b415d95645b9adcfd678cb1d63",
            "0x0000000000000000000000000000000000000000000000000000000000001010",
            "0x00000000000000000000000071f74debb7fd42e61de32256537284e06de8812d",
            "0x000000000000000000000000794e44d1334a56fea7f4df12633b88820d0c5888"
          ],
          "data": "0x0000000000000000000000000000000000000000000000000013853dd4c943ee000000000000000000000000000000000000000000000000277828830ac818660000000000000000000000000000000000000000000004038e687b7271305ada0000000000000000000000000000000000000000000000002764a34535fed4780000000000000000000000000000000000000000000004038e7c00b045f99ec8",
          "blockHash": "0xb38b7a30fac4a1adcc82c022eabfa57b961c9ceb375b61e6013f76b9cd892572",
          "blockNumber": "0x418e946",
          "transactionHash": "0x1946d49e1d76412463ef8f445f5947784e30f6dd756e91ba46e72ff6c1a29a0c",
          "transactionIndex": "0x39",
          "logIndex": "0xc2",
          "removed": false
        }
      ],
      "logsBloom": "0x00000000000000000000000000000000000000000000000000000000000000000000000000001000000000000000000000008000000000000000000000000000000000000000000000000000000000800000000000000000000100020000000000000000000000000000000000000000000000000000000080000000000000000000000000000000000000000000000000000000000000000000000000080000200000000000000000000000000000000000000000000000000000000000004000000000000000000001000000000000000000000000000000100008000000000000000000000000000000000400000000000000000000000000000020100000",
      "type": "0x2",
      "transactionHash": "0x1946d49e1d76412463ef8f445f5947784e30f6dd756e91ba46e72ff6c1a29a0c",
      "transactionIndex": "0x39",
      "blockHash": "0xb38b7a30fac4a1adcc82c022eabfa57b961c9ceb375b61e6013f76b9cd892572",
      "blockNumber": "0x418e946",
      "gasUsed": "0x2f08d",
      "effectiveGasPrice": "0xe1437bc3e",
      "from": "0x71f74debb7fd42e61de32256537284e06de8812d",
      "to": "0x1cdf6aabdcd19d2ed3ac927bb7b9835ac6942590",
      "contractAddress": null
    }
  ],
  "libraries": [],
  "pending": [],
  "returns": {},
  "timestamp": 1741318537,
  "chain": 137,
  "commit": "5016532"
}