{
  "transactions": [
    {
      "hash": "0xc92d43a66aaab8c93baa72f4eec64799417f4a7e643c45e336b87ce1ddb6ae2b",
      "transactionType": "CALL",
      "contractName": null,
      "contractAddress": "0x1cdf6aabdcd19d2ed3ac927bb7b9835ac6942590",
      "function": "iteratePairList(uint256,uint256,uint256,uint256,uint256,bool)",
      "arguments": [
        "0",
        "3",
        "50",
        "50",
        "0",
        "false"
      ],
      "transaction": {
        "from": "0x71f74debb7fd42e61de32256537284e06de8812d",
        "to": "0x1cdf6aabdcd19d2ed3ac927bb7b9835ac6942590",
        "gas": "0x49278",
        "value": "0x0",
        "input": "0x8101424d000000000000000000000000000000000000000000000000000000000000000000000000000000000000000000000000000000000000000000000000000000030000000000000000000000000000000000000000000000000000000000000032000000000000000000000000000000000000000000000000000000000000003200000000000000000000000000000000000000000000000000000000000000000000000000000000000000000000000000000000000000000000000000000000",
        "nonce": "0x27b",
        "chainId": "0x89"
      },
      "additionalContracts": [],
      "isFixedGasLimit": false
    }
  ],
  "receipts": [
    {
      "status": "0x1",
      "cumulativeGasUsed": "0xbf7143",
      "logs": [
        {
          "address": "0x0000000000000000000000000000000000001010",
          "topics": [
            "0x4dfe1bbbcf077ddc3e01291eea2d5c70c2b422b415d95645b9adcfd678cb1d63",
            "0x0000000000000000000000000000000000000000000000000000000000001010",
            "0x00000000000000000000000071f74debb7fd42e61de32256537284e06de8812d",
            "0x000000000000000000000000eedba2484aaf940f37cd3cd21a5d7c4a7dafbfc0"
          ],
          "data": "0x00000000000000000000000000000000000000000000000000163809b3a99835000000000000000000000000000000000000000000000000265b7239af362c6e00000000000000000000000000000000000000000001e3c9b3dec8226bff7f3400000000000000000000000000000000000000000000000026453a2ffb8c943900000000000000000000000000000000000000000001e3c9b3f5002c1fa91769",
          "blockHash": "0x648b85b303ba828dee1074edc4762e63e158bf5265bae4173425cb995363ea3f",
          "blockNumber": "0x418eade",
          "transactionHash": "0xc92d43a66aaab8c93baa72f4eec64799417f4a7e643c45e336b87ce1ddb6ae2b",
          "transactionIndex": "0x40",
          "logIndex": "0x16c",
          "removed": false
        }
      ],
      "logsBloom": "0x00000000000000000000000000000000000000000000000000000000000000000000000000000000000000000000000000008000000000000000000000000000000000000000000000000000000000800000000000000000000100000000000000000000000000000000000000000000000000000100000080000000000000000000004000000000000000000000000000000000000000000000000000080000200000000000000000000000000000000000000000000000000020000000004000000000000000000001000000000000000000000000000000100008000000000000000000000000000000000400000000000000000000000000000000100000",
      "type": "0x2",
      "transactionHash": "0xc92d43a66aaab8c93baa72f4eec64799417f4a7e643c45e336b87ce1ddb6ae2b",
      "transactionIndex": "0x40",
      "blockHash": "0x648b85b303ba828dee1074edc4762e63e158bf5265bae4173425cb995363ea3f",
      "blockNumber": "0x418eade",
      "gasUsed": "0x34f67",
      "effectiveGasPrice": "0xe76e48e13",
      "from": "0x71f74debb7fd42e61de32256537284e06de8812d",
      "to": "0x1cdf6aabdcd19d2ed3ac927bb7b9835ac6942590",
      "contractAddress": null
    }
  ],
  "libraries": [],
  "pending": [],
  "returns": {},
  "timestamp": 1741319405,
  "chain": 137,
  "commit": "5016532"
}