{
  "transactions": [
    {
      "hash": "0x4453796e29c1e6744e0a2924b11f0b539528d26e64cc9bf94e296309ff8e56f0",
      "transactionType": "CALL",
      "contractName": null,
      "contractAddress": "0x1cdf6aabdcd19d2ed3ac927bb7b9835ac6942590",
      "function": "iteratePairList(uint256,uint256,uint256,uint256,uint256,bool)",
      "arguments": [
        "0",
        "3",
        "50",
        "50",
        "0",
        "false"
      ],
      "transaction": {
        "from": "0x71f74debb7fd42e61de32256537284e06de8812d",
        "to": "0x1cdf6aabdcd19d2ed3ac927bb7b9835ac6942590",
        "gas": "0x49278",
        "value": "0x0",
        "input": "0x8101424d000000000000000000000000000000000000000000000000000000000000000000000000000000000000000000000000000000000000000000000000000000030000000000000000000000000000000000000000000000000000000000000032000000000000000000000000000000000000000000000000000000000000003200000000000000000000000000000000000000000000000000000000000000000000000000000000000000000000000000000000000000000000000000000000",
        "nonce": "0x282",
        "chainId": "0x89"
      },
      "additionalContracts": [],
      "isFixedGasLimit": false
    }
  ],
  "receipts": [
    {
      "status": "0x1",
      "cumulativeGasUsed": "0x199c808",
      "logs": [
        {
          "address": "0x0000000000000000000000000000000000001010",
          "topics": [
            "0x4dfe1bbbcf077ddc3e01291eea2d5c70c2b422b415d95645b9adcfd678cb1d63",
            "0x0000000000000000000000000000000000000000000000000000000000001010",
            "0x00000000000000000000000071f74debb7fd42e61de32256537284e06de8812d",
            "0x000000000000000000000000794e44d1334a56fea7f4df12633b88820d0c5888"
          ],
          "data": "0x000000000000000000000000000000000000000000000000001633c8a40cdc3d000000000000000000000000000000000000000000000000253419e7ff446a86000000000000000000000000000000000000000000000405082320ec1f6e0005000000000000000000000000000000000000000000000000251de61f5b378e49000000000000000000000000000000000000000000000405083954b4c37adc42",
          "blockHash": "0xf19286cb7edd77ab5f219ac73aacf60b3f6f42ec12e0047b57330055ab4e5cee",
          "blockNumber": "0x418ec6b",
          "transactionHash": "0x4453796e29c1e6744e0a2924b11f0b539528d26e64cc9bf94e296309ff8e56f0",
          "transactionIndex": "0x56",
          "logIndex": "0x335",
          "removed": false
        }
      ],
      "logsBloom": "0x00000000000000000000000000000000000000000000000000000000000000000000000000001000000000000000000000008000000000000000000000000000000000000000000000000000000000800000000000000000000100020000000000000000000000000000000000000000000000000000000080000000000000000000000000000000000000000000000000000000000000000000000000080000200000000000000000000000000000000000000000000000000000000000004000000000000000000001000000000000000000000000000000100008000000000000000000000000000000000400000000000000000000000000000020100000",
      "type": "0x2",
      "transactionHash": "0x4453796e29c1e6744e0a2924b11f0b539528d26e64cc9bf94e296309ff8e56f0",
      "transactionIndex": "0x56",
      "blockHash": "0xf19286cb7edd77ab5f219ac73aacf60b3f6f42ec12e0047b57330055ab4e5cee",
      "blockNumber": "0x418ec6b",
      "gasUsed": "0x34f67",
      "effectiveGasPrice": "0xc00994dd3",
      "from": "0x71f74debb7fd42e61de32256537284e06de8812d",
      "to": "0x1cdf6aabdcd19d2ed3ac927bb7b9835ac6942590",
      "contractAddress": null
    }
  ],
  "libraries": [],
  "pending": [],
  "returns": {},
  "timestamp": 1741320248,
  "chain": 137,
  "commit": "5016532"
}