{
  "transactions": [
    {
      "hash": "0xde5842f8acd3cb3180b704fcba469219c26ece871202072caa54c1ab007e3d02",
      "transactionType": "CALL",
      "contractName": null,
      "contractAddress": "0x1cdf6aabdcd19d2ed3ac927bb7b9835ac6942590",
      "function": "iteratePairList(uint256,uint256,uint256,uint256,uint256,bool)",
      "arguments": [
        "0",
        "8",
        "60",
        "50",
        "1000",
        "false"
      ],
      "transaction": {
        "from": "0x71f74debb7fd42e61de32256537284e06de8812d",
        "to": "0x1cdf6aabdcd19d2ed3ac927bb7b9835ac6942590",
        "gas": "0x89aff",
        "value": "0x0",
        "input": "0x8101424d00000000000000000000000000000000000000000000000000000000000000000000000000000000000000000000000000000000000000000000000000000008000000000000000000000000000000000000000000000000000000000000003c000000000000000000000000000000000000000000000000000000000000003200000000000000000000000000000000000000000000000000000000000003e80000000000000000000000000000000000000000000000000000000000000000",
        "nonce": "0x292",
        "chainId": "0x89"
      },
      "additionalContracts": [],
      "isFixedGasLimit": false
    }
  ],
  "receipts": [
    {
      "status": "0x1",
      "cumulativeGasUsed": "0x98ff5a",
      "logs": [
        {
          "address": "0x0000000000000000000000000000000000001010",
          "topics": [
            "0x4dfe1bbbcf077ddc3e01291eea2d5c70c2b422b415d95645b9adcfd678cb1d63",
            "0x0000000000000000000000000000000000000000000000000000000000001010",
            "0x00000000000000000000000071f74debb7fd42e61de32256537284e06de8812d",
            "0x0000000000000000000000009ead03f7136fc6b4bdb0780b00a1c14ae5a8b6d0"
          ],
          "data": "0x000000000000000000000000000000000000000000000000002b847b824594000000000000000000000000000000000000000000000000001eb5a36746c199a300000000000000000000000000000000000000000000088d285cebe8f6bca0230000000000000000000000000000000000000000000000001e8a1eebc47c05a300000000000000000000000000000000000000000000088d2888706479023423",
          "blockHash": "0xd09d9dfff6b1a7073c72156945fcdfbfc7fd7c01ce27e36d4fea2c0f14d2fcec",
          "blockNumber": "0x419291b",
          "transactionHash": "0xde5842f8acd3cb3180b704fcba469219c26ece871202072caa54c1ab007e3d02",
          "transactionIndex": "0x47",
          "logIndex": "0x13c",
          "removed": false
        }
      ],
      "logsBloom": "0x00000000000000000000000000000000000000000000000000000000000000000000000000000000000000000000000000008000000000000000000000000000000000000000000000000000000000800000000000000000000100000000000000000000000000000000000000000000000000000000000080000000000000000040000000040000000000000000000000000000000000000000000000080000200000000000000000000000000000000000000000000000000000000000004000000000000000000001000000000000000000000000000000120008000000000000000000000000000000000400000000000000000000000000000000100000",
      "type": "0x2",
      "transactionHash": "0xde5842f8acd3cb3180b704fcba469219c26ece871202072caa54c1ab007e3d02",
      "transactionIndex": "0x47",
      "blockHash": "0xd09d9dfff6b1a7073c72156945fcdfbfc7fd7c01ce27e36d4fea2c0f14d2fcec",
      "blockNumber": "0x419291b",
      "gasUsed": "0x63aef",
      "effectiveGasPrice": "0x164619fe29",
      "from": "0x71f74debb7fd42e61de32256537284e06de8812d",
      "to": "0x1cdf6aabdcd19d2ed3ac927bb7b9835ac6942590",
      "contractAddress": null
    }
  ],
  "libraries": [],
  "pending": [],
  "returns": {},
  "timestamp": 1741353263,
  "chain": 137,
  "commit": "c00d083"
}