{
  "transactions": [
    {
      "hash": "0x2311f71161c79edd20efe4699b0aaf3ef46137028fa13e705bbadd0f05ed0165",
      "transactionType": "CALL",
      "contractName": null,
      "contractAddress": "0x1cdf6aabdcd19d2ed3ac927bb7b9835ac6942590",
      "function": "iteratePairList(uint256,uint256,uint256,uint256,uint256,bool)",
      "arguments": [
        "0",
        "8",
        "60",
        "15",
        "1000",
        "false"
      ],
      "transaction": {
        "from": "0x71f74debb7fd42e61de32256537284e06de8812d",
        "to": "0x1cdf6aabdcd19d2ed3ac927bb7b9835ac6942590",
        "gas": "0x89aff",
        "value": "0x0",
        "input": "0x8101424d00000000000000000000000000000000000000000000000000000000000000000000000000000000000000000000000000000000000000000000000000000008000000000000000000000000000000000000000000000000000000000000003c000000000000000000000000000000000000000000000000000000000000000f00000000000000000000000000000000000000000000000000000000000003e80000000000000000000000000000000000000000000000000000000000000000",
        "nonce": "0x299",
        "chainId": "0x89"
      },
      "additionalContracts": [],
      "isFixedGasLimit": false
    }
  ],
  "receipts": [
    {
      "status": "0x1",
      "cumulativeGasUsed": "0xb9c017",
      "logs": [
        {
          "address": "0x0000000000000000000000000000000000001010",
          "topics": [
            "0x4dfe1bbbcf077ddc3e01291eea2d5c70c2b422b415d95645b9adcfd678cb1d63",
            "0x0000000000000000000000000000000000000000000000000000000000001010",
            "0x00000000000000000000000071f74debb7fd42e61de32256537284e06de8812d",
            "0x00000000000000000000000067b94473d81d0cd00849d563c94d0432ac988b49"
          ],
          "data": "0x00000000000000000000000000000000000000000000000000296029f074d0b60000000000000000000000000000000000000000000000001afecdf2e5421bb8000000000000000000000000000000000000000000000a1ddef9951c0ea62ac10000000000000000000000000000000000000000000000001ad56dc8f4cd4b02000000000000000000000000000000000000000000000a1ddf22f545ff1afb77",
          "blockHash": "0xaa9ac7c8c00eba6e44da677754ebbe854051a48500aff85c09788392ad34fd1c",
          "blockNumber": "0x4192a6a",
          "transactionHash": "0x2311f71161c79edd20efe4699b0aaf3ef46137028fa13e705bbadd0f05ed0165",
          "transactionIndex": "0x48",
          "logIndex": "0x148",
          "removed": false
        }
      ],
      "logsBloom": "0x00000000000000000000000000000000000000000000000000000000000000000000000000000000000000000000000000008000000000000000000000000000000000000000000000000000000000800000000000000000000100000000000000000000000000000000000000000000000000000000000080000000000000000000000000000000000000000000000000000000000000000000000000080000200000000000000000000000000000000000000000000000000000000000004000800000000000000001000000008000000000000000000000100008000000000000020000000000000000000400000000000000000000000000000000100000",
      "type": "0x2",
      "transactionHash": "0x2311f71161c79edd20efe4699b0aaf3ef46137028fa13e705bbadd0f05ed0165",
      "transactionIndex": "0x48",
      "blockHash": "0xaa9ac7c8c00eba6e44da677754ebbe854051a48500aff85c09788392ad34fd1c",
      "blockNumber": "0x4192a6a",
      "gasUsed": "0x63aef",
      "effectiveGasPrice": "0x17462834e8",
      "from": "0x71f74debb7fd42e61de32256537284e06de8812d",
      "to": "0x1cdf6aabdcd19d2ed3ac927bb7b9835ac6942590",
      "contractAddress": null
    }
  ],
  "libraries": [],
  "pending": [],
  "returns": {},
  "timestamp": 1741353976,
  "chain": 137,
  "commit": "c00d083"
}