{
  "transactions": [
    {
      "hash": "0xd401d6bb83259a41db4479e7836d3120da7d1c6974442cf167e5c9f9a81d73b5",
      "transactionType": "CALL",
      "contractName": null,
      "contractAddress": "0x1cdf6aabdcd19d2ed3ac927bb7b9835ac6942590",
      "function": "iteratePairList(uint256,uint256,uint256,uint256,uint256,bool)",
      "arguments": [
        "0",
        "3",
        "60",
        "5",
        "1000",
        "false"
      ],
      "transaction": {
        "from": "0x71f74debb7fd42e61de32256537284e06de8812d",
        "to": "0x1cdf6aabdcd19d2ed3ac927bb7b9835ac6942590",
        "gas": "0x60db3",
        "value": "0x0",
        "input": "0x8101424d00000000000000000000000000000000000000000000000000000000000000000000000000000000000000000000000000000000000000000000000000000003000000000000000000000000000000000000000000000000000000000000003c000000000000000000000000000000000000000000000000000000000000000500000000000000000000000000000000000000000000000000000000000003e80000000000000000000000000000000000000000000000000000000000000000",
        "nonce": "0x2a6",
        "chainId": "0x89"
      },
      "additionalContracts": [],
      "isFixedGasLimit": false
    }
  ],
  "receipts": [
    {
      "status": "0x1",
      "cumulativeGasUsed": "0xf845eb",
      "logs": [
        {
          "address": "0x0000000000000000000000000000000000001010",
          "topics": [
            "0x4dfe1bbbcf077ddc3e01291eea2d5c70c2b422b415d95645b9adcfd678cb1d63",
            "0x0000000000000000000000000000000000000000000000000000000000001010",
            "0x00000000000000000000000071f74debb7fd42e61de32256537284e06de8812d",
            "0x00000000000000000000000069f5c4d08f6bc8cd29fe5f004d46fb566270868d"
          ],
          "data": "0x000000000000000000000000000000000000000000000000001d1205df1acf95000000000000000000000000000000000000000000000000090eac0fcb23da160000000000000000000000000000000000000000000000826c8d1597f2db008500000000000000000000000000000000000000000000000008f19a09ec090a810000000000000000000000000000000000000000000000826caa279dd1f5d01a",
          "blockHash": "0x148ea2f19661951702c242d7710bd8f33b8cf512a2f406401d39b84b1a11e7ed",
          "blockNumber": "0x4193251",
          "transactionHash": "0xd401d6bb83259a41db4479e7836d3120da7d1c6974442cf167e5c9f9a81d73b5",
          "transactionIndex": "0x7d",
          "logIndex": "0x237",
          "removed": false
        }
      ],
      "logsBloom": "0x00000000000000000000000002000000000000000000000000000000000000000000000000000000200000000000000000008000000000000000000000000000000000000000000000000000000040800000000000000000000100000000000000000000000000000000000000000000000000000000000080000000000000000000000000000000000000000000000000000000000000000000000000080000200000000000000000000000000000000000000000000000000000000000004000000000000000000001000000000000000000000000000000100008000000000000000000000000000000000400000000000000000000000000000000100000",
      "type": "0x2",
      "transactionHash": "0xd401d6bb83259a41db4479e7836d3120da7d1c6974442cf167e5c9f9a81d73b5",
      "transactionIndex": "0x7d",
      "blockHash": "0x148ea2f19661951702c242d7710bd8f33b8cf512a2f406401d39b84b1a11e7ed",
      "blockNumber": "0x4193251",
      "gasUsed": "0x461f5",
      "effectiveGasPrice": "0x189b34e10a",
      "from": "0x71f74debb7fd42e61de32256537284e06de8812d",
      "to": "0x1cdf6aabdcd19d2ed3ac927bb7b9835ac6942590",
      "contractAddress": null
    }
  ],
  "libraries": [],
  "pending": [],
  "returns": {},
  "timestamp": 1741358281,
  "chain": 137,
  "commit": "c00d083"
}