{
  "transactions": [
    {
      "hash": "0xf92863e75fb4f59b60280350e2dea042e547f6ec4c509309ba5009251be3ecf1",
      "transactionType": "CALL",
      "contractName": null,
      "contractAddress": "0x1cdf6aabdcd19d2ed3ac927bb7b9835ac6942590",
      "function": "iteratePairList(uint256,uint256,uint256,uint256,uint256,bool)",
      "arguments": [
        "0",
        "3",
        "50",
        "50",
        "0",
        "false"
      ],
      "transaction": {
        "from": "0x71f74debb7fd42e61de32256537284e06de8812d",
        "to": "0x1cdf6aabdcd19d2ed3ac927bb7b9835ac6942590",
        "gas": "0x40f74",
        "value": "0x0",
        "input": "0x8101424d000000000000000000000000000000000000000000000000000000000000000000000000000000000000000000000000000000000000000000000000000000030000000000000000000000000000000000000000000000000000000000000032000000000000000000000000000000000000000000000000000000000000003200000000000000000000000000000000000000000000000000000000000000000000000000000000000000000000000000000000000000000000000000000000",
        "nonce": "0x278",
        "chainId": "0x89"
      },
      "additionalContracts": [],
      "isFixedGasLimit": false
    }
  ],
  "receipts": [
    {
      "status": "0x1",
      "cumulativeGasUsed": "0xd3b0ed",
      "logs": [
        {
          "address": "0x0000000000000000000000000000000000001010",
          "topics": [
            "0x4dfe1bbbcf077ddc3e01291eea2d5c70c2b422b415d95645b9adcfd678cb1d63",
            "0x0000000000000000000000000000000000000000000000000000000000001010",
            "0x00000000000000000000000071f74debb7fd42e61de32256537284e06de8812d",
            "0x0000000000000000000000009ead03f7136fc6b4bdb0780b00a1c14ae5a8b6d0"
          ],
          "data": "0x00000000000000000000000000000000000000000000000000148881a8e5bc00000000000000000000000000000000000000000000000000274ec55e2f1f4a4000000000000000000000000000000000000000000000084b135544d35b2cb13a000000000000000000000000000000000000000000000000273a3cdc86398e4000000000000000000000000000000000000000000000084b1369cd5504126d3a",
          "blockHash": "0x84122784498d375de3975637b9f59a639ce55051000ca9acb6cda637c26fa436",
          "blockNumber": "0x418e995",
          "transactionHash": "0xf92863e75fb4f59b60280350e2dea042e547f6ec4c509309ba5009251be3ecf1",
          "transactionIndex": "0x2f",
          "logIndex": "0xcd",
          "removed": false
        }
      ],
      "logsBloom": "0x00000000000000000000000000000000000000000000000000000000000000000000000000000000000000000000000000008000000000000000000000000000000000000000000000000000000000800000000000000000000100000000000000000000000000000000000000000000000000000000000080000000000000000040000000040000000000000000000000000000000000000000000000080000200000000000000000000000000000000000000000000000000000000000004000000000000000000001000000000000000000000000000000120008000000000000000000000000000000000400000000000000000000000000000000100000",
      "type": "0x2",
      "transactionHash": "0xf92863e75fb4f59b60280350e2dea042e547f6ec4c509309ba5009251be3ecf1",
      "transactionIndex": "0x2f",
      "blockHash": "0x84122784498d375de3975637b9f59a639ce55051000ca9acb6cda637c26fa436",
      "blockNumber": "0x418e995",
      "gasUsed": "0x2f08d",
      "effectiveGasPrice": "0xce18e2846",
      "from": "0x71f74debb7fd42e61de32256537284e06de8812d",
      "to": "0x1cdf6aabdcd19d2ed3ac927bb7b9835ac6942590",
      "contractAddress": null
    }
  ],
  "libraries": [],
  "pending": [],
  "returns": {},
  "timestamp": 1741318706,
  "chain": 137,
  "commit": "5016532"
}