{
  "transactions": [
    {
      "hash": "0x228bd470195ddf58c03e7354c55ccd5d948cd39b9154cff571cf1e658d14c31e",
      "transactionType": "CALL",
      "contractName": null,
      "contractAddress": "0x1cdf6aabdcd19d2ed3ac927bb7b9835ac6942590",
      "function": "iteratePairList(uint256,uint256,uint256,uint256,uint256,bool)",
      "arguments": [
        "0",
        "8",
        "60",
        "50",
        "1000",
        "false"
      ],
      "transaction": {
        "from": "0x71f74debb7fd42e61de32256537284e06de8812d",
        "to": "0x1cdf6aabdcd19d2ed3ac927bb7b9835ac6942590",
        "gas": "0x89aff",
        "value": "0x0",
        "input": "0x8101424d00000000000000000000000000000000000000000000000000000000000000000000000000000000000000000000000000000000000000000000000000000008000000000000000000000000000000000000000000000000000000000000003c000000000000000000000000000000000000000000000000000000000000003200000000000000000000000000000000000000000000000000000000000003e80000000000000000000000000000000000000000000000000000000000000000",
        "nonce": "0x295",
        "chainId": "0x89"
      },
      "additionalContracts": [],
      "isFixedGasLimit": false
    }
  ],
  "receipts": [
    {
      "status": "0x1",
      "cumulativeGasUsed": "0x97d156",
      "logs": [
        {
          "address": "0x0000000000000000000000000000000000001010",
          "topics": [
            "0x4dfe1bbbcf077ddc3e01291eea2d5c70c2b422b415d95645b9adcfd678cb1d63",
            "0x0000000000000000000000000000000000000000000000000000000000001010",
            "0x00000000000000000000000071f74debb7fd42e61de32256537284e06de8812d",
            "0x00000000000000000000000069f5c4d08f6bc8cd29fe5f004d46fb566270868d"
          ],
          "data": "0x000000000000000000000000000000000000000000000000002c37698222bdfa0000000000000000000000000000000000000000000000001d065e9b3e7b4e14000000000000000000000000000000000000000000000039d1bbc29d1684fa170000000000000000000000000000000000000000000000001cda2731bc58901a000000000000000000000000000000000000000000000039d1e7fa0698a7b811",
          "blockHash": "0xc83b186649a5ac6bbb28cd0e6ffa4d70be1da32c58a15ecfda619547b911e423",
          "blockNumber": "0x419298b",
          "transactionHash": "0x228bd470195ddf58c03e7354c55ccd5d948cd39b9154cff571cf1e658d14c31e",
          "transactionIndex": "0x41",
          "logIndex": "0xe9",
          "removed": false
        }
      ],
      "logsBloom": "0x00000000000000000000000002000000000000000000000000000000000000000000000000000000200000000000000000008000000000000000000000000000000000000000000000000000000040800000000000000000000100000000000000000000000000000000000000000000000000000000000080000000000000000000000000000000000000000000000000000000000000000000000000080000200000000000000000000000000000000000000000000000000000000000004000000000000000000001000000000000000000000000000000100008000000000000000000000000000000000400000000000000000000000000000000100000",
      "type": "0x2",
      "transactionHash": "0x228bd470195ddf58c03e7354c55ccd5d948cd39b9154cff571cf1e658d14c31e",
      "transactionIndex": "0x41",
      "blockHash": "0xc83b186649a5ac6bbb28cd0e6ffa4d70be1da32c58a15ecfda619547b911e423",
      "blockNumber": "0x419298b",
      "gasUsed": "0x63aef",
      "effectiveGasPrice": "0x16cd73d87e",
      "from": "0x71f74debb7fd42e61de32256537284e06de8812d",
      "to": "0x1cdf6aabdcd19d2ed3ac927bb7b9835ac6942590",
      "contractAddress": null
    }
  ],
  "libraries": [],
  "pending": [],
  "returns": {},
  "timestamp": 1741353500,
  "chain": 137,
  "commit": "c00d083"
}