{
  "transactions": [
    {
      "hash": "0x6f028fcf32c053dd48936d9dc5be15f9d3e8723f4a72a52cfa4a9406e3fecea3",
      "transactionType": "CALL",
      "contractName": null,
      "contractAddress": "0x1cdf6aabdcd19d2ed3ac927bb7b9835ac6942590",
      "function": "iteratePairList(uint256,uint256,uint256,uint256,uint256,bool)",
      "arguments": [
        "0",
        "3",
        "50",
        "50",
        "0",
        "false"
      ],
      "transaction": {
        "from": "0x71f74debb7fd42e61de32256537284e06de8812d",
        "to": "0x1cdf6aabdcd19d2ed3ac927bb7b9835ac6942590",
        "gas": "0x49278",
        "value": "0x0",
        "input": "0x8101424d000000000000000000000000000000000000000000000000000000000000000000000000000000000000000000000000000000000000000000000000000000030000000000000000000000000000000000000000000000000000000000000032000000000000000000000000000000000000000000000000000000000000003200000000000000000000000000000000000000000000000000000000000000000000000000000000000000000000000000000000000000000000000000000000",
        "nonce": "0x27c",
        "chainId": "0x89"
      },
      "additionalContracts": [],
      "isFixedGasLimit": false
    }
  ],
  "receipts": [
    {
      "status": "0x1",
      "cumulativeGasUsed": "0xbfd18e",
      "logs": [
        {
          "address": "0x0000000000000000000000000000000000001010",
          "topics": [
            "0x4dfe1bbbcf077ddc3e01291eea2d5c70c2b422b415d95645b9adcfd678cb1d63",
            "0x0000000000000000000000000000000000000000000000000000000000001010",
            "0x00000000000000000000000071f74debb7fd42e61de32256537284e06de8812d",
            "0x000000000000000000000000ca4793c93a94e7a70a4631b1cece6546e76eb19e"
          ],
          "data": "0x0000000000000000000000000000000000000000000000000016769a0765aa44000000000000000000000000000000000000000000000000262b9109a73025c90000000000000000000000000000000000000000000011a36a72735408252be500000000000000000000000000000000000000000000000026151a6f9fca7b850000000000000000000000000000000000000000000011a36a88e9ee0f8ad629",
          "blockHash": "0xb2c8a70992a49f427b20e5e2dcb5037a93f5e9086945f99af684c4d9e498bd5d",
          "blockNumber": "0x418eaed",
          "transactionHash": "0x6f028fcf32c053dd48936d9dc5be15f9d3e8723f4a72a52cfa4a9406e3fecea3",
          "transactionIndex": "0x5e",
          "logIndex": "0x19f",
          "removed": false
        }
      ],
      "logsBloom": "0x00000000200000000000000000000000000000000000000000000000000000000000000000000000000000000000000000008000000000000000000000000000000010000000000000000000000000800000000000000000400100000000000000000000000000000000000000000000000000000000000080000000000000000000000000000000000000000000000000000000000000000000000000080000200000000000000000000000000000000000000000000000000000000000004000000000000000000001000000000000000000000000000000100008000000000000000000000000000000000400000000000000000000000000000000100000",
      "type": "0x2",
      "transactionHash": "0x6f028fcf32c053dd48936d9dc5be15f9d3e8723f4a72a52cfa4a9406e3fecea3",
      "transactionIndex": "0x5e",
      "blockHash": "0xb2c8a70992a49f427b20e5e2dcb5037a93f5e9086945f99af684c4d9e498bd5d",
      "blockNumber": "0x418eaed",
      "gasUsed": "0x34f67",
      "effectiveGasPrice": "0xe09dbc9b6",
      "from": "0x71f74debb7fd42e61de32256537284e06de8812d",
      "to": "0x1cdf6aabdcd19d2ed3ac927bb7b9835ac6942590",
      "contractAddress": null
    }
  ],
  "libraries": [],
  "pending": [],
  "returns": {},
  "timestamp": 1741319435,
  "chain": 137,
  "commit": "5016532"
}