{
  "transactions": [
    {
      "hash": "0x67c5cc1bd538bd5271dfef2363f3d6a0d616af28e4ef43911bfe78f31e2426ae",
      "transactionType": "CALL",
      "contractName": null,
      "contractAddress": "0x1cdf6aabdcd19d2ed3ac927bb7b9835ac6942590",
      "function": "iteratePairList(uint256,uint256,uint256,uint256,uint256,bool)",
      "arguments": [
        "0",
        "8",
        "60",
        "15",
        "1000",
        "false"
      ],
      "transaction": {
        "from": "0x71f74debb7fd42e61de32256537284e06de8812d",
        "to": "0x1cdf6aabdcd19d2ed3ac927bb7b9835ac6942590",
        "gas": "0x102293",
        "value": "0x0",
        "input": "0x8101424d00000000000000000000000000000000000000000000000000000000000000000000000000000000000000000000000000000000000000000000000000000008000000000000000000000000000000000000000000000000000000000000003c000000000000000000000000000000000000000000000000000000000000000f00000000000000000000000000000000000000000000000000000000000003e80000000000000000000000000000000000000000000000000000000000000000",
        "nonce": "0x29e",
        "chainId": "0x89"
      },
      "additionalContracts": [],
      "isFixedGasLimit": false
    }
  ],
  "receipts": [
    {
      "status": "0x1",
      "cumulativeGasUsed": "0x756de3",
      "logs": [
        {
          "address": "0x1cdf6aabdcd19d2ed3ac927bb7b9835ac6942590",
          "topics": [
            "0x05ae39bd3637f496d15f3461b4f129f5220ecb5dd2c8b18471081ae0b514d6f4",
            "0x000000000000000000000000c2132d05d31c914a87c6611c10748aeb04b58e8f",
            "0x0000000000000000000000007ceb23fd6bc0add59e62ac25578270cff1b9f619"
          ],
          "data": "0x000000000000000000000000a5e0829caced8ffdd4de3c43696c57f7d7a678ff000000000000000000000000edf6066a2b290c185783862c7f4776a2c8077ad1000000000000000000000000000000000000000000000000000000000000003c000000000000000000000000000000000000000000000000000000065b2da90800000000000000000000000000000000000000000000000000000006526cecc20000000000000000000000000000000000000000000000000000000008bd5fd4",
          "blockHash": "0x1c29d6e704e7faa2b6c0cc8f30bc2b33a8b62f97a0d87d70b8aa242cf66f0d50",
          "blockNumber": "0x4192e46",
          "transactionHash": "0x67c5cc1bd538bd5271dfef2363f3d6a0d616af28e4ef43911bfe78f31e2426ae",
          "transactionIndex": "0x41",
          "logIndex": "0xd3",
          "removed": false
        },
        {
          "address": "0xc2132d05d31c914a87c6611c10748aeb04b58e8f",
          "topics": [
            "0x8c5be1e5ebec7d5bd14f71427d1e84f3dd0314c0f7b2291e5b200ac8c7c3b925",
            "0x0000000000000000000000001cdf6aabdcd19d2ed3ac927bb7b9835ac6942590",
            "0x000000000000000000000000edf6066a2b290c185783862c7f4776a2c8077ad1"
          ],
          "data": "0x000000000000000000000000000000000000000000000000000000000000003c",
          "blockHash": "0x1c29d6e704e7faa2b6c0cc8f30bc2b33a8b62f97a0d87d70b8aa242cf66f0d50",
          "blockNumber": "0x4192e46",
          "transactionHash": "0x67c5cc1bd538bd5271dfef2363f3d6a0d616af28e4ef43911bfe78f31e2426ae",
          "transactionIndex": "0x41",
          "logIndex": "0xd4",
          "removed": false
        },
        {
          "address": "0xc2132d05d31c914a87c6611c10748aeb04b58e8f",
          "topics": [
            "0xddf252ad1be2c89b69c2b068fc378daa952ba7f163c4a11628f55a4df523b3ef",
            "0x0000000000000000000000001cdf6aabdcd19d2ed3ac927bb7b9835ac6942590",
            "0x00000000000000000000000092a0e9a04cf2d519c7fba179da43a08f5a1aea7e"
          ],
          "data": "0x000000000000000000000000000000000000000000000000000000000000003c",
          "blockHash": "0x1c29d6e704e7faa2b6c0cc8f30bc2b33a8b62f97a0d87d70b8aa242cf66f0d50",
          "blockNumber": "0x4192e46",
          "transactionHash": "0x67c5cc1bd538bd5271dfef2363f3d6a0d616af28e4ef43911bfe78f31e2426ae",
          "transactionIndex": "0x41",
          "logIndex": "0xd5",
          "removed": false
        },
        {
          "address": "0xc2132d05d31c914a87c6611c10748aeb04b58e8f",
          "topics": [
            "0x8c5be1e5ebec7d5bd14f71427d1e84f3dd0314c0f7b2291e5b200ac8c7c3b925",
            "0x0000000000000000000000001cdf6aabdcd19d2ed3ac927bb7b9835ac6942590",
            "0x000000000000000000000000edf6066a2b290c185783862c7f4776a2c8077ad1"
          ],
          "data": "0x0000000000000000000000000000000000000000000000000000000000000000",
          "blockHash": "0x1c29d6e704e7faa2b6c0cc8f30bc2b33a8b62f97a0d87d70b8aa242cf66f0d50",
          "blockNumber": "0x4192e46",
          "transactionHash": "0x67c5cc1bd538bd5271dfef2363f3d6a0d616af28e4ef43911bfe78f31e2426ae",
          "transactionIndex": "0x41",
          "logIndex": "0xd6",
          "removed": false
        },
        {
          "address": "0x7ceb23fd6bc0add59e62ac25578270cff1b9f619",
          "topics": [
            "0xddf252ad1be2c89b69c2b068fc378daa952ba7f163c4a11628f55a4df523b3ef",
            "0x00000000000000000000000092a0e9a04cf2d519c7fba179da43a08f5a1aea7e",
            "0x0000000000000000000000001cdf6aabdcd19d2ed3ac927bb7b9835ac6942590"
          ],
          "data": "0x00000000000000000000000000000000000000000000000000000006526cecc2",
          "blockHash": "0x1c29d6e704e7faa2b6c0cc8f30bc2b33a8b62f97a0d87d70b8aa242cf66f0d50",
          "blockNumber": "0x4192e46",
          "transactionHash": "0x67c5cc1bd538bd5271dfef2363f3d6a0d616af28e4ef43911bfe78f31e2426ae",
          "transactionIndex": "0x41",
          "logIndex": "0xd7",
          "removed": false
        },
        {
          "address": "0x92a0e9a04cf2d519c7fba179da43a08f5a1aea7e",
          "topics": [
            "0x1c411e9a96e071241c2f21f7726b17ae89e3cab4c78be50e062b03a9fffbbad1"
          ],
          "data": "0x000000000000000000000000000000000000000000000000029eb8d77ff14b740000000000000000000000000000000000000000000000000000000018ca878e",
          "blockHash": "0x1c29d6e704e7faa2b6c0cc8f30bc2b33a8b62f97a0d87d70b8aa242cf66f0d50",
          "blockNumber": "0x4192e46",
          "transactionHash": "0x67c5cc1bd538bd5271dfef2363f3d6a0d616af28e4ef43911bfe78f31e2426ae",
          "transactionIndex": "0x41",
          "logIndex": "0xd8",
          "removed": false
        },
        {
          "address": "0x92a0e9a04cf2d519c7fba179da43a08f5a1aea7e",
          "topics": [
            "0xd78ad95fa46c994b6551d0da85fc275fe613ce37657fb8d5e3d130840159d822",
            "0x000000000000000000000000edf6066a2b290c185783862c7f4776a2c8077ad1",
            "0x0000000000000000000000001cdf6aabdcd19d2ed3ac927bb7b9835ac6942590"
          ],
          "data": "0x0000000000000000000000000000000000000000000000000000000000000000000000000000000000000000000000000000000000000000000000000000003c00000000000000000000000000000000000000000000000000000006526cecc20000000000000000000000000000000000000000000000000000000000000000",
          "blockHash": "0x1c29d6e704e7faa2b6c0cc8f30bc2b33a8b62f97a0d87d70b8aa242cf66f0d50",
          "blockNumber": "0x4192e46",
          "transactionHash": "0x67c5cc1bd538bd5271dfef2363f3d6a0d616af28e4ef43911bfe78f31e2426ae",
          "transactionIndex": "0x41",
          "logIndex": "0xd9",
          "removed": false
        },
        {
          "address": "0x7ceb23fd6bc0add59e62ac25578270cff1b9f619",
          "topics": [
            "0x8c5be1e5ebec7d5bd14f71427d1e84f3dd0314c0f7b2291e5b200ac8c7c3b925",
            "0x0000000000000000000000001cdf6aabdcd19d2ed3ac927bb7b9835ac6942590",
            "0x000000000000000000000000a5e0829caced8ffdd4de3c43696c57f7d7a678ff"
          ],
          "data": "0x00000000000000000000000000000000000000000000000000000006526cecc2",
          "blockHash": "0x1c29d6e704e7faa2b6c0cc8f30bc2b33a8b62f97a0d87d70b8aa242cf66f0d50",
          "blockNumber": "0x4192e46",
          "transactionHash": "0x67c5cc1bd538bd5271dfef2363f3d6a0d616af28e4ef43911bfe78f31e2426ae",
          "transactionIndex": "0x41",
          "logIndex": "0xda",
          "removed": false
        },
        {
          "address": "0x7ceb23fd6bc0add59e62ac25578270cff1b9f619",
          "topics": [
            "0xddf252ad1be2c89b69c2b068fc378daa952ba7f163c4a11628f55a4df523b3ef",
            "0x0000000000000000000000001cdf6aabdcd19d2ed3ac927bb7b9835ac6942590",
            "0x000000000000000000000000f6422b997c7f54d1c6a6e103bcb1499eea0a7046"
          ],
          "data": "0x00000000000000000000000000000000000000000000000000000006526cecc2",
          "blockHash": "0x1c29d6e704e7faa2b6c0cc8f30bc2b33a8b62f97a0d87d70b8aa242cf66f0d50",
          "blockNumber": "0x4192e46",
          "transactionHash": "0x67c5cc1bd538bd5271dfef2363f3d6a0d616af28e4ef43911bfe78f31e2426ae",
          "transactionIndex": "0x41",
          "logIndex": "0xdb",
          "removed": false
        },
        {
          "address": "0x7ceb23fd6bc0add59e62ac25578270cff1b9f619",
          "topics": [
            "0x8c5be1e5ebec7d5bd14f71427d1e84f3dd0314c0f7b2291e5b200ac8c7c3b925",
            "0x0000000000000000000000001cdf6aabdcd19d2ed3ac927bb7b9835ac6942590",
            "0x000000000000000000000000a5e0829caced8ffdd4de3c43696c57f7d7a678ff"
          ],
          "data": "0x0000000000000000000000000000000000000000000000000000000000000000",
          "blockHash": "0x1c29d6e704e7faa2b6c0cc8f30bc2b33a8b62f97a0d87d70b8aa242cf66f0d50",
          "blockNumber": "0x4192e46",
          "transactionHash": "0x67c5cc1bd538bd5271dfef2363f3d6a0d616af28e4ef43911bfe78f31e2426ae",
          "transactionIndex": "0x41",
          "logIndex": "0xdc",
          "removed": false
        },
        {
          "address": "0xc2132d05d31c914a87c6611c10748aeb04b58e8f",
          "topics": [
            "0xddf252ad1be2c89b69c2b068fc378daa952ba7f163c4a11628f55a4df523b3ef",
            "0x000000000000000000000000f6422b997c7f54d1c6a6e103bcb1499eea0a7046",
            "0x00000000000000000000000071f74debb7fd42e61de32256537284e06de8812d"
          ],
          "data": "0x000000000000000000000000000000000000000000000000000000000000003b",
          "blockHash": "0x1c29d6e704e7faa2b6c0cc8f30bc2b33a8b62f97a0d87d70b8aa242cf66f0d50",
          "blockNumber": "0x4192e46",
          "transactionHash": "0x67c5cc1bd538bd5271dfef2363f3d6a0d616af28e4ef43911bfe78f31e2426ae",
          "transactionIndex": "0x41",
          "logIndex": "0xdd",
          "removed": false
        },
        {
          "address": "0xf6422b997c7f54d1c6a6e103bcb1499eea0a7046",
          "topics": [
            "0x1c411e9a96e071241c2f21f7726b17ae89e3cab4c78be50e062b03a9fffbbad1"
          ],
          "data": "0x000000000000000000000000000000000000000000000001b1206a759d0663960000000000000000000000000000000000000000000000000000000fec4cb0f3",
          "blockHash": "0x1c29d6e704e7faa2b6c0cc8f30bc2b33a8b62f97a0d87d70b8aa242cf66f0d50",
          "blockNumber": "0x4192e46",
          "transactionHash": "0x67c5cc1bd538bd5271dfef2363f3d6a0d616af28e4ef43911bfe78f31e2426ae",
          "transactionIndex": "0x41",
          "logIndex": "0xde",
          "removed": false
        },
        {
          "address": "0xf6422b997c7f54d1c6a6e103bcb1499eea0a7046",
          "topics": [
            "0xd78ad95fa46c994b6551d0da85fc275fe613ce37657fb8d5e3d130840159d822",
            "0x000000000000000000000000a5e0829caced8ffdd4de3c43696c57f7d7a678ff",
            "0x00000000000000000000000071f74debb7fd42e61de32256537284e06de8812d"
          ],
          "data": "0x00000000000000000000000000000000000000000000000000000006526cecc200000000000000000000000000000000000000000000000000000000000000000000000000000000000000000000000000000000000000000000000000000000000000000000000000000000000000000000000000000000000000000000003b",
          "blockHash": "0x1c29d6e704e7faa2b6c0cc8f30bc2b33a8b62f97a0d87d70b8aa242cf66f0d50",
          "blockNumber": "0x4192e46",
          "transactionHash": "0x67c5cc1bd538bd5271dfef2363f3d6a0d616af28e4ef43911bfe78f31e2426ae",
          "transactionIndex": "0x41",
          "logIndex": "0xdf",
          "removed": false
        },
        {
          "address": "0x1cdf6aabdcd19d2ed3ac927bb7b9835ac6942590",
          "topics": [
            "0x05ae39bd3637f496d15f3461b4f129f5220ecb5dd2c8b18471081ae0b514d6f4",
            "0x000000000000000000000000c2132d05d31c914a87c6611c10748aeb04b58e8f",
            "0x0000000000000000000000007ceb23fd6bc0add59e62ac25578270cff1b9f619"
          ],
          "data": "0x000000000000000000000000a5e0829caced8ffdd4de3c43696c57f7d7a678ff000000000000000000000000edf6066a2b290c185783862c7f4776a2c8077ad1000000000000000000000000000000000000000000000000000000000000003c000000000000000000000000000000000000000000000000000000065b2da93700000000000000000000000000000000000000000000000000000006526cce340000000000000000000000000000000000000000000000000000000008bd7e86",
          "blockHash": "0x1c29d6e704e7faa2b6c0cc8f30bc2b33a8b62f97a0d87d70b8aa242cf66f0d50",
          "blockNumber": "0x4192e46",
          "transactionHash": "0x67c5cc1bd538bd5271dfef2363f3d6a0d616af28e4ef43911bfe78f31e2426ae",
          "transactionIndex": "0x41",
          "logIndex": "0xe0",
          "removed": false
        },
        {
          "address": "0xc2132d05d31c914a87c6611c10748aeb04b58e8f",
          "topics": [
            "0x8c5be1e5ebec7d5bd14f71427d1e84f3dd0314c0f7b2291e5b200ac8c7c3b925",
            "0x0000000000000000000000001cdf6aabdcd19d2ed3ac927bb7b9835ac6942590",
            "0x000000000000000000000000edf6066a2b290c185783862c7f4776a2c8077ad1"
          ],
          "data": "0x000000000000000000000000000000000000000000000000000000000000003c",
          "blockHash": "0x1c29d6e704e7faa2b6c0cc8f30bc2b33a8b62f97a0d87d70b8aa242cf66f0d50",
          "blockNumber": "0x4192e46",
          "transactionHash": "0x67c5cc1bd538bd5271dfef2363f3d6a0d616af28e4ef43911bfe78f31e2426ae",
          "transactionIndex": "0x41",
          "logIndex": "0xe1",
          "removed": false
        },
        {
          "address": "0xc2132d05d31c914a87c6611c10748aeb04b58e8f",
          "topics": [
            "0xddf252ad1be2c89b69c2b068fc378daa952ba7f163c4a11628f55a4df523b3ef",
            "0x0000000000000000000000001cdf6aabdcd19d2ed3ac927bb7b9835ac6942590",
            "0x00000000000000000000000092a0e9a04cf2d519c7fba179da43a08f5a1aea7e"
          ],
          "data": "0x000000000000000000000000000000000000000000000000000000000000003c",
          "blockHash": "0x1c29d6e704e7faa2b6c0cc8f30bc2b33a8b62f97a0d87d70b8aa242cf66f0d50",
          "blockNumber": "0x4192e46",
          "transactionHash": "0x67c5cc1bd538bd5271dfef2363f3d6a0d616af28e4ef43911bfe78f31e2426ae",
          "transactionIndex": "0x41",
          "logIndex": "0xe2",
          "removed": false
        },
        {
          "address": "0xc2132d05d31c914a87c6611c10748aeb04b58e8f",
          "topics": [
            "0x8c5be1e5ebec7d5bd14f71427d1e84f3dd0314c0f7b2291e5b200ac8c7c3b925",
            "0x0000000000000000000000001cdf6aabdcd19d2ed3ac927bb7b9835ac6942590",
            "0x000000000000000000000000edf6066a2b290c185783862c7f4776a2c8077ad1"
          ],
          "data": "0x0000000000000000000000000000000000000000000000000000000000000000",
          "blockHash": "0x1c29d6e704e7faa2b6c0cc8f30bc2b33a8b62f97a0d87d70b8aa242cf66f0d50",
          "blockNumber": "0x4192e46",
          "transactionHash": "0x67c5cc1bd538bd5271dfef2363f3d6a0d616af28e4ef43911bfe78f31e2426ae",
          "transactionIndex": "0x41",
          "logIndex": "0xe3",
          "removed": false
        },
        {
          "address": "0x7ceb23fd6bc0add59e62ac25578270cff1b9f619",
          "topics": [
            "0xddf252ad1be2c89b69c2b068fc378daa952ba7f163c4a11628f55a4df523b3ef",
            "0x00000000000000000000000092a0e9a04cf2d519c7fba179da43a08f5a1aea7e",
            "0x0000000000000000000000001cdf6aabdcd19d2ed3ac927bb7b9835ac6942590"
          ],
          "data": "0x00000000000000000000000000000000000000000000000000000006526cce34",
          "blockHash": "0x1c29d6e704e7faa2b6c0cc8f30bc2b33a8b62f97a0d87d70b8aa242cf66f0d50",
          "blockNumber": "0x4192e46",
          "transactionHash": "0x67c5cc1bd538bd5271dfef2363f3d6a0d616af28e4ef43911bfe78f31e2426ae",
          "transactionIndex": "0x41",
          "logIndex": "0xe4",
          "removed": false
        },
        {
          "address": "0x92a0e9a04cf2d519c7fba179da43a08f5a1aea7e",
          "topics": [
            "0x1c411e9a96e071241c2f21f7726b17ae89e3cab4c78be50e062b03a9fffbbad1"
          ],
          "data": "0x000000000000000000000000000000000000000000000000029eb8d12d847d400000000000000000000000000000000000000000000000000000000018ca87ca",
          "blockHash": "0x1c29d6e704e7faa2b6c0cc8f30bc2b33a8b62f97a0d87d70b8aa242cf66f0d50",
          "blockNumber": "0x4192e46",
          "transactionHash": "0x67c5cc1bd538bd5271dfef2363f3d6a0d616af28e4ef43911bfe78f31e2426ae",
          "transactionIndex": "0x41",
          "logIndex": "0xe5",
          "removed": false
        },
        {
          "address": "0x92a0e9a04cf2d519c7fba179da43a08f5a1aea7e",
          "topics": [
            "0xd78ad95fa46c994b6551d0da85fc275fe613ce37657fb8d5e3d130840159d822",
            "0x000000000000000000000000edf6066a2b290c185783862c7f4776a2c8077ad1",
            "0x0000000000000000000000001cdf6aabdcd19d2ed3ac927bb7b9835ac6942590"
          ],
          "data": "0x0000000000000000000000000000000000000000000000000000000000000000000000000000000000000000000000000000000000000000000000000000003c00000000000000000000000000000000000000000000000000000006526cce340000000000000000000000000000000000000000000000000000000000000000",
          "blockHash": "0x1c29d6e704e7faa2b6c0cc8f30bc2b33a8b62f97a0d87d70b8aa242cf66f0d50",
          "blockNumber": "0x4192e46",
          "transactionHash": "0x67c5cc1bd538bd5271dfef2363f3d6a0d616af28e4ef43911bfe78f31e2426ae",
          "transactionIndex": "0x41",
          "logIndex": "0xe6",
          "removed": false
        },
        {
          "address": "0x7ceb23fd6bc0add59e62ac25578270cff1b9f619",
          "topics": [
            "0x8c5be1e5ebec7d5bd14f71427d1e84f3dd0314c0f7b2291e5b200ac8c7c3b925",
            "0x0000000000000000000000001cdf6aabdcd19d2ed3ac927bb7b9835ac6942590",
            "0x000000000000000000000000a5e0829caced8ffdd4de3c43696c57f7d7a678ff"
          ],
          "data": "0x00000000000000000000000000000000000000000000000000000006526cce34",
          "blockHash": "0x1c29d6e704e7faa2b6c0cc8f30bc2b33a8b62f97a0d87d70b8aa242cf66f0d50",
          "blockNumber": "0x4192e46",
          "transactionHash": "0x67c5cc1bd538bd5271dfef2363f3d6a0d616af28e4ef43911bfe78f31e2426ae",
          "transactionIndex": "0x41",
          "logIndex": "0xe7",
          "removed": false
        },
        {
          "address": "0x7ceb23fd6bc0add59e62ac25578270cff1b9f619",
          "topics": [
            "0xddf252ad1be2c89b69c2b068fc378daa952ba7f163c4a11628f55a4df523b3ef",
            "0x0000000000000000000000001cdf6aabdcd19d2ed3ac927bb7b9835ac6942590",
            "0x000000000000000000000000f6422b997c7f54d1c6a6e103bcb1499eea0a7046"
          ],
          "data": "0x00000000000000000000000000000000000000000000000000000006526cce34",
          "blockHash": "0x1c29d6e704e7faa2b6c0cc8f30bc2b33a8b62f97a0d87d70b8aa242cf66f0d50",
          "blockNumber": "0x4192e46",
          "transactionHash": "0x67c5cc1bd538bd5271dfef2363f3d6a0d616af28e4ef43911bfe78f31e2426ae",
          "transactionIndex": "0x41",
          "logIndex": "0xe8",
          "removed": false
        },
        {
          "address": "0x7ceb23fd6bc0add59e62ac25578270cff1b9f619",
          "topics": [
            "0x8c5be1e5ebec7d5bd14f71427d1e84f3dd0314c0f7b2291e5b200ac8c7c3b925",
            "0x0000000000000000000000001cdf6aabdcd19d2ed3ac927bb7b9835ac6942590",
            "0x000000000000000000000000a5e0829caced8ffdd4de3c43696c57f7d7a678ff"
          ],
          "data": "0x0000000000000000000000000000000000000000000000000000000000000000",
          "blockHash": "0x1c29d6e704e7faa2b6c0cc8f30bc2b33a8b62f97a0d87d70b8aa242cf66f0d50",
          "blockNumber": "0x4192e46",
          "transactionHash": "0x67c5cc1bd538bd5271dfef2363f3d6a0d616af28e4ef43911bfe78f31e2426ae",
          "transactionIndex": "0x41",
          "logIndex": "0xe9",
          "removed": false
        },
        {
          "address": "0xc2132d05d31c914a87c6611c10748aeb04b58e8f",
          "topics": [
            "0xddf252ad1be2c89b69c2b068fc378daa952ba7f163c4a11628f55a4df523b3ef",
            "0x000000000000000000000000f6422b997c7f54d1c6a6e103bcb1499eea0a7046",
            "0x00000000000000000000000071f74debb7fd42e61de32256537284e06de8812d"
          ],
          "data": "0x000000000000000000000000000000000000000000000000000000000000003b",
          "blockHash": "0x1c29d6e704e7faa2b6c0cc8f30bc2b33a8b62f97a0d87d70b8aa242cf66f0d50",
          "blockNumber": "0x4192e46",
          "transactionHash": "0x67c5cc1bd538bd5271dfef2363f3d6a0d616af28e4ef43911bfe78f31e2426ae",
          "transactionIndex": "0x41",
          "logIndex": "0xea",
          "removed": false
        },
        {
          "address": "0xf6422b997c7f54d1c6a6e103bcb1499eea0a7046",
          "topics": [
            "0x1c411e9a96e071241c2f21f7726b17ae89e3cab4c78be50e062b03a9fffbbad1"
          ],
          "data": "0x000000000000000000000000000000000000000000000001b1206a7bef7331ca0000000000000000000000000000000000000000000000000000000fec4cb0b8",
          "blockHash": "0x1c29d6e704e7faa2b6c0cc8f30bc2b33a8b62f97a0d87d70b8aa242cf66f0d50",
          "blockNumber": "0x4192e46",
          "transactionHash": "0x67c5cc1bd538bd5271dfef2363f3d6a0d616af28e4ef43911bfe78f31e2426ae",
          "transactionIndex": "0x41",
          "logIndex": "0xeb",
          "removed": false
        },
        {
          "address": "0xf6422b997c7f54d1c6a6e103bcb1499eea0a7046",
          "topics": [
            "0xd78ad95fa46c994b6551d0da85fc275fe613ce37657fb8d5e3d130840159d822",
            "0x000000000000000000000000a5e0829caced8ffdd4de3c43696c57f7d7a678ff",
            "0x00000000000000000000000071f74debb7fd42e61de32256537284e06de8812d"
          ],
          "data": "0x00000000000000000000000000000000000000000000000000000006526cce3400000000000000000000000000000000000000000000000000000000000000000000000000000000000000000000000000000000000000000000000000000000000000000000000000000000000000000000000000000000000000000000003b",
          "blockHash": "0x1c29d6e704e7faa2b6c0cc8f30bc2b33a8b62f97a0d87d70b8aa242cf66f0d50",
          "blockNumber": "0x4192e46",
          "transactionHash": "0x67c5cc1bd538bd5271dfef2363f3d6a0d616af28e4ef43911bfe78f31e2426ae",
          "transactionIndex": "0x41",
          "logIndex": "0xec",
          "removed": false
        },
        {
          "address": "0x1cdf6aabdcd19d2ed3ac927bb7b9835ac6942590",
          "topics": [
            "0x05ae39bd3637f496d15f3461b4f129f5220ecb5dd2c8b18471081ae0b514d6f4",
            "0x000000000000000000000000c2132d05d31c914a87c6611c10748aeb04b58e8f",
            "0x0000000000000000000000007ceb23fd6bc0add59e62ac25578270cff1b9f619"
          ],
          "data": "0x000000000000000000000000a5e0829caced8ffdd4de3c43696c57f7d7a678ff000000000000000000000000edf6066a2b290c185783862c7f4776a2c8077ad1000000000000000000000000000000000000000000000000000000000000003c000000000000000000000000000000000000000000000000000000065b2da96600000000000000000000000000000000000000000000000000000006526cafa60000000000000000000000000000000000000000000000000000000008bd9d37",
          "blockHash": "0x1c29d6e704e7faa2b6c0cc8f30bc2b33a8b62f97a0d87d70b8aa242cf66f0d50",
          "blockNumber": "0x4192e46",
          "transactionHash": "0x67c5cc1bd538bd5271dfef2363f3d6a0d616af28e4ef43911bfe78f31e2426ae",
          "transactionIndex": "0x41",
          "logIndex": "0xed",
          "removed": false
        },
        {
          "address": "0xc2132d05d31c914a87c6611c10748aeb04b58e8f",
          "topics": [
            "0x8c5be1e5ebec7d5bd14f71427d1e84f3dd0314c0f7b2291e5b200ac8c7c3b925",
            "0x0000000000000000000000001cdf6aabdcd19d2ed3ac927bb7b9835ac6942590",
            "0x000000000000000000000000edf6066a2b290c185783862c7f4776a2c8077ad1"
          ],
          "data": "0x000000000000000000000000000000000000000000000000000000000000003c",
          "blockHash": "0x1c29d6e704e7faa2b6c0cc8f30bc2b33a8b62f97a0d87d70b8aa242cf66f0d50",
          "blockNumber": "0x4192e46",
          "transactionHash": "0x67c5cc1bd538bd5271dfef2363f3d6a0d616af28e4ef43911bfe78f31e2426ae",
          "transactionIndex": "0x41",
          "logIndex": "0xee",
          "removed": false
        },
        {
          "address": "0xc2132d05d31c914a87c6611c10748aeb04b58e8f",
          "topics": [
            "0xddf252ad1be2c89b69c2b068fc378daa952ba7f163c4a11628f55a4df523b3ef",
            "0x0000000000000000000000001cdf6aabdcd19d2ed3ac927bb7b9835ac6942590",
            "0x00000000000000000000000092a0e9a04cf2d519c7fba179da43a08f5a1aea7e"
          ],
          "data": "0x000000000000000000000000000000000000000000000000000000000000003c",
          "blockHash": "0x1c29d6e704e7faa2b6c0cc8f30bc2b33a8b62f97a0d87d70b8aa242cf66f0d50",
          "blockNumber": "0x4192e46",
          "transactionHash": "0x67c5cc1bd538bd5271dfef2363f3d6a0d616af28e4ef43911bfe78f31e2426ae",
          "transactionIndex": "0x41",
          "logIndex": "0xef",
          "removed": false
        },
        {
          "address": "0xc2132d05d31c914a87c6611c10748aeb04b58e8f",
          "topics": [
            "0x8c5be1e5ebec7d5bd14f71427d1e84f3dd0314c0f7b2291e5b200ac8c7c3b925",
            "0x0000000000000000000000001cdf6aabdcd19d2ed3ac927bb7b9835ac6942590",
            "0x000000000000000000000000edf6066a2b290c185783862c7f4776a2c8077ad1"
          ],
          "data": "0x0000000000000000000000000000000000000000000000000000000000000000",
          "blockHash": "0x1c29d6e704e7faa2b6c0cc8f30bc2b33a8b62f97a0d87d70b8aa242cf66f0d50",
          "blockNumber": "0x4192e46",
          "transactionHash": "0x67c5cc1bd538bd5271dfef2363f3d6a0d616af28e4ef43911bfe78f31e2426ae",
          "transactionIndex": "0x41",
          "logIndex": "0xf0",
          "removed": false
        },
        {
          "address": "0x7ceb23fd6bc0add59e62ac25578270cff1b9f619",
          "topics": [
            "0xddf252ad1be2c89b69c2b068fc378daa952ba7f163c4a11628f55a4df523b3ef",
            "0x00000000000000000000000092a0e9a04cf2d519c7fba179da43a08f5a1aea7e",
            "0x0000000000000000000000001cdf6aabdcd19d2ed3ac927bb7b9835ac6942590"
          ],
          "data": "0x00000000000000000000000000000000000000000000000000000006526cafa6",
          "blockHash": "0x1c29d6e704e7faa2b6c0cc8f30bc2b33a8b62f97a0d87d70b8aa242cf66f0d50",
          "blockNumber": "0x4192e46",
          "transactionHash": "0x67c5cc1bd538bd5271dfef2363f3d6a0d616af28e4ef43911bfe78f31e2426ae",
          "transactionIndex": "0x41",
          "logIndex": "0xf1",
          "removed": false
        },
        {
          "address": "0x92a0e9a04cf2d519c7fba179da43a08f5a1aea7e",
          "topics": [
            "0x1c411e9a96e071241c2f21f7726b17ae89e3cab4c78be50e062b03a9fffbbad1"
          ],
          "data": "0x000000000000000000000000000000000000000000000000029eb8cadb17cd9a0000000000000000000000000000000000000000000000000000000018ca8806",
          "blockHash": "0x1c29d6e704e7faa2b6c0cc8f30bc2b33a8b62f97a0d87d70b8aa242cf66f0d50",
          "blockNumber": "0x4192e46",
          "transactionHash": "0x67c5cc1bd538bd5271dfef2363f3d6a0d616af28e4ef43911bfe78f31e2426ae",
          "transactionIndex": "0x41",
          "logIndex": "0xf2",
          "removed": false
        },
        {
          "address": "0x92a0e9a04cf2d519c7fba179da43a08f5a1aea7e",
          "topics": [
            "0xd78ad95fa46c994b6551d0da85fc275fe613ce37657fb8d5e3d130840159d822",
            "0x000000000000000000000000edf6066a2b290c185783862c7f4776a2c8077ad1",
            "0x0000000000000000000000001cdf6aabdcd19d2ed3ac927bb7b9835ac6942590"
          ],
          "data": "0x0000000000000000000000000000000000000000000000000000000000000000000000000000000000000000000000000000000000000000000000000000003c00000000000000000000000000000000000000000000000000000006526cafa60000000000000000000000000000000000000000000000000000000000000000",
          "blockHash": "0x1c29d6e704e7faa2b6c0cc8f30bc2b33a8b62f97a0d87d70b8aa242cf66f0d50",
          "blockNumber": "0x4192e46",
          "transactionHash": "0x67c5cc1bd538bd5271dfef2363f3d6a0d616af28e4ef43911bfe78f31e2426ae",
          "transactionIndex": "0x41",
          "logIndex": "0xf3",
          "removed": false
        },
        {
          "address": "0x7ceb23fd6bc0add59e62ac25578270cff1b9f619",
          "topics": [
            "0x8c5be1e5ebec7d5bd14f71427d1e84f3dd0314c0f7b2291e5b200ac8c7c3b925",
            "0x0000000000000000000000001cdf6aabdcd19d2ed3ac927bb7b9835ac6942590",
            "0x000000000000000000000000a5e0829caced8ffdd4de3c43696c57f7d7a678ff"
          ],
          "data": "0x00000000000000000000000000000000000000000000000000000006526cafa6",
          "blockHash": "0x1c29d6e704e7faa2b6c0cc8f30bc2b33a8b62f97a0d87d70b8aa242cf66f0d50",
          "blockNumber": "0x4192e46",
          "transactionHash": "0x67c5cc1bd538bd5271dfef2363f3d6a0d616af28e4ef43911bfe78f31e2426ae",
          "transactionIndex": "0x41",
          "logIndex": "0xf4",
          "removed": false
        },
        {
          "address": "0x7ceb23fd6bc0add59e62ac25578270cff1b9f619",
          "topics": [
            "0xddf252ad1be2c89b69c2b068fc378daa952ba7f163c4a11628f55a4df523b3ef",
            "0x0000000000000000000000001cdf6aabdcd19d2ed3ac927bb7b9835ac6942590",
            "0x000000000000000000000000f6422b997c7f54d1c6a6e103bcb1499eea0a7046"
          ],
          "data": "0x00000000000000000000000000000000000000000000000000000006526cafa6",
          "blockHash": "0x1c29d6e704e7faa2b6c0cc8f30bc2b33a8b62f97a0d87d70b8aa242cf66f0d50",
          "blockNumber": "0x4192e46",
          "transactionHash": "0x67c5cc1bd538bd5271dfef2363f3d6a0d616af28e4ef43911bfe78f31e2426ae",
          "transactionIndex": "0x41",
          "logIndex": "0xf5",
          "removed": false
        },
        {
          "address": "0x7ceb23fd6bc0add59e62ac25578270cff1b9f619",
          "topics": [
            "0x8c5be1e5ebec7d5bd14f71427d1e84f3dd0314c0f7b2291e5b200ac8c7c3b925",
            "0x0000000000000000000000001cdf6aabdcd19d2ed3ac927bb7b9835ac6942590",
            "0x000000000000000000000000a5e0829caced8ffdd4de3c43696c57f7d7a678ff"
          ],
          "data": "0x0000000000000000000000000000000000000000000000000000000000000000",
          "blockHash": "0x1c29d6e704e7faa2b6c0cc8f30bc2b33a8b62f97a0d87d70b8aa242cf66f0d50",
          "blockNumber": "0x4192e46",
          "transactionHash": "0x67c5cc1bd538bd5271dfef2363f3d6a0d616af28e4ef43911bfe78f31e2426ae",
          "transactionIndex": "0x41",
          "logIndex": "0xf6",
          "removed": false
        },
        {
          "address": "0xc2132d05d31c914a87c6611c10748aeb04b58e8f",
          "topics": [
            "0xddf252ad1be2c89b69c2b068fc378daa952ba7f163c4a11628f55a4df523b3ef",
            "0x000000000000000000000000f6422b997c7f54d1c6a6e103bcb1499eea0a7046",
            "0x00000000000000000000000071f74debb7fd42e61de32256537284e06de8812d"
          ],
          "data": "0x000000000000000000000000000000000000000000000000000000000000003b",
          "blockHash": "0x1c29d6e704e7faa2b6c0cc8f30bc2b33a8b62f97a0d87d70b8aa242cf66f0d50",
          "blockNumber": "0x4192e46",
          "transactionHash": "0x67c5cc1bd538bd5271dfef2363f3d6a0d616af28e4ef43911bfe78f31e2426ae",
          "transactionIndex": "0x41",
          "logIndex": "0xf7",
          "removed": false
        },
        {
          "address": "0xf6422b997c7f54d1c6a6e103bcb1499eea0a7046",
          "topics": [
            "0x1c411e9a96e071241c2f21f7726b17ae89e3cab4c78be50e062b03a9fffbbad1"
          ],
          "data": "0x000000000000000000000000000000000000000000000001b1206a8241dfe1700000000000000000000000000000000000000000000000000000000fec4cb07d",
          "blockHash": "0x1c29d6e704e7faa2b6c0cc8f30bc2b33a8b62f97a0d87d70b8aa242cf66f0d50",
          "blockNumber": "0x4192e46",
          "transactionHash": "0x67c5cc1bd538bd5271dfef2363f3d6a0d616af28e4ef43911bfe78f31e2426ae",
          "transactionIndex": "0x41",
          "logIndex": "0xf8",
          "removed": false
        },
        {
          "address": "0xf6422b997c7f54d1c6a6e103bcb1499eea0a7046",
          "topics": [
            "0xd78ad95fa46c994b6551d0da85fc275fe613ce37657fb8d5e3d130840159d822",
            "0x000000000000000000000000a5e0829caced8ffdd4de3c43696c57f7d7a678ff",
            "0x00000000000000000000000071f74debb7fd42e61de32256537284e06de8812d"
          ],
          "data": "0x00000000000000000000000000000000000000000000000000000006526cafa600000000000000000000000000000000000000000000000000000000000000000000000000000000000000000000000000000000000000000000000000000000000000000000000000000000000000000000000000000000000000000000003b",
          "blockHash": "0x1c29d6e704e7faa2b6c0cc8f30bc2b33a8b62f97a0d87d70b8aa242cf66f0d50",
          "blockNumber": "0x4192e46",
          "transactionHash": "0x67c5cc1bd538bd5271dfef2363f3d6a0d616af28e4ef43911bfe78f31e2426ae",
          "transactionIndex": "0x41",
          "logIndex": "0xf9",
          "removed": false
        },
        {
          "address": "0x0000000000000000000000000000000000001010",
          "topics": [
            "0x4dfe1bbbcf077ddc3e01291eea2d5c70c2b422b415d95645b9adcfd678cb1d63",
            "0x0000000000000000000000000000000000000000000000000000000000001010",
            "0x00000000000000000000000071f74debb7fd42e61de32256537284e06de8812d",
            "0x0000000000000000000000000e94b9b3fabd95338b8b23c36caae1d640e1339f"
          ],
          "data": "0x00000000000000000000000000000000000000000000000000519827d77cf400000000000000000000000000000000000000000000000000129ed8a687854f560000000000000000000000000000000000000000000011cf950cfb07c8949c5f000000000000000000000000000000000000000000000000124d407eb0085b560000000000000000000000000000000000000000000011cf955e932fa011905f",
          "blockHash": "0x1c29d6e704e7faa2b6c0cc8f30bc2b33a8b62f97a0d87d70b8aa242cf66f0d50",
          "blockNumber": "0x4192e46",
          "transactionHash": "0x67c5cc1bd538bd5271dfef2363f3d6a0d616af28e4ef43911bfe78f31e2426ae",
          "transactionIndex": "0x41",
          "logIndex": "0xfa",
          "removed": false
        }
      ],
      "logsBloom": "0x00200000008000000000000080000000000000000000000000000000000000000000000000000000000000002000040100028000000000000000000000200000000000000000000000002008000000a00000000000000000000100400000000010000000020080001800000000000000008004000000000088000010080000800000010000080000100000080000000000030000000000080000004000080801624000000020000000000000080000000000000000000010000000000000004000000002000000000001020008000010400000000000041000180008000000000010000000000000000880000400000080000000000000400000000400100000",
      "type": "0x2",
      "transactionHash": "0x67c5cc1bd538bd5271dfef2363f3d6a0d616af28e4ef43911bfe78f31e2426ae",
      "transactionIndex": "0x41",
      "blockHash": "0x1c29d6e704e7faa2b6c0cc8f30bc2b33a8b62f97a0d87d70b8aa242cf66f0d50",
      "blockNumber": "0x4192e46",
      "gasUsed": "0xbae77",
      "effectiveGasPrice": "0x1f31fead1c",
      "from": "0x71f74debb7fd42e61de32256537284e06de8812d",
      "to": "0x1cdf6aabdcd19d2ed3ac927bb7b9835ac6942590",
      "contractAddress": null
    }
  ],
  "libraries": [],
  "pending": [],
  "returns": {},
  "timestamp": 1741356079,
  "chain": 137,
  "commit": "c00d083"
}