{
  "transactions": [
    {
      "hash": "0x9e7737b79aa733a4251bb21e93e3121f89db0c89003ac110699dd5ba86fbc8e9",
      "transactionType": "CALL",
      "contractName": null,
      "contractAddress": "0x3d51e2be3aa2cc82ae4afe7e325c7eeae31ad7ee",
      "function": "iteratePairList(uint256,uint256,uint256,uint256,uint256,bool)",
      "arguments": [
        "0",
        "3",
        "1000000000000000000",
        "50",
        "0",
        "true"
      ],
      "transaction": {
        "from": "0x71f74debb7fd42e61de32256537284e06de8812d",
        "to": "0x3d51e2be3aa2cc82ae4afe7e325c7eeae31ad7ee",
        "gas": "0x57cec",
        "value": "0x0",
        "input": "0x8101424d000000000000000000000000000000000000000000000000000000000000000000000000000000000000000000000000000000000000000000000000000000030000000000000000000000000000000000000000000000000de0b6b3a7640000000000000000000000000000000000000000000000000000000000000000003200000000000000000000000000000000000000000000000000000000000000000000000000000000000000000000000000000000000000000000000000000001",
        "nonce": "0x272",
        "chainId": "0x89"
      },
      "additionalContracts": [],
      "isFixedGasLimit": false
    }
  ],
  "receipts": [
    {
      "status": "0x1",
      "cumulativeGasUsed": "0x171e066",
      "logs": [
        {
          "address": "0x3d51e2be3aa2cc82ae4afe7e325c7eeae31ad7ee",
          "topics": [
            "0x05ae39bd3637f496d15f3461b4f129f5220ecb5dd2c8b18471081ae0b514d6f4",
            "0x000000000000000000000000c2132d05d31c914a87c6611c10748aeb04b58e8f",
            "0x0000000000000000000000007ceb23fd6bc0add59e62ac25578270cff1b9f619"
          ],
          "data": "0x000000000000000000000000a5e0829caced8ffdd4de3c43696c57f7d7a678ff000000000000000000000000edf6066a2b290c185783862c7f4776a2c8077ad10000000000000000000000000000000000000000000000000de0b6b3a7640000000000000000000000000000000000000000000000000001b2a696112c61444b00000000000000000000000000000000000000000000000002a4842168f462f2000000000000000000000000000000000000000000000001add255a5453d178e",
          "blockHash": "0x444d3ec4b82e175fe5cc66d0169bba05f0da38e1c1aef5b0941cd700eda7d5db",
          "blockNumber": "0x418deba",
          "transactionHash": "0x9e7737b79aa733a4251bb21e93e3121f89db0c89003ac110699dd5ba86fbc8e9",
          "transactionIndex": "0x58",
          "logIndex": "0x1c7",
          "removed": false
        },
        {
          "address": "0x3d51e2be3aa2cc82ae4afe7e325c7eeae31ad7ee",
          "topics": [
            "0x05ae39bd3637f496d15f3461b4f129f5220ecb5dd2c8b18471081ae0b514d6f4",
            "0x000000000000000000000000c2132d05d31c914a87c6611c10748aeb04b58e8f",
            "0x0000000000000000000000007ceb23fd6bc0add59e62ac25578270cff1b9f619"
          ],
          "data": "0x000000000000000000000000a5e0829caced8ffdd4de3c43696c57f7d7a678ff000000000000000000000000edf6066a2b290c185783862c7f4776a2c8077ad10000000000000000000000000000000000000000000000000de0b6b3a7640000000000000000000000000000000000000000000000000001b2a696112c61444b00000000000000000000000000000000000000000000000002a4842168f462f2000000000000000000000000000000000000000000000001add255a5453d178e",
          "blockHash": "0x444d3ec4b82e175fe5cc66d0169bba05f0da38e1c1aef5b0941cd700eda7d5db",
          "blockNumber": "0x418deba",
          "transactionHash": "0x9e7737b79aa733a4251bb21e93e3121f89db0c89003ac110699dd5ba86fbc8e9",
          "transactionIndex": "0x58",
          "logIndex": "0x1c8",
          "removed": false
        },
        {
          "address": "0x0000000000000000000000000000000000001010",
          "topics": [
            "0x4dfe1bbbcf077ddc3e01291eea2d5c70c2b422b415d95645b9adcfd678cb1d63",
            "0x0000000000000000000000000000000000000000000000000000000000001010",
            "0x00000000000000000000000071f74debb7fd42e61de32256537284e06de8812d",
            "0x000000000000000000000000eedba2484aaf940f37cd3cd21a5d7c4a7dafbfc0"
          ],
          "data": "0x00000000000000000000000000000000000000000000000000173006479e1f7a0000000000000000000000000000000000000000000000002a28329b46b6931d00000000000000000000000000000000000000000001e3b79cd96d3bd1a7f1710000000000000000000000000000000000000000000000002a110294ff1873a300000000000000000000000000000000000000000001e3b79cf09d42194610eb",
          "blockHash": "0x444d3ec4b82e175fe5cc66d0169bba05f0da38e1c1aef5b0941cd700eda7d5db",
          "blockNumber": "0x418deba",
          "transactionHash": "0x9e7737b79aa733a4251bb21e93e3121f89db0c89003ac110699dd5ba86fbc8e9",
          "transactionIndex": "0x58",
          "logIndex": "0x1c9",
          "removed": false
        }
      ],
      "logsBloom": "0x00000000000000000000000000000000000000000000000000000000000000000000000000000000000000002000000000008000000000000000000000000000000000000000000000000000000000800000000000000000000100000000000010000000000000001000000000000000000000000100000088000000080000000000004000000000000000000000000001020000000000000000002000080000204000000020000000000000000000000020000000000000000020000000004000000000000000000001000008000000000000000000000000100008000000000000000000000000000000000400000000000000000000000000000000100000",
      "type": "0x2",
      "transactionHash": "0x9e7737b79aa733a4251bb21e93e3121f89db0c89003ac110699dd5ba86fbc8e9",
      "transactionIndex": "0x58",
      "blockHash": "0x444d3ec4b82e175fe5cc66d0169bba05f0da38e1c1aef5b0941cd700eda7d5db",
      "blockNumber": "0x418deba",
      "gasUsed": "0x3c0a2",
      "effectiveGasPrice": "0xd3383fb9c",
      "from": "0x71f74debb7fd42e61de32256537284e06de8812d",
      "to": "0x3d51e2be3aa2cc82ae4afe7e325c7eeae31ad7ee",
      "contractAddress": null
    }
  ],
  "libraries": [],
  "pending": [],
  "returns": {},
  "timestamp": 1741312800,
  "chain": 137,
  "commit": "e6fbfc1"
}