{
  "transactions": [
    {
      "hash": "0x4a5ea38f114042cfbaaf01e26fd463f1ab04d030734eef6f3e37b5865c8eac43",
      "transactionType": "CALL",
      "contractName": null,
      "contractAddress": "0x1cdf6aabdcd19d2ed3ac927bb7b9835ac6942590",
      "function": "iteratePairList(uint256,uint256,uint256,uint256,uint256,bool)",
      "arguments": [
        "0",
        "8",
        "60",
        "50",
        "1000",
        "false"
      ],
      "transaction": {
        "from": "0x71f74debb7fd42e61de32256537284e06de8812d",
        "to": "0x1cdf6aabdcd19d2ed3ac927bb7b9835ac6942590",
        "gas": "0x89aff",
        "value": "0x0",
        "input": "0x8101424d00000000000000000000000000000000000000000000000000000000000000000000000000000000000000000000000000000000000000000000000000000008000000000000000000000000000000000000000000000000000000000000003c000000000000000000000000000000000000000000000000000000000000003200000000000000000000000000000000000000000000000000000000000003e80000000000000000000000000000000000000000000000000000000000000000",
        "nonce": "0x294",
        "chainId": "0x89"
      },
      "additionalContracts": [],
      "isFixedGasLimit": false
    }
  ],
  "receipts": [
    {
      "status": "0x1",
      "cumulativeGasUsed": "0x149fcdf",
      "logs": [
        {
          "address": "0x0000000000000000000000000000000000001010",
          "topics": [
            "0x4dfe1bbbcf077ddc3e01291eea2d5c70c2b422b415d95645b9adcfd678cb1d63",
            "0x0000000000000000000000000000000000000000000000000000000000001010",
            "0x00000000000000000000000071f74debb7fd42e61de32256537284e06de8812d",
            "0x000000000000000000000000a8b52f02108aa5f4b675bdcc973760022d7c6020"
          ],
          "data": "0x000000000000000000000000000000000000000000000000002a8089b1942b000000000000000000000000000000000000000000000000001d9d7814fda611f00000000000000000000000000000000000000000000000455a71837b6adb58c30000000000000000000000000000000000000000000000001d72f78b4c11e6f00000000000000000000000000000000000000000000000455a9c04051c6f83c3",
          "blockHash": "0x0e472bdffd63463a8a1af9d61f7e57f17175e4a2969203a43111b00cfae7559d",
          "blockNumber": "0x4192951",
          "transactionHash": "0x4a5ea38f114042cfbaaf01e26fd463f1ab04d030734eef6f3e37b5865c8eac43",
          "transactionIndex": "0x83",
          "logIndex": "0x2cc",
          "removed": false
        }
      ],
      "logsBloom": "0x00000000000000000000000000000000000000000000000000000000000000000000000000000000000000000002000000008000000000000000000000000000000000000000000000000000000000800000000000000000000100000000000000000000000000000000000000000000000000000000000080000000000000000000000000000000000000000000000000000000000000040000000000080000200000000000004000000000000000000000000000000000000000000000004000000000000000000001000000000000000000000000000000100008000000000000000000000000000000000400000000000000000000000000000000100000",
      "type": "0x2",
      "transactionHash": "0x4a5ea38f114042cfbaaf01e26fd463f1ab04d030734eef6f3e37b5865c8eac43",
      "transactionIndex": "0x83",
      "blockHash": "0x0e472bdffd63463a8a1af9d61f7e57f17175e4a2969203a43111b00cfae7559d",
      "blockNumber": "0x4192951",
      "gasUsed": "0x63aef",
      "effectiveGasPrice": "0x1840b229e4",
      "from": "0x71f74debb7fd42e61de32256537284e06de8812d",
      "to": "0x1cdf6aabdcd19d2ed3ac927bb7b9835ac6942590",
      "contractAddress": null
    }
  ],
  "libraries": [],
  "pending": [],
  "returns": {},
  "timestamp": 1741353379,
  "chain": 137,
  "commit": "c00d083"
}