{
  "transactions": [
    {
      "hash": "0x2e034a19a5931e56a60af4107e941491a8a0b7b54e6731dd251e2bc948fe9176",
      "transactionType": "CALL",
      "contractName": null,
      "contractAddress": "0x1cdf6aabdcd19d2ed3ac927bb7b9835ac6942590",
      "function": "iteratePairList(uint256,uint256,uint256,uint256,uint256,bool)",
      "arguments": [
        "0",
        "3",
        "60",
        "5",
        "1000",
        "false"
      ],
      "transaction": {
        "from": "0x71f74debb7fd42e61de32256537284e06de8812d",
        "to": "0x1cdf6aabdcd19d2ed3ac927bb7b9835ac6942590",
        "gas": "0x95f27",
        "value": "0x0",
        "input": "0x8101424d00000000000000000000000000000000000000000000000000000000000000000000000000000000000000000000000000000000000000000000000000000003000000000000000000000000000000000000000000000000000000000000003c000000000000000000000000000000000000000000000000000000000000000500000000000000000000000000000000000000000000000000000000000003e80000000000000000000000000000000000000000000000000000000000000000",
        "nonce": "0x2a2",
        "chainId": "0x89"
      },
      "additionalContracts": [],
      "isFixedGasLimit": false
    }
  ],
  "receipts": [
    {
      "status": "0x1",
      "cumulativeGasUsed": "0x564390",
      "logs": [
        {
          "address": "0x1cdf6aabdcd19d2ed3ac927bb7b9835ac6942590",
          "topics": [
            "0x05ae39bd3637f496d15f3461b4f129f5220ecb5dd2c8b18471081ae0b514d6f4",
            "0x000000000000000000000000c2132d05d31c914a87c6611c10748aeb04b58e8f",
            "0x0000000000000000000000007ceb23fd6bc0add59e62ac25578270cff1b9f619"
          ],
          "data": "0x000000000000000000000000a5e0829caced8ffdd4de3c43696c57f7d7a678ff000000000000000000000000edf6066a2b290c185783862c7f4776a2c8077ad1000000000000000000000000000000000000000000000000000000000000003c000000000000000000000000000000000000000000000000000000065ac8d6eb0000000000000000000000000000000000000000000000000000000655cef0bf0000000000000000000000000000000000000000000000000000000004f9431d",
          "blockHash": "0xad9cf438abffa53885100c9c20d1df1e967165e0a7ff38a06f7b33f09f5ec05d",
          "blockNumber": "0x4193014",
          "transactionHash": "0x2e034a19a5931e56a60af4107e941491a8a0b7b54e6731dd251e2bc948fe9176",
          "transactionIndex": "0x2b",
          "logIndex": "0xbe",
          "removed": false
        },
        {
          "address": "0xc2132d05d31c914a87c6611c10748aeb04b58e8f",
          "topics": [
            "0x8c5be1e5ebec7d5bd14f71427d1e84f3dd0314c0f7b2291e5b200ac8c7c3b925",
            "0x0000000000000000000000001cdf6aabdcd19d2ed3ac927bb7b9835ac6942590",
            "0x000000000000000000000000edf6066a2b290c185783862c7f4776a2c8077ad1"
          ],
          "data": "0x000000000000000000000000000000000000000000000000000000000000003c",
          "blockHash": "0xad9cf438abffa53885100c9c20d1df1e967165e0a7ff38a06f7b33f09f5ec05d",
          "blockNumber": "0x4193014",
          "transactionHash": "0x2e034a19a5931e56a60af4107e941491a8a0b7b54e6731dd251e2bc948fe9176",
          "transactionIndex": "0x2b",
          "logIndex": "0xbf",
          "removed": false
        },
        {
          "address": "0xc2132d05d31c914a87c6611c10748aeb04b58e8f",
          "topics": [
            "0xddf252ad1be2c89b69c2b068fc378daa952ba7f163c4a11628f55a4df523b3ef",
            "0x0000000000000000000000001cdf6aabdcd19d2ed3ac927bb7b9835ac6942590",
            "0x00000000000000000000000092a0e9a04cf2d519c7fba179da43a08f5a1aea7e"
          ],
          "data": "0x000000000000000000000000000000000000000000000000000000000000003c",
          "blockHash": "0xad9cf438abffa53885100c9c20d1df1e967165e0a7ff38a06f7b33f09f5ec05d",
          "blockNumber": "0x4193014",
          "transactionHash": "0x2e034a19a5931e56a60af4107e941491a8a0b7b54e6731dd251e2bc948fe9176",
          "transactionIndex": "0x2b",
          "logIndex": "0xc0",
          "removed": false
        },
        {
          "address": "0xc2132d05d31c914a87c6611c10748aeb04b58e8f",
          "topics": [
            "0x8c5be1e5ebec7d5bd14f71427d1e84f3dd0314c0f7b2291e5b200ac8c7c3b925",
            "0x0000000000000000000000001cdf6aabdcd19d2ed3ac927bb7b9835ac6942590",
            "0x000000000000000000000000edf6066a2b290c185783862c7f4776a2c8077ad1"
          ],
          "data": "0x0000000000000000000000000000000000000000000000000000000000000000",
          "blockHash": "0xad9cf438abffa53885100c9c20d1df1e967165e0a7ff38a06f7b33f09f5ec05d",
          "blockNumber": "0x4193014",
          "transactionHash": "0x2e034a19a5931e56a60af4107e941491a8a0b7b54e6731dd251e2bc948fe9176",
          "transactionIndex": "0x2b",
          "logIndex": "0xc1",
          "removed": false
        },
        {
          "address": "0x7ceb23fd6bc0add59e62ac25578270cff1b9f619",
          "topics": [
            "0xddf252ad1be2c89b69c2b068fc378daa952ba7f163c4a11628f55a4df523b3ef",
            "0x00000000000000000000000092a0e9a04cf2d519c7fba179da43a08f5a1aea7e",
            "0x0000000000000000000000001cdf6aabdcd19d2ed3ac927bb7b9835ac6942590"
          ],
          "data": "0x0000000000000000000000000000000000000000000000000000000655cef0bf",
          "blockHash": "0xad9cf438abffa53885100c9c20d1df1e967165e0a7ff38a06f7b33f09f5ec05d",
          "blockNumber": "0x4193014",
          "transactionHash": "0x2e034a19a5931e56a60af4107e941491a8a0b7b54e6731dd251e2bc948fe9176",
          "transactionIndex": "0x2b",
          "logIndex": "0xc2",
          "removed": false
        },
        {
          "address": "0x92a0e9a04cf2d519c7fba179da43a08f5a1aea7e",
          "topics": [
            "0x1c411e9a96e071241c2f21f7726b17ae89e3cab4c78be50e062b03a9fffbbad1"
          ],
          "data": "0x000000000000000000000000000000000000000000000000029f6c7805ecb1020000000000000000000000000000000000000000000000000000000018c3eac1",
          "blockHash": "0xad9cf438abffa53885100c9c20d1df1e967165e0a7ff38a06f7b33f09f5ec05d",
          "blockNumber": "0x4193014",
          "transactionHash": "0x2e034a19a5931e56a60af4107e941491a8a0b7b54e6731dd251e2bc948fe9176",
          "transactionIndex": "0x2b",
          "logIndex": "0xc3",
          "removed": false
        },
        {
          "address": "0x92a0e9a04cf2d519c7fba179da43a08f5a1aea7e",
          "topics": [
            "0xd78ad95fa46c994b6551d0da85fc275fe613ce37657fb8d5e3d130840159d822",
            "0x000000000000000000000000edf6066a2b290c185783862c7f4776a2c8077ad1",
            "0x0000000000000000000000001cdf6aabdcd19d2ed3ac927bb7b9835ac6942590"
          ],
          "data": "0x0000000000000000000000000000000000000000000000000000000000000000000000000000000000000000000000000000000000000000000000000000003c0000000000000000000000000000000000000000000000000000000655cef0bf0000000000000000000000000000000000000000000000000000000000000000",
          "blockHash": "0xad9cf438abffa53885100c9c20d1df1e967165e0a7ff38a06f7b33f09f5ec05d",
          "blockNumber": "0x4193014",
          "transactionHash": "0x2e034a19a5931e56a60af4107e941491a8a0b7b54e6731dd251e2bc948fe9176",
          "transactionIndex": "0x2b",
          "logIndex": "0xc4",
          "removed": false
        },
        {
          "address": "0x7ceb23fd6bc0add59e62ac25578270cff1b9f619",
          "topics": [
            "0x8c5be1e5ebec7d5bd14f71427d1e84f3dd0314c0f7b2291e5b200ac8c7c3b925",
            "0x0000000000000000000000001cdf6aabdcd19d2ed3ac927bb7b9835ac6942590",
            "0x000000000000000000000000a5e0829caced8ffdd4de3c43696c57f7d7a678ff"
          ],
          "data": "0x0000000000000000000000000000000000000000000000000000000655cef0bf",
          "blockHash": "0xad9cf438abffa53885100c9c20d1df1e967165e0a7ff38a06f7b33f09f5ec05d",
          "blockNumber": "0x4193014",
          "transactionHash": "0x2e034a19a5931e56a60af4107e941491a8a0b7b54e6731dd251e2bc948fe9176",
          "transactionIndex": "0x2b",
          "logIndex": "0xc5",
          "removed": false
        },
        {
          "address": "0x7ceb23fd6bc0add59e62ac25578270cff1b9f619",
          "topics": [
            "0xddf252ad1be2c89b69c2b068fc378daa952ba7f163c4a11628f55a4df523b3ef",
            "0x0000000000000000000000001cdf6aabdcd19d2ed3ac927bb7b9835ac6942590",
            "0x000000000000000000000000f6422b997c7f54d1c6a6e103bcb1499eea0a7046"
          ],
          "data": "0x0000000000000000000000000000000000000000000000000000000655cef0bf",
          "blockHash": "0xad9cf438abffa53885100c9c20d1df1e967165e0a7ff38a06f7b33f09f5ec05d",
          "blockNumber": "0x4193014",
          "transactionHash": "0x2e034a19a5931e56a60af4107e941491a8a0b7b54e6731dd251e2bc948fe9176",
          "transactionIndex": "0x2b",
          "logIndex": "0xc6",
          "removed": false
        },
        {
          "address": "0x7ceb23fd6bc0add59e62ac25578270cff1b9f619",
          "topics": [
            "0x8c5be1e5ebec7d5bd14f71427d1e84f3dd0314c0f7b2291e5b200ac8c7c3b925",
            "0x0000000000000000000000001cdf6aabdcd19d2ed3ac927bb7b9835ac6942590",
            "0x000000000000000000000000a5e0829caced8ffdd4de3c43696c57f7d7a678ff"
          ],
          "data": "0x0000000000000000000000000000000000000000000000000000000000000000",
          "blockHash": "0xad9cf438abffa53885100c9c20d1df1e967165e0a7ff38a06f7b33f09f5ec05d",
          "blockNumber": "0x4193014",
          "transactionHash": "0x2e034a19a5931e56a60af4107e941491a8a0b7b54e6731dd251e2bc948fe9176",
          "transactionIndex": "0x2b",
          "logIndex": "0xc7",
          "removed": false
        },
        {
          "address": "0xc2132d05d31c914a87c6611c10748aeb04b58e8f",
          "topics": [
            "0xddf252ad1be2c89b69c2b068fc378daa952ba7f163c4a11628f55a4df523b3ef",
            "0x000000000000000000000000f6422b997c7f54d1c6a6e103bcb1499eea0a7046",
            "0x0000000000000000000000001cdf6aabdcd19d2ed3ac927bb7b9835ac6942590"
          ],
          "data": "0x000000000000000000000000000000000000000000000000000000000000003b",
          "blockHash": "0xad9cf438abffa53885100c9c20d1df1e967165e0a7ff38a06f7b33f09f5ec05d",
          "blockNumber": "0x4193014",
          "transactionHash": "0x2e034a19a5931e56a60af4107e941491a8a0b7b54e6731dd251e2bc948fe9176",
          "transactionIndex": "0x2b",
          "logIndex": "0xc8",
          "removed": false
        },
        {
          "address": "0xf6422b997c7f54d1c6a6e103bcb1499eea0a7046",
          "topics": [
            "0x1c411e9a96e071241c2f21f7726b17ae89e3cab4c78be50e062b03a9fffbbad1"
          ],
          "data": "0x000000000000000000000000000000000000000000000001b113044f7edf7b940000000000000000000000000000000000000000000000000000000feccb304b",
          "blockHash": "0xad9cf438abffa53885100c9c20d1df1e967165e0a7ff38a06f7b33f09f5ec05d",
          "blockNumber": "0x4193014",
          "transactionHash": "0x2e034a19a5931e56a60af4107e941491a8a0b7b54e6731dd251e2bc948fe9176",
          "transactionIndex": "0x2b",
          "logIndex": "0xc9",
          "removed": false
        },
        {
          "address": "0xf6422b997c7f54d1c6a6e103bcb1499eea0a7046",
          "topics": [
            "0xd78ad95fa46c994b6551d0da85fc275fe613ce37657fb8d5e3d130840159d822",
            "0x000000000000000000000000a5e0829caced8ffdd4de3c43696c57f7d7a678ff",
            "0x0000000000000000000000001cdf6aabdcd19d2ed3ac927bb7b9835ac6942590"
          ],
          "data": "0x0000000000000000000000000000000000000000000000000000000655cef0bf00000000000000000000000000000000000000000000000000000000000000000000000000000000000000000000000000000000000000000000000000000000000000000000000000000000000000000000000000000000000000000000003b",
          "blockHash": "0xad9cf438abffa53885100c9c20d1df1e967165e0a7ff38a06f7b33f09f5ec05d",
          "blockNumber": "0x4193014",
          "transactionHash": "0x2e034a19a5931e56a60af4107e941491a8a0b7b54e6731dd251e2bc948fe9176",
          "transactionIndex": "0x2b",
          "logIndex": "0xca",
          "removed": false
        },
        {
          "address": "0x0000000000000000000000000000000000001010",
          "topics": [
            "0x4dfe1bbbcf077ddc3e01291eea2d5c70c2b422b415d95645b9adcfd678cb1d63",
            "0x0000000000000000000000000000000000000000000000000000000000001010",
            "0x00000000000000000000000071f74debb7fd42e61de32256537284e06de8812d",
            "0x000000000000000000000000a8b52f02108aa5f4b675bdcc973760022d7c6020"
          ],
          "data": "0x000000000000000000000000000000000000000000000000002befc30144b7600000000000000000000000000000000000000000000000000d65ebe2f46ad46a00000000000000000000000000000000000000000000006486b3985fe7585ab10000000000000000000000000000000000000000000000000d39fc1ff3261d0a00000000000000000000000000000000000000000000006486df8822e89d1211",
          "blockHash": "0xad9cf438abffa53885100c9c20d1df1e967165e0a7ff38a06f7b33f09f5ec05d",
          "blockNumber": "0x4193014",
          "transactionHash": "0x2e034a19a5931e56a60af4107e941491a8a0b7b54e6731dd251e2bc948fe9176",
          "transactionIndex": "0x2b",
          "logIndex": "0xcb",
          "removed": false
        }
      ],
      "logsBloom": "0x00200000000000000000000080000000000000000000000000000000000000000000000000000000000000002002040100028000000000000000000000200000000000000000000000002008000000a000000000000000000001004000000000100000000200800018000000000000000080040000000000880000100800008000000100000800001000000800000000000300000000000c0000004000080801624000000020004000000000080000000000000000000010000000000000004000000002000000000001020008000010400000000000001000180008000000000010000000000000000080000400000080000000000000400000000400100000",
      "type": "0x2",
      "transactionHash": "0x2e034a19a5931e56a60af4107e941491a8a0b7b54e6731dd251e2bc948fe9176",
      "transactionIndex": "0x2b",
      "blockHash": "0xad9cf438abffa53885100c9c20d1df1e967165e0a7ff38a06f7b33f09f5ec05d",
      "blockNumber": "0x4193014",
      "gasUsed": "0x66873",
      "effectiveGasPrice": "0x18bcd44771",
      "from": "0x71f74debb7fd42e61de32256537284e06de8812d",
      "to": "0x1cdf6aabdcd19d2ed3ac927bb7b9835ac6942590",
      "contractAddress": null
    }
  ],
  "libraries": [],
  "pending": [],
  "returns": {},
  "timestamp": 1741357060,
  "chain": 137,
  "commit": "c00d083"
}