{
  "transactions": [
    {
      "hash": "0x7cb3400e289ceb9c3648e7c80761e990af75f015a9aa342a17713b2901705f07",
      "transactionType": "CALL",
      "contractName": null,
      "contractAddress": "0x1cdf6aabdcd19d2ed3ac927bb7b9835ac6942590",
      "function": "iteratePairList(uint256,uint256,uint256,uint256,uint256,bool)",
      "arguments": [
        "0",
        "3",
        "50",
        "50",
        "0",
        "false"
      ],
      "transaction": {
        "from": "0x71f74debb7fd42e61de32256537284e06de8812d",
        "to": "0x1cdf6aabdcd19d2ed3ac927bb7b9835ac6942590",
        "gas": "0x40f74",
        "value": "0x0",
        "input": "0x8101424d000000000000000000000000000000000000000000000000000000000000000000000000000000000000000000000000000000000000000000000000000000030000000000000000000000000000000000000000000000000000000000000032000000000000000000000000000000000000000000000000000000000000003200000000000000000000000000000000000000000000000000000000000000000000000000000000000000000000000000000000000000000000000000000000",
        "nonce": "0x276",
        "chainId": "0x89"
      },
      "additionalContracts": [],
      "isFixedGasLimit": false
    }
  ],
  "receipts": [
    {
      "status": "0x1",
      "cumulativeGasUsed": "0x7732e0",
      "logs": [
        {
          "address": "0x0000000000000000000000000000000000001010",
          "topics": [
            "0x4dfe1bbbcf077ddc3e01291eea2d5c70c2b422b415d95645b9adcfd678cb1d63",
            "0x0000000000000000000000000000000000000000000000000000000000001010",
            "0x00000000000000000000000071f74debb7fd42e61de32256537284e06de8812d",
            "0x0000000000000000000000009ead03f7136fc6b4bdb0780b00a1c14ae5a8b6d0"
          ],
          "data": "0x000000000000000000000000000000000000000000000000001329967f44226c000000000000000000000000000000000000000000000000279a8fd5b72b967900000000000000000000000000000000000000000000084aaa62017e86aa58e80000000000000000000000000000000000000000000000002787663f37e7740d00000000000000000000000000000000000000000000084aaa752b1505ee7b54",
          "blockHash": "0x9ad803a31054096734fa518279d03318cb9f527b123fbadf3c08ea09931658fe",
          "blockNumber": "0x418e929",
          "transactionHash": "0x7cb3400e289ceb9c3648e7c80761e990af75f015a9aa342a17713b2901705f07",
          "transactionIndex": "0x37",
          "logIndex": "0x11e",
          "removed": false
        }
      ],
      "logsBloom": "0x00000000000000000000000000000000000000000000000000000000000000000000000000000000000000000000000000008000000000000000000000000000000000000000000000000000000000800000000000000000000100000000000000000000000000000000000000000000000000000000000080000000000000000040000000040000000000000000000000000000000000000000000000080000200000000000000000000000000000000000000000000000000000000000004000000000000000000001000000000000000000000000000000120008000000000000000000000000000000000400000000000000000000000000000000100000",
      "type": "0x2",
      "transactionHash": "0x7cb3400e289ceb9c3648e7c80761e990af75f015a9aa342a17713b2901705f07",
      "transactionIndex": "0x37",
      "blockHash": "0x9ad803a31054096734fa518279d03318cb9f527b123fbadf3c08ea09931658fe",
      "blockNumber": "0x418e929",
      "gasUsed": "0x2f08d",
      "effectiveGasPrice": "0xbb40b111f",
      "from": "0x71f74debb7fd42e61de32256537284e06de8812d",
      "to": "0x1cdf6aabdcd19d2ed3ac927bb7b9835ac6942590",
      "contractAddress": null
    }
  ],
  "libraries": [],
  "pending": [],
  "returns": {},
  "timestamp": 1741318475,
  "chain": 137,
  "commit": "5016532"
}