{
  "transactions": [
    {
      "hash": "0x7ab9b7b8858f357cdbd97cefc1b2cefe621d9453b3877f0ed5cee2d8b3b81736",
      "transactionType": "CALL",
      "contractName": null,
      "contractAddress": "0x1cdf6aabdcd19d2ed3ac927bb7b9835ac6942590",
      "function": "iteratePairList(uint256,uint256,uint256,uint256,uint256,bool)",
      "arguments": [
        "0",
        "3",
        "50",
        "50",
        "0",
        "false"
      ],
      "transaction": {
        "from": "0x71f74debb7fd42e61de32256537284e06de8812d",
        "to": "0x1cdf6aabdcd19d2ed3ac927bb7b9835ac6942590",
        "gas": "0x49278",
        "value": "0x0",
        "input": "0x8101424d000000000000000000000000000000000000000000000000000000000000000000000000000000000000000000000000000000000000000000000000000000030000000000000000000000000000000000000000000000000000000000000032000000000000000000000000000000000000000000000000000000000000003200000000000000000000000000000000000000000000000000000000000000000000000000000000000000000000000000000000000000000000000000000000",
        "nonce": "0x27d",
        "chainId": "0x89"
      },
      "additionalContracts": [],
      "isFixedGasLimit": false
    }
  ],
  "receipts": [
    {
      "status": "0x1",
      "cumulativeGasUsed": "0x97e2be",
      "logs": [
        {
          "address": "0x0000000000000000000000000000000000001010",
          "topics": [
            "0x4dfe1bbbcf077ddc3e01291eea2d5c70c2b422b415d95645b9adcfd678cb1d63",
            "0x0000000000000000000000000000000000000000000000000000000000001010",
            "0x00000000000000000000000071f74debb7fd42e61de32256537284e06de8812d",
            "0x000000000000000000000000eedba2484aaf940f37cd3cd21a5d7c4a7dafbfc0"
          ],
          "data": "0x00000000000000000000000000000000000000000000000000171f09786e340000000000000000000000000000000000000000000000000025fd18c57f60d38f00000000000000000000000000000000000000000001e3c9de22d2773ce88ee000000000000000000000000000000000000000000000000025e5f9bc06f29f8f00000000000000000000000000000000000000000001e3c9de39f180b556c2e0",
          "blockHash": "0xe9f871caaaa043bb4553e7d1fc4e7c9225a983934c8c02e42553425b6a9f3201",
          "blockNumber": "0x418eb32",
          "transactionHash": "0x7ab9b7b8858f357cdbd97cefc1b2cefe621d9453b3877f0ed5cee2d8b3b81736",
          "transactionIndex": "0x38",
          "logIndex": "0x16a",
          "removed": false
        }
      ],
      "logsBloom": "0x00000000000000000000000000000000000000000000000000000000000000000000000000000000000000000000000000008000000000000000000000000000000000000000000000000000000000800000000000000000000100000000000000000000000000000000000000000000000000000100000080000000000000000000004000000000000000000000000000000000000000000000000000080000200000000000000000000000000000000000000000000000000020000000004000000000000000000001000000000000000000000000000000100008000000000000000000000000000000000400000000000000000000000000000000100000",
      "type": "0x2",
      "transactionHash": "0x7ab9b7b8858f357cdbd97cefc1b2cefe621d9453b3877f0ed5cee2d8b3b81736",
      "transactionIndex": "0x38",
      "blockHash": "0xe9f871caaaa043bb4553e7d1fc4e7c9225a983934c8c02e42553425b6a9f3201",
      "blockNumber": "0x418eb32",
      "gasUsed": "0x34f67",
      "effectiveGasPrice": "0xc5bacefa1",
      "from": "0x71f74debb7fd42e61de32256537284e06de8812d",
      "to": "0x1cdf6aabdcd19d2ed3ac927bb7b9835ac6942590",
      "contractAddress": null
    }
  ],
  "libraries": [],
  "pending": [],
  "returns": {},
  "timestamp": 1741319584,
  "chain": 137,
  "commit": "5016532"
}