{
  "transactions": [
    {
      "hash": "0x4d503bc498f80ed9c59441fd76f8f1b99f04ebe7ac528307518286f34f9cff28",
      "transactionType": "CALL",
      "contractName": null,
      "contractAddress": "0x1cdf6aabdcd19d2ed3ac927bb7b9835ac6942590",
      "function": "iteratePairList(uint256,uint256,uint256,uint256,uint256,bool)",
      "arguments": [
        "0",
        "8",
        "60",
        "50",
        "1000",
        "false"
      ],
      "transaction": {
        "from": "0x71f74debb7fd42e61de32256537284e06de8812d",
        "to": "0x1cdf6aabdcd19d2ed3ac927bb7b9835ac6942590",
        "gas": "0x89aff",
        "value": "0x0",
        "input": "0x8101424d00000000000000000000000000000000000000000000000000000000000000000000000000000000000000000000000000000000000000000000000000000008000000000000000000000000000000000000000000000000000000000000003c000000000000000000000000000000000000000000000000000000000000003200000000000000000000000000000000000000000000000000000000000003e80000000000000000000000000000000000000000000000000000000000000000",
        "nonce": "0x293",
        "chainId": "0x89"
      },
      "additionalContracts": [],
      "isFixedGasLimit": false
    }
  ],
  "receipts": [
    {
      "status": "0x1",
      "cumulativeGasUsed": "0x130ed53",
      "logs": [
        {
          "address": "0x0000000000000000000000000000000000001010",
          "topics": [
            "0x4dfe1bbbcf077ddc3e01291eea2d5c70c2b422b415d95645b9adcfd678cb1d63",
            "0x0000000000000000000000000000000000000000000000000000000000001010",
            "0x00000000000000000000000071f74debb7fd42e61de32256537284e06de8812d",
            "0x0000000000000000000000001efecb61a2f80aa34d3b9218b564a64d05946290"
          ],
          "data": "0x00000000000000000000000000000000000000000000000000293686da81032d0000000000000000000000000000000000000000000000001e2ade1dfbf2075c000000000000000000000000000000000000000000001f008a16a97fbff9f49e0000000000000000000000000000000000000000000000001e01a7972171042f000000000000000000000000000000000000000000001f008a3fe0069a7af7cb",
          "blockHash": "0x1fef49b5307abc99efc003748d5f16f945a173c2bd504101fd0678d04b56fcac",
          "blockNumber": "0x4192930",
          "transactionHash": "0x4d503bc498f80ed9c59441fd76f8f1b99f04ebe7ac528307518286f34f9cff28",
          "transactionIndex": "0x6e",
          "logIndex": "0x20d",
          "removed": false
        }
      ],
      "logsBloom": "0x00000000000000000000000000000000000000000000000000000000000000000000000000000000000000000000000000008000000000000000000000000000200000000000000000000000000000800000000000000000000100000000000000000000000000000000000000000000000000000000000080000000000000000000000000000000000000000000000000000000000000000000000000080000200000000000000000000000000000000000000000000000000000000000004000000100000000000001000000000000000000000000000000100008000000002000000000000000000000000400000000000000000000000000000000100000",
      "type": "0x2",
      "transactionHash": "0x4d503bc498f80ed9c59441fd76f8f1b99f04ebe7ac528307518286f34f9cff28",
      "transactionIndex": "0x6e",
      "blockHash": "0x1fef49b5307abc99efc003748d5f16f945a173c2bd504101fd0678d04b56fcac",
      "blockNumber": "0x4192930",
      "gasUsed": "0x63aef",
      "effectiveGasPrice": "0x16b2155154",
      "from": "0x71f74debb7fd42e61de32256537284e06de8812d",
      "to": "0x1cdf6aabdcd19d2ed3ac927bb7b9835ac6942590",
      "contractAddress": null
    }
  ],
  "libraries": [],
  "pending": [],
  "returns": {},
  "timestamp": 1741353308,
  "chain": 137,
  "commit": "c00d083"
}