{
  "transactions": [
    {
      "hash": "0x7c964a01fe2ce3e97b500ec0ea7d7b903e7e53640dcd5c1cead07fd2e042b9ee",
      "transactionType": "CALL",
      "contractName": null,
      "contractAddress": "0x1cdf6aabdcd19d2ed3ac927bb7b9835ac6942590",
      "function": "iteratePairList(uint256,uint256,uint256,uint256,uint256,bool)",
      "arguments": [
        "0",
        "8",
        "60",
        "15",
        "1000",
        "false"
      ],
      "transaction": {
        "from": "0x71f74debb7fd42e61de32256537284e06de8812d",
        "to": "0x1cdf6aabdcd19d2ed3ac927bb7b9835ac6942590",
        "gas": "0x89aff",
        "value": "0x0",
        "input": "0x8101424d00000000000000000000000000000000000000000000000000000000000000000000000000000000000000000000000000000000000000000000000000000008000000000000000000000000000000000000000000000000000000000000003c000000000000000000000000000000000000000000000000000000000000000f00000000000000000000000000000000000000000000000000000000000003e80000000000000000000000000000000000000000000000000000000000000000",
        "nonce": "0x298",
        "chainId": "0x89"
      },
      "additionalContracts": [],
      "isFixedGasLimit": false
    }
  ],
  "receipts": [
    {
      "status": "0x1",
      "cumulativeGasUsed": "0x15b792f",
      "logs": [
        {
          "address": "0x0000000000000000000000000000000000001010",
          "topics": [
            "0x4dfe1bbbcf077ddc3e01291eea2d5c70c2b422b415d95645b9adcfd678cb1d63",
            "0x0000000000000000000000000000000000000000000000000000000000001010",
            "0x00000000000000000000000071f74debb7fd42e61de32256537284e06de8812d",
            "0x000000000000000000000000272cc48bb89900689c7e51c6a3ab039ec5cc80f9"
          ],
          "data": "0x00000000000000000000000000000000000000000000000000264208eb7eb9680000000000000000000000000000000000000000000000001b7db7b01edd2f8b00000000000000000000000000000000000000000000000a462076e41672cd3b0000000000000000000000000000000000000000000000001b5775a7335e762300000000000000000000000000000000000000000000000a4646b8ed01f186a3",
          "blockHash": "0x4e21c47d209e4890c5814015f48fbf58d80ddf319cc3f9b0ecd5b8ed4ce85dee",
          "blockNumber": "0x4192a31",
          "transactionHash": "0x7c964a01fe2ce3e97b500ec0ea7d7b903e7e53640dcd5c1cead07fd2e042b9ee",
          "transactionIndex": "0x80",
          "logIndex": "0x565",
          "removed": false
        }
      ],
      "logsBloom": "0x00000000000000000000000000000000000000000000000000000000000000000000000000000000200000000000000000008000000000000000080000000000000000000000000000000000000000800000000000000000000100000000000000000000000000000000000000000000000000000000000080000000000000000000000000000000000000000000000000000000000000000000000000080000200000000000000000000000000000040000000000000000000000000000004000000000000000000001000000000000000000000000000000100008000000000000000000000000000000000400000000000000000000000000000000100000",
      "type": "0x2",
      "transactionHash": "0x7c964a01fe2ce3e97b500ec0ea7d7b903e7e53640dcd5c1cead07fd2e042b9ee",
      "transactionIndex": "0x80",
      "blockHash": "0x4e21c47d209e4890c5814015f48fbf58d80ddf319cc3f9b0ecd5b8ed4ce85dee",
      "blockNumber": "0x4192a31",
      "gasUsed": "0x63aef",
      "effectiveGasPrice": "0x145edf055d",
      "from": "0x71f74debb7fd42e61de32256537284e06de8812d",
      "to": "0x1cdf6aabdcd19d2ed3ac927bb7b9835ac6942590",
      "contractAddress": null
    }
  ],
  "libraries": [],
  "pending": [],
  "returns": {},
  "timestamp": 1741353855,
  "chain": 137,
  "commit": "c00d083"
}