{
  "transactions": [
    {
      "hash": "0xcc636ab6b5ccd84c83ebb02b7c9d3eeb620fd646ffe3fad380600b62d391ddce",
      "transactionType": "CALL",
      "contractName": null,
      "contractAddress": "0x1cdf6aabdcd19d2ed3ac927bb7b9835ac6942590",
      "function": "iteratePairList(uint256,uint256,uint256,uint256,uint256,bool)",
      "arguments": [
        "0",
        "8",
        "60",
        "20",
        "1000",
        "false"
      ],
      "transaction": {
        "from": "0x71f74debb7fd42e61de32256537284e06de8812d",
        "to": "0x1cdf6aabdcd19d2ed3ac927bb7b9835ac6942590",
        "gas": "0x89aff",
        "value": "0x0",
        "input": "0x8101424d00000000000000000000000000000000000000000000000000000000000000000000000000000000000000000000000000000000000000000000000000000008000000000000000000000000000000000000000000000000000000000000003c000000000000000000000000000000000000000000000000000000000000001400000000000000000000000000000000000000000000000000000000000003e80000000000000000000000000000000000000000000000000000000000000000",
        "nonce": "0x297",
        "chainId": "0x89"
      },
      "additionalContracts": [],
      "isFixedGasLimit": false
    }
  ],
  "receipts": [
    {
      "status": "0x1",
      "cumulativeGasUsed": "0xa46a6c",
      "logs": [
        {
          "address": "0x0000000000000000000000000000000000001010",
          "topics": [
            "0x4dfe1bbbcf077ddc3e01291eea2d5c70c2b422b415d95645b9adcfd678cb1d63",
            "0x0000000000000000000000000000000000000000000000000000000000001010",
            "0x00000000000000000000000071f74debb7fd42e61de32256537284e06de8812d",
            "0x0000000000000000000000009ead03f7136fc6b4bdb0780b00a1c14ae5a8b6d0"
          ],
          "data": "0x000000000000000000000000000000000000000000000000002a8e50a8bd51180000000000000000000000000000000000000000000000001bfe11e9fdfc192b00000000000000000000000000000000000000000000088e2ea6fcb719e92d750000000000000000000000000000000000000000000000001bd38399553ec81300000000000000000000000000000000000000000000088e2ed18b07c2a67e8d",
          "blockHash": "0x4ec1a05bf78cb94fd678bd21e03a33bdafdc7ed9afd4b8364c5d8a00fe3985e0",
          "blockNumber": "0x4192a00",
          "transactionHash": "0xcc636ab6b5ccd84c83ebb02b7c9d3eeb620fd646ffe3fad380600b62d391ddce",
          "transactionIndex": "0x51",
          "logIndex": "0x162",
          "removed": false
        }
      ],
      "logsBloom": "0x00000000000000000000000000000000000000000000000000000000000000000000000000000000000000000000000000008000000000000000000000000000000000000000000000000000000000800000000000000000000100000000000000000000000000000000000000000000000000000000000080000000000000000040000000040000000000000000000000000000000000000000000000080000200000000000000000000000000000000000000000000000000000000000004000000000000000000001000000000000000000000000000000120008000000000000000000000000000000000400000000000000000000000000000000100000",
      "type": "0x2",
      "transactionHash": "0xcc636ab6b5ccd84c83ebb02b7c9d3eeb620fd646ffe3fad380600b62d391ddce",
      "transactionIndex": "0x51",
      "blockHash": "0x4ec1a05bf78cb94fd678bd21e03a33bdafdc7ed9afd4b8364c5d8a00fe3985e0",
      "blockNumber": "0x4192a00",
      "gasUsed": "0x63aef",
      "effectiveGasPrice": "0x149a043060",
      "from": "0x71f74debb7fd42e61de32256537284e06de8812d",
      "to": "0x1cdf6aabdcd19d2ed3ac927bb7b9835ac6942590",
      "contractAddress": null
    }
  ],
  "libraries": [],
  "pending": [],
  "returns": {},
  "timestamp": 1741353751,
  "chain": 137,
  "commit": "c00d083"
}