{
  "transactions": [
    {
      "hash": "0xbcbc88806cc0de3a339500d39e71e2cbdf5764e2fecfd49461d0315848b62b1f",
      "transactionType": "CALL",
      "contractName": null,
      "contractAddress": "0x1cdf6aabdcd19d2ed3ac927bb7b9835ac6942590",
      "function": "iteratePairList(uint256,uint256,uint256,uint256,uint256,bool)",
      "arguments": [
        "0",
        "4",
        "50",
        "50",
        "1000",
        "false"
      ],
      "transaction": {
        "from": "0x71f74debb7fd42e61de32256537284e06de8812d",
        "to": "0x1cdf6aabdcd19d2ed3ac927bb7b9835ac6942590",
        "gas": "0x4fe94",
        "value": "0x0",
        "input": "0x8101424d000000000000000000000000000000000000000000000000000000000000000000000000000000000000000000000000000000000000000000000000000000040000000000000000000000000000000000000000000000000000000000000032000000000000000000000000000000000000000000000000000000000000003200000000000000000000000000000000000000000000000000000000000003e80000000000000000000000000000000000000000000000000000000000000000",
        "nonce": "0x28e",
        "chainId": "0x89"
      },
      "additionalContracts": [],
      "isFixedGasLimit": false
    }
  ],
  "receipts": [
    {
      "status": "0x1",
      "cumulativeGasUsed": "0x14fb036",
      "logs": [
        {
          "address": "0x0000000000000000000000000000000000001010",
          "topics": [
            "0x4dfe1bbbcf077ddc3e01291eea2d5c70c2b422b415d95645b9adcfd678cb1d63",
            "0x0000000000000000000000000000000000000000000000000000000000001010",
            "0x00000000000000000000000071f74debb7fd42e61de32256537284e06de8812d",
            "0x000000000000000000000000127685d6dd6683085da4b6a041efcef1681e5c9c"
          ],
          "data": "0x000000000000000000000000000000000000000000000000001833efc91beca400000000000000000000000000000000000000000000000020864af37da90a220000000000000000000000000000000000000000000007f18656110723e43f31000000000000000000000000000000000000000000000000206e1703b48d1d7e0000000000000000000000000000000000000000000007f1866e44f6ed002bd5",
          "blockHash": "0xd4c7dd655415eaa157fbd74006efe478bc4eea423245beb3370916d5573d3f2d",
          "blockNumber": "0x4192861",
          "transactionHash": "0xbcbc88806cc0de3a339500d39e71e2cbdf5764e2fecfd49461d0315848b62b1f",
          "transactionIndex": "0xab",
          "logIndex": "0x2e2",
          "removed": false
        }
      ],
      "logsBloom": "0x00000000000000000000000000000000000000000000000000000000000000000000000000000000000000000000000000008000000000000000000000000000000000000000000000000000000000800000000000000000000100000000000000000000000000000000000000000000000000000000000080000000000000000000000000000000000000000000000000000000000000000000000000080000200000000000000000000000000000000000000000000000000000000000004000000000000000000001000000000000080000000000000000100008000000000000000000000000000000000400000000000000000004000000000000100020",
      "type": "0x2",
      "transactionHash": "0xbcbc88806cc0de3a339500d39e71e2cbdf5764e2fecfd49461d0315848b62b1f",
      "transactionIndex": "0xab",
      "blockHash": "0xd4c7dd655415eaa157fbd74006efe478bc4eea423245beb3370916d5573d3f2d",
      "blockNumber": "0x4192861",
      "gasUsed": "0x39dac",
      "effectiveGasPrice": "0xe64245c1d",
      "from": "0x71f74debb7fd42e61de32256537284e06de8812d",
      "to": "0x1cdf6aabdcd19d2ed3ac927bb7b9835ac6942590",
      "contractAddress": null
    }
  ],
  "libraries": [],
  "pending": [],
  "returns": {},
  "timestamp": 1741352868,
  "chain": 137,
  "commit": "c00d083"
}