{
  "transactions": [
    {
      "hash": "0xf8542793b1cfff6b905f7cf6b8fa736847b50668a4cc6a00fdf61a7dd5a366a8",
      "transactionType": "CALL",
      "contractName": null,
      "contractAddress": "0x8dc20ce305ff565f7c6ff8e8d277b86174515c47",
      "function": "addTokenPair(address,address)",
      "arguments": [
        "0xe9e7CEA3DedcA5984780Bafc599bD69ADd087D56",
        "0x55d398326f99059fF775485246999027B3197955"
      ],
      "transaction": {
        "from": "0x71f74debb7fd42e61de32256537284e06de8812d",
        "to": "0x8dc20ce305ff565f7c6ff8e8d277b86174515c47",
        "gas": "0x1c6dc7",
        "value": "0x0",
        "input": "0xa7c87ec2000000000000000000000000e9e7cea3dedca5984780bafc599bd69add087d5600000000000000000000000055d398326f99059ff775485246999027b3197955",
        "nonce": "0x2ba",
        "chainId": "0x38"
      },
      "additionalContracts": [],
      "isFixedGasLimit": false
    },
    {
      "hash": "0x5ac40111b7735fb5371e971d109ce8e6c8495038802208cf7a64edb9326aa085",
      "transactionType": "CALL",
      "contractName": null,
      "contractAddress": "0x8dc20ce305ff565f7c6ff8e8d277b86174515c47",
      "function": "addTokenPair(address,address)",
      "arguments": [
        "0xe9e7CEA3DedcA5984780Bafc599bD69ADd087D56",
        "0x8AC76a51cc950d9822D68b83fE1Ad97B32Cd580d"
      ],
      "transaction": {
        "from": "0x71f74debb7fd42e61de32256537284e06de8812d",
        "to": "0x8dc20ce305ff565f7c6ff8e8d277b86174515c47",
        "gas": "0x19ccd1",
        "value": "0x0",
        "input": "0xa7c87ec2000000000000000000000000e9e7cea3dedca5984780bafc599bd69add087d560000000000000000000000008ac76a51cc950d9822d68b83fe1ad97b32cd580d",
        "nonce": "0x2bb",
        "chainId": "0x38"
      },
      "additionalContracts": [],
      "isFixedGasLimit": false
    }
  ],
  "receipts": [
    {
      "status": "0x1",
      "cumulativeGasUsed": "0xa26473",
      "logs": [],
      "logsBloom": "0x00000000000000000000000000000000000000000000000000000000000000000000000000000000000000000000000000000000000000000000000000000000000000000000000000000000000000000000000000000000000000000000000000000000000000000000000000000000000000000000000000000000000000000000000000000000000000000000000000000000000000000000000000000000000000000000000000000000000000000000000000000000000000000000000000000000000000000000000000000000000000000000000000000000000000000000000000000000000000000000000000000000000000000000000000000000",
      "type": "0x0",
      "transactionHash": "0xf8542793b1cfff6b905f7cf6b8fa736847b50668a4cc6a00fdf61a7dd5a366a8",
      "transactionIndex": "0x59",
      "blockHash": "0xb05d2ea1d0371725830f182e395d982ecd630cc4b43549245da5af86ce9cb2c4",
      "blockNumber": "0x2d135f9",
      "gasUsed": "0x137043",
      "effectiveGasPrice": "0x3b9aca00",
      "from": "0x71f74debb7fd42e61de32256537284e06de8812d",
      "to": "0x8dc20ce305ff565f7c6ff8e8d277b86174515c47",
      "contractAddress": null
    },
    {
      "status": "0x1",
      "cumulativeGasUsed": "0xb5864b",
      "logs": [],
      "logsBloom": "0x00000000000000000000000000000000000000000000000000000000000000000000000000000000000000000000000000000000000000000000000000000000000000000000000000000000000000000000000000000000000000000000000000000000000000000000000000000000000000000000000000000000000000000000000000000000000000000000000000000000000000000000000000000000000000000000000000000000000000000000000000000000000000000000000000000000000000000000000000000000000000000000000000000000000000000000000000000000000000000000000000000000000000000000000000000000",
      "type": "0x0",
      "transactionHash": "0x5ac40111b7735fb5371e971d109ce8e6c8495038802208cf7a64edb9326aa085",
      "transactionIndex": "0x5b",
      "blockHash": "0xb05d2ea1d0371725830f182e395d982ecd630cc4b43549245da5af86ce9cb2c4",
      "blockNumber": "0x2d135f9",
      "gasUsed": "0x12adc5",
      "effectiveGasPrice": "0x3b9aca00",
      "from": "0x71f74debb7fd42e61de32256537284e06de8812d",
      "to": "0x8dc20ce305ff565f7c6ff8e8d277b86174515c47",
      "contractAddress": null
    }
  ],
  "libraries": [],
  "pending": [],
  "returns": {},
  "timestamp": 1741377426,
  "chain": 56,
  "commit": "0899a7e"
}