{
  "transactions": [
    {
      "hash": "0x28c2440fd3b98451740542b5dd0468f91812a0361a9e99ad8f257e235bd686e5",
      "transactionType": "CALL",
      "contractName": null,
      "contractAddress": "0x8dc20ce305ff565f7c6ff8e8d277b86174515c47",
      "function": "addTokenPair(address,address)",
      "arguments": [
        "0x55d398326f99059fF775485246999027B3197955",
        "0x7083609fCE4d1d8Dc0C979AAb8c869Ea2C873402"
      ],
      "transaction": {
        "from": "0x71f74debb7fd42e61de32256537284e06de8812d",
        "to": "0x8dc20ce305ff565f7c6ff8e8d277b86174515c47",
        "gas": "0x19ccf4",
        "value": "0x0",
        "input": "0xa7c87ec200000000000000000000000055d398326f99059ff775485246999027b31979550000000000000000000000007083609fce4d1d8dc0c979aab8c869ea2c873402",
        "nonce": "0x2c3",
        "chainId": "0x38"
      },
      "additionalContracts": [],
      "isFixedGasLimit": false
    }
  ],
  "receipts": [
    {
      "status": "0x1",
      "cumulativeGasUsed": "0x84c491",
      "logs": [],
      "logsBloom": "0x00000000000000000000000000000000000000000000000000000000000000000000000000000000000000000000000000000000000000000000000000000000000000000000000000000000000000000000000000000000000000000000000000000000000000000000000000000000000000000000000000000000000000000000000000000000000000000000000000000000000000000000000000000000000000000000000000000000000000000000000000000000000000000000000000000000000000000000000000000000000000000000000000000000000000000000000000000000000000000000000000000000000000000000000000000000",
      "type": "0x0",
      "transactionHash": "0x28c2440fd3b98451740542b5dd0468f91812a0361a9e99ad8f257e235bd686e5",
      "transactionIndex": "0x49",
      "blockHash": "0x652c16bd61fe5607c20a9934f97d42351b62aedd62510fbde1bf32298e86dd58",
      "blockNumber": "0x2d140c9",
      "gasUsed": "0x12addf",
      "effectiveGasPrice": "0x3b9aca00",
      "from": "0x71f74debb7fd42e61de32256537284e06de8812d",
      "to": "0x8dc20ce305ff565f7c6ff8e8d277b86174515c47",
      "contractAddress": null
    }
  ],
  "libraries": [],
  "pending": [],
  "returns": {},
  "timestamp": 1741385730,
  "chain": 56,
  "commit": "9e83b4a"
}