{
  "transactions": [
    {
      "hash": "0x37b8d03cdb6bf24de168c54cfa585a3709391ed778ff642a96055a40d8742a13",
      "transactionType": "CALL",
      "contractName": null,
      "contractAddress": "0x8dc20ce305ff565f7c6ff8e8d277b86174515c47",
      "function": "addTokenPair(address,address)",
      "arguments": [
        "0x55d398326f99059fF775485246999027B3197955",
        "0x87266413e5b64DB72f11bB6795Ee976545DBAf43"
      ],
      "transaction": {
        "from": "0x71f74debb7fd42e61de32256537284e06de8812d",
        "to": "0x8dc20ce305ff565f7c6ff8e8d277b86174515c47",
        "gas": "0x17b41c",
        "value": "0x0",
        "input": "0xa7c87ec200000000000000000000000055d398326f99059ff775485246999027b319795500000000000000000000000087266413e5b64db72f11bb6795ee976545dbaf43",
        "nonce": "0x2bd",
        "chainId": "0x38"
      },
      "additionalContracts": [],
      "isFixedGasLimit": false
    }
  ],
  "receipts": [
    {
      "status": "0x1",
      "cumulativeGasUsed": "0x64f207",
      "logs": [],
      "logsBloom": "0x00000000000000000000000000000000000000000000000000000000000000000000000000000000000000000000000000000000000000000000000000000000000000000000000000000000000000000000000000000000000000000000000000000000000000000000000000000000000000000000000000000000000000000000000000000000000000000000000000000000000000000000000000000000000000000000000000000000000000000000000000000000000000000000000000000000000000000000000000000000000000000000000000000000000000000000000000000000000000000000000000000000000000000000000000000000",
      "type": "0x0",
      "transactionHash": "0x37b8d03cdb6bf24de168c54cfa585a3709391ed778ff642a96055a40d8742a13",
      "transactionIndex": "0x42",
      "blockHash": "0x7d8dabf64e9dcef2a5500cb3fd2d8f13e972a34e8fa4da4e717bce23fcc5860f",
      "blockNumber": "0x2d137ca",
      "gasUsed": "0x112934",
      "effectiveGasPrice": "0x3b9aca00",
      "from": "0x71f74debb7fd42e61de32256537284e06de8812d",
      "to": "0x8dc20ce305ff565f7c6ff8e8d277b86174515c47",
      "contractAddress": null
    }
  ],
  "libraries": [],
  "pending": [],
  "returns": {},
  "timestamp": 1741378821,
  "chain": 56,
  "commit": "01e97e7"
}