{
  "transactions": [
    {
      "hash": "0xdf91c4cee46ff8a3336ea2e0d21b85746ab166425047c8561e2770e9aaa8ddd1",
      "transactionType": "CALL",
      "contractName": null,
      "contractAddress": "0x8dc20ce305ff565f7c6ff8e8d277b86174515c47",
      "function": "addTokenPair(address,address)",
      "arguments": [
        "0x55d398326f99059fF775485246999027B3197955",
        "0x1CE0c2827e2eF14D5C4f29a091d735A204794041"
      ],
      "transaction": {
        "from": "0x71f74debb7fd42e61de32256537284e06de8812d",
        "to": "0x8dc20ce305ff565f7c6ff8e8d277b86174515c47",
        "gas": "0x18c1d7",
        "value": "0x0",
        "input": "0xa7c87ec200000000000000000000000055d398326f99059ff775485246999027b31979550000000000000000000000001ce0c2827e2ef14d5c4f29a091d735a204794041",
        "nonce": "0x2c1",
        "chainId": "0x38"
      },
      "additionalContracts": [],
      "isFixedGasLimit": false
    }
  ],
  "receipts": [
    {
      "status": "0x1",
      "cumulativeGasUsed": "0x782d1d",
      "logs": [],
      "logsBloom": "0x00000000000000000000000000000000000000000000000000000000000000000000000000000000000000000000000000000000000000000000000000000000000000000000000000000000000000000000000000000000000000000000000000000000000000000000000000000000000000000000000000000000000000000000000000000000000000000000000000000000000000000000000000000000000000000000000000000000000000000000000000000000000000000000000000000000000000000000000000000000000000000000000000000000000000000000000000000000000000000000000000000000000000000000000000000000",
      "type": "0x0",
      "transactionHash": "0xdf91c4cee46ff8a3336ea2e0d21b85746ab166425047c8561e2770e9aaa8ddd1",
      "transactionIndex": "0x41",
      "blockHash": "0x71d4c5a47f564ada74a4a34a2815c2522505f42a9f84788242de0da3437fe802",
      "blockNumber": "0x2d13f4b",
      "gasUsed": "0x11ec7c",
      "effectiveGasPrice": "0x3b9aca00",
      "from": "0x71f74debb7fd42e61de32256537284e06de8812d",
      "to": "0x8dc20ce305ff565f7c6ff8e8d277b86174515c47",
      "contractAddress": null
    }
  ],
  "libraries": [],
  "pending": [],
  "returns": {},
  "timestamp": 1741384583,
  "chain": 56,
  "commit": "9e83b4a"
}