{
  "transactions": [
    {
      "hash": "0x88671df5539e7dc269bfe15f869bffea2ee4eee758a005255311ad5e4b3c7fbb",
      "transactionType": "CALL",
      "contractName": null,
      "contractAddress": "0x8dc20ce305ff565f7c6ff8e8d277b86174515c47",
      "function": "addTokenPair(address,address)",
      "arguments": [
        "0x55d398326f99059fF775485246999027B3197955",
        "0xbA2aE424d960c26247Dd6c32edC70B295c744C43"
      ],
      "transaction": {
        "from": "0x71f74debb7fd42e61de32256537284e06de8812d",
        "to": "0x8dc20ce305ff565f7c6ff8e8d277b86174515c47",
        "gas": "0x18c08b",
        "value": "0x0",
        "input": "0xa7c87ec200000000000000000000000055d398326f99059ff775485246999027b3197955000000000000000000000000ba2ae424d960c26247dd6c32edc70b295c744c43",
        "nonce": "0x2c0",
        "chainId": "0x38"
      },
      "additionalContracts": [],
      "isFixedGasLimit": false
    }
  ],
  "receipts": [
    {
      "status": "0x1",
      "cumulativeGasUsed": "0x5ee632",
      "logs": [],
      "logsBloom": "0x00000000000000000000000000000000000000000000000000000000000000000000000000000000000000000000000000000000000000000000000000000000000000000000000000000000000000000000000000000000000000000000000000000000000000000000000000000000000000000000000000000000000000000000000000000000000000000000000000000000000000000000000000000000000000000000000000000000000000000000000000000000000000000000000000000000000000000000000000000000000000000000000000000000000000000000000000000000000000000000000000000000000000000000000000000000",
      "type": "0x0",
      "transactionHash": "0x88671df5539e7dc269bfe15f869bffea2ee4eee758a005255311ad5e4b3c7fbb",
      "transactionIndex": "0x35",
      "blockHash": "0x9054cc232dd17042d242c515f8f69ce881aa29e54e86e0efd8d053b0332616ba",
      "blockNumber": "0x2d13f0e",
      "gasUsed": "0x11eb8c",
      "effectiveGasPrice": "0x3b9aca00",
      "from": "0x71f74debb7fd42e61de32256537284e06de8812d",
      "to": "0x8dc20ce305ff565f7c6ff8e8d277b86174515c47",
      "contractAddress": null
    }
  ],
  "libraries": [],
  "pending": [],
  "returns": {},
  "timestamp": 1741384401,
  "chain": 56,
  "commit": "9e83b4a"
}