{
  "transactions": [
    {
      "hash": "0x775206ec13281e1210b0b809620505c1dc3eb7ddae8722bb83b328ad87499b2a",
      "transactionType": "CALL",
      "contractName": null,
      "contractAddress": "0x8dc20ce305ff565f7c6ff8e8d277b86174515c47",
      "function": "addTokenPair(address,address)",
      "arguments": [
        "0x55d398326f99059fF775485246999027B3197955",
        "0x7130d2A12B9BCbFAe4f2634d864A1Ee1Ce3Ead9c"
      ],
      "transaction": {
        "from": "0x71f74debb7fd42e61de32256537284e06de8812d",
        "to": "0x8dc20ce305ff565f7c6ff8e8d277b86174515c47",
        "gas": "0x1b35b8",
        "value": "0x0",
        "input": "0xa7c87ec200000000000000000000000055d398326f99059ff775485246999027b31979550000000000000000000000007130d2a12b9bcbfae4f2634d864a1ee1ce3ead9c",
        "nonce": "0x2a4",
        "chainId": "0x38"
      },
      "additionalContracts": [],
      "isFixedGasLimit": false
    },
    {
      "hash": "0xfa97d23d4152d254c488db3b79fe6ef1c1465532bc9099ceefed28c2c2929e90",
      "transactionType": "CALL",
      "contractName": null,
      "contractAddress": "0x8dc20ce305ff565f7c6ff8e8d277b86174515c47",
      "function": "addTokenPair(address,address)",
      "arguments": [
        "0x55d398326f99059fF775485246999027B3197955",
        "0x2170Ed0880ac9A755fd29B2688956BD959F933F8"
      ],
      "transaction": {
        "from": "0x71f74debb7fd42e61de32256537284e06de8812d",
        "to": "0x8dc20ce305ff565f7c6ff8e8d277b86174515c47",
        "gas": "0x1c6f61",
        "value": "0x0",
        "input": "0xa7c87ec200000000000000000000000055d398326f99059ff775485246999027b31979550000000000000000000000002170ed0880ac9a755fd29b2688956bd959f933f8",
        "nonce": "0x2a5",
        "chainId": "0x38"
      },
      "additionalContracts": [],
      "isFixedGasLimit": false
    }
  ],
  "receipts": [
    {
      "status": "0x1",
      "cumulativeGasUsed": "0x72b03c",
      "logs": [],
      "logsBloom": "0x00000000000000000000000000000000000000000000000000000000000000000000000000000000000000000000000000000000000000000000000000000000000000000000000000000000000000000000000000000000000000000000000000000000000000000000000000000000000000000000000000000000000000000000000000000000000000000000000000000000000000000000000000000000000000000000000000000000000000000000000000000000000000000000000000000000000000000000000000000000000000000000000000000000000000000000000000000000000000000000000000000000000000000000000000000000",
      "type": "0x0",
      "transactionHash": "0x775206ec13281e1210b0b809620505c1dc3eb7ddae8722bb83b328ad87499b2a",
      "transactionIndex": "0x51",
      "blockHash": "0x77fbce48b003d77a6eedbe7af6298bc732f50309b8ccc38bd11b8177f0d82448",
      "blockNumber": "0x2d12a0f",
      "gasUsed": "0x13b30f",
      "effectiveGasPrice": "0x3b9aca00",
      "from": "0x71f74debb7fd42e61de32256537284e06de8812d",
      "to": "0x8dc20ce305ff565f7c6ff8e8d277b86174515c47",
      "contractAddress": null
    },
    {
      "status": "0x1",
      "cumulativeGasUsed": "0x862197",
      "logs": [],
      "logsBloom": "0x00000000000000000000000000000000000000000000000000000000000000000000000000000000000000000000000000000000000000000000000000000000000000000000000000000000000000000000000000000000000000000000000000000000000000000000000000000000000000000000000000000000000000000000000000000000000000000000000000000000000000000000000000000000000000000000000000000000000000000000000000000000000000000000000000000000000000000000000000000000000000000000000000000000000000000000000000000000000000000000000000000000000000000000000000000000",
      "type": "0x0",
      "transactionHash": "0xfa97d23d4152d254c488db3b79fe6ef1c1465532bc9099ceefed28c2c2929e90",
      "transactionIndex": "0x52",
      "blockHash": "0x77fbce48b003d77a6eedbe7af6298bc732f50309b8ccc38bd11b8177f0d82448",
      "blockNumber": "0x2d12a0f",
      "gasUsed": "0x13715b",
      "effectiveGasPrice": "0x3b9aca00",
      "from": "0x71f74debb7fd42e61de32256537284e06de8812d",
      "to": "0x8dc20ce305ff565f7c6ff8e8d277b86174515c47",
      "contractAddress": null
    }
  ],
  "libraries": [],
  "pending": [],
  "returns": {},
  "timestamp": 1741368276,
  "chain": 56,
  "commit": "b9bfebf"
}